:100000000C9485240C94AD240C94AD240C94AD2454
:100010000C94AD240C94AD240C94AD240C94AD241C
:100020000C94AD240C94AD240C94642D0C94D62D1A
:100030000C94AD240C94AD240C94AD240C94AD24FC
:100040000C94AD240C94AD240C94AD240C94AD24EC
:100050000C94AD240C94432C0C94AD240C94552B8F
:100060000C94AD240C94AD240C94AD240C94AD24CC
:100070000C94AD240C94792C0C94AD240C94AD24E8
:100080000C94AD240C94AD240C94AD240C94AD24AC
:100090000C949F2B0C94AD240C94B82C0C94AD2490
:1000A0000C94AD240C94AD240C94AD245B255E25FA
:1000B0004D25512557257F257F257F2562256625DE
:1000C0006A25702574257F257A2507060504010019
:1000D000080A0B0C0D0900000000240027002A006C
:1000E0002D00300000000000250028002B002E000D
:1000F0003100000000002300260029002C002F0002
:1001000004040404040304050202020204030202BC
:10011000020206060606060604040202020404049D
:1001200008020110408040102040804080080204F6
:10013000018040201002011080102040402000006B
:10014000000200090F0000030401000C0000000081
:1001500000000000000000000000000000080B008C
:10016000020202010009040000010202000005244D
:1001700000100105240101010424020605240600E3
:10018000010705810310004009040100020A000074
:10019000000705020240000007058302400000043A
:1001A00003090412010002EF0201404123368000DE
:1001B000010102030141726475696E6F204C4C436A
:1001C0000041726475696E6F204C656F6E61726478
:1001D0006F0001000002000003000400051A341043
:1001E000BEA1BF0A4B5C585A55555126CA9CA8BFA0
:1001F0000749FF9DA2ADD3476350542CCAA2A8A5BE
:10020000A4A7A4A5ADCA15595D42EEA0A8B1B1DA64
:10021000123949524C3D4C4E2C131D46552FF2F5C8
:10022000335D55444C575450564B4E4845413D2B39
:100230001B213A352D35292412E4BCB5A7A4B4AC52
:10024000A2ADACA0A1A0A1B8114EF59F9EA2A0A303
:10025000A6B4E510EFD50405A2A0ACA5D0305F5B35
:100260005638EFC2B1A4ACAEB0C3CCBBC1FD48554B
:10027000565E4FF6B1D1223F3A4F615841F0B32557
:10028000664E4B3F395B37D4A8ACD83B622BEDB5FB
:10029000B0F02C565844454418BCC7201DFF2E1FF3
:1002A0002856412207E61B3A16010900BEC32F2932
:1002B000BBBAD2A39FAFDC3E5A3C433F03C7ACEA74
:1002C000EDA1A6F5292B1DEAAA9FA4B9C7B6AFAF29
:1002D000A9055E4B3F5D4E464F341BF3AF9FA5AA69
:1002E000DE475A53564B49471CC5A0B5EF35594A0E
:1002F00026F7D7F92A4B4D15BD9CBA10564514ED7B
:10030000EF1E394A46220FFC1D23FCDFFE2B382945
:1003100013FD052F321C09F911F8A19DACA5A2AE61
:10032000CAC4FE01D6171AA79DA39EA3A2A4A1A288
:10033000A2A4A9C5ECF3EF08E7A7D83D572CD9B57F
:10034000B5D51E26CDA5D904301EDAFD18130BEA4B
:10035000FBEFBBE0345D625D605C5D5D5F5D5E5CDC
:10036000562CD0A0BCEC1C3A565F555633D6A2A9E9
:10037000C4EB0B00FFFD0A505D3708D6A7A1A9B555
:10038000F25054271E170AD8A6A5CCDFEBC9ABA79D
:10039000AFAEB5BABECDE7FB0C03D7C1C9CCF032C6
:1003A0005A3E31615F565728DD0628FB302EFE4548
:1003B0006438F4B5C800313C3754615D605D5D4818
:1003C0000ED6D9F01004105B60515C523D2C302EDB
:1003D0001DEAC9F724F3D9E706221AF2E7E9D2A900
:1003E0009EA6A2A3A5A5A6AFD005140B0CD3A0B3BF
:1003F000B2ADBDB9C6FE404919EAD2F1252309F1D3
:10040000D2BFC4D2EF416339D7B5DCE0FE06E5DCEC
:100410000E5A6134E5E2343F1BDCDB08485B1DB655
:10042000C7D8D0235D582220605D1CCAC7F8EEF4FF
:10043000F0C9B8E6F21A0EDFD6CEC4D7D4D3D7D7D8
:10044000E514411FDCD4E0DDE2ED1050603BEECB63
:10045000E4DEE5EAE4E8EEF2F6EFEBF1FA0C16F48E
:10046000EB00062D57595D5B3A07E6EB042B5C5B0E
:100470004621E3DBF3EAE8F3F5245A6158320A3601
:100480002E1C452F112922FE11462FD4CBD7CCE1AB
:10049000FE3B6152321CE4C0D6DBF340541FEADA63
:1004A000C5CBD9D0EE285C47FBD4CDDE0C12DCD016
:1004B00001FAD0D2DCCFD9DFE40406E3D5E6DAE0F6
:1004C000E7E0E5EAFB2B4A15DCEAF3FBFFEA053738
:1004D000443926F7CEEFECE0F3E3E7EAEAEBF3FE8C
:1004E0000E0AF10F54625E5C2DEA074C5B5612D186
:1004F000D7D5D0E0D7D8E0F10C220DE8D5D8E40666
:100500003C555A605E3DE3C2DBD0FC4943FDCFC29F
:10051000C3CBCCD2F02D5B461D1140604AFAB7AE7A
:10052000BBBEC5DBFEFFC3BCE4034B5D514B3F4587
:10053000551BC4E630423A24F9B5A3B5B0B0C702A2
:10054000505D27CAA1B5CA09463516274157501A2A
:10055000DEE5050C172F2D0CE7F0080B2621F1F036
:10056000C7A1A6A7AAD91512F2C8A4C7040D101ACC
:10057000D4A4BAEE0700E2DAFD171B242D3334169B
:10058000CDA6AAB6CAD2FB312700C0A4AAAAABC77F
:1005900001201A231EEBAFABC4FC3D503F3215DEE9
:1005A000E1F2ED0C433B303414F8F6050EFCD0AC10
:1005B000AAADBBE7E1D2F8070D32382B2F2822294C
:1005C0002420221C1810F1C5B5B8BEE201C9ABB495
:1005D000D3142B15F7E8EDDBBFEA1F06EFD6B2B058
:1005E000B5D01B2D151D1C131E1917160EF6D3C1E1
:1005F000D1CDCC0812E1DCF309191001E4CAD1C64F
:10060000B0B2B4C9152F0A0AEEE111251618180563
:10061000FADDDF0104041710090DF6CFB5C100247F
:1006200007FDD5B4CDEDF3EDF4F2091B0D00E3CADF
:10063000F91C0A0E13F9F9FAE7E20611060CF9DFC4
:10064000D4C5C9F50A0517100811FAD0B8BABDDB30
:100650001921111203E3CED4F301EDE10F25131C90
:100660001B0D06EADFEFE0C4E00E13F9E5FE1F21E3
:100670001B1F1714100A0E0F04F8DBC3D6EAF8127A
:10068000170B0BE4BDC5F2161A1E180D0406202028
:100690001C1E171014171807F2D4C3C6D4D1D3E008
:1006A000E5FC08F2F1051E220E041A2C2423250F66
:1006B000FCE5D9CBC6D1DBEF0512131907DAC8F474
:1006C0002A2E11F1E4061F2A35312B2E2B2A291D43
:1006D000F8C9C5CBD6072C04D2E9110AE3C8CFF676
:1006E00028373033332F2921242F18FF040AFBE346
:1006F000E3F3F503191C151F2C323021F8CECCD0B2
:10070000DB041909F3EEF8153233230CF9E9E60C92
:100710002A2A2D28201CF3DBE9F0E9E7D7D5F10CD4
:100720001E2E302F28100B16131F1EF3E0E0E2F8E8
:10073000F9DBDAECF80D202005F405161D1A202E41
:100740002F2E2A24282C281F1C2524160B04FDEFED
:10075000E7F2F7EDEAE2DDE5EFFF0CFEE6DFEBF8AE
:10076000111D0C0D1618292C2A2806DFF6242B2B18
:100770002A281A0B03F9F2F4F9030402FFFBF8022A
:1007800011171B0EEADDEAEF032425211C141106C4
:10079000F90517100C07031518FAE7E9F600FF0929
:1007A0001B201801FC1C242016FEF2FD0A09FFF490
:1007B000EBE8EAECF1F5F9040D0B03060E0F090A5C
:1007C0000D0900FF0605FE081309F9FE1115161F95
:1007D0001F1A1003F5ECECE9ECEFEDECF3F7F8FE83
:1007E00005020B1C1801F4F0EEF300141C140D0BA1
:1007F00001F0EEF0F300161A180DF6F0F4F1F7FC24
:10080000FF0D1900FFFF00000100FC00FEFF07FDC7
:10081000F908FEF50807FAFCFEFCFE0408FCFB06DE
:10082000F9FA0AFFF9FF0306FAFC03FA0405F700D8
:1008300004FF00FB000500FCFA0307FCFAFF0203BB
:10084000FFFFFEFD0200FE01FFFE0101FFFDFF04B0
:1008500000FC0000FF000000000001FEFC0104009D
:10086000FEFBFE05000302F3FE03FF0D02EFFD0693
:10087000FEFF0700F5FB0907FDFEF2F6190FEFED8D
:10088000F91210F8F4F71009E6070EF705F3EF1464
:100890001000F1F00A08FDFEF9FE0907FAF703025D
:1008A000F90205F7FE0C00F2FF1302E8FD0DFF0050
:1008B0000400F6FC0FFFEF0809F30602F30B01EE4C
:1008C0000101081CEEE613FBF50CEEFE2501E9F034
:1008D000F91B11EA0001E7161EE3F413FEE8F22308
:1008E0000BE31E01D21608F20EF1060DE908FAF824
:1008F0002B01D1F01320FDE4FF0900F60E21E2D414
:100900001210FE11FDE20114FC010FF4DD0326FCC0
:10091000DF081B04F8F1F10613F9ED0F18F1E707F2
:100920000AFA0806E6F11E1AEBE50D0CF806F6EADF
:100930001B17E4F50E03FCF0FF18F8F513F4F4169A
:10094000F7F00BFE0308F30008F703FDF1130AE8C4
:100950000108FD0AF7F30CFFFF06F00212EEF21099
:100960000A0503E9EC1013FFF1F5100DF0F805FF8F
:100970000404F5FD0BFCFD07F7F801070CEFF51B70
:10098000FFEA01050C02EAFD0D02FD00FDFD03F981
:10099000FD14FAEF0A00FC06FC01FDF90BFCF30B59
:1009A00000F80D04F2FC010506F7FE05F20011FB4C
:1009B000FD03F4FF080101F6FB0E01F702FAF80D42
:1009C00008F9FCFA00070002F8F21207EB090FF32E
:1009D000F6FB030FFFF700000501F4010BFCF9041F
:1009E00001FAFE0905F8F4FE0A02FC0601F8FDFC16
:1009F000000A01F7FC0606FAFD07FCF50307FDFEF9
:100A00000501FFFCF902020002FA0309F4FB0C00E5
:100A1000FBFBFA0603FD01FCFC04030200F7FC07E4
:100A200000FC0502FAFCFD0507F6FA0902FCFC00D1
:100A300006FAFD05F6FE0EFFFC01F9FB0503FBFFC0
:100A40000901F8FE04FFFC01FDFC0501FD0502FBA8
:100A5000FA0103FA0008FEFD00FE0201FBFD03019E
:100A6000FD0302F90103FE03FEF7000802F9FF0689
:100A7000FEFCFD0003FFFFFF0004FBFA0703FAFE84
:100A800000FD0006FFFD05FCF60303FF01FE00FF6D
:100A9000FE03FFFB01010001FEFDFE0208FFF7FE61
:100AA00000000400FE00FEFCFC0509FBFB03FDFD4D
:100AB00002010100FEFBFE0602FB0102FEFBFB053C
:100AC0000801FCFAFA02040001FFFCFF010000FF2C
:100AD00001FDFC03FFFB020503FAFA00FF0306FC1D
:100AE000FBFEFD0304FFFEFDFE0201FEFEFC010A0B
:100AF00012180F05F9F3FC0A05F2F2FF0912171498
:100B00000902F7EFF4FFFCF2F6FBFF060D0903F90B
:100B1000ECE9F402FEF8FA020D14150D0904FBF6D7
:100B2000FE070403070C121308FEFDF6E9DFE9F5E2
:100B3000F5F901050A0C01F8F5EEEAEBF5FAF7FB19
:100B4000050F19180C0504FBF0F1F7FE050E14173C
:100B50001D180BFEF7ECE0DFE7F1FC09111B1E137B
:100B600001F7F1EAE5E4EDF6050E10191C0EFDF5AE
:100B7000EFE2D7DAE6F200101D2A2B1C09FEF4EB97
:100B8000E4E6EFF9040D17211F1306FEF2E5E2E695
:100B9000EFFA03091016150AFDF9F7F1ECEEF5FE70
:100BA00007101D221D1002F6EEE9E4E8F1000A0D1F
:100BB00012151005FDF6EEE5E5EEF6FF0812171921
:100BC0001103F7EEE8E3E5F0FB010A151D1E150F12
:100BD00007FDF2EAEBF5010D1A1D1B1308FEF1E803
:100BE000E1E0E6EEF4F901090D0804FDF1EBE6E6BB
:100BF000EEF702111C252821190C00F5E7E1E3EBC3
:100C0000F4FF0A1517141001F4E8E1E6F2FE0309F7
:100C1000131C1814100801F3ECEBF0F6FB08151880
:100C2000100C04FBF1E7E3E5F0F6F9020D0D080BFB
:100C300008FEF1EBECF4FD0208121C18110900F794
:100C4000EEEBE9F1FB010A1A27221A1106F6E8DE9B
:100C5000D9E5F50008161E170F0902F4E8DFDEE8F3
:100C6000F0F6FD121D1B130A02F7F0E6E6EFF4F5AD
:100C7000FD10140F080A03F9F1E7E9F40004101B52
:100C80001A130E0D00F5EBE8EFF8FEFF0D181A131E
:100C90000C04FAF4E8E1E4F5FF071925221511091F
:100CA00002FAE9E1E2ECEDF2FC04060001FBFAF6DF
:100CB000EEF3030A0204101B1208040201F9F0EE1D
:100CC000FC070D1A23271B0F0702F9E6D9DAE7F014
:100CD000F7020C0B04FFF8F7F4EAE0E3EEF1FB098E
:100CE0001B1F1509040B09FCF0EDF6010A1522255E
:100CF0001D0E0505FEECDEE5EEF4F9030D0C01F327
:100D0000F4F8FDF8EFEFF601061524200DFF0104BD
:100D100002F6EFEDF90205121611FEEEE9EDEEE82E
:100D2000E3E4F9FEFD080F0EFEF6F7040903FFFBEE
:100D3000070E14181F1600F8F7FFF6EEEDF60A126C
:100D4000181B1F0FFCF2F1F6F0EBE3EFFC040912A5
:100D50001A0BFAF4FDF9EFE9E4EFF8020A171A0B9F
:100D6000FBF2F6F1EADFE1F2030F1A2C2C1D0C0660
:100D700003FCF6EAE8EEFAFBFD0C0A03F7F9FDFBCB
:100D8000F0E4E9F2F9F905110F03FE03040901F992
:100D9000FD0C1617252E27120702FBF3E8E2E4EEFE
:100DA000F3F9020501F7F1EDEFF0ECE9EEFB020ECD
:100DB0001F251C100800FDFAF7F3FA070E13191C83
:100DC0001407F8F0EFEEEBE8EEF701080E0C05FB68
:100DD000EFE8E9F0EEEBF0FC09131A1A1308FDF343
:100DE000EEF0F0F0F806111B1F1E13FEEDE1E6EA2F
:100DF000EAE6F0020D17181B1202F3EBEFF4F2EC27
:100E0000F8081316191B0F01EEE6ECF4F3F10111CB
:100E10001F242A2410FBE8E6EDF4EFEEFC0A121181
:100E2000151006F6E5E0E5EBE3EAFA0B15192017D5
:100E300009F3E6E3EBF0E9F204151B21251C09F4A4
:100E4000E8E7EEE8E2EAFC06050C100F05F4ECF228
:100E5000FDFBF4F90811151C1B1100F3ECF2F9F974
:100E6000FC0A1B1F23231D0CF5E5DADEE2E1E6F5A3
:100E700005080C131405F2E3E0E8EEEBE5F60713C2
:100E80001B2526190EFDFBFDFDF5F4040C0C0D13BE
:100E90000DFEEEDFDEE5ECE2E4F1FBFF06150F06EA
:100EA000F8F3F90407FE0917212022251A0EFDF296
:100EB000ECF0EDEAF5040A09151710FDEBE4E4EF98
:100EC000EBE5EBF8FE0110111003F8F2F7FEF5F276
:100ED000FB0C0D0F15130E03F7ECF3FAF7F6FA04FB
:100EE000020A100F04F4E8E4F4F6F3F6030A091119
:100EF000141204F9EEECF6F5F2F90E14151B1D1D93
:100F00000EFCEBEAF0F0EEF50406111C1E1A0BFACB
:100F1000ECF0F1EBE2E9F5F7FE040801FBEDE5EC9E
:100F2000EFF0F1FD050910191E1A10FDF7FE00FA89
:100F3000FC080A0D12161209FAECEBEEECE1E5F0F2
:100F4000F2F9FF070A07F6E9EEF8F8F501091118BA
:100F50002022211E0D020104FEFC0104090F1613BC
:100F60000F02EDE3E2E0DADFE6E8ECF6FF0209016A
:100F7000F2EFF6F9F6FC061018202325251301FAE6
:100F8000FBF3EEEFF2F7FE0609111201EFEBECE2D4
:100F9000DDE2E8ECF4FF07131408000406FEFC0091
:100FA00003070F12171E1808FEFFFAF3F7FEFEFEE6
:100FB0000305090E07F7F0F3EEE9EBEEF1F9010393
:100FC0000D160CFCFB00FAF4F5F7F90104050E18F8
:100FD0001101FDFCF6F4FAFBFD030305111708FDF2
:100FE0000201F6F4F8F5F6FBFBFD0707F6EBF0EF70
:100FF000E7EBF6FD0308080D1916090507FFF903CD
:1010000006050B121217221801FD00F6EBEAE7E4C1
:10101000E8EBEBF60504FBFBFAF1F0F6F7FB030156
:1010200000101D13070B0C02020805050A080A111F
:1010300010FFF3F8F4E7E6EBF1FAFCF5FC0B0CFF1C
:10104000FC00FAF3F7FCFC0407030714150504067B
:1010500002FF0000000502FE020C0C050603FAF474
:10106000F4F1F3F3ECEBF50302FC0003FFFCFF01EA
:10107000060804060F160F080602F9F2F1F3F7F559
:10108000F2F6030C0A090804FCF8F9F8F9F8F7FA83
:10109000050A0705060701FEFEFDFAF5F4F8040D42
:1010A0000E0D0C0801FFFCFCF8F3F2F6030807082C
:1010B0000C0A02FCF8F2E9E8EAF3010A0C0C0D074D
:1010C000FFFCFAFBF6F5F8030F1513111007FFF9F3
:1010D000F4EBE7E9EEF9060F0F12130E080301FA1D
:1010E000F4EEEEF6FE0303080A0700FFFCF4EEE957
:1010F000ECF80405070D0F0B0100FDF7F3F0F70204
:101100000B0D1014110901FFFAF3EEEFF4FF0809BB
:101110000B0D0900FCFBF7F5F2F6FC060806090AC0
:1011200006FDF9F6F1EDE9EBF3FF070C0F131008DC
:10113000050300F9F6F5FD0605070B0F0B03FFFB92
:10114000F6EFEBEEF9040A0D121209FEF8F8F2ECD4
:10115000EBF1FB03090D12110804FFF9F2ECECF2BC
:10116000F9FE02060C0D07020403FFF9F6FC000568
:10117000090B0F0E090200FDF4EFEAEFF7FCFE0287
:10118000090E0A060805FCF3F5F8F9FAFA030A0A4B
:1011900001FDFFFAF2EDF5FE070D0B0F120B02FD3C
:1011A000F9F4EDEEFA03080A0D0E100B0401FAF53E
:1011B000EDEDF3F9FF0304030603FEFEFEFCF8F871
:1011C000FB00000202030B0D08FEFBF6F0EEEEF74B
:1011D000FE03060C1313090205FFF9FAFCFF0304D2
:1011E0000407080902FCFBF4EEF1FAFC0102020616
:1011F0000705FEF9F7F4F4F9FDFC000202040D0EF8
:1012000008050200FDFCFBFBFFFEFAFA0404FEFEEB
:10121000FDFE0205060C0F0A04060AFFF2EDEDEBD7
:10122000EDF1F7020506050B0D05FFFDFBF8FAFBD6
:10123000FE020301FF060702FEFDFCFAFE010507A0
:10124000070202090902FBF9F7FAFEFEFDFF02FEA2
:10125000030C0D0601FFF9F6F3F1F2F7F8F6FD06BF
:1012600009050300FCFEFF01020502FF07110E0342
:10127000FFFCF9F6F6F6FB020000070C070303007B
:10128000010000FE00FFF7F5FD0400FCFBFAFAFD8B
:10129000FFFE0201FDFD0305FFFDFBFAFCFEFBFA6C
:1012A0000001FF030E120E090500FCFAF8F9FDFB20
:1012B000F8FC06080602FFFF00FFFBFE01FEFC042F
:1012C0000C07FFFBF9F7F4F2F3F9FDFCFB01080949
:1012D0000603020001FFFF01FFFBFD070B0A0605E5
:1012E0000300FEFBF9FAFCFC000508070200FDFA0A
:1012F000F6F5F6FAFCFA010A0E0D0804FFFBF7F604
:10130000F6F7F9FA00060500FCFCFF0101030609E7
:101310000707090A05FEFBF6F3F2F4F8FE030508D9
:101320000B0D0900F9F4F3F4F4F4F9FE030B1111B9
:101330000B03FEFBF7F5F4F4FC0000050E110B05A2
:1013400000FCF8F5F6FA01060A11160E02FAF1EBA6
:10135000EAEBEEF6FC040B11150C0400F7EEE9EBDA
:10136000F1FA040E131616100701F8F3F4F1EEF17A
:10137000F8FF091617130C04FFF8F4F0EFF8010357
:10138000050E0F0701FBF5F1EDEEF4FD0200081468
:101390001307FCF5EEEEEEF1F9030B0E1922190C12
:1013A00003F9ECE4E4E9F40208101C221D1108FA28
:1013B000EEE9E9ECF0F8F9FF0D13110A01F8F0ED90
:1013C000ECEEF6FE00020C13110E05FCF6EFECED50
:1013D000FA03060D171D170E01F6F2EDEAF0F8FB01
:1013E000FC06151C190F06FBEFE7E2E9F3F8010D07
:1013F0001718150D01F7ECE6E7EFF6F6FB08141BDE
:101400001A1106FBF3EEEFF4FAFF01080D111109B2
:1014100002FDF7F1F1F8FE01050D15171103F4EBCC
:10142000E3DFE6F2FC0007111B1A0F06FCF3E9E309
:10143000E9F2F8FC06121A1A130900F6ECEAF0FABF
:10144000FE020B151D1A1206FAEFE8EAEFF6FAFE95
:10145000070F14130A00F9F3ECE8EDF2F8FF050E9C
:1014600014140C00F8F0ECECF3F8FB010A181F1B45
:101470001004FAEFE5E7EFF6FD07131D1F170B0346
:10148000FBF0EAEEF7F7F8FA020C0F0B03FBF2EAB7
:10149000E9EEF5FB030A10141309FFF7F2ECECF484
:1014A000F7FC030B151A1B1206FCF3ECECF2F8FF29
:1014B00003070F17160D03FCF5EBECF0F2F5FB0537
:1014C0000F181307FEF6EDE5E8F1F8FE020A131710
:1014D000120A03FAEFECF1F5F8F9010911151109F7
:1014E00003FFF7F6FBFD00030A1115140D03F9EDD8
:1014F000E3E5EAEFF2F7FD0610120E0602FBF3F247
:10150000F7FBFCFF050C141208FEF8F1EDEFF6FCFA
:101510000004091116130903FBEFEBEFF9FE030AB0
:101520001218191102F8EEE4E3EBF3F4F6FC050DE2
:1015300013100903F8F0EDF2F9FD040A1015171065
:1015400006FDF2E9E9F0F4F7FD040C181E180E038D
:10155000FAF1EFF2F8FD00040A111108FFF5EBE5CE
:10156000E7EDF2F7FE040D16160E05FBEEE7ECF6BE
:10157000FBFE040D161C171006FAEEEAEEF3F6F960
:10158000FD030C14130D0801F6F2F5F8FAFF040838
:1015900010151106F9ECE4E5EBF0F5FB0209121663
:1015A000120A04FAF0EEF2F3F6FF0409101511071F
:1015B000FFF3EBF1F8F9FC01040913170F0400FA2B
:1015C000F3F3F2EEF50101050C100C0D0D03F5F22D
:1015D000F8F4F3F6F1F60507030302F8F5FE06FF4B
:1015E000FB091212150AFCFFF9EDE8F1F1EDF90A19
:1015F0000C010A1614150CF6F7FDF7EFF3F7F1F7E7
:101600000A10FFF90402040BFCFA060B030309FF9E
:10161000F90009F5E1EEF8F905FFF603100E0A11DD
:1016200009F9F70906ECEFFBFB0806F6F4FFFBED02
:10163000F5FFFEFC142510020C090D0AF1E2EBF394
:10164000E9EEFCFFF80726200C110B060CFEEAEB76
:10165000F6EFECF5FBF4F40D12F9FD0507181A0688
:10166000FA0601F5F2F1E6D9F10AFBF803051422B6
:101670001A070D0DFCF0F1F1E3EC0C08FB03050D6E
:101680001710F5F300FBF4F903F9F00C160400F958
:10169000F6030CFAF0FF04FCFB0A0AF7021506FE3B
:1016A000F9F3FC0D02F2FB01FCF6FAFDE8E7060D8A
:1016B0000A0C07061A1D06FDFCF2E4E2EEE8DEF86D
:1016C0000B0C131613212B1401FCF7EDE5F0F1DFE1
:1016D000ED070B0906F9FE18170A090B03F6FC06BD
:1016E000F0E3F1F5F4F6F1F30D1B110E151609FFF9
:1016F00004F1DAE3F0F5FAF8F2041D1C14120E00FE
:10170000F2FDFFECF0FCFE0103FAFE0E0E00FD03FD
:1017100002F4F7FFF0F0FD040B0F02F8061106FBD0
:10172000FE00F3EF0202FCFCF4F7030600010F0ECB
:1017300003050F0BF8FCFAF0F0EBEFFD0500FF11CD
:101740002019101008EFEDF5EFF2F0EEF9060B049A
:10175000040D06FDFF09FEFA03FEFE00FCFB01007E
:10176000F3EBF901FDFD0C09FE0C100F0E00F5F76F
:10177000FDF9EFF6FFFFF807120200FEF9FEFCF696
:10178000FD090AFDFF0D1102FF07F3E9EDEFF9FE78
:10179000F8F90817130B0B0AFCF1FFF9EFF4F5FA4F
:1017A0000502FE030C05FAFD090D010C0CFBFCFE05
:1017B000FD01FBECE7F4FCFAFB040F040D1E140A18
:1017C00002F6F7F7EEE7F2FEFBF801160F060F053B
:1017D000F8F7F5FB0501F5F80A0E07FE0804F2FB21
:1017E00002FBF9F6F9060F08020904FCEFF903F60B
:1017F000FC06FEFBFCFB0004FDEFF6030D050311E8
:101800000703110C02F8ECE9F0F5ECF2000C0A0801
:101810001F2215130AFAEFE6E3EAF6EDEAF90E15D0
:10182000040B1001020806FFF6F1F404FFF6F800BD
:1018300004F1F30805040D0D0C0A0C060A05F1E984
:10184000EE00F7EF0104000A12110700F3F5FEF8AD
:10185000F3F20204F804110B0804FEF4F1EEEDFBC0
:10186000FAF7F70C1C0D070D0801FD0200FCF8F358
:10187000FD04FFF7FC07FEF6020B0D070909040142
:10188000F7F8FBF5E8E9FB02FBFD070E0B0A0F0971
:1018900003F8F2F5F5EFEDFB0702FF05121106085C
:1018A0000400FDFBFDFEF8F1F5060900FA050D0246
:1018B0000204FEFAF9FBFCFAF6F7060E07FAFD0E33
:1018C000080205FFFE0203FAF2F0EDFB0503FBF54B
:1018D0000A0C03090502060B02F6F3EDF5020500FA
:1018E000F30211090905FF01090A01FEF4F20004DF
:1018F000FFEBEE030100040303090E05FFF6EFF909
:101900000003F2E9FE0604070300030D0A06FFF1D7
:10191000F9030E06F1FC05020300F8F500060200CB
:10192000F6FA020B0DF6F2FF000200FAF5FE0702CE
:1019300003F8F5FD081401F1FAFF00040601030D98
:101940000A0AFFF1F2F70903F0F80308080701FC9F
:1019500006050501F1ECEE0209F4F2FE05080A0A9B
:10196000FF05090809FAF3F0FC0CFDF2F6FC000291
:1019700005FAFE090B1006FCF4F70D09F7F4F9FF60
:101980000106FEF903050E0A00F6EE020AFAF2F766
:1019900002040B05FAFEFD0103FCF6EBFB1208FB4B
:1019A000F800010508FBFCFC01070200F2F50E112E
:1019B00004FC02010208FDF9FBFF090706FAEF0229
:1019C0000BFFF1F1F4F40302FDFF010C0C0D05F027
:1019D000F70706F7F0F3F20006FF03020A0E0E0EF9
:1019E000F6F2061005F8FCF6FC04FBF9F7FE060A11
:1019F00011FFEDFA0B09FBFCF9F704FFFAF5F6FF0E
:101A0000010E08F4F70A1102FFFBF4000401FBF8D1
:101A100001030A0BF4ECFA0C060003F8010B0700B3
:101A2000F6FCFC000DFFEFF3070A0102FAFC0807C1
:101A300002F6F7F9F90D0CF8F205120704F8F1FBBC
:101A4000FEFFF6F6FAF7071104F5FF130E0B03F489
:101A5000F7FBFFFAF4FCF904140DF7F40A0C0B0A77
:101A6000F9F7FB0201F4F3F0F30409FAEF010C0BB0
:101A70000F01F9FE0306FAFAF8F3000C03EBF10389
:101A8000081008FDFF040B030000FA000F11F7EB2C
:101A9000F8FB0404F8F8FC0804FD00F9FA0712004A
:101AA000EBF5FC0308FDF7F7030C0504FBF4FD0D53
:101AB00009F3F70005110B02F8FB04FDFBF5EFF34A
:101AC0000813FEF6FF06131105F9F501FDF8F5ED13
:101AD000EAF81009FBFE0010140AFEF5FF01FCFDF8
:101AE000FBF2F40A0BF6F5F704130F05F5FA0302FF
:101AF00002FFF8F30512FFF7F5FA090D0AFCFB03E4
:101B00000401FFF9F0FB1007FBF7F7030706FDF4EC
:101B1000F8FCFDFCFBF4F50B100601FB030C0C00BC
:101B2000F3F4FCFF0001FDFA07130D03F6F4FE05C4
:101B300005FDFC01030202FFF8F9FFFCF6F2F2FCDE
:101B400008090603050B0C06F7EAE7F3FD00FFFCA6
:101B500003101717120A03FCF7F3EFEFF4FE030468
:101B60000306100C01F8F4F8FE0501FAF8FA050D69
:101B70000F03F1EDF4F7FBFCFD010A0E0A0D05FC65
:101B8000F7F6F9F4FB060502000408131604F6EB59
:101B9000ECF4FD04FFFB030A0F0F04F7EEF4F2F67A
:101BA000FBF9FC010C0D090F0F05F7F0EDF0FF0339
:101BB0000300FB010B110CF7EDF1F7FD0002FB0632
:101BC0000E11180F05F8F3F5EFEDF4FE0405080803
:101BD0000F160AFDEEE5E9F10101F8F80314191BEF
:101BE00009FAF8F2F3F0EEF0F5000B0E0E0E0A0211
:101BF000FFFAF500050604FDFF040E1308F9EEF5E3
:101C0000F90104FCFEFF050C06FAEEE9F1F6F9F91C
:101C1000FE02040B060A110C04F4EAE8EAF7050ACE
:101C2000020711161B0BF9F2EEF3FAFAFAF8FC0AA6
:101C30001818110C00FDF6ECEEF3FD01FF01020493
:101C40000505F9EBEDF0FE080603040B17160EFF71
:101C5000F0EAF0F6F2F9FBFF0A0D1316120D02F787
:101C6000EEEBEEF800F9FA03101C1A0AFEF7F9F889
:101C7000F8F7F0EDEF01070501FBFEFBF8FA0106AE
:101C8000030002090E0E0A01F6F1F0F4FCFEFEFD5F
:101C9000040F141004FCF1EDF3FB010202050A0F1E
:101CA00012110AFFF4ECEBF1F8FDFDFE060E100A2E
:101CB00004F7EAE8EEF7FAFBFBFF0A171E180C0020
:101CC000F6F0EEF2F9FF01060B110F0C06FAF1EE39
:101CD000F5FBFEFCF8FD09181A1107FBF1ECF1F613
:101CE000F7F6F6FB0409080701F9F2F2F7FC00FF2A
:101CF00000030F17150F04F7EDF1FBFF0000FD04C3
:101D00000E121009FEF3EEEEF1F6F9FD00091417BC
:101D1000140AFDF1EAEDF3F9FBFAFA020C100D04D6
:101D2000F8ECEAF1FC00FFFF030F1719120B01F5A5
:101D3000F0F0F5F8FBFB010D14151108F8EAE9F2D3
:101D4000F8F9F9F8FF0B1518130BFBF2EEF1F3F5A8
:101D5000F4F500090E0E0C04F6EEF1F7FBFEFBF9AC
:101D600001101A1B160AFBF1F2F8FEFFF9FC040A37
:101D70000B0A07FDF3EFF4F8FCFBF7F90512151455
:101D80000F01F0E7EAF1F8F6F4F9030B10130CFE7B
:101D9000F5F5F9FBFDFBFB010E1415140CFCF1F13C
:101DA000F5FD00FDFBFE070E121005F6EDEBEDF55F
:101DB000F8F5F7010E14161006F9F0EDF0F6F7F34A
:101DC000F3FE0911110C04FAF5F4FBFFFFFC000A05
:101DD0000F12100B03F8F1F0F8FDFD00030A1011CB
:101DE0000F05F5EAE8EEF7F9F9FC040B12120C0501
:101DF000F8F1EEEFF2F5FA0006090B0E0803FBF21C
:101E0000F1F1F5FBFE0208111C1F1705FCF4F5FBB0
:101E1000F8F8F8FC060E0D06FEF7F4F1EAF0F4FA15
:101E20000A10161A171005F6E6DDE1E9F2F0F501E1
:101E30000C1D1F1A0EFEF4F3F2ECE5E9F5060E1385
:101E40001915150F070402FFFDFBF8F5FB0006024C
:101E5000F4EDE9F3FCFDFF060A1017180D00F3EA94
:101E6000EAE7EBECF401050C12140F07FEF0EEF2BA
:101E7000F6FAFE050A18201D150BFDEEEAEFF0F04C
:101E8000F8FD020810121009FBF2F1F1EDECF5F883
:101E9000FE0B1519140CFEF5F5F4F2F4F8F8F9053B
:101EA000110E0A02FAF3F0F0EEF8FF05101C241FE1
:101EB000190EFBF0ECECECEFF1F2FD0C12130F0736
:101EC000F9F0F4F2F0F2F7FF060F10110E01F8F43A
:101ED000F7F6F5FBFDFB000910110BFEF5F9F8F420
:101EE000F4F90000091418150C01F8F8F4F1F8FBE6
:101EF000FCFD06100F09FFF0E8E6E6E8F0F8FD0942
:101F00001720241D1401F4F1EDECECF0F2FA050DAC
:101F100013150C01FBFBFAF5F7FBFF030A1215136F
:101F200004F7F6F4F5F2F6FCFAFD0611120C00F9CE
:101F3000F8F3EAE9EDF4FA0111191B1407FDF6F4C0
:101F4000F2F4F6F5F903131B191307FCF5F2EFEEA3
:101F5000F2F6FC060E14170F06FAF9FAF8F6F4F585
:101F6000F2F700070C02FAF7FBFFFBFA0004050882
:101F70000B0D08FFF5F3F5F4F7FB0404040F1B1D2C
:101F80001308FBF3EEE8E8EDF1F5FD0D1B1E1A1149
:101F900004FBF5F2EEF1F0F1FA0009090804F9F496
:101FA000F4F6F4F8FDFE030A12171107FDF9FFFC21
:101FB000F7FBFDFCFE070E0E08FCFBFBFCF7F3FC39
:101FC00001FF030F161209FEF3EDE8EAF1F3F6F351
:101FD000001217140E09FFFCF7EFF1EEEFF5FE0CFF
:101FE0000F0F110C010003040202FFFCFDFF0602AB
:101FF000FEF6F0F8FCFDFC0105050D101109FCF6DC
:10200000F2F5F4EDEFF8F8F90413141108FDFAEF06
:10201000EFF2F5FAF7FD0F1D1D181105FDFAF6F5A3
:10202000F0EEF1F90A1311120D06FBFAF6F0F0EDDD
:10203000F3F4FB080F130D00FC0001FBFAF8F3F7B3
:10204000FF0507FFFAF4F80300FCFD04030814146D
:10205000160F04FAF0F0EFF2F9F6F1F8081214177F
:102060000E0401FEFDF3EFECECFA050A080804FC8F
:1020700000FFFCFBF7F6F8FD0103080C04FBFA0077
:10208000FE00FFF9FF050D100C06FCF9FE0301FC34
:10209000FBF7FC0102040400FBF7F7F6F6F9FBFD81
:1020A000FF080C0B0C0501FBF9FAF9F7F2F2F80244
:1020B0000B0C0A0704050401FFFEFCFBFD00FF03F7
:1020C0000404FEFE010101FF000304060503FEF700
:1020D000F1F1F4F9FBFCFB020807050505FFFCFC28
:1020E000F8F5F5F8FAFF04060808090807070807D5
:1020F00002FBF7F7FAFF04080602020200FDFDF9F1
:10210000F6F8F9FAFBFE000001030400FDFDFDFBFB
:10211000FBFCFF02FFFBFA000507070505070702A6
:10212000FF01FEFBFCFDFDFCFEFEFF0408080604AB
:1021300002FFFFFFFF00FDF8F2F2F8FF06060200C3
:102140000101FFFFFDFBFAFBFCFCFEFF00FEFF00B0
:1021500000FF010304070A0C0D0C07FEFCFBF9F954
:10216000FAF9FAFE0103050400FFFFFEFBF8F7F59C
:10217000F8FD0101020300000202020502F8F2F478
:10218000FA0005050405050405070401FEFCFDFE33
:10219000FFFEFD010606040605030302FEFDFEF92F
:1021A000F2EFF1F5FC0002030407080601FDFAF95D
:1021B000F9F8FAFDFCFA0006080A0801FE0103031B
:1021C000060B0700FCFCFE010402FEFDFAFBFF000B
:1021D000FFFEFFFFFF01FFFAFAFDFDFCFEFEFBFC28
:1021E000010202060600FBF9F9FAFD0000010102F6
:1021F00004060501FFFFFF010401FBFC02040609C0
:1022000006010202FEFE0303FAF2F0F1F6FBFDFE08
:102210000002020307070300FBF7FAFCF8F6F9FED9
:102220000006090403080B08080A06FFFBF7F7FA83
:10223000FF0102030405060601FCFAF6F5FAFBF8B5
:10224000F8FCFE01080801FCFCFCFC010400FCFC9D
:10225000FCFD0004060501FBF9FD0100000100037F
:10226000060500010401010301FEFF01010105074C
:1022700002FBF7F6F6F9F8F8FC0001010607050382
:10228000FDF8FAFEFBF5F5F8FB020707040609075F
:10229000080C0C0600FAF5F7FBFDFE010200010335
:1022A000030303FFFAFAFAF8F7F8F8FB0105030055
:1022B000010303030200FCF9F7F7FC02050606041C
:1022C00001030502FEFBF9FB0003020205060607F7
:1022D0000804FFFDFAF9FC01FFFDFDFAF8FBFDFC27
:1022E000FF00FCFAFBFE000100FEFF0403FFFDFD02
:1022F000FEFE0000FE000306090F120E0800F8F7AC
:10230000FAF8F6F9FBFDFE0307070502FCFBFEFDEC
:10231000F9F5F6F7FB0304020304010004050402C7
:10232000FCF6F7FD0002050500FF02030302FFFCB7
:10233000FDFFFFFDFDFBFB0006080502FFFDFF01A1
:10234000FFFBF9F3F0F4FD0206090808090A070289
:10235000FDF8F5F8FE020302010105090804FDF588
:10236000F1F6FE01020100000306060501FAF4F28F
:10237000F5F7F8FAFD00050A0A0703FEFBFD00FF6A
:10238000FDFCFBFD070E100E0801FE020604FFFE19
:10239000FCFBFBFBFBFBFCF9F9000504FEFAF7F87C
:1023A000FBFEFDFBF7F2F4FC0308090500FEFF024B
:1023B0000202FFFF03070706090B0A06030300FBDF
:1023C000F6F3F60006070603010101FFFDF8F3F03E
:1023D000F2F7FD01030407090701FAF6F3F0F2FB37
:1023E000FF020407070709080701FAF5F8FE0306CC
:1023F00006090B0C0B0A0A05FEF8F7F5F2F3F8FCD8
:10240000FD0002020101FEFCFEFDFDFBF9F9F8F8FA
:10241000FB0102FEFBFE0205070504040504FFFAAA
:10242000FE03030205090A08070502FFFFFDFAF68D
:10243000F4F3F4FC03060502FEFBFBFBFBFBFC01D3
:1024400003FEF9FE0406040301FEFCF9F7F6FA00A8
:10245000020204050406060704FFFEFEFF01060B48
:102460000B0B0E0A00F9F6F5F4F4F7F7F9FE02008B
:10247000FCFCFEFFFDFAF5F0F0F6FC0004080B0A88
:102480000A0A0907060702FBF9FE01000203010020
:102490000304030201FEFDFEFCFAF7F8FD00FEFB5B
:1024A000FDFF00000202000403FCF3F4F9FAFCFE55
:1024B000FF010609080400FEFCFCFD00FFFE010709
:1024C0000D0D0B0703FFFEFFFCFD0103FCF7FAFFF8
:1024D000040503FDF7F5F6F5F5F6F8FCFF03030038
:1024E000FEFDFEFFFFFEFFFEFE03080A0C100F07B5
:1024F00000FEFDFCFCFAF9FA0006080804010205DA
:102500000500F9F4F6FBFDFCFE00FDF9FAFD000400
:102510000602FAF4F4F7F9FCFDFCFC0005080806D5
:10252000020106080500FCFD020503020406070877
:1025300007060403FCF3F1F5FBFDFEFEFE020506B3
:1025400003FEF7F2F3F7F9F9F8F5F90208090807BD
:1025500001FDFDFDFE0207060202060A0E0C04FD47
:10256000FAFCFEFFFDFAFAFF030302FFFCFC00FF8A
:10257000FAF7F6F5F7FC0104070704FFFDFDFCFD83
:10258000FCFAF8FAFF030603FCFC0408090700FA4A
:10259000FF060705060502000001040705FEFAFA1A
:1025A000FBFDFFFDF8F6F7F7FC00FEF9FCFF00026B
:1025B000FEF6F3F90103020101020506060709060A
:1025C00000FDFCFD0002FFFE0104080C0C04FEFCF3
:1025D000FDFEFFFFFAF7FB000200FEFBF9F8FAFD33
:1025E000FE00000001FEFBFE0100FCFBFAFC010204
:1025F0000000030606070501FE02050200FEFF00BB
:10260000010508080501FFFDF7F2F1F2F2F5F8FB0C
:10261000020B110F09070300FDF8F1EDF4FAFBFBC3
:102620000004040407070403020200FCF8FAFDFE9C
:10263000FF000104080D0D0B0B06030402F9F6F967
:10264000FAF5F3F5F5F5FB0001020103050500FAC3
:10265000F9FBFDFEFF0104080907070500FE01FE66
:10266000F8FB00030406070402050402FEFAF9F968
:10267000F8F3F1F3F5F9FCFE01060C0D0D0E09025D
:102680000202FBF1F1F4F8F9FCFFFE01040504027B
:10269000FFFDFEFDFAF7F5F8FC0003060D11101121
:1026A000120C070806FDF5F2F4F5F6F8F6F5F8FC5D
:1026B000FF000100010302FFFDFBFCFDFF0001051F
:1026C0000505070501FF01FFFBF8F9FCFF03050104
:1026D000000307080601FDFDFEFDFBF7F6F7F8FC19
:1026E00000050A0B0A09060100FFFAF4F1F4F5F7F8
:1026F000FD00FFFF0104060501FEFE0001FEFBF9DF
:10270000F8F9FBFE03070A0D0F0A06080801FBF79C
:10271000F6F6F7F8F7F7FA000405050401FD0003E3
:10272000FEFCF9F9FC00070B090A0C08FEF8FAFB9D
:10273000F8F4F6FA00070B080405090601FBF6F5A4
:10274000F7FEFFFEFEFDFDFBFD040604020605FF8D
:10275000FF0203FFFBFAF8F8FE00FCF8FB0003049D
:1027600002FFFD010503FEFAF9F7F4F7FD01050B81
:10277000100C0A0C0E0B03FEFBF5F2F4F4F3F3F865
:10278000FD02050400FE040906FFFAF8F7F6F9FC5D
:10279000FE00080B0602030704FFFEFEFE0105050E
:1027A00002040709080603FBF6F8FBFAF7F5F4F450
:1027B000F9FF040407100F0701FFFFFCF8F6F4F41B
:1027C000FB0201FCFE03060400FCF7F9FF00FFFF1B
:1027D00000FFFCFC010200040808060405050405CE
:1027E00003FEFAFCFEF9F3F2F5FAFEFFFDFAFF082C
:1027F0000B08050401FDFBFBF8FA000201FF0004D1
:1028000001FDFE0200FF03030101010405080700AA
:10281000FAFCFF00FFFEFAF9FAFEFFFE030C100DB2
:1028200006050502FEFAF5F0F5F8F6F7F8FBFF02EB
:102830000504FEFAFCFDFEFFFFFDFAFC01020206A4
:102840000C10100C0906050404FDF9F9F9F7F3F270
:10285000F4F6FC00FBF8FC02030406050300FFFE8F
:10286000FCFBFCFF0100010302000406020203035B
:102870000200FEFDFF060703FFFF010202FEFAF75A
:10288000F5F7F6F4F8FE0406060605040202FFFE5C
:10289000FEFDFDFDFF000103070A0907060403030F
:1028A000FFF9F3F0EEECEBEEF3FA00060C11131562
:1028B0001715120F0902FDF9F5F3F3F3F3F3F4F42E
:1028C000F4F4F4F3F2F3F5F9FC0004090D10131419
:1028D0001413120E09070504030201FFFDFBF8F5AE
:1028E000F2F1F2F3F4F6F8FAFCFF020201FFFDFC4C
:1028F000FAF9F9FAFD040B1115171817120D05FE58
:10290000F7F0EAE7E6E7EAEFF4FAFF03070A0E1149
:1029100013141412100C0702FEFAF7F3EEEAE6E5C0
:10292000E6E9EDF2F901080D12161614120F0A0568
:10293000FFF8F3F2F2F4F7FAFE01020100FFFFFDE7
:10294000FDFCFCFBFD010406080B0B0B0806030055
:10295000FCFAFBFDFF03060A0C0B0701FAF3EBE59B
:10296000E1DFE0E5EDF7010B13181C1E1F1D191226
:102970000B0501FDFAF8F8F7F6F4F2F1F0F0F1F2D8
:10298000F4F6FAFF0305090D111111100F0B0704DE
:1029900000FDF8F4F2F1F2F2F2F1F2F4F7FBFDFED1
:1029A000FEFE000101010202010000010202040614
:1029B000080A0C0F121414120E0903FEF9F2EBE7C9
:1029C000E6E8EBEDF1F7FD0004090C0D0E0E0D0B22
:1029D000070503020100FFFCF7F5F6F9F8F7F8FB2D
:1029E0000105080A0D0D0A0602FEFAF6F3F1F1F2EE
:1029F000F3F6FAFDFF01030406080B0B08050406B5
:102A0000060300FFFEFCF9F7F5F4F4F6FAFD000307
:102A100006090B0B0A05FFF8F5F2EDE9E6E8EDF320
:102A2000F9010A13181C1F201F1C18130C0602FFA3
:102A3000FBF8F4F2F0ECEAEAEBEBE9E7E9EDF2F7A8
:102A4000FC040C121517171614110F0C070300FEC7
:102A5000FCF9F9F9F8F6F6F8F9F7F5F6F8FBFE01E6
:102A600005080806040200FFFEFDFAF9FAFE020559
:102A7000080A0B0A08070502FBF5F2F0EEECEBED95
:102A8000F0F4F9FE03080D1112110F0D0A070400EE
:102A9000FEFDFAF8F9FBFDFDFCFCFEFF0104090D4B
:102AA0000F10100E0A0603FFF9F3EFEEEEEDEEF055
:102AB000F5F9FC02080C0D0D0B0A090502FFFCFAE2
:102AC000F8F7F6F5F5F7F9FAFCFE0206090B0D0F1B
:102AD0000F0B070402FDF9F5F3F1EFF0F2F6F8FB46
:102AE000FE010305090B0B0907060501FEFBF9F7BB
:102AF000F5F4F6F7F8F8F8F9F9FAFD000306080B13
:102B00000D0E0F1011100E0B0908050200FEFCFA45
:102B1000F7F5F5F3F1F0F0EFF0F3F7FBFEFF01034B
:102B200004040506070606090C0F101214130F0AF9
:102B300005FEF7F0E9E4E1E1E4E8ECF1F5FAFF0382
:102B4000060A0D0F10111315151413100D0700FAB6
:102B5000F3EFECE9E7E7E9ECF1F5FAFF04080A0B1B
:102B60000A09080706060606050404040302010014
:102B7000FFFEFAF5F0EDECEDEFF2F7FB0005090DC5
:102B800011141513110E0A070504030302FFFBF7C6
:102B9000F4F1EDECECEFF1F2F4F8FD02070B0D0DA2
:102BA0000A0703FFFDFCFDFF010406080908090AE6
:102BB0000A0703FDF7F1EDEAEAECEFF2F4F7FD04A2
:102BC0000C151C2224211C150C02F9F1EAE5E3E2A4
:102BD000E3E5EAF1F8FD0103050606080A0C0E120A
:102BE00013120E0A0501FDF9F7F4F2F0F1F4F8FC06
:102BF0000003050400FCF8F6F5F6F8FBFE02060AF1
:102C00000D1014161615100A04FFFBF8F7F5F3F073
:102C1000ECEAE9E9EAEDF1F4F6F8F9FAFBFF050B65
:102C200010151A1D1F1F1E1B171007FEF4ECE7E5F9
:102C3000E6EAEFF3F7FAFCFEFEFDFCFDFE00010301
:102C4000060B10151817130C03FBF2ECE9E8E9EB7F
:102C5000EFF3F7FB01060A0C0D0A07050303020256
:102C6000040606040302020202040403FFFBF6F159
:102C7000EDEBEBEDEFF1F5F8FC01070D1214151576
:102C80001412110F0D0A0601FAF2EAE4DEDBDCDFB2
:102C9000E2E8F0FB050E18202526231E170F0A0672
:102CA0000300FFFDFCF9F8F6F5F4F4F5F4F2F1F0A9
:102CB000F0F2F5F9FCFF0000000103070C111414F9
:102CC000120F0B070301FFFDFBF9F7F6F4F5F6F61B
:102CD000F5F5F5F4F5F7FB00060D12141516130FB4
:102CE0000A0702FDF8F4F2F0F0F3F8FCFEFDFCFA3E
:102CF000F8F6F5F7F9FCFE01030406090B0D0C0CC0
:102D00000A0602FDF9F7F6F6F8F9F9FAFBFE0106F4
:102D10000B0D0C090500FCF9F9FBFD000306080981
:102D20000A0A080501FBF5F0ECEBEDF1F7FBFE00FC
:102D300000FFFEFCFBFBFDFF03080D13181D201F09
:102D40001A1107FCF0E6E1DFDFE0E4E9EFF5FC0350
:102D5000090D1011100E0C0B0C0E1011100E0B069D
:102D600000FAF5F1EEEBE8E6E5E4E7ECF3FA00064D
:102D70000A0C0B0A080808080808080A0D12171A96
:102D80001B19130A00F6EBE2DDDAD9DBE0E9F2FB0E
:102D9000040C111313110D080402020304050401AD
:102DA000FEFCFAF8F8F7F6F6F5F6F9FC0105090B62
:102DB0000B09060300FF000102020100FEFBF9F906
:102DC000FAFAFBFCFDFDFDFF010305070604020105
:102DD00001020305060502FEFAF6F4F3F3F3F5F833
:102DE000FAFCFE00030607070705040303050707AF
:102DF0000706050302020202040505040200FDF9AC
:102E0000F5F2F0EFEEEEEFF2F5FAFE020405040340
:102E10000304070B0E101213110D0702FDF8F4F254
:102E2000F2F4F9FF060B0D0D0B05FEF7F0EAE7E8EB
:102E3000ECF3FC050C111518181613100C07020002
:102E4000FEFBF8F4EFE9E5E4E5E7EBF0F5FA01075E
:102E50000C0D0C080501FFFEFBFBFBFDFEFFFFFE5A
:102E6000FF0000FF0002050506070603FFFCFAF855
:102E7000F8F8FAFD01070A0C0B090600FAF5F2F161
:102E8000F2F5F9FF050D121514110C04FCF5F2F220
:102E9000F3F8FF070E12110E0902FCF5F0EFF2F83D
:102EA000FF060C10100E0903FBF4EFEDEEF1F6FD3A
:102EB000030709090802FCF7F5F3F4F6FA02090C16
:102EC0000D0A05FFF8F1ECEAEDF2F9010A12161706
:102ED000140F07FEF6EFE9E7E7EAEDF2F90106095C
:102EE0000B0C0E0F0F0F0E0C0A05FFF9F4F0ECEAB5
:102EF000EBF0F6FF0811181D1F1C18120B03FCF64F
:102F0000F2F0F0F1F1F2F1F0EFEEF0F4FA01091362
:102F10001B2124231E150BFFF3EBE7E7EBF2FA036B
:102F20000A0E0D0A02F9F0E9E6E6E8EEF5FE060DF6
:102F30001012100C080400FCFCFE0306090B0C0A1E
:102F40000500F8F1ECE9E8E8ECF3FA0006090A07F5
:102F500002FEFBF8F7F9FB00050B0F100F0E0B0834
:102F60000400FCFAF9F9F9FAFBFBFAFAFBFD01059A
:102F70000A0F1214130D05FDF6EEE8E5E6E9EEF68C
:102F8000FF060C12161513100D0A08070808080989
:102F90000804FDF5ECE4DFDFE3E9F0FA0610171AA8
:102FA00018130AFFF4EBE6E5E9EFF6FF070D111041
:102FB0000C0904FFFBFAFCFF03070A0C0B0700F7E0
:102FC000EEE8E3E0E0E4EDF700091116171614103F
:102FD0000B0500FDFCFCFF00FFFDFCFAF8F5F4F624
:102FE000FAFD0206090C0D0B0803FEFBF9F9F9FCCA
:102FF000FF010103030201000003060B0F1112126F
:103000000F08FEF4EDE9E6E6E9EEF5FD050C111119
:103010000F0D0702FEFDFDFE02080D10110F09FF46
:10302000F4E9E0DAD9DDE3EBF704101A1E1F1C15F2
:103030000C04FFFCFAF9FBFE000100FDF8F2EDE9DB
:10304000E8EAF1FA030C141A1C1A160F06FCF2EC4B
:10305000E6E4E5E9EFF3F8FE04070A0E101110109C
:103060000F0D0D0C0803FEFAF7F6F6F8FBFF040847
:103070000B0C0B080400FDFAF7F5F4F3F2F1EFEC9A
:10308000EBEDF0F2F7FF0B16212A2F2F2B2215065E
:10309000F6E9E0DAD8DAE1EAF3FD060A0A0702FD0A
:1030A000F8F6F6F7FB020A101517150F07FEF6F0F3
:1030B000EEF0F3F90009101416120B02F7EFE8E630
:1030C000E8EDF2F900060A0C0B090500FBF9F8FA25
:1030D000FD0003050606050402FFFCFAF7F5F5F509
:1030E000F5F5F5F7F9FBFF0306080909070401FEEA
:1030F000F8F2F0EFF1F7FE0913191C1C180F05FA8E
:10310000F2ECE9EAEFF6010B121515110901F9F2DB
:10311000EDECEFF5FE07101618150F06FDF5EEEBBA
:10312000ECF2F9010A12191B18130B04FEFBF9FA51
:10313000FC0004070A0A0701F9EFE6DFDEDFE5EC31
:10314000F5000A11151717140D06FFFAF6F3EFED47
:10315000EAE8E7E8EBF0F5FAFE02050708070400E5
:10316000FBF7F5F8FC01060B0D101113120D06FF0D
:10317000FBF7F5F7FC01050708080500FBF6F2F080
:10318000F1F4FB030B12151616120D0803FFFCFCDD
:10319000FF04080D0F0E0901F8F1ECEBECEFF4FB66
:1031A00002080D10100D0803FFFBF9F8F8FAFBFDFB
:1031B000FF010304030100FFFCFBFAFAFAF9F9F935
:1031C000F8F7F6F5F4F3F1F3F6F9FD010406070656
:1031D0000607090C0D0D0D0D0D0C0904FEF7F2EE9E
:1031E000EDEEF0F4F8FCFF01040605040303040708
:1031F0000A0C0E0D0904FEF8F3F0EDECEDF1F7FF0B
:10320000070F1314120F0B0601FCF8F5F5F7FAFF80
:103210000408090703FFFBF7F5F3F4F7FC01070CBB
:103220000F0F0C0703FFFDFDFCFBFBFBFAF9F7F4A6
:10323000F1EEECEBECEEF3F9FE04080A0D0E0E0EC7
:103240000E0D0E0E0E0D0D0D0C0A0703FFFCFAF706
:10325000F4F2F0EFEFF0F0F1F2F4F7FAFE04090FF8
:1032600012141414120F0A02FAF4F1F1F4FA02081B
:103270000D0F0D0902FAF3ECE9E9EDF5FE080F1365
:1032800013100A02FAF4F0EDEEF1F8010A11171723
:10329000120C05FEF9F4F0EEECEBEEF2F5F5F3F0BE
:1032A000EDEBEBECF0F6FE060E14181A1916120CE4
:1032B0000603010203040506060503FFFEFEFDFDED
:1032C000FDFEFF00FFFCF8F2EEEEF0F5FC040C133F
:1032D000191C1B181209FEF5EFEDEEF2F901080EAC
:1032E00012110E07FEF5ECE6E5E8F0F9030B1114F8
:1032F000120C03FAF0E8E4E5EAF2FD060E131412EC
:103300000B04FCF6F2F1F4F90005090C0A04FCF4D4
:10331000EDE6E2E2E5EAF2FC050F161A1A191715B6
:10332000131111100E0C0A080500FBF7F2F0EFF074
:10333000F3F7FAFCFEFEFEFDFBF9F9F9FC01070BC1
:103340000E0E0D0904FDF8F6F5F8FC01081015162F
:10335000130D04F7EBE2DFDFE4EBF6010A101413C0
:10336000100A02F9F1EFF0F4FA02090E100F08FE4C
:10337000F3EAE5E4E8F2000C182023211A0F01F427
:10338000EBE4E1E4ECF8050E1517140D03F8EFEB90
:10339000E9EBF1F9030B121616120B04FBF5F0EF33
:1033A000F1F6FB01070906FFF7F0EEF0F5FC060F5A
:1033B000171B1C1A150AFEF3EBE5E4E9F2FD0911EF
:1033C00015140F06FBF2EDEDEFF6FF05090B0C0AE5
:1033D00005FDF5F0EDECEFF5FD070F1315120AFEF4
:1033E000F2E9E6E8ECF5FF0A131819150E02F7EDFD
:1033F000E7E5E8F0FC0B1A2227241909F9EBE3E0D2
:10340000E3ECF906121B1F1F1B1002F5EAE4E1E2D0
:10341000EAF4FD05090802FAF2EDECEFF5FD0712FA
:103420001C222420170BFEF3EAE4E3EAF4FF091060
:1034300014140E04F9EFEAE8E9EEF6FF0810151689
:10344000120A00F6EFEBEBF0F7FF070B0C0801F99F
:10345000F2EEF0F5FD09151E232421180AFBEDE319
:10346000DCDADEE7F504101719150D01F5EDEAEBCE
:10347000EFF7000B141A1C191107FAEFE8E5E8EE54
:10348000F7030C12140F04F8ECE4E1E2E7F1FE0A92
:1034900014191B191207FDF3EFEFF3FC0A17202490
:1034A000221B1003F6EDE8E7E9EDF5FE070E121218
:1034B0000E05FCF3EBE7E7EBF2F9FF040604FFF877
:1034C000F3F1F3F6FB030C161B1C1A1308FCF1E9CD
:1034D000E6E8EDF7030E1619181208FCF1EAE7E921
:1034E000EEF7030D1416150F05F8EEE7E4E6EAF320
:1034F000000B141918150C01F7F3F1F2F6FD060F85
:103500001516130D03F8EDE6E3E5EBF6030F191FAF
:10351000201A1104F8F0EBEBEFF8030E1518171151
:1035200007FBEFE6E3E3E6F0FB060F13130E06FCE2
:10353000F3EDEAEBEFF7010B1315150F05FAF3EEB8
:10354000ECEEF3FD07101516130C02F6ECE7E6E8B7
:10355000EEF907141D2020190DFEEEE3DDDADEE79B
:10356000F2FE070D0F0C06FEF9F6F6F8FE09141D23
:10357000201F190F01F4EAE5E6E9F2FF0D191F20FB
:103580001C1408FAEEE7E5E7EDF8040E1619160E1E
:1035900003F6EAE2DEDFE6F2000D151B1B150C0058
:1035A000F7EFEAE9EEF7030C10131008FDF1E7E37B
:1035B000E1E3EDFB0A181F211F1609FEF3EDEAEC0B
:1035C000F2FC060F14161209FDF2E9E5E3E5EEFB45
:1035D0000711181A171005FAF2EBE8E9EFF9050CD4
:1035E0001113110B03FAF3EFEEF2FA030E1619188A
:1035F000140D03F9F3EFEDF0F6000C141717100695
:10360000FBF0E7E3E1E3EBF5000A11141511090201
:10361000FBF8F7F9FD02080B0C0B05FCF5EDE8E6ED
:10362000E7EBF3FE0912171A1A170F05FCF5F3F36F
:10363000F6FA000405050300FDF9F5F3F2F4F8FFCE
:10364000070C0F0F0C0801FCF6F1F0F1F4FA01057C
:10365000080A0905FDF5F1F1F0F0F3F7FF080F1581
:10366000181B19110800FAF7F7F8FBFAFAFBFCFC33
:10367000FAF8F7F6F8FB00050A10141819150E09E8
:103680000500F8F3F2F6FAFAFAF9F8F8F7F3F2F2BD
:10369000F2F1F2F5FC050C1113110C0600FCFBFA1B
:1036A000F9FBFD02090B0A0803FEFBF8F3F2F5F93A
:1036B000FCFD00070D0E0C0601FFFDFDFD000304DF
:1036C00002FFFCF9F5F1F0EFEDF0F5FD09131B1D1C
:1036D0001D1B150D01F9F1EBEAEBEDF1F8FE03020C
:1036E000FEFBFCFCFCFCFCFF060E131617140A0183
:1036F000FAF4F0F0F4FAFF020506060501FAF3ED1C
:10370000E9EBEEF4FD040A1013110F0C0904FEFBA3
:10371000FCFF040709070604FEF9F6F5F3F1F2F7DA
:10372000FF080F1515100902FAF6F2F0F0F1F5F79F
:10373000F9FCFFFFFAF7F5F1EEF2F9030B0F1216A1
:1037400016130B00F9F6F7F7F9FE04070707040153
:10375000FDFBF9F6F3F6FC0610171B1B1711090207
:10376000FCF9F4F0F2F7F9FAFD0101FBF3EDE9E8F9
:10377000E9EAEDF7040C111515120A02FCF7F5F64B
:10378000FAFF02050A0C0C0A04FFFBF8F5F5F90133
:10379000090B0E100C05FDF9F7F3EEEDF1F800033F
:1037A00005060604FEF7F2F1F0F1F4FA030A131924
:1037B00019150F0A040201FFFF00010100FFFDF7C8
:1037C000EFECEAEAEAEFFB0711151A1C1A140A00DB
:1037D000F8F5F3F4F8FE02020301FEF8F1EEEAE771
:1037E000E8EEF7020C111616110A01FAF7F6F3F5D6
:1037F000FB020B12181A170F05FEF8F4F2F3F8018A
:10380000090C10100E07FEF6EEE8E5E8F0F6FAFFF8
:10381000040605FFF6F1EBE6E5E9F0FB040A1214F5
:10382000120F09060401000205090D10110F0C0505
:10383000FEF7F0ECEDF0F5FB030A1113100C080491
:1038400000FCFAFD00020304050504FCF5EFE8E5C1
:10385000E5E9F2F9FE04090A0B090600FBFAFAFD94
:103860000004090E0F0A0502FFFBF3ECEDF2F9016B
:1038700009101615110D0905FFF9F3F0ECE8E9F050
:10388000F80006080907040200FDF8F7F7FBFEFF41
:103890000206070501FDFBFBFAF9FD030B101315EA
:1038A00015120A03FEFBF7F5F5F8FD0003070909F9
:1038B00005FEF9F4F0EDF0F6FC000609090600FA41
:1038C000F4ECE6E3E5EBF3FC050D1315120D0B0824
:1038D00004FF000406090D0D0B0601FAF5F1EFEFE8
:1038E000F3FB020507090A0803FDFAF7F6F7FC01E6
:1038F000060D11100C0600FBF6F1ECE9ECF5FCFFEF
:103900000307070400FCFBFAFBFF070F161C1D1B37
:10391000160DFFF1E8E1DBD9DFECF8040D0F0D091E
:1039200005FEF4ECE8EAF3FD060F141A1F1B10065F
:10393000FEF5EEE9ECF4FD080F11110E06FEF9F4A8
:10394000EDE8ECF7020B111618161007FDF1EBEA83
:10395000EBF0F4FB01080E0E08040501FAF6FB0279
:10396000070B0C0B0904FEF6EFEAE5E2E6EFF9FEC1
:1039700002080B09050200FEFF03080B0F141411C7
:103980000C03FBF7F4F0EDEEF9060D0F0F110F0627
:10399000FAF0E9E4E4E9F0FB08101418181105FB4B
:1039A000F4EAE4E4EBF4FC060C0E0B0804FEF8EF7A
:1039B000ECEEF8040E13161F20150B01F8EEE9E6E5
:1039C000E8F1FC090F1216140C05FEF5EFEBEDF310
:1039D000F8FD050C0E0D0E0A03FBF8F7F8FBFD00D1
:1039E00003090B08030303FDF8F7FAFE0306080AB0
:1039F0000A0C0C04FAF3ECE5E2E4E6E7EBF2F7FA82
:103A0000FE010202060B0D1015191B19140C03FB05
:103A1000F5ECE4E0E6EEF2F800070E11120F0702F3
:103A200001FFFCFE0104080F1518161109FFF4EE42
:103A3000EBEAEDF6FE03070C0F0B01F9F0E6E4E804
:103A4000EBF0FB08121618160F06FCF2EAE8EDF58B
:103A5000FB030E1617141008FEF6F1EFEEF1FB054E
:103A60000D151A160D03F9F0E8E2DFE0E6F3FF06A4
:103A70000A0E100C04FDF9F8F7F9FE0109141815E7
:103A8000120F07FEF8F6F4F2F4F8FBFCFEFCF7F474
:103A9000F4F5F5F90009131B2224201B150BFDF387
:103AA000EFEBE8EAEFF7FD0102FDF7F7F4F1EFF3D2
:103AB000FA000911191E1D1A1104F8F0ECE9EBF2D5
:103AC000FC040C14161008FFF2E8E5E5E4E8F40342
:103AD0000F15191A150D00F3E6DFE1E5EBF2FD060F
:103AE0000A0C0C0A02FDF9F5F2F600070F161C1B72
:103AF000150F0700F8F3EFEDF0F8010306080805CD
:103B0000FEFDFDFAFB00050811191915131007FE3B
:103B1000F6F2F0F0F5F9FBFC0102FDF7F1EEEAE94F
:103B2000EBEFF5FC050807080601F9F9F9FAFD04C1
:103B30000D131718150A00FAF2EBE7E7ECF5010E82
:103B40001B212322190CFFF4E9E1E0E5EFF7000661
:103B5000090A0C08FEF7F4F3F3F5FA01090E111047
:103B600007FDF4EEEAE5E9F1FB0512191A1A160D44
:103B700005FCF1E7E5EDF3FA050E151A1A1006FE3D
:103B8000F7F2EDE8E4E6F3F9F9FE02020202FDF9CC
:103B9000FE03090F1516161B1A0E03FEF8F4F9FBA7
:103BA000F8FB0004080904F8F7FDF9EFECEEF1FD6D
:103BB000070708080603FEF5E6E1EAEDE6EAF5FF89
:103BC0000D1C1A171A1D201F1E1407090E06FCF8DB
:103BD000F2ECEEECE9E9EEF7000B0AFFFF0500F36B
:103BE000EFECE8F0F9FA000D1D282D2A180603FF66
:103BF000EEE1DFDCE2EDF1F7FD02050C140E050746
:103C00000D06000201030A07FAECE4E1E0E9EDE544
:103C1000E7F80201040503080903FDFBFF04111E78
:103C20001F1F2A3023191306FDF8F2E7E3E6E8EF39
:103C3000FBFCF3F602050203FFFF060C0E0D0A055E
:103C4000FF0203F8F3FE02FCFEFF00060803FAF68B
:103C5000F4F0F3FAF8F1FA07080704FCF6F1EBE1E7
:103C6000DCDEDEE6FC0A0A1220222124211E1F1CB3
:103C7000150B0704010404F3E2E3E5E1E5E8EBF4E6
:103C8000FF06070B0AFEF8FBF1E1E3EAEBF1FE09A0
:103C900015222A29232014070909FAEFF2EFEDEE85
:103CA000E8E7EDF5F5F2F5F5F3FF101311191A1227
:103CB0000C0904010605FF030A0709151408060785
:103CC000020303FEF9FBFFFDFBFBF1E5E8EFE4DE99
:103CD000E6EAEEF1F5F5F90200FBFBF8F1F400007D
:103CE000FF0911171A180F070601F5F1F0E6E1EDCB
:103CF000F5F0F0F3F4F8FCFCFAFE04060A141918C7
:103D000022281B0B00F5EDE9E6E0E4F1F8FC040ADB
:103D10000506110F0A0909090A0C0B090B0B05010D
:103D200000F6ECF3F6F0F0F2F2F3F6F2E9EAEDEA7F
:103D3000E5E6E3DCE8FA02080D12171B1B18171B57
:103D40001A14120F01FC01FCF3EFECEBEDF1F1F4AE
:103D5000FF090E0F1203F4F2F0EBE4E2E4EAF8FEDE
:103D6000FF050C1011181508090D0A050100FEFECB
:103D7000F8EEEAECEFEAEBEEE6E7F3FBFE0101FD1D
:103D8000FE00FBF8F8FEFE06161719222A281F1857
:103D90000F090802FAF6FDFFFBFFF9EAE7EAE8E39C
:103DA000E1E2EAF903080A10140D0B08FAEFF1F644
:103DB000F8FBFFFF020605FDFC00FDFCFDF4EAED4B
:103DC000F8FDFFFDF6F2F3F5F0ECF4F9FB060C0953
:103DD0000A12110902F8F0EEEDECECF9080E1A22C5
:103DE0001C151516100A03FCFD0306FDFAFCF6F47B
:103DF000F8F3E8E7EFF7FE03060C111204F7F2EA16
:103E0000E5E9EAE2E3F1FC06111416191F1D15138A
:103E10000A000203F9EEEDEFF0F1ECE6E5EDF5F561
:103E2000FBFEFB030F0D01FCF8F5F9F7EFEDF4FFD6
:103E300004101C191A26281D130F090704FAF0EAAA
:103E4000EFEDEEF3ECE6F400FCF6F7F7000D110DE4
:103E500003FFFAF90401F2F3FDFAF1F0EFF0FAFED4
:103E6000FCF7FB000311180D0D202C2723180C1054
:103E70001107F5EAE4D9DFF2F2E9F405060809FCD6
:103E8000F9FCFAEEE8E9E5E8F9FDF2F70E191C2075
:103E900017141D2723181305F80209F6E5F0F6F4A8
:103EA000FAF8F5F5FAF6EBEAE6D8DBEAE4D2DAEF6F
:103EB000FA0B14151D2F3B342C29180B151802F181
:103EC000F5F3F8FBF4EFF5FDF9F2F5F4EAF0FAEEAC
:103ED000DEE3E6E7EEECEBF308171B2224181829C3
:103EE0002A12090601FFFBF6F2F8FDFEFF02F8F1C7
:103EF000FE0AFCF6FE030704FAF0F0F8F9F2F6F217
:103F0000E5E8FF00F9FD040E17170F0A0E130F0E58
:103F10001005FD090CFFFEFFFE0303FAF1F3FF009D
:103F2000FDFFF9ECF503F8EFEDEFF4FBF9F2EDF13D
:103F3000F4F5FE03F8F90F130C0D11151A1B1508F3
:103F40000606FEFD02F9EEFF0C0701020409090056
:103F5000EEE3E4E0DDE5E6DCE8000B0F191D1F24CD
:103F60002317090B0E060306F7F1000705040304E7
:103F7000090F0CFEF7F8F1E9EBDAC8D4E6E9ECF347
:103F8000FD08131F1C1A201F151710F7EFF9F8F280
:103F9000F3F8010A140D020207000406EFDCE0E565
:103FA000E3E3E4E6EBF9FEF5F6060D12211F131923
:103FB000201E1A15140F141506F5F8F8F1F8F3DFA2
:103FC000D8E3EBEEEDF3F6000E10080809FE01054C
:103FD000F2E4ECF5F8F2F8021121251911130907A2
:103FE0000F00E7E6F300FDFAFBFE08130D010B0AD4
:103FF000030F10FFF8F8FBF2E9E4E2E8F4F6ECF660
:10400000050817211103010C0D06FEF5F5FC07FE4E
:10401000FE070103130CFDF7FE0500F9F6F7FE0499
:10402000F5E5EAE7E3F6F9EFE6EF020C120F0E0F03
:104030001E1D0B0904F904100C01FE080D0C0702EB
:1040400001090EFEF4F5E8EEFAF3E2D5DCE5EEEE5A
:10405000EEF0FD181F1D251F1A21241B0A02050A58
:104060000700FBFB0E120301FAF0F4FAF70102015C
:104070000101010000FFFFFEFDFCFAF9F8F6F5F37F
:10408000F2F0EFEEECEBEBEAEAE9EAEAEBECEDEF6B
:10409000F1F4F6F9FCFF0104070A0D0F12141719C9
:1040A0001B1D1F20222325262728292A2A2B2B2CBB
:1040B0002C2D2D2D2E2E2E2E2E2E2E2E2E2E2E2E25
:1040C0002D2D2C2B2A2928262423211F1C1A1715B5
:1040D000120F0C09060300FDFAF7F5F2EFEDEBE91C
:1040E000E6E4E2E1DFDDDCDAD9D8D6D5D4D3D2D12B
:1040F000D0D0CFCECECDCDCCCCCCCBCBCBCBCBCBF5
:10410000CBCBCBCBCBCBCBCBCCCCCCCCCCCDCDCDF4
:10411000CDCECECECFCFD0D1D2D3D4D6D7D9DBDE71
:10412000E0E3E6E9EBEEF1F4F7FAFCFF0104060840
:104130000A0D0F1012141617191A1B1D1E1F20210D
:1041400022232425262627282829292A2A2B2B2BF7
:104150002C2C2C2C2C2D2D2D2D2D2D2C2C2C2C2C99
:104160002C2C2C2C2B2B2B2B2A2A2A2929282827AC
:104170002625242321201E1D1B19171513100E0C94
:104180000907040200FEFBF9F7F5F3F1F0EEECEBA2
:10419000E9E8E7E5E4E3E2E1E0DFDEDDDCDBDBDA12
:1041A000D9D9D8D7D7D6D6D5D5D5D4D4D4D3D3D3B7
:1041B000D3D3D3D3D3D3D3D3D3D3D3D3D3D3D3D3CF
:1041C000D3D4D4D4D4D4D4D5D5D5D5D6D6D6D6D7A1
:1041D000D7D8D8D9D9DADBDCDDDEDFE0E2E3E5E60B
:1041E000E8E9EBEDEFF1F3F5F7F9FBFDFF0103056E
:1041F00007090B0D0F101213151618191A1B1D1E87
:104200001F202122232324252626272828292A2A5D
:104210002B2B2C2C2D2D2D2E2E2E2F2F2F303030C2
:104220003030303030313131313131313030303087
:104230003030302F2F2F2F2F2E2E2E2E2D2D2D2C98
:104240002C2C2B2B2B2A2A2A2929282827272625DC
:104250002424232221201F1D1C1B1A191817151492
:104260001312100F0E0D0B0A0908060504020100B7
:10427000FEFDFCFAF9F8F7F6F4F3F2F1F0EFEEEDEB
:10428000ECEBEAE9E8E7E6E5E5E4E3E2E2E1E0DFDA
:10429000DFDEDDDDDCDBDBDADAD9D9D8D7D7D6D67D
:1042A000D5D5D5D4D4D3D3D3D2D2D2D1D1D1D0D0E5
:1042B000D0D0CFCFCFCFCFCFCECECECECECECECE14
:1042C000CECECECDCDCDCDCDCDCDCDCDCDCDCECE19
:1042D000CECECECECECECECECECFCFCFCFCFD0D0F5
:1042E000D0D0D1D1D2D2D2D3D3D4D4D5D5D6D6D79B
:1042F000D7D8D9D9DADADBDCDCDDDEDEDFE0E1E1FC
:10430000E2E3E4E4E5E6E7E8E8E9EAEBECECEDEE2D
:10431000EFF0F0F1F2F3F4F5F5F6F7F8F9F9FAFB4E
:10432000FCFDFEFEFF00010102030405050607086F
:1043300009090A0B0C0C0D0E0F0F10111213131498
:10434000151616171819191A1B1B1C1D1D1E1F1FC9
:10435000202021222223232424252526262727271F
:104360002828282929292A2A2A2B2B2B2B2B2C2CAD
:104370002C2C2C2C2C2C2C2C2C2C2C2C2C2C2C2C7D
:104380002C2C2C2C2B2B2B2B2B2A2A2A2A2A292982
:1043900029292828282827272726262625252424B2
:1043A000242323222222212120201F1F1E1E1D1D07
:1043B0001C1B1B1A1A191918171716151514131385
:1043C000121111100F0F0E0D0C0C0B0A0909080722
:1043D000060605040303020100FFFFFEFDFCFCFBD3
:1043E000FAF9F9F8F7F6F6F5F4F3F3F2F1F1F0EF84
:1043F000EFEEEDEDECEBEBEAEAE9E8E8E7E7E6E51E
:10440000E5E4E4E3E3E2E2E1E1E0E0E0DFDFDEDE99
:10441000DDDDDDDCDCDCDBDBDBDADADADAD9D9D9ED
:10442000D9D9D8D8D8D8D8D8D7D7D7D7D7D7D7D712
:10443000D7D7D7D7D7D7D7D7D7D7D7D7D7D7D7D70C
:10444000D7D7D7D7D7D7D7D7D7D7D8D8D8D8D8D8F6
:10445000D8D8D8D9D9D9D9D9D9DADADADADBDBDBC5
:10446000DBDCDCDDDDDDDEDEDFDFE0E0E1E1E2E262
:10447000E3E3E4E4E5E6E6E7E8E8E9EAEAEBECECC6
:10448000EDEEEEEFF0F0F1F2F3F3F4F5F5F6F7F808
:10449000F8F9FAFAFBFCFDFDFEFF00000102030340
:1044A00004050506070808090A0A0B0C0D0D0E0E77
:1044B0000F101011121213131414151516161717C6
:1044C00018181919191A1A1B1B1B1C1C1C1D1D1D41
:1044D0001E1E1E1E1F1F1F1F2020202020212120E6
:1044E00021212021222222222222222222222222B1
:1044F00022222222222222222222212120212122A2
:10450000212120212020202020201F1F1F1F1F1EAF
:104510001E1E1E1E1D1D1D1D1C1C1C1B1B1B1B1AD5
:104520001A1A191919181818181717171616161510
:104530001515141414131313121212111111101053
:10454000100F0F0F0E0E0E0D0D0D0D0C0C0C0B0B96
:104550000B0B0A0A0A0A09090909080808080707CB
:1045600007070706060606050505050504040404F5
:104570000404030303030302020202020101010116
:10458000010000000000FFFFFFFFFFFEFEFEFEFD3A
:10459000FDFDFDFCFCFCFCFBFBFBFBFAFAFAFAF967
:1045A000F9F9F9F8F8F8F8F7F7F7F7F6F6F6F6F597
:1045B000F5F5F5F5F4F4F4F4F3F3F3F3F3F2F2F2C2
:1045C000F2F2F1F1F1F1F1F1F0F0F0F0F0F0F0EFE2
:1045D000EFEFEFEFEFEFEFEEEEEEEEEEEEEEEEEEF4
:1045E000EEEEEEEEEEEEEEEDEDEDEDEDEDEDEDEDF4
:1045F000EDEEEEEEEEEEEEEEEEEEEEEEEEEEEEEEDC
:10460000EEEFEFEFEFEFEFEFEFEFF0F0F0F0F0F0B5
:10461000F0F1F1F1F1F1F1F2F2F2F2F2F2F3F3F37F
:10462000F3F3F3F4F4F4F4F4F5F5F5F5F5F6F6F642
:10463000F6F6F7F7F7F7F7F8F8F8F8F8F9F9F9F9FF
:10464000F9FAFAFAFAFBFBFBFBFBFCFCFCFCFCFDB9
:10465000FDFDFDFEFEFEFEFEFFFFFFFF0000000071
:104660000101010101020202020303030303040426
:1046700004040405050505050606060606070707E2
:1046800007070808080808080909090909090A0AA2
:104690000A0A0A0A0A0B0B0B0B0B0B0B0B0B0C0C6D
:1046A0000C0C0C0C0C0C0C0C0D0D0D0D0D0D0D0D42
:1046B0000D0D0D0D0D0D0D0D0D0D0D0D0D0D0D0D2A
:1046C0000D0D0D0D0D0D0D0D0D0D0D0D0D0D0D0C1B
:1046D0000C0C0C0C0C0C0C0C0C0C0C0B0B0B0B0B1F
:1046E0000B0B0B0B0B0A0A0A0A0A0A0A0A0A090927
:1046F0000909090909090808080808080808070736
:104700000707070707060606060606060505050548
:10471000050504040404040404030303030303035E
:104720000202020202020101010101010100000076
:1047300000000000FFFFFFFFFFFFFEFEFEFEFEFE8B
:10474000FEFDFDFDFDFDFDFDFCFCFCFCFCFCFCFBA1
:10475000FBFBFBFBFBFBFBFAFAFAFAFAFAFAFAF9B3
:10476000F9F9F9F9F9F9F9F9F9F8F8F8F8F8F8F8C0
:10477000F8F8F8F8F8F8F7F7F7F7F7F7F7F7F7F7C3
:10478000F7F7F7F7F7F7F7F7F7F7F7F7F7F7F7F6BA
:10479000F6F6F6F6F6F6F6F6F6F6F6F6F6F6F7F7B7
:1047A000F7F7F7F7F7F7F7F7F7F7F7F7F7F7F7F799
:1047B000F7F7F7F7F7F7F7F8F8F8F8F8F8F8F8F880
:1047C000F8F8F8F8F8F9F9F9F9F9F9F9F9F9F9F95E
:1047D000F9F9FAFAFAFAFAFAFAFAFAFAFAFAFBFB39
:1047E000FBFBFBFBFBFBFBFBFBFCFCFCFCFCFCFC12
:1047F000FCFCFCFCFDFDFDFDFDFDFDFDFDFDFDFDED
:10480000FEFEFEFEFEFEFEFEFEFEFEFEFFFFFFFFC4
:10481000FFFFFFFFFFFFFFFFFF00000000000000A1
:10482000000000000000010101010101010101017E
:10483000010101010202020202020202020202025C
:10484000020202020203030303030303030303033D
:104850000303030303030303030303030304040425
:104860000404040404040404040404040404040408
:1048700004040404040404040404040404040404F8
:1048800004040404040404040404040404040404E8
:1048900004040404040404040404040404040404D8
:1048A00004030303030303030303030303030303D7
:1048B00003030303030303030303030303030202CA
:1048C00002020202020202020202020202020202C8
:1048D00002020202020202010101010101010101C1
:1048E00001010101010101010101010101010101B8
:1048F00001000000000000000000000000000000B7
:1049000000000000000000002D3411241FBECFEF76
:10491000DAE0DEBFCDBF12E0A0E0B1E0EAE5FDE6FF
:1049200002C005900D92A832B107D9F725E0A8E2A0
:10493000B2E001C01D92A639B207E1F714E2C5E862
:10494000D4E204C02197FE010E949936C438D107F1
:10495000C9F70E9476300C94AB360C94000040915D
:1049600091025091920220918F0230919002421751
:104970005307B4F49091E8009570E1F39091E8004A
:1049800092FD19C08093F100809191029091920262
:1049900001968F739927892B19F48EEF8093E80085
:1049A000809191029091920201969093920280934D
:1049B000910281E0089580E00895CF92DF92EF9216
:1049C000FF920F931F93CF93DF936C017A018B01BA
:1049D000C0E0D0E0CE15DF0589F0D8016D918D01E2
:1049E000D601ED91FC910190F081E02DC601099571
:1049F000892B11F47E0102C02196ECCFC701DF9113
:104A0000CF911F910F91FF90EF90DF90CF9008957D
:104A1000CF93DF931F92CDB7DEB76983DC01ED91B1
:104A2000FC910280F381E02D41E050E0BE016F5F18
:104A30007F4F09950F90DF91CF91089583E0809388
:104A4000E9008091F200882319F08AE38093E8005E
:104A50000895FC018485958597FD0BC09FB7F89458
:104A600082E08093E9008091F2009FBF90E0019680
:104A700008959FB7F89482E08093E9008091F20056
:104A80009FBF90E0089590E0FC013197EF30F10571
:104A9000B0F5EA5AFF4F0C949936809180008F77D9
:104AA00003C0809180008F7D809380000895809165
:104AB0008000877FF9CF84B58F7702C084B58F7D62
:104AC00084BD0895809190008F7707C080919000F9
:104AD0008F7D03C080919000877F80939000089520
:104AE0008091C0008F7703C08091C0008F7D80933C
:104AF000C00008958091C200877F8093C20008950E
:104B0000CF93DF93282F30E0F901E25CFE4F8491D0
:104B1000F901E15EFE4FD491F901E050FF4FC491DD
:104B2000CC2391F081110E944325EC2FF0E0EE0F91
:104B3000FF1FEE50FF4FA591B491EC91ED2381E062
:104B400090E021F480E002C080E090E0DF91CF911E
:104B5000089584E0809361028FEF80936202109247
:104B60008402109283021092850285EE8093BC002D
:104B7000089582E0809361028FEF80936202109229
:104B800084028093830281E08093850285EE809386
:104B9000BC00089585ED8093BC008091BC0084FD2D
:104BA000FCCF80916102809360021092610280913B
:104BB0006002833011F40C94A92580916002813049
:104BC00011F40C94B9250895CF93DF931F92CDB7BC
:104BD000DEB780911B0390911C038F3F4FEF94072A
:104BE00061F0FC01E15FFC4F4081498301979093A4
:104BF0001C0380931B03898101C08FEF8093000108
:104C0000809100018F3FD1F08091000190917B0055
:104C100083FB222720F930E045E0220F331F4A951D
:104C2000E1F79F7D292B20937B0087708064809320
:104C30007C0080917A00806480937A000F90DF91ED
:104C4000CF91089508950F931F93CF938C01CB01BB
:104C5000BA01CFB7F89420E030E046E556E40E9470
:104C60002C3620E030E040E858E30E942C3620E06B
:104C700030E040E857E40E942C360E946F35F8017E
:104C80006483758386839783CFBFCF911F910F91E4
:104C900008957F928F929F92AF92BF92CF92DF92B0
:104CA000EF92FF920F931F93CF93DF936C015B0101
:104CB0007A0180910D01882309F466C08091BE02BB
:104CC000882309F461C08091940280FF05C080911F
:104CD000E00082608093E000E70110E00AEF83E0EB
:104CE000982E90E4792E2AE3822E209709F443C06F
:104CF0008FB7F8949092E9009091E80095FF06C074
:104D00009091F200272D291B922F01C090E08FBFB8
:104D1000911105C00150C1F10E941E30E6CF292F2C
:104D200030E0C217D3070CF49C2F8FB7F894909201
:104D3000E9002091E80025FF1CC0292F30E0C21BAC
:104D4000D30BF501915020F041914093F100FACF3F
:104D5000A20EB31E112319F08092E80009C09091B1
:104D6000E80095FD06C08092E80011E0209709F068
:104D700010E08FBFBACF1111BBCF5D9884E680934E
:104D800093021E141F0444F081E090E0F601938327
:104D9000828380E090E001C0C701DF91CF911F9135
:104DA0000F91FF90EF90DF90CF90BF90AF909F90CA
:104DB0008F907F900895CF93DF931F92CDB7DEB78A
:104DC000FC018485958597FD05C02FEF3FEF358762
:104DD00024870BC0CE0101960E943830019719F448
:104DE000898190E002C08FEF9FEF0F90DF91CF910C
:104DF00008950F931F93CF93DF931F92CDB7DEB724
:104E00008C01FC018485958597FF0EC0CE0101962B
:104E10000E943830019719F4298130E002C02FEF49
:104E20003FEFF80135872487F801848595850F9039
:104E3000DF91CF911F910F910895CF92DF92EF9262
:104E4000FF920F931F93CF93DF931F92CDB7DEB7DF
:104E5000182F062FE42E862F880F8E5F99830E94CD
:104E6000AF2483E00E94AF24F12EC12E9981D92E68
:104E70008C2D8F19801798F4F601E7FE02C08491FB
:104E800001C080810E94AF24182F80E00E94AF24CF
:104E90008123FFEFCF1ADF0A8111EACF01C081E041
:104EA0000F90DF91CF911F910F91FF90EF90DF90C6
:104EB000CF900895DF92EF92FF920F931F93CF93BD
:104EC000DF93D82E8A017B01E40EF51EEB01CE158F
:104ED000DF0571F0D7FE03C0FE01849101C0888117
:104EE0000E94AF2421968111F2CF8FEF9FEF01C076
:104EF000C801DF91CF911F910F91FF90EF90DF904C
:104F000008950F931F93CF93DF931F92CDB7DEB712
:104F100082E0898342E450E06DE571E080E80E9420
:104F20005A270E946230DC0112960D911C91139752
:104F30000115110569F0D801ED91FC910280F38112
:104F4000E02DBE016F5F7F4FC801099597FF07C035
:104F500089810F90DF91CF911F910F910895F801F2
:104F600000851185E5CF615030F02091F100FC0102
:104F700020830196F8CF289884E68093BD02089597
:104F80001F93CF93DF93282F30E0F901E25CFE4FAF
:104F90008491F901E15EFE4FD491F901E050FF4F99
:104FA000C491CC23C9F0162F81110E944325EC2F08
:104FB000F0E0EE0FFF1FEC51FF4FA591B4918FB7BA
:104FC000F894111105C09C91ED2FE095E92302C0E2
:104FD000EC91ED2BEC938FBFDF91CF911F91089552
:104FE0004F925F926F927F92BF92CF92DF92EF9239
:104FF000FF920F931F93CF93DF938BE00E94802546
:10500000813011F461E001C060E085E10E94C027B9
:1050100086E00E948025892B21F461E08DE00E94CA
:10502000C02787E00E948025892B21F460E08DE075
:105030000E94C027ECECF0E0E49180911B0390917A
:105040001C038B3091054CF4019690931C038093C4
:105050001B03DC01A15FBC4FEC93F0E0EE0FFF1FE0
:10506000E85BFD4F808191819093470280934602D7
:10507000EBECF0E0E49180911B0390911C038B30EA
:1050800091054CF4019690931C0380931B03DC0163
:10509000A15FBC4FEC93F0E0EE0FFF1FE85BFD4F0C
:1050A0000081118110934502009344021093430242
:1050B00000934202C0914002D0914102C801012EEA
:1050C000000CAA0BBB0BBC01CD0152E0660F771F91
:1050D000881F991F5A95D1F7CC24CA94E3E0DE2E9D
:1050E000E12CF12CA70196010E949F34C901F5E043
:1050F000880F991FFA95E1F78C0F9D1FFC01E2596B
:10510000FE4FB08023E030E0D8010E949F36A70117
:1051100096010E949F34A5E0220F331FAA95E1F764
:10512000C20FD31FC25FDE4FC881609146027091EB
:105130004702072E000C880B990B0E94A0356B01CB
:105140007C012BEF3CEF4DEE50E40E942C3620E02A
:1051500030E040E85BE30E942C362DEC3CEC4CEC5C
:105160005DE30E9403352B013C0160933C02709388
:105170003D0280933E0290933F022AE13FE149E9DC
:105180005FE3C701B6010E942C3620E030E040E02A
:105190005BE30E942C362DEC3CEC4CEC5DE30E9472
:1051A0000335609338027093390280933A029093EA
:1051B0003B0222E233EB4FEA51E4C701B6010E9401
:1051C0002C3620E030E040E85BE30E942C362DECEA
:1051D0003CEC4CEC5DE30E94033560933402709329
:1051E000350280933602909337022FED3BE846E27A
:1051F00051E4C701B6010E942C3620E030E040E8BF
:105200005AE30E942C362DEC3CEC4CEC5DE30E9402
:105210000335609330027093310280933202909391
:105220003302DFB7F89420E030EB49E055E4C301E6
:10523000B2010E942C3620E030E040E858E30E94A2
:105240002C3620E030E040E857E40E942C360E94E3
:105250006F35609362057093630580936405909346
:105260006505DFBF409138025091390260913A02E2
:1052700070913B028BE495E00E94232660913402FA
:10528000709135028091360290913702DFB7F89421
:1052900020E030E84AE354E40E942C3620E030E07D
:1052A00040E858E30E942C3620E030E040E857E424
:1052B0000E942C360E946F3560933C0570933D052B
:1052C00080933E0590933F05DFBF4091300250919F
:1052D0003102609132027091330285E295E00E94C2
:1052E000232640917105509172056091730570916C
:1052F000740520911D058091210590912205A091B2
:105300002305B0912405BA2FA92F982F8827820F43
:10531000911DA11DB11D84179507A607B707D8F1E8
:1053200080917D05811137C080917505909176053A
:10533000A0917705B0917805480F591F6A1F7B1F10
:1053400040937105509372056093730570937405D3
:105350008091400290914102019690934102809386
:105360004002BB2051F0109229021092280282E0E4
:105370000E948025892B09F401C1CC2361F082E0D1
:1053800090E0909329028093280284E00E94802577
:10539000892B09F407C180914002909141028097C6
:1053A00021F41092410210924002109229021092B0
:1053B000280282E00E948025892BE9F480912F0247
:1053C00081111BC08FB7F8944091690550916A050F
:1053D00060916B0570916C0540935E0550935F057D
:1053E00060936005709361058FBF1092680581E03E
:1053F00080932F0202C010922F0281E090E09093E0
:1054000029028093280283E00E948025892B09F0DD
:1054100044C020914402309145024AE0429FC001BD
:10542000439F900D1124AC0160E070E0BA01552754
:105430004427409356055093570560935805709341
:1054400059058053984FA0E0B0E0DC0199278827E8
:1054500080935A0590935B05A0935C05B0935D051E
:1054600080912E0281111DC08FB7F894409156058E
:1054700050915705609158057091590540934B051F
:1054800050934C0560934D0570934E058FBF81E09E
:1054900080932E028093550504C010922E02109224
:1054A000550582E090E0909329028093280284E0E1
:1054B0000E948025892BE9F480912D0281111BC067
:1054C0008FB7F8944091430550914405609145058C
:1054D00070914605409338055093390560933A051D
:1054E00070933B058FBF81E080932D02109242059F
:1054F00002C010922D0283E090E0909329028093E5
:10550000280285E00E948025892BE9F480912C02F5
:1055100081111BC08FB7F89440913005509131052F
:10552000609132057091330540932505509326050F
:1055300060932705709328058FBF81E080932C022C
:1055400010922F0502C010922C0280912A02909195
:105550002B02009749F0019790932B0280932A0227
:10556000892B11F48BEF8EB9809100018F3F71F57B
:105570000E94E42581E08093010128C08FB7F89450
:105580004091690550916A0560916B0570916C05B9
:1055900040935E0550935F056093600570936105CD
:1055A0008FBFEBCE8FB7F8944091430550914405DF
:1055B0006091450570914605409338055093390533
:1055C00060933A0570933B058FBFE5CEDF91CF9195
:1055D0001F910F91FF90EF90DF90CF90BF907F9041
:1055E0006F905F904F900895CF93DF9390E0FC0110
:1055F000E15EFE4F2491FC01E050FF4F849188232F
:1056000061F190E0880F991FFC01EA52FF4FC591AC
:10561000D491FC01EC51FF4FA591B491611109C0E7
:105620009FB7F8948881209582238883EC912E235C
:105630000BC0623061F49FB7F8943881822F809557
:1056400083238883EC912E2B2C939FBF06C08FB7AA
:10565000F894E8812E2B28838FBFDF91CF91089596
:105660003FB7F89480918B0290918C02A0918D02AB
:10567000B0918E0226B5A89B05C02F3F19F0019668
:10568000A11DB11D3FBFBA2FA92F982F8827820FC8
:10569000911DA11DB11DBC01CD0142E0660F771F18
:1056A000881F991F4A95D1F708951F920F920FB640
:1056B0000F9211242F933F938F939F93AF93BF9398
:1056C0008091870290918802A0918902B0918A020C
:1056D0003091860223E0230F2D3720F40196A11D7F
:1056E000B11D05C026E8230F0296A11DB11D209310
:1056F00086028093870290938802A0938902B093D8
:105700008A0280918B0290918C02A0918D02B091BF
:105710008E020196A11DB11D80938B0290938C0285
:10572000A0938D02B0938E02BF91AF919F918F9104
:105730003F912F910F900FBE0F901F9018951F92C1
:105740000F920FB60F9211242F933F934F935F93B5
:105750006F937F938F939F93AF93BF93EF93FF9339
:105760008091B900887F883221F170F48031F1F0A6
:1057700030F4882309F472C08830C1F073C08831D6
:10578000C1F0803251F16EC0803409F44EC028F46B
:10579000803319F1883321F165C08035D1F1883526
:1057A00009F44FC0883409F05DC05AC08091850269
:1057B00011C09091840280918302981708F050C024
:1057C000E091840281E08E0F80938402F0E0ED5935
:1057D000FD4F80818093BB002EC08093620240C049
:1057E0008093620285EC8093BC008091610280937B
:1057F00060021092610280916002833019F40E946D
:10580000A92530C080916002813061F50E94B925E0
:1058100029C0E091840281E08E0F80938402809100
:10582000BB00F0E0ED59FD4F8083909184028091A0
:105830008302981710F485EC01C085E88093BC00C2
:1058400011C0E091840281E08E0F809384028091E8
:10585000BB00F0E0ED59FD4F808302C01092620260
:105860000E94CA25FF91EF91BF91AF919F918F91B7
:105870007F916F915F914F913F912F910F900FBE4C
:105880000F901F90189578941F920F920FB60F9259
:1058900011242F933F934F935F936F937F938F9335
:1058A0009F93AF93BF93EF93FF9310926E00E0919D
:1058B0009602F09197020995F894809195028823B9
:1058C00011F016BCA99A80916E00826080936E00E0
:1058D000FF91EF91BF91AF919F918F917F916F91C8
:1058E0005F914F913F912F910F900FBE0F901F909E
:1058F00018951F920F920FB60F9211242F933F937A
:105900004F935F936F937F938F939F93AF93BF93C7
:10591000EF93FF9380910101882341F080917A00F9
:10592000806480937A001092010111C0E09100011F
:105930008091780090917900EE0FFF0BE85BFD4FAE
:10594000918380830E94E42581E080930101FF918F
:10595000EF91BF91AF919F918F917F916F915F91E7
:105960004F913F912F910F900FBE0F901F90189560
:105970001F920F920FB60F9211242F933F938F9384
:105980009F93AF93BF93EF93FF9380911D05E82FF3
:10599000F0E0EE0FFF1FE35EFC4F208131818F5F4F
:1059A00080931D05811119C090911F0581E0892701
:1059B00080931F058091210590912205A0912305D8
:1059C000B09124050196A11DB11D809321059093EE
:1059D0002205A0932305B0932405C901880F892FC0
:1059E000881F990B9195809388002F7720938A00C8
:1059F000FF91EF91BF91AF919F918F913F912F9127
:105A00000F900FBE0F901F901895CF92DF92EF92DC
:105A1000FF920F931F93DC014D915D916D917C91ED
:105A200013971F960D911D912D913C91529704173C
:105A3000150726073707E8F41A968C911A978823DA
:105A4000C9F1CD90DD90ED90FC9013971B964D9190
:105A50005D916D917C911E974C0D5D1D6E1D7F1D9E
:105A6000401B510B620B730B4D935D936D937C93B5
:105A700013974D915D916D917C9113971896ED91CF
:105A8000FC911997E60FF71F849114964D915D9143
:105A90006D917C9117970D911D912D913C911397CC
:105AA000400F511F621F731F4D935D936D937C9345
:105AB000139701C080E01F910F91FF90EF90DF904E
:105AC000CF9008950E94A6361F920F920FB60F92A4
:105AD00011248F939F938091E1009091E100937F37
