:100000000C94AE120C94D6120C94D6120C94D612F8
:100010000C94D6120C94D6120C94D6120C94D612C0
:100020000C94D6120C94D6120C94DA1B0C944C1C23
:100030000C94D6120C94D6120C94D6120C94D612A0
:100040000C94D6120C94D6120C94D6120C94D61290
:100050000C94D6120C94871A0C94D6120C942D1F63
:100060000C94D6120C94D6120C94D6120C94D61270
:100070000C94D6120C94BD1A0C94D6120C94D61271
:100080000C94D6120C94D6120C94D6120C94D61250
:100090000C94E3190C94D6120C94FC1A0C94D612FE
:1000A0000C94D6120C94D6120C94D6128413871387
:1000B00076137A138013A813A813A8138B138F1326
:1000C000931399139D13A813A313070605040100A6
:1000D000080A0B0C0D0900000000240027002A006C
:1000E0002D00300000000000250028002B002E000D
:1000F0003100000000002300260029002C002F0002
:1001000004040404040304050202020204030202BC
:10011000020206060606060604040202020404049D
:1001200008020110408040102040804080080204F6
:10013000018040201002011080102040402000006B
:10014000000200090F0000030401000C0000000081
:1001500000000000000000000000000000080B008C
:10016000020202010009040000010202000005244D
:1001700000100105240101010424020605240600E3
:10018000010705810310004009040100020A000074
:10019000000705020240000007058302400000043A
:1001A00003090412010002EF0201404123368000DE
:1001B000010102030141726475696E6F204C4C436A
:1001C0000041726475696E6F204C656F6E61726478
:1001D0006F0001000002000003000400051A341043
:1001E000BEA1BF0A4B5C585A55555126CA9CA8BFA0
:1001F0000749FF9DA2ADD3476350542CCAA2A8A5BE
:10020000A4A7A4A5ADCA15595D42EEA0A8B1B1DA64
:10021000123949524C3D4C4E2C131D46552FF2F5C8
:10022000335D55444C575450564B4E4845413D2B39
:100230001B213A352D35292412E4BCB5A7A4B4AC52
:10024000A2ADACA0A1A0A1B8114EF59F9EA2A0A303
:10025000A6B4E510EFD50405A2A0ACA5D0305F5B35
:100260005638EFC2B1A4ACAEB0C3CCBBC1FD48554B
:10027000565E4FF6B1D1223F3A4F615841F0B32557
:10028000664E4B3F395B37D4A8ACD83B622BEDB5FB
:10029000B0F02C565844454418BCC7201DFF2E1FF3
:1002A0002856412207E61B3A16010900BEC32F2932
:1002B000BBBAD2A39FAFDC3E5A3C433F03C7ACEA74
:1002C000EDA1A6F5292B1DEAAA9FA4B9C7B6AFAF29
:1002D000A9055E4B3F5D4E464F341BF3AF9FA5AA69
:1002E000DE475A53564B49471CC5A0B5EF35594A0E
:1002F00026F7D7F92A4B4D15BD9CBA10564514ED7B
:10030000EF1E394A46220FFC1D23FCDFFE2B382945
:1003100013FD052F321C09F911F8A19DACA5A2AE61
:10032000CAC4FE01D6171AA79DA39EA3A2A4A1A288
:10033000A2A4A9C5ECF3EF08E7A7D83D572CD9B57F
:10034000B5D51E26CDA5D904301EDAFD18130BEA4B
:10035000FBEFBBE0345D625D605C5D5D5F5D5E5CDC
:10036000562CD0A0BCEC1C3A565F555633D6A2A9E9
:10037000C4EB0B00FFFD0A505D3708D6A7A1A9B555
:10038000F25054271E170AD8A6A5CCDFEBC9ABA79D
:10039000AFAEB5BABECDE7FB0C03D7C1C9CCF032C6
:1003A0005A3E31615F565728DD0628FB302EFE4548
:1003B0006438F4B5C800313C3754615D605D5D4818
:1003C0000ED6D9F01004105B60515C523D2C302EDB
:1003D0001DEAC9F724F3D9E706221AF2E7E9D2A900
:1003E0009EA6A2A3A5A5A6AFD005140B0CD3A0B3BF
:1003F000B2ADBDB9C6FE404919EAD2F1252309F1D3
:10040000D2BFC4D2EF416339D7B5DCE0FE06E5DCEC
:100410000E5A6134E5E2343F1BDCDB08485B1DB655
:10042000C7D8D0235D582220605D1CCAC7F8EEF4FF
:10043000F0C9B8E6F21A0EDFD6CEC4D7D4D3D7D7D8
:10044000E514411FDCD4E0DDE2ED1050603BEECB63
:10045000E4DEE5EAE4E8EEF2F6EFEBF1FA0C16F48E
:10046000EB00062D57595D5B3A07E6EB042B5C5B0E
:100470004621E3DBF3EAE8F3F5245A6158320A3601
:100480002E1C452F112922FE11462FD4CBD7CCE1AB
:10049000FE3B6152321CE4C0D6DBF340541FEADA63
:1004A000C5CBD9D0EE285C47FBD4CDDE0C12DCD016
:1004B00001FAD0D2DCCFD9DFE40406E3D5E6DAE0F6
:1004C000E7E0E5EAFB2B4A15DCEAF3FBFFEA053738
:1004D000443926F7CEEFECE0F3E3E7EAEAEBF3FE8C
:1004E0000E0AF10F54625E5C2DEA074C5B5612D186
:1004F000D7D5D0E0D7D8E0F10C220DE8D5D8E40666
:100500003C555A605E3DE3C2DBD0FC4943FDCFC29F
:10051000C3CBCCD2F02D5B461D1140604AFAB7AE7A
:10052000BBBEC5DBFEFFC3BCE4034B5D514B3F4587
:10053000551BC4E630423A24F9B5A3B5B0B0C702A2
:10054000505D27CAA1B5CA09463516274157501A2A
:10055000DEE5050C172F2D0CE7F0080B2621F1F036
:10056000C7A1A6A7AAD91512F2C8A4C7040D101ACC
:10057000D4A4BAEE0700E2DAFD171B242D3334169B
:10058000CDA6AAB6CAD2FB312700C0A4AAAAABC77F
:1005900001201A231EEBAFABC4FC3D503F3215DEE9
:1005A000E1F2ED0C433B303414F8F6050EFCD0AC10
:1005B000AAADBBE7E1D2F8070D32382B2F2822294C
:1005C0002420221C1810F1C5B5B8BEE201C9ABB495
:1005D000D3142B15F7E8EDDBBFEA1F06EFD6B2B058
:1005E000B5D01B2D151D1C131E1917160EF6D3C1E1
:1005F000D1CDCC0812E1DCF309191001E4CAD1C64F
:10060000B0B2B4C9152F0A0AEEE111251618180563
:10061000FADDDF0104041710090DF6CFB5C100247F
:1006200007FDD5B4CDEDF3EDF4F2091B0D00E3CADF
:10063000F91C0A0E13F9F9FAE7E20611060CF9DFC4
:10064000D4C5C9F50A0517100811FAD0B8BABDDB30
:100650001921111203E3CED4F301EDE10F25131C90
:100660001B0D06EADFEFE0C4E00E13F9E5FE1F21E3
:100670001B1F1714100A0E0F04F8DBC3D6EAF8127A
:10068000170B0BE4BDC5F2161A1E180D0406202028
:100690001C1E171014171807F2D4C3C6D4D1D3E008
:1006A000E5FC08F2F1051E220E041A2C2423250F66
:1006B000FCE5D9CBC6D1DBEF0512131907DAC8F474
:1006C0002A2E11F1E4061F2A35312B2E2B2A291D43
:1006D000F8C9C5CBD6072C04D2E9110AE3C8CFF676
:1006E00028373033332F2921242F18FF040AFBE346
:1006F000E3F3F503191C151F2C323021F8CECCD0B2
:10070000DB041909F3EEF8153233230CF9E9E60C92
:100710002A2A2D28201CF3DBE9F0E9E7D7D5F10CD4
:100720001E2E302F28100B16131F1EF3E0E0E2F8E8
:10073000F9DBDAECF80D202005F405161D1A202E41
:100740002F2E2A24282C281F1C2524160B04FDEFED
:10075000E7F2F7EDEAE2DDE5EFFF0CFEE6DFEBF8AE
:10076000111D0C0D1618292C2A2806DFF6242B2B18
:100770002A281A0B03F9F2F4F9030402FFFBF8022A
:1007800011171B0EEADDEAEF032425211C141106C4
:10079000F90517100C07031518FAE7E9F600FF0929
:1007A0001B201801FC1C242016FEF2FD0A09FFF490
:1007B000EBE8EAECF1F5F9040D0B03060E0F090A5C
:1007C0000D0900FF0605FE081309F9FE1115161F95
:1007D0001F1A1003F5ECECE9ECEFEDECF3F7F8FE83
:1007E00005020B1C1801F4F0EEF300141C140D0BA1
:1007F00001F0EEF0F300161A180DF6F0F4F1F7FC24
:10080000FF0D19FFFFFFFFFF0000000102020303BD
:100810000405050506060606060605050404030389
:10082000020100FFFFFDFCFBFAF9F9F8F7F7F6F615
:10083000F6F7F7F8F8F9FAFBFCFDFEFF00000203FB
:1008400004050607090A0A0A0A0A0A090808070627
:100850000403010100FFFDFCFBFAF9F8F6F5F4F3DF
:10086000F3F3F3F3F4F6F7F9FAFCFDFF00020304E7
:100870000506060708090A0A0A0B0B0B0B0A0908EA
:100880000605040201FFFEFDFCFBF9F9F7F7F6F699
:10089000F5F4F4F4F4F4F4F5F6F7F8FAFBFDFF01DF
:1008A00003040607090A0B0B0C0C0C0C0B0B0B0AB0
:1008B0000908070605040200FEFCFAF8F7F5F4F350
:1008C000F2F1F1F1F0F1F1F2F3F5F7F9FBFDFF01CF
:1008D00002040607090A0C0D0E0F10100F0F0E0D63
:1008E0000C0A07050301FFFCFBF9F8F6F5F5F4F532
:1008F000F5F4F4F4F4F4F4F3F3F3F4F5F7F9FCFF9E
:100900000205080A0D0F101111100F0D0C0A09072E
:1009100006060605050504030200FEFBF9F6F3F1E1
:10092000EFEEEDEDEEEFF0F3F5F7F9FCFE0001026E
:10093000030506070809090B0C0D0E0F0F10100F09
:100940000E0D0B09060300FDFAF8F6F4F3F1F1F1D0
:10095000F1F1F1F2F2F3F4F5F6F7F8F9FBFDFF012E
:10096000040607090B0C0D0E0F0F0F0F0F0E0D0BCA
:100970000A090706040200FEFBF9F7F5F3F2F0EFAF
:10098000EFEFF0F0F1F2F3F5F7F9FBFDFE000204F2
:1009900007080A0B0B0C0C0D0D0D0C0C0C0C0C0BA2
:1009A0000A0807060401FFFBF9F6F3F1F0EFEEEE9B
:1009B000EFF0F2F4F6F7F9FAFBFDFDFFFF0001029C
:1009C00002030405060707070807050301FEFBF7F6
:1009D000F3EFECE8E5E2E0DFDEDDDDDEE0E2E5E7D7
:1009E000EAECEFF2F5F7F9FCFF0206090D11161B10
:1009F0001F24282C31343638393A3B3B39373534CB
:100A000033312F2C2A282624201C1815100B05FF03
:100A1000F9F3EDE7E1DCD7D4D1CECDCBCBCBCBCC4A
:100A2000CDCFD1D2D3D5D7D8DADDDFE0E2E5E8EB20
:100A3000EFF2F5F8FBFE0206090C0E10131517185D
:100A4000191B1B1D1F212426282A2E31343536362A
:100A50003533312E2A25211D1B1814120F0D0A05BE
:100A600000FBF5EEE7DFD8D1CAC4BDB9B6B6B6B65D
:100A7000B6B7BCC0C4C8CACCCFD4D7D9DCE0E6ED89
:100A8000F3FA040E17202931383D404243444344D1
:100A90004443414040403F3C37322F2A241E171028
:100AA0000A04FEFAF5F0ECE7E3DFDDD9D6D1CDCAD2
:100AB000C8C7C6C5C3C3C4C7CACED2D5D9DCE0E453
:100AC000E8ECEFF0F0F3F9FF0206080D151E262AF8
:100AD0002F3235393A3B3B3A3633323131312E2AD7
:100AE000272423211E17110B0500FBF5EDE6DFDAA5
:100AF000D5D1CDC9C8C4C4C4C7C9CBCCCBCCCCCE4E
:100B0000D0D2D2D3D8E0E7EDF3F9010912192026AB
:100B10002A2E32373A3D3E3E3E3E3F41413F3D3A2E
:100B20003937332E261F150D05FCF4ECE5DFDBD736
:100B3000D3D0CCC9C5C1BEBCB9B6B3B3B4B6B8BACC
:100B4000BEC4CCD4DDE4EDF7000A141E252C3236E9
:100B50003B3E41434647484A4B4C4D4B47433F3A47
:100B6000352F271C1207FEF6EFE8DFD8D2CDCBC712
:100B7000C2BDB9B5B4B5B6B6B5B6B8BCC0C4C9D0B7
:100B8000D7DFE7EFF7FF071019222B31393E414439
:100B900046484B4C4C4D4E4E4D4A454039322A1F2B
:100BA0001609FFF5ECE3DCD6CEC8C1BBB6B3B1AED7
:100BB000ACAAACB0B5B9BEC3C8CFD7E0E8F0F7FE79
:100BC00007111A242D343A41484D525251504E4D7E
:100BD0004A48413A342D29231B1209FFF6EEE5DB82
:100BE000D2C7BEB7B1AEA9A8A5A5A6A8ADB1B7BBDF
:100BF000C1C9D4E0ECF9040F1A242F383E43464A09
:100C00004F55585D5F5E5D5A5750483C2F23190F72
:100C100006FEF4EBE2DAD2CBC1B7AEA7A29F9F9E4D
:100C2000A0A3A8AFB6BFC5CED7E2EEFA0714202B1B
:100C3000353E45494D4F51515353555553524E4BE7
:100C4000453D32241608FAEDE2D6CBC1BAB3B0ADB9
:100C5000AAA6A4A3A2A6A8ABAEB2B9C3D2E0F000E4
:100C60000F1E2C3943494D4E505252545455545432
:100C700053514F483F33271A0CFFF0E3D7CCC4BF82
:100C8000BAB4ADA7A29F9F9FA0A1A4A7AFB9C5D397
:100C9000E1F00010202F3C43494D51555859595906
:100CA0005A595857534D443A2D201202F3E4D7CCE9
:100CB000C3BBB4ADA6A09D9C9B9C9FA1A5AAB3BF9E
:100CC000CBD9E6F60718283640484D5256595A599E
:100CD00058575757565450494034271909F8E8D9FE
:100CE000CCC2B9B2ABA5A09C9B9A9B9D9FA2A9B276
:100CF000BECCDAE9FA0B1C2D3A444B5154585A5BDE
:100D00005B5B5A595958544E45392C1E0EFDEDDC8B
:100D1000CEC2B8B1AAA59F9B9997989A9EA2A9B155
:100D2000BDCCDBEBFC0C1C2C3A464F54575A5C5D97
:100D30005D5D5B595754504A4136281909F9E9D984
:100D4000CABDB3ABA5A19D9B99989A9DA2A8B0BA24
:100D5000C6D6E6F7081826333E474E5356585A5C17
:100D60005F605F5C58524A4034251606F7E9DCD0D4
:100D7000C5BAB1A8A19B96929091959CA6B3C1D0FB
:100D8000E0F0FF0D1A252F383F474E555B60646732
:100D900067656059504437291B0D00F4E7DCD0C665
:100DA000BBB1A79F98928F8F9298A1ADBBCADAEA88
:100DB000F907131F293239414951585E6366676448
:100DC0005F584F4437291C0E02F6E9DED2C7BCB289
:100DD000A89F99939090949BA5B2BFCEDDECFB08A1
:100DE000141F2A323A424A52595F636666625D5561
:100DF0004B3F3224180BFFF3E7DBD0C5BAAFA69DFB
:100E000096929191969EA9B5C3D1DEEDFC08141E71
:100E100028313B434B535B61656664605A51473AE6
:100E20002E22160AFEF3E7DBCFC4B8AEA49C96943C
:100E300093969DA6B2BECBD8E7F4010C16202A34B7
:100E40003C454D555B6062615E5A52483D31251A02
:100E50000E02F6EBE0D5C9BEB3A9A09B9896999F68
:100E6000A7B2BDC8D5E3F0FC07111C273038424CAF
:100E7000545B5F61615F5A52493E33291E1207FB82
:100E8000EFE5DACDC1B6ACA49E99989A9FA7B1BC04
:100E9000C7D4E0ECF8030D18232B353F4851575BBE
:100EA0005E5F5D5851483E34291E1308FDF2E8DDAF
:100EB000D0C5BBB1AAA49F9EA1A5ADB5BEC9D4DFC4
:100EC000EAF5FE09141D26303A444B515558585640
:100ED000514B423A31271D1308FEF5EBDFD4CAC04F
:100EE000B7B1ABA7A8AAAFB6BDC5D0DAE4EEF7009C
:100EF0000A141B242E373F454A4E51504D48423A62
:100F0000322920170E03FBF3E8DDD4CBC2BBB4AF0C
:100F1000AEAFB1B7BEC4CDD7E0EAF3FB040E151DEA
:100F2000262F373E43474B4C4A47423B332B231A2D
:100F30001107FEF7EEE4DAD2C9C2BBB5B3B3B3B85A
:100F4000BEC3CBD4DCE6EFF70009111820283038F7
:100F50003D4145484847433E37302820180F05FD9E
:100F6000F5EBE2D9D0C9C3BCB8B6B6B8BDC1C7CFDE
:100F7000D6DFE8F0F8010911181F262E34383C405E
:100F800041413F3B36312A231C140B03FBF3EAE1BA
:100F9000D9D2CCC6C1BEBDBFC1C5C9D0D6DDE6ED74
:100FA000F4FC040B13191F262D3235383A3B3B381D
:100FB00034302A241E17100800F8F1E9E1D9D3CE05
:100FC000C9C5C3C3C5C8CBD0D6DCE3EAF1F8FE057A
:100FD0000C12171D23292E3133343535322F2B2691
:100FE000201A140E06FFF8F2EBE3DDD7D3CFCCCAFC
:100FF000CACCCED1D5DAE1E6ECF2F8FE050B10153D
:101000001A1F24282B2D2E2F2E2C2925211D181296
:101010000D0700FAF4EEE7E2DDD9D6D4D2D3D4D767
:10102000DADDE1E7EBF0F5FAFF04090E12161A1EFD
:1010300022242526262624221F1B17130F0A05000B
:10104000FBF6F1ECE7E4E0DDDCDBDBDCDEE1E4E752
:10105000EBEFF3F7FBFF03070A0E1114171A1C1E20
:101060001F1F1E1D1B191613100C080501FDF8F497
:10107000F0EDEAE7E5E3E2E2E3E4E6E9ECEFF2F5DE
:10108000F8FBFE010306090B0E10121416171717B2
:10109000161513110F0C0A070401FFFCF9F6F3F102
:1010A000EEECEBEAEAEAEBECEEF0F2F5F8FAFDFF33
:1010B00001040607090B0D0F101112131312121061
:1010C0000F0D0B0907050200FEFBF9F7F5F3F1F030
:1010D000EFEEEEEEEFF0F1F3F5F7F9FBFDFF0103B4
:1010E000040607090A0B0C0C0D0D0D0D0C0B0A095B
:1010F0000705040200FEFDFBF9F8F6F5F4F3F3F240
:10110000F2F3F3F4F5F6F7F9FBFCFDFF000203043C
:101110000505060707070707070706060504030274
:101120000100FFFEFDFCFBFAF9F8F8F7F7F7F6F619
:10113000F6F6F7F8F9F9FBFCFDFEFF0000010102ED
:10114000030304050405EEECEEDF286FDCFF29A2A3
:1011500057467FB690571CD8CE1AD4D51B5C92D771
:101160007A3BAEA1902722472D80F59B804A20270D
:101170007F7F1A9C8CEC0FFCB280BD1F7F1FCE2E90
:10118000214E1F7F7F24E92E7F7F011322AB8080B9
:10119000A404180C7F7F5233FB607F6F08DEF5B428
:1011A000808080D9DE0F4A6C7F396B7F7F524D097A
:1011B0008080808080CDB3BF46327F7F7F7F6B7F12
:1011C000D380809D9D8080A480D4384A7F7A7F7FA1
:1011D0007F5C52DC8DE3828080A280147F7F627FFF
:1011E0007F5D7F54E880D78F8089B480F37F417F13
:1011F0007C7F7F557760973380BCFF80F1A39A1581
:10120000F378785C7F0F3CD42B328080CB84AA2883
:10121000801460C9C9303DE77E1304FE80D6A0D09B
:10122000B0B91AF932EAD17F291E67E0BE2F8F8D3F
:10123000E8E9DADA01DBF9BA7FEDCD4B29AA027BC6
:10124000A3A704CD8D0A3212C11462390262F6805E
:10125000E337380221A1AA5FFE47C2D7246836DCF3
:101260004E8008B5D334B926EDE811E10B23F44ADA
:101270004440CAF351801427808ADD25E75A29E5C6
:10128000240F59DE0E1EE727EACD9FA20148201247
:10129000B6E220556A0B6B449AC6E5AEE9AEEE396C
:1012A000DEB2FA3F671F097635F1C205C0B94CC6F8
:1012B00098BE0654D72F48D525534405F2F50BE7C1
:1012C000A09DCC2BE424F60F60C94F322E09E235E5
:1012D000E9BFD0ECDAB20029F3E638541B2BDC0965
:1012E000FC160BEBE7AB09E4FC32ECFE10F4F7184C
:1012F000100E3805F42EF3DDF1C8CEED1CF83008E1
:10130000F721E701112A23F5FFFDDADBF2E6F330DE
:1013100008D9DE1B1E2B0CF50D1C0C19F7CCF0D9CF
:10132000E9E4FEF6FA161C181F1414F2EFF1162762
:10133000F5EABAEBF50008FF061A06190EFD25F3CB
:10134000F9040DE6DDDCF1F3071C070D0021ECF9D3
:1013500023FE0A10ECD6D50D03ECF9ED1B38FF087F
:101360003107FEEADCFE0BE1EAE00205E60F221E91
:101370000C10FA0D0D06EDE4FCEDEDFB0FDEE410B4
:101380002D29EAFC2013F80CFBEAEFE1EFF0F1FC69
:1013900009132015FE140BEC030401E7EAF8EB1225
:1013A000F9E10F0617090F130312E9FBE7FAF8ED4D
:1013B000F6FB10FC120203090E01F41003EFFEFA13
:1013C000EAEA0010040EF4FF10F11F030110EBFB1A
:1013D000E4FB01FBFAF104FD16150108F6FD0BFF15
:1013E000F6F508FDF6F2FC02FE1206F9F70A10F512
:1013F0000703F20AF2FBFFF200FD010511FD0107F0
:10140000F90800F807F4FBFAFB14F2F1040BFEFEF6
:1014100009ED1CE50BEF38DFF34F8E72C30146A0D8
:10142000E14360DE03B6DD2CF6F0DD9DA0197F718F
:101430007F443C31BCC8AC848C2E4CDC3F2586BE3E
:101440000740340722F03952F8E7B48296F82B307F
:10145000099888A3B6EEEAF7567C3AC2B30E565204
:101460005E460920E1BCCCBF96858A8397AAC0BEA0
:10147000EDDFBED5FCF40BDCE8F4D331215847494D
:101480003A2431374B3E4A4559646B6069776B6A41
:10149000785F6D734F4B3B2000ECEDD3D3CDCABECC
:1014A000C3BA919795908E8687878891889B94B7C9
:1014B000B2D8DAC61009021F393B5E5E6F757779C4
:1014C0007779777A777A777A777977797779777999
:1014D000706F60524D3827141408F4E7E2CCC9C687
:1014E000AFAF9F8E88918C908B858B8F9D88868BDC
:1014F00091939CBAC6C9DFEFF5FA0911131A1D239F
:10150000222828252427271C2B26182019140A04F2
:10151000F7FDEDEEE8D2D8C7C0B8B4A89C96918686
:10152000878787878688868786888688868786874E
:1015300087878788898B8B88929BA0AAAFADB9C01B
:10154000CECBD4DEE4EBE9F6FC06101B14242D2BE5
:10155000484B3E5C5A5E756E6769666B7774757052
:10156000716D6C676C5F6B696266545F5650524B6D
:101570003B48503F3B402E322926251C1F19FF05B2
:1015800009E7FEE9E9ECE3DADCE0D1D2CECEC8D45B
:10159000C7C3CCC2CAD0D3D3D0D9CFD8D9DFDFE329
:1015A000E5E0ECE5F2F5F3FA00FAFF02010B0D10AD
:1015B0001A1C1D1F24272C322B403D413C4545421F
:1015C00054494E4E58505963555B70655E6D6B7053
:1015D000747673767775747673727474706F6E65E3
:1015E000656B635B5F59554E534D4747423F373BF1
:1015F000312F262727171D1B14120F02020200FA93
:10160000F2F1EBEAE4E0DED6CFCBC4BFBDB8B0AABE
:10161000A9AAA1989998958B8B89878989878687AC
:101620008787868786878687868786878687868751
:101630008687878788878B89888B8E8E92919C9DE1
:1016400097A2A3ABB6B6BBC4C5CBD8DBE2E9F1EF3A
:10165000EF01060B0F120F111C1F29262E343535F2
:101660003D4D4C54515B696E6C6D73737876787533
:101670007675717274737374726F706E6E6F6C6B5B
:101680006B6B605E64605C5455534A45464340440E
:10169000302B2C24201D140B080600FBFAF3EFE777
:1016A000E8E4E0DFD7D5D0D2C9C2BAB3AFABAC9EC5
:1016B000989290918B8B898988868788868789877D
:1016C00087878989878B8D8C8C9094929597949A33
:1016D0009A9D9EA1A8ABAFAEB7B8C2C5C8D1CED8AF
:1016E000E0E4E9EDF4F7FA0306060E110E181C21EA
:1016F0002026322E3A3A41444D4C505F5865696D70
:101700006F7174767778797879787978797879786B
:101710007978797878787878787878787878787847
:101720007879787878777476716A6A69605F5C57DF
:10173000534C4A4443403A34312D2924252018186B
:101740000E0B0C070501FDF7F4F4EFE9E3E2DED53B
:10175000CFCEC9C4BCB7B4B3ABA7A7A3A3A39E9372
:101760009697918E8E8D8A8B8B86878887868787C2
:1017700087878787878787878787878787878787F9
:10178000878787878787878887898B8A8B8D908FC4
:10179000919494999A9B9C9EA8A5A7ACB0B1B6BB16
:1017A000B3BEC3C2C8CFD1D1DAD8DCE0E3E4E5E808
:1017B000ECEFF4F9F4F70000000405080A11111623
:1017C0001B1D171C23252B2A2E2C333335333D3E6E
:1017D0003F4442484B514F535657585A5A5D6165E2
:1017E00066696B6C717072727373777877787878DA
:1017F0007879787978797879787978787878787864
:10180000787879787978797779767776757372726E
:10181000706C696B64665E5E5A5856504F4846421B
:101820003E3D3B37332C332A2724221D191B171327
:101830000F0D0C080302FCFDF9FAF7F1EDEAE5DE05
:10184000DDDAD4D1CECAC6C3C2BBB7B8B4B0AEAC71
:10185000ACA8A6A29E9F999494918C8E8B8989871F
:101860008887878787868787878787878787878708
:1018700087878787878787878787868786878687FB
:101880008687878888898A898E90939594999D9C6C
:10189000A3A0A7A8A9ADAFB3B3BABBBFC1C3C4C708
:1018A000C9CCCCD0D1D2DBD9DADFE1E4E7E7EBEF8A
:1018B000F1F6F6F7FD000104080A0A101212171BD0
:1018C0001D1C222426282A2E2E3336383A3D3F4529
:1018D00045474C4B4F50545657585A5D5D5E6463B4
:1018E0006569676B6C6F7070727171737473747506
:1018F0007676777776777877777777777877787877
:101900007877777777777678767677767675747472
:101910007271706F6E6D6D696A6563625C5D57565A
:101920005450524E48484841403F3B393838343192
:1019300030302D29272323231D1B1618120F0F09C2
:101940000A0502FEFFFCF8F6F2F1EDEBE9E6E3E250
:10195000DEDCDBDBD5D3D2CDCBC8C7C3C4BEBBBBBB
:10196000BAB5B3B2AEADA9A9A6A3A2A19D9F9C9BF7
:101970009897949693919590908F8F8D8C8A8C8A5E
:10198000898A898A888988888988888887888888D0
:101990008789898889898A89888A898A8A8B898BB3
:1019A0008D8A8D8B8C8D91929296969A9D9FA2A2F4
:1019B000A4A8A9ACAEB1B1B5B7B7BABDBDBEBEC3E0
:1019C000C7C6CCCDCFD0D4D5D7DCDCDEE1E3E8EDA3
:1019D000ECEDEFF3F4F7FAFCFF01000507080A0B42
:1019E0000D0D11141317191C1F212526262B2E301F
:1019F0003133383A3C3E3F43464447494B4E4F51C2
:101A0000535557595A5D5C5E63636568696B6D6ECB
:101A10006E6E71727272737575757675767776768D
:101A20007677777777777778777777777777777746
:101A30007777777676777474757472737373716F62
:101A40006F6E6B6B6A67686666676562615C5C5C3B
:101A500059575255514E4C4C494744423F3B3C39F3
:101A6000363334302C2A28282322211E1C1B17161B
:101A70001312100D0907050202FEFCF8F6F4F2EF4E
:101A8000ECEAE7E5E2DFDFDCD7D6D5D2CFCECDCBAF
:101A9000C8C7C4C2C0C0BDB8B8B6B5B2B1ADACAAB3
:101AA000A7A9A6A2A2A19F9C9D9B97989897949363
:101AB000959391918F8F8E8D8D8D8C8C8B8A8B8A47
:101AC0008A898A898A898A8A8A8A8989898A8A8A7C
:101AD0008A8B8B8C8B8C8C8C8C8D8D8D8E8F90913A
:101AE0009191939395959698999A9C9C9EA19FA16C
:101AF000A2A3A3A5A7A9A9AAACACB0B1B2B2B5B72D
:101B0000B9BBBDBFC0C2C5C7C8CBCCCED2D4D6D856
:101B1000D9DCDEE1E2E4E7E7EBEDEFF1F3F6F8FA2A
:101B2000FCFD010306080B0E0F131317191B1C20D5
:101B3000222327292B2D30313335383A3B3E404183
:101B4000444646494B4D4E5153545657595B5C5D84
:101B50005E60626263656668686A6B6B6D6D6E700D
:101B60006F70717172727273747474747475757449
:101B70007475747474747474737373727273727230
:101B800072717170706F6E6E6D6C6C6B6A69686685
:101B900065646362615F5E5E5D5A5B5A5857565476
:101BA000555352514F4F4E4E4B4A49484746454474
:101BB0004241403D3C3A3837353433302F2D2B2AC3
:101BC00027252422201F1C1B19181512100F0C0A80
:101BD00008050302FFFCFBF8F6F3F2F0EDEBEAE890
:101BE000E5E4E1DFDDDBD9D6D5D3D1CFCDCBC9C795
:101BF000C4C3C1BEBDBBBAB8B7B6B4B2B0AFAEAC69
:101C0000ACAAA8A7A6A4A4A2A1A09F9E9C9B9A9AB6
:101C10009897969595949393929291919190909094
:101C2000908F8F8F8F8F8F8F8F8F8F8F8F8F8F8FC3
:101C30009090909191919292939494959596979873
:101C4000999A9B9B9C9D9D9FA0A1A1A2A4A4A5A79E
:101C5000A7A8AAAAACACADAFB0B1B2B3B4B6B7B78F
:101C6000B9BBBBBDBDBFC0C1C2C2C4C5C5C7C8C961
:101C7000CACBCDCDCFD0D1D2D4D6D6D9DADBDDDF29
:101C8000E0E2E4E6E8E9EBEDEEF0F2F4F6F8FAFB78
:101C9000FEFF010405070A0C0D0F11131517191B80
:101CA0001D1F21222427282A2B2D2F31323436388C
:101CB000393B3D3F4042434546484A4B4C4D4E4FD1
:101CC0005152535455565758595A5B5C5D5E5F608C
:101CD00061626363646566676768686969696A6A9F
:101CE0006A6B6B6B6B6B6C6B6B6B6C6B6B6B6B6B43
:101CF0006B6A6A6A69696968686867666665646369
:101D0000636261605F5F5E5D5C5B5A5A595757560C
:101D10005554535251504F4E4D4C4C4A49494746E9
:101D20004544434241403E3D3C3B3A3938373635E5
:101D300033333231302F2E2D2C2B292828262624E0
:101D4000232221201F1D1C1B191817151413110FF6
:101D50000E0C0B09070503020080808080808080C4
:101D60008080808080808080808080808080808073
:101D70008080808080808080808080808080808063
:101D80008080818181818181818181818181818145
:101D90008181818282828282828282828282828226
:101DA00083838383838383838383838484848484FE
:101DB00084848484848585858585858585858686D6
:101DC00086868686868687878787878787888888A6
:101DD00088888888888989898989898A8A8A8A8A73
:101DE0008A8A8B8B8B8B8B8B8C8C8C8C8C8C8D8D3B
:101DF0008D8D8D8E8E8E8E8E8E8F8F8F8F8F9090FD
:101E000090909091919191919292929292939393BA
:101E10009393949494949495959595969696969676
:101E2000979797979898989898999999999A9A9A2C
:101E30009A9B9B9B9B9C9C9C9C9D9D9D9D9E9E9EDE
:101E40009E9F9F9F9FA0A0A0A0A1A1A1A1A2A2A28E
:101E5000A3A3A3A3A4A4A4A4A5A5A5A6A6A6A6A738
:101E6000A7A7A8A8A8A8A9A9A9AAAAAAAAABABABE0
:101E7000ACACACACADADADAEAEAEAFAFAFB0B0B084
:101E8000B0B1B1B1B2B2B2B3B3B3B4B4B4B5B5B525
:101E9000B5B6B6B6B7B7B7B8B8B8B9B9B9BABABAC5
:101EA000BBBBBBBCBCBCBDBDBDBEBEBEBFBFBFC05F
:101EB000C0C0C1C1C1C2C2C2C3C3C4C4C4C5C5C5F8
:101EC000C6C6C6C7C7C7C8C8C8C9C9C9CACACBCB8E
:101ED000CBCCCCCCCDCDCDCECECFCFCFD0D0D0D122
:101EE000D1D1D2D2D3D3D3D4D4D4D5D5D5D6D6D7B5
:101EF000D7D7D8D8D8D9D9DADADADBDBDBDCDCDD46
:101F0000DDDDDEDEDEDFDFE0E0E0E1E1E2E2E2E3D4
:101F1000E3E3E4E4E5E5E5E6E6E7E7E7E8E8E8E962
:101F2000E9EAEAEAEBEBECECECEDEDEDEEEEEFEFEF
:101F3000EFF0F0F1F1F1F2F2F3F3F3F4F4F5F5F57B
:101F4000F6F6F6F7F7F8F8F8F9F9FAFAFAFBFBFC07
:101F5000FCFCFDFDFEFEFEFFFF0000000101010292
:101F6000020303030404050505060607070708081E
:101F70000909090A0A0A0B0B0C0C0C0D0D0E0E0EAA
:101F80000F0F101010111112121213131314141535
:101F90001515161617171718181819191A1A1A1BC3
:101FA0001B1C1C1C1D1D1D1E1E1F1F1F2020202151
:101FB00021222222232324242425252526262727DF
:101FC0002728282829292A2A2A2B2B2B2C2C2C2D70
:101FD0002D2E2E2E2F2F2F30303031313232323302
:101FE0003333343434353536363637373738383896
:101FF0003939393A3A3A3B3B3B3C3C3D3D3D3E3E2C
:102000003E3F3F3F404040414141424242434343C3
:10201000444444454545464646474747484848495D
:1020200049494A4A4A4A4B4B4B4C4C4C4D4D4D4EFC
:102030004E4E4F4F4F4F505050515151525252539C
:102040005353535454545555555556565657575740
:1020500057585858595959595A5A5A5B5B5B5B5CE7
:102060005C5C5C5D5D5D5E5E5E5E5F5F5F5F606091
:102070006060616161616262626263636363646440
:1020800064646565656566666666676767676768F1
:10209000686868696969696A6A6A6A6A6B6B6B6BA6
:1020A0006B6C6C6C6C6C6D6D6D6D6E6E6E6E6E6E61
:1020B0006F6F6F6F6F70707070707171717171711F
:1020C00072727272727373737373737474747474E0
:1020D00074757575757575757676767676767677A8
:1020E0007777777777777878787878787879797973
:1020F00079797979797A7A7A7A7A7A7A7A7A7B7B43
:102100007B7B7B7B7B7B7B7B7C7C7C7C7C7C7C7C17
:102110007C7C7C7D7D7D7D7D7D7D7D7D7D7D7D7DF2
:102120007E7E7E7E7E7E7E7E7E7E7E7E7E7E7E7ECF
:102130007E7F7F7F7F7F7F7F7F7F7F7F7F7F7F7FB0
:102140007F7F7F7F7F7F7F7F7F7F7F7F7F7F7F7F9F
:102150007F7F7F7F7F7F7F7F7F7F7F7F7F7F7F7F8F
:102160007F7F7F7F7F7F7F7F7F7F7F7F7F7F7F7F7F
:102170007F7F7F7F7F7F7F7F7F7F7F7F7F7F7F7F6F
:102180007F7F7F7E7E7E7E7E7E7E7E7E7E7E7E7E6C
:102190007E7E7E7D7D7D7D7D7D7D7D7D7D7D7D7D6C
:1021A0007C7C7C7C7C7C7C7C7C7C7C7B7B7B7B7B74
:1021B0007B7B7B7B7B7A7A7A7A7A7A7A7A7A79797C
:1021C000797979797979787878787878787777778C
:1021D000777777777776767676767675757575759F
:1021E00075757474747474747373737373737272B7
:1021F00072727271717171717170707070706F6FD5
:102200006F6F6F6E6E6E6E6E6D6D6D6D6D6C6C6CF6
:102210006C6C6B6B6B6B6B6A6A6A6A6A6969696919
:102220006868686867676767676666666665656544
:102230006564646464636363636262626261616172
:1022400061606060605F5F5F5F5E5E5E5E5D5D5DA2
:102250005C5C5C5C5B5B5B5B5A5A5A5959595958D8
:102260005858575757575656565555555554545410
:10227000535353535252525151515050504F4F4F4C
:102280004F4E4E4E4D4D4D4C4C4C4B4B4B4A4A4A8B
:102290004A494949484848474747464646454545CB
:1022A0004444444343434242424141414040403F11
:1022B0003F3F3E3E3E3D3D3D3C3C3C3B3B3A3A3A57
:1022C00039393938383837373736363635353434A2
:1022D0003433333332323231313030302F2F2F2EEE
:1022E0002E2E2D2D2C2C2C2B2B2B2A2A2A2929283B
:1022F000282827272726262525252424242323228A
:10230000222222212120201F1F1F1E1E1D1D1D1CD9
:102310001C1C1B1B1A1A1A1919181818171717162C
:10232000161515151414131313121212111110107F
:10233000100F0F0E0E0E0D0D0C0C0C0B0B0A0A0AD3
:102340000909090808070707060605050504040327
:1023500003030202010101000000FFFFFEFEFEFD7B
:10236000FDFCFCFCFBFBFAFAFAF9F9F8F8F8F7F7D0
:10237000F6F6F6F5F5F5F4F4F3F3F3F2F2F1F1F124
:10238000F0F0EFEFEFEEEEEEEDEDECECECEBEBEA78
:10239000EAEAE9E9E8E8E8E7E7E7E6E6E5E5E5E4CB
:1023A000E4E3E3E3E2E2E2E1E1E0E0E0DFDFDEDE1E
:1023B000DEDDDDDDDCDCDBDBDBDADADAD9D9D8D86F
:1023C000D8D7D7D7D6D6D5D5D5D4D4D4D3D3D3D2BE
:1023D000D2D1D1D1D0D0D0CFCFCFCECECDCDCDCC0C
:1023E000CCCCCBCBCBCACAC9C9C9C8C8C8C7C7C758
:1023F000C6C6C6C5C5C5C4C4C4C3C3C2C2C2C1C1A2
:10240000C1C0C0C0BFBFBFBEBEBEBDBDBDBCBCBCE9
:10241000BBBBBBBABABAB9B9B9B8B8B8B7B7B7B62F
:10242000B6B6B5B5B5B5B4B4B4B3B3B3B2B2B2B170
:10243000B1B1B0B0B0B0AFAFAFAEAEAEADADADACB0
:10244000ACACACABABABAAAAAAAAA9A9A9A8A8A8EC
:10245000A8A7A7A7A6A6A6A6A5A5A5A4A4A4A4A325
:10246000A3A3A3A2A2A2A1A1A1A1A0A0A0A09F9F5B
:102470009F9F9E9E9E9E9D9D9D9D9C9C9C9C9B9B8C
:102480009B9B9A9A9A9A99999999989898989897BB
:1024900097979796969696969595959594949494E5
:1024A000949393939393929292929291919191910A
:1024B00090909090908F8F8F8F8F8E8E8E8E8E8E2D
:1024C0008D8D8D8D8D8C8C8C8C8C8C8B8B8B8B8B4C
:1024D0008B8A8A8A8A8A8A8A898989898989898864
:1024E0008888888888888787878787878786868679
:1024F0008686868686858585858585858585848489
:102500008484848484848484838383838383838393
:102510008383838282828282828282828282828298
:10252000818181818181818181818181818181819B
:10253000818080808080808080808080808080809A
:10254000808080808080808080808080808080808B
:1025500080808080808080808000E92311241FBEDD
:10256000CFEFDAE0DEBFCDBF11E0A0E0B1E0E6E9F9
:10257000FEE402C005900D92AA32B107D9F727E018
:10258000AAE2B1E001C01D92A33AB207E1F712E15D
:10259000CEEAD2E104C02197FE010E942327CD3A62
:1025A000D107C9F70E94771F0C9449270C940000AB
:1025B00040918D0450918E0420918B0430918C04B5
:1025C00042175307B4F49091E8009570E1F39091AD
:1025D000E80092FD19C08093F10080918D049091E4
:1025E0008E0401968F739927892B19F48EEF8093AF
:1025F000E80080918D0490918E04019690938E0452
:1026000080938D0481E0089580E00895CF92DF9259
:10261000EF92FF920F931F93CF93DF936C017A0198
:102620008B01C0E0D0E0CE15DF0589F0D8016D91B7
:102630008D01D601ED91FC910190F081E02DC60154
:102640000995892B11F47E0102C02196ECCFC701B8
:10265000DF91CF911F910F91FF90EF90DF90CF907E
:102660000895CF93DF931F92CDB7DEB76983DC0166
:10267000ED91FC910280F381E02D41E050E0BE013C
:102680006F5F7F4F09950F90DF91CF91089583E0A1
:102690008093E9008091F200882319F08AE3809307
:1026A000E8000895FC018485958597FD0BC09FB7D0
:1026B000F89482E08093E9008091F2009FBF90E05F
:1026C000019608959FB7F89482E08093E900809185
:1026D000F2009FBF90E0089590E0FC013197EF3049
:1026E000F105B0F5EA5AFF4F0C9423278091800042
:1026F0008F7703C0809180008F7D80938000089544
:1027000080918000877FF9CF84B58F7702C084B530
:102710008F7D84BD0895809190008F7707C0809150
:1027200090008F7D03C080919000877F8093900000
:1027300008958091C0008F7703C08091C0008F7D85
:102740008093C00008958091C200877F8093C2006B
:102750000895CF93DF93282F30E0F901E25CFE4F1C
:102760008491F901E15EFE4FD491F901E050FF4FF1
:10277000C491CC2391F081110E946C13EC2FF0E0F6
:10278000EE0FFF1FEE50FF4FA591B491EC91ED239A
:1027900081E090E021F480E002C080E090E0DF91F1
:1027A000CF91089584E0809366048FEF809367044F
:1027B000109289041092880410928A0485EE809306
:1027C000BC00089582E0809366048FEF80936704D5
:1027D000109289048093880481E080938A0485EEB6
:1027E0008093BC00089585ED8093BC008091BC006F
:1027F00084FDFCCF8091660480936504109266048A
:1028000080916504833011F40C94D2138091650497
:10281000813011F40C94E2130895CF93DF931F924B
:10282000CDB7DEB780912105909122058F3F4FEF04
:10283000940761F0FC01EB5EFA4F408149830197F8
:102840009093220580932105898101C08FEF8093A9
:102850000001809100018F3FD1F0809100019091A3
:102860007B0083FB222720F930E045E0220F331F55
:102870004A95E1F79F7D292B20937B008770806428
:1028800080937C0080917A00806480937A000F901E
:10289000DF91CF91089508952FB7F894FC014385F7
:1028A00054856585768540835183628373832FBF0A
:1028B00008950F931F93CF938C01CB01BA01CFB72B
:1028C000F89420E030E944E155E40E94372620E006
:1028D00030E040E858E30E94372620E030E040E84E
:1028E00057E40E9437260E947A25F8016483758395
:1028F00086839783CFBFCF911F910F9108957F92C9
:102900008F929F92AF92BF92CF92DF92EF92FF92FF
:102910000F931F93CF93DF936C015B017A0180913A
:102920000D01882309F466C08091C404882309F44A
:1029300061C08091900480FF05C08091E0008260BA
:102940008093E000E70110E00AEF83E0982E90E426
:10295000792E2AE3822E209709F443C08FB7F8948A
:102960009092E9009091E80095FF06C09091F200E6
:10297000272D291B922F01C090E08FBF911105C018
:102980000150C1F10E94FF1EE6CF292F30E0C2178F
:10299000D3070CF49C2F8FB7F8949092E900209104
:1029A000E80025FF1CC0292F30E0C21BD30BF50126
:1029B000915020F041914093F100FACFA20EB31E46
:1029C000112319F08092E80009C09091E80095FD6C
:1029D00006C08092E80011E0209709F010E08FBF58
:1029E000BACF1111BBCF5D9884E680938F041E147B
:1029F0001F0444F081E090E0F6019383828380E03D
:102A000090E001C0C701DF91CF911F910F91FF901E
:102A1000EF90DF90CF90BF90AF909F908F907F907E
:102A20000895CF93DF931F92CDB7DEB7FC01848565
:102A3000958597FD05C02FEF3FEF358724870BC0A5
:102A4000CE0101960E94D51E019719F4898190E06C
:102A500002C08FEF9FEF0F90DF91CF9108950F93FA
:102A60001F93CF93DF931F92CDB7DEB78C01FC018C
:102A70008485958597FF0EC0CE0101960E94D51ED4
:102A8000019719F4298130E002C02FEF3FEFF801E0
:102A900035872487F801848595850F90DF91CF9144
:102AA0001F910F910895CF92DF92EF92FF920F93B3
:102AB0001F93CF93DF931F92CDB7DEB7182F062F4A
:102AC000E42E862F880F8E5F99830E94D81283E0B0
:102AD0000E94D812F12EC12E9981D92E8C2D8F19DA
:102AE000801798F4F601E7FE02C0849101C080814E
:102AF0000E94D812182F80E00E94D8128123FFEF85
:102B0000CF1ADF0A8111EACF01C081E00F90DF9177
:102B1000CF911F910F91FF90EF90DF90CF9008958C
:102B2000DF92EF92FF920F931F93CF93DF93D82EF4
:102B30008A017B01E40EF51EEB01CE15DF0571F075
:102B4000D7FE03C0FE01849101C088810E94D81283
:102B500021968111F2CF8FEF9FEF01C0C801DF9165
:102B6000CF911F910F91FF90EF90DF9008956150EA
:102B700030F02091F100FC0120830196F8CF2898D5
:102B800084E68093C30408951F93CF93DF93282F87
:102B900030E0F901E25CFE4F8491F901E15EFE4F05
:102BA000D491F901E050FF4FC491CC23C9F0162F06
:102BB00081110E946C13EC2FF0E0EE0FFF1FEC511F
:102BC000FF4FA591B4918FB7F894111105C09C9156
:102BD000ED2FE095E92302C0EC91ED2BEC938FBF34
:102BE000DF91CF911F9108954F925F926F927F92E4
:102BF0008F929F92AF92BF92CF92DF92EF92FF920D
:102C00001F93CF93DF938BE00E94A913892B11F4BC
:102C100060E001C061E085E10E94C41586E00E9489
:102C2000A913892B21F461E08DE00E94C41587E08F
:102C30000E94A913892B21F460E08DE00E94C41545
:102C4000ECECF0E0E49180912105909122058B302D
:102C500091054CF401969093220580932105DC01A7
:102C6000AB5EBA4FEC93F0E0EE0FFF1FE35BFB4F60
:102C70008081918190934C0480934B04EBECF0E0C5
:102C8000E49180912105909122058B3091054CF4BF
:102C900001969093220580932105DC01AB5EBA4F2B
:102CA000EC93F0E0EE0FFF1FE35BFB4F0190F08130
:102CB000E02DF0934A04E0934904F0934804E09334
:102CC0004704DF01AC59BF4FAA0FBB1F2FE738E401
:102CD00046E050E00E945724DC01CB017EE0B6952F
:102CE000A795979587957A95D1F780939A049093B5
:102CF0009B04A0939C04B0939D04CF0165E070E019
:102D00000E940F276E5C6093980470E0762F662710
:102D100080E090E00E94A9250E94AA260E947A25C0
:102D2000609399048091460490E0FC01EA5BFC4FBB
:102D30001081FC01EA5BFD4FD081FC01EA5BFE4F94
:102D4000C08160914B0470914C04072E000C880BDD
:102D5000990B0E94AB256B017C012EE231E94CE519
:102D600051E40E94372620E030E040E05BE30E941F
:102D700037262DEC3CEC4CEC5DE30E949C242B01AF
:102D80003C0160934201709343018093440190930E
:102D9000450121E033E947E352E4C701B6010E944F
:102DA000372620E030E040E05BE30E9437262DEC40
:102DB0003CEC4CEC5DE30E949C244B015C01609375
:102DC0003E0170933F01809340019093410121E1C6
:102DD00030E24DED50E4C701B6010E94372620E0F5
:102DE00030E040E05CE30E9437262DEC3CEC4CECFC
:102DF0005DE30E949C2460933A0170933B018093B1
:102E00003C0190933D012FED3BE846EA51E4C701B8
:102E1000B6010E94372620E030E040E85BE30E94E4
:102E200037262DEC3CEC4CEC5DE30E949C24609337
:102E30003601709337018093380190933901B301C3
:102E4000A20184E697E00E945914FFB6F89420E0AE
:102E500030E842E354E4C501B4010E94372620E083
:102E600030E040E858E30E94372620E030E040E8B8
:102E700057E40E9437260E947A2560935507709385
:102E800056078093570790935807FFBE60913A0109
:102E900070913B0180913C0190913D01FFB6F89407
:102EA00020E030E344E155E40E94372620E030E0A2
:102EB00040E858E30E94372620E030E040E857E43D
:102EC0000E9437260E947A25609342077093430739
:102ED0008093440790934507FFBE4091360150917F
:102EE000370160913801709139018BE297E00E94BF
:102EF000591484E090E090932B0180932A0186E09E
:102F00000E94A913892BB1F56091490470914A047C
:102F1000605B7F4F660F771F660F771F70930F01FF
:102F200060930E01072E000C880B990B0E94AB25B5
:102F30009B01AC0160E070E68AE697E40E940825F8
:102F40000E947A2580E090E00E94A92520917F07C9
:102F50003091800740918107509182070E94372667
:102F60000E947A2560937B0770937C0780937D078E
:102F700090937E0740917707509178076091790789
:102F800070917A0720912307809127079091280755
:102F9000A0912907B0912A07BA2FA92F982F882727
:102FA000820F911DA11DB11D84179507A607B707B4
:102FB00008F429C180918307811125C180917B0785
:102FC00090917C07A0917D07B0917E07480F591F13
:102FD0006A1F7B1F409377075093780760937907A8
:102FE00070937A07809146048F5F809346048091A6
:102FF00035018F5F883019F08093350102C010923F
:10300000350186E00E94A913892B41F481E0809369
:103010003401809333018093320106C01092340151
:10302000109233011092320110922B0110922A015A
:1030300082E00E94A913892B99F5809131018111B9
:1030400013C0111111C080913401882369F084E606
:1030500097E00E944C14E0914604F0E0EA5BFC4FDC
:1030600081E08083809331018091310181111AC008
:10307000112371F010922B0110922A0182E00E941C
:10308000A913892B89F084E697E00E944C140CC0A8
:1030900084E697E00E944C1481E08093310104C0E3
:1030A000109231011111E6CF81E090E090932B0155
:1030B00080932A0183E00E94A913892B69F58091EE
:1030C0003001811111C0C1110FC0809133018823DB
:1030D00059F00E94B91EE0914604F0E0EA5BFE4F11
:1030E00081E080838093300180913001811116C08E
:1030F000CC2361F081E090E090932B0180932A0132
:1031000083E00E94A913892B59F0FEC00E94B91ECA
:1031100081E08093300104C010923001C111EACFE8
:1031200082E090E090932B0180932A0184E00E943A
:10313000A913892B09F580912F01811111C0C111AB
:103140000FC080913201882359F00E94C71EE09180
:103150004604F0E0EA5BFD4F81E0808380932F011D
:1031600080912F0181110AC0C11108C00E94C71EA1
:1031700081E080932F0102C010922F01DD2361F0C6
:1031800082E090E090932B0180932A0184E00E94DA
:10319000A913892B09F0BBC080913501811133C07F
:1031A00084E090E090932B0180932A0186E00E94B6
:1031B000A913892B31F580912E01811124C08BE256
:1031C00097E00E944C1480E090E0A4E6B0E0809389
:1031D000360790933707A0933807B093390780E0FC
:1031E00090E0A8ECB0E080933A0790933B07A0935F
:1031F0003C07B0933D0781E080932E011092350784
:1032000002C010922E0183E090E090932B018093F6
:103210002A0185E00E94A913892B71F480912E0167
:1032200081110CC08BE297E00E944C1481E08093E6
:103230002E011092350702C010922E0180912C01B0
:1032400090912D01009749F0019790932D01809363
:103250002C01892B11F48BEF8EB9409164075091AA
:103260006507609166077091670780917307909179
:103270007407A0917507B0917607481759076A0738
:103280007B0708F447C04091510750915207609165
:103290005307709154078091600790916107A09146
:1032A0006207B0916307481759076A077B0790F1D7
:1032B00040913E0750913F07609140077091410750
:1032C00080914D0790914E07A0914F07B091500704
:1032D000481759076A077B07E8F040912B07509180
:1032E0002C0760912D0770912E0780913A079091DD
:1032F0003B07A0913C07B0913D07481759076A0763
:103300007B0740F060E007C00E94B91E09CF0E9411
:10331000C71E42CF61E08DE00E94C415809100017C
:103320008F3F29F40E940D1481E080930101DF9109
:10333000CF911F91FF90EF90DF90CF90BF90AF9013
:103340009F908F907F906F905F904F900895CF9354
:10335000DF9390E0FC01E15EFE4F2491FC01E05020
:10336000FF4F8491882361F190E0880F991FFC0141
:10337000EA52FF4FC591D491FC01EC51FF4FA5914A
:10338000B491611109C09FB7F89488812095822378
:103390008883EC912E230BC0623061F49FB7F894C0
:1033A0003881822F809583238883EC912E2B2C9358
:1033B0009FBF06C08FB7F894E8812E2B28838FBF5C
:1033C000DF91CF9108951F920F920FB60F921124A3
:1033D0002F933F934F935F936F937F938F939F931D
:1033E000AF93BF93EF93FF938091B900887F8832AA
:1033F00021F170F48031F1F030F4882309F472C0C7
:103400008830C1F073C08831C1F0803251F16EC094
:10341000803409F44EC028F4803319F1883321F147
:1034200065C08035D1F1883509F44FC0883409F082
:103430005DC05AC080918A0411C090918904809126
:103440008804981708F050C0E091890481E08E0F3D
:1034500080938904F0E0E859FB4F80818093BB00A2
:103460002EC08093670440C08093670485EC8093EE
:10347000BC0080916604809365041092660480917C
:103480006504833019F40E94D21330C08091650422
:10349000813061F50E94E21329C0E091890481E046
:1034A0008E0F809389048091BB00F0E0E859FB4FB8
:1034B00080839091890480918804981710F485EC9A
:1034C00001C085E88093BC0011C0E091890481E0CF
:1034D0008E0F809389048091BB00F0E0E859FB4F88
:1034E000808302C0109267040E94F313FF91EF9152
:1034F000BF91AF919F918F917F916F915F914F910C
:103500003F912F910F900FBE0F901F9018957894B8
:103510001F920F920FB60F9211242F933F934F9348
:103520005F936F937F938F939F93AF93BF93EF932B
:10353000FF9310926E00E0919204F091930409952C
:10354000F89480919104882311F016BCA99A809177
:103550006E00826080936E00FF91EF91BF91AF91FA
:103560009F918F917F916F915F914F913F912F919B
:103570000F900FBE0F901F9018951F920F920FB6CD
:103580000F9211242F933F934F935F936F937F93E9
:103590008F939F93AF93BF93EF93FF93809101011C
:1035A000882341F080917A00806480937A001092A1
:1035B000010111C0E09100018091780090917900A3
:1035C000EE0FFF0BE35BFB4F918380830E940D1492
:1035D00081E080930101FF91EF91BF91AF919F91A5
:1035E0008F917F916F915F914F913F912F910F90AC
:1035F0000FBE0F901F9018951F920F920FB60F924B
:1036000011242F933F938F939F93AF93BF93EF9387
:10361000FF9380912307E82FF0E0EE0FFF1FED5D91
:10362000FA4F208131818F5F80932307811119C068
:103630009091250781E089278093250780912707AE
:1036400090912807A0912907B0912A070196A11D02
:10365000B11D8093270790932807A0932907B09363
:103660002A07C901880F892F881F990B919580938C
:1036700088002F7720938A00FF91EF91BF91AF913F
:103680009F918F913F912F910F900FBE0F901F90A0
:103690001895CF92DF92EF92FF920F931F93DC0168
:1036A0004D915D916D917C9113971F960D911D9198
:1036B0002D913C9152970417150726073707E8F418
:1036C0001A968C911A978823C9F1CD90DD90ED90D0
:1036D000FC9013971B964D915D916D917C911E9777
:1036E0004C0D5D1D6E1D7F1D401B510B620B730B3E
:1036F0004D935D936D937C9313974D915D916D9177
:103700007C9113971896ED91FC911997E60FF71F8E
:10371000849114964D915D916D917C9117970D91C7
:103720001D912D913C911397400F511F621F731FE4
:103730004D935D936D937C93139701C080E01F912F
:103740000F91FF90EF90DF90CF9008950E94442753
:103750000F931F93CF93DF931F92CDB7DEB782E015
:10376000898342E450E06DE571E080E80E949015A5
:103770000E94191FDC0112960D911C9113970115DF
:10378000110569F0D801ED91FC910280F381E02DE3
:10379000BE016F5F7F4FC801099597FF07C0898100
:1037A0000F90DF91CF911F910F910895F80100853F
:1037B0001185E5CF1F920F920FB60F9211248F93B0
:1037C0009F938091E1009091E100937F9093E100BD
:1037D00083FF0FC01092E90091E09093EB001092EC
:1037E000EC0092E39093ED001092C40498E0909363
:1037F000F00082FF20C093E09093E9009091F200E6
:10380000992319F09AE39093E80090918F049923FB
:1038100039F090918F04915090938F04992389F1FE
:103820009091C304992339F09091C30491509093DF
:10383000C304992341F184FF10C08091E2008E7E81
:1038400081608093E2008091E1008F7E8093E100AF
:10385000809190048E7E806111C080FF16C080919F
:10386000E2008E7E80618093E2008091E1008E7E96
:103870008093E100809190048E7E8160809390041B
:1038800004C05D9ACDCF289AD6CF9F918F910F908B
:103890000FBE0F901F9018951F920F920FB60F92A8
:1038A0001124CF92DF92EF92FF920F931F932F93E9
:1038B0003F934F935F936F937F938F939F93AF93B8
:1038C000BF93EF93FF93CF93DF93CDB7DEB76C97A2
:1038D000DEBFCDBF1092E9008091E80083FFEDC10B
:1038E00068E0CE0145960E94B71582EF8093E8000C
:1038F0008D8987FF05C09091E80090FFFCCF03C041
:103900009EEF9093E800982F907609F0C6C09E89AC
:103910002F89188D91110CC0803829F480919F0453
:103920008093F10002C01092F1001092F10048C1A2
:10393000422F50E0512B913051F4811141C141305F
:10394000510509F03DC180919F048D7F0BC09330DC
:1039500061F4811135C14130510509F031C18091C7
:103960009F04826080939F042BC1953041F4809125
:10397000E80080FFFCCF20682093E30021C196304F
:1039800009F05FC0EB8CFC8C1092E90010928E0461
:1039900010928D04123091F510928C0410928B04C9
:1039A0000E94A81B99E0BE016F5F7F4FDB01E92FEA
:1039B0001D92EA95E9F799831A8391E09E8390EA34
:1039C00098879AEF998720918D0430918E04275F14
:1039D0003F4F3C832B838D831092E90010928E041D
:1039E00010928D04F0928C04E0928B0449E050E038
:1039F00080E00E9490150E94A81BE2C0F0928C0407
:103A0000E0928B040E94191FDC011296ED90FC904D
:103A10001397E114F10409F4C0C0D701ED91FC91B2
:103A20000480F581E02DBE016B5E7F4FC7010995D3
:103A3000009719F00CF0C4C0C7C0F701E084F1840E
:103A4000E8CF973009F4C0C0983021F481E080932A
:103A5000F100B6C0993009F0B3C0837009F0B4C06A
:103A6000E1E1F1E081E021E036E39081992361F02A
:103A70008093E9002093EB0091919093EC003093B8
:103A8000ED008F5F873089F78EE78093EA00109210
:103A9000EA008F898093C40493C08B8D9C8D109213
:103AA000E90010928E0410928D0490938C04809300
:103AB0008B04898D811156C08E899D89913A59F464
:103AC000813209F081C047E050E066E071E080E0BB
:103AD0000E94901575C0913209F076C0833289F446
:103AE000888D90E0982F88272F89822BA0E0B0E066
:103AF0008093020190930301A0930401B093050108
:103B00005FC0803269F48091E80082FFFCCF67E0FB
:103B100086E091E00E94B7158BEF8093E80006C025
:103B2000823209F04DC08F8980930D0180919E04EF
:103B3000882319F0EEEFFAE002C0E0E0F8E08091AF
:103B4000060190910701A0910801B0910901803B05
:103B50009440A105B10509F07BC080910D0180FF63
:103B600093C076C00E94191FDC0112960D911C9122
:103B700013970115110541F1D801ED91FC910190C8
:103B8000F081E02DBE016B5E7F4FC8010995811168
:103B900017C0F80100851185ECCF113009F44EC033
:103BA000133091F48F89882309F445C0823081F461
:103BB00040E860E181EC91E00E945315882321F0F8
:103BC0008EEF8093E80079C081E28093EB0075C0AE
:103BD000813029F440E86BE085EB91E0EDCF833054
:103BE00099F70E94191FDC011296ED90FC90139733
:103BF0008E010F5F1F4F6801E114F10479F0D701C6
:103C0000ED91FC910680F781E02DB801C70109957F
:103C1000080F111DF701E084F184EECFD8011C924A
:103C2000F60101900020E9F73197BF016C197D0979
:103C300040E0C601C1CF6FE971E002C063EA71E004
:103C40006115710509F2FB01449150E080E840CF15
:103C50000FB6F894A8958091600088618093600009
:103C6000109260000FBEA895EE3F2AE0F20739F0EF
:103C70008091FE0A9091FF0A91838083A1CF1092D8
:103C8000FF0A1092FE0A9CCFEE3F8AE0F80731F05F
:103C9000808191819093FF0A8093FE0A87E797E7DE
:103CA000918380839BE088E10FB6F894A895809378
:103CB00060000FBE9093600083CF6C960FB6F894AF
:103CC000DEBF0FBECDBFDF91CF91FF91EF91BF91CE
:103CD000AF919F918F917F916F915F914F913F91A4
:103CE0002F911F910F91FF90EF90DF90CF900F9049
:103CF0000FBE0F901F9018953FB7F89480919307CF
:103D000090919407A0919507B091960726B5A89B2E
:103D100005C02F3F19F00196A11DB11D3FBFBA2F5D
:103D2000A92F982F8827820F911DA11DB11DBC01BD
:103D3000CD0142E0660F771F881F991F4A95D1F782
:103D40000895BC01009791F0FC0101900020E9F773
:103D50003197AF01481B590BE091C504F091C6049F
:103D60000280F381E02D85EC94E0099480E090E0FE
:103D700008958FB7F894E1E5F7E0438554856585AC
:103D8000768540835183628373838FBF08958FB795
:103D9000F894EEE3F7E043855485658576854083A6
:103DA0005183628373838FBF0895FC018091C404A3
:103DB000811103C08FEF9FEF08959FB7F89482E0C1
:103DC0008093E9002091F20030E01216130614F4FB
:103DD00021E030E02115310559F0289884E68093E0
:103DE000C3048091F10080838091F200882319F050
:103DF0009FBFC90108958BE68093E800F9CFCF9269
:103E0000DF92EF92FF920E947C1E6B017C010E9468
:103E10007C1EDC01CB018C199D09AE09BF09883ECF
:103E20009340A105B10598F3FF90EF90DF90CF90FC
:103E3000089580919B0781110DC082E080939707C0
:103E400084E08093980710929A071092990781E076
:103E500080939B0787E997E008951F920F920FB612
:103E60000F9211242F933F938F939F93AF93BF9300
:103E700080918F0790919007A0919107B091920740
:103E800030918E0723E0230F2D3720F40196A11DDA
:103E9000B11D05C026E8230F0296A11DB11D209378
:103EA0008E0780938F0790939007A0939107B0930C
:103EB00092078091930790919407A0919507B091F4
:103EC00096070196A11DB11D8093930790939407C7
:103ED000A0939507B0939607BF91AF919F918F9153
:103EE0003F912F910F900FBE0F901F901895CF9379
:103EF000DF93CDB7DEB7A5970FB6F894DEBF0FBE40
:103F0000CDBF789484B5826084BD84B5816084BD62
:103F100085B5826085BD85B5816085BD80916E0067
:103F2000816080936E001092810080918100826098
:103F300080938100809181008160809381008091D5
:103F400080008160809380008091910082608093E6
:103F50009100809191008160809391008091900008
:103F60008160809390008091C10084608093C10043
:103F70008091C10082608093C1008091C100816006
:103F80008093C1008091C30081608093C3008091C1
:103F9000C00082608093C0008091C20081608093E5
:103FA000C20080917A00846080937A0080917A00C8
:103FB000826080937A0080917A00816080937A0099
:103FC00080917A00806880937A001092C4041092E5
:103FD0009F04109290048091D70081608093D70055
:103FE00080EA8093D80089B5806189BD89B58260F7
:103FF00089BD09B400FEFDCF0E94FF1E8091D8004C
:104000008F7C80618093D8008091E000807F8093D6
:10401000E0008091E1008E7E8093E1008DE080934E
:10402000E200559A209AEEEFFFE7859194918B3F3D
:104030009C4D19F481E080939E0460E08BE00E9427
:10404000A71961E085E10E94A71980917A00886034
:1040500080937A0080917A00846080937A008091C6
:104060007A008D7F80937A0080917A008E7F809392
:104070007A0080E090E061E070E040917E009B017A
:10408000082E01C0220F0A94EAF7242B20937E0009
:1040900001968C30910589F784B58093C20485B56B
:1040A0008093C10487B58093C00480916E00809393
:1040B000BF0484EF95E1909393048093920410924F
:1040C000910480E090E040E950ED63E070E0FC0195
:1040D000EE52FE4FE491EE2389F06A017B01082E37
:1040E00004C0F694E794D794C7940A94D2F731E0C9
:1040F000C316D306E104F10408F40BC301968B3018
:10410000910529F780916E00826080936E0084B5DE
:104110008093BE0485B58093BD0487B58093BC04AD
:1041200080916E008093BB04809180008093A304F3
:10413000809181008093A2048091880090918900F1
:104140008093A10480916F008093A00461E089E0D6
:104150000E94A71961E08AE00E94A7191092B60494
:1041600098E19093B70482E08093B8049093810023
:104170008093800080E890E0A0E0B0E021E0209310
:10418000B3049093B2048093B1049093870080931A
:10419000860089E18093810061E089E00E94A7198F
:1041A000909180008091B804892B80688093800072
:1041B00010928900109288009091B3048091B70406
:1041C000892B8093810061E08AE00E94A719909179
:1041D00080008091B804892B8062809380001092C7
:1041E0008B0010928A009091B3048091B704892BC0
:1041F00080938100809180008093A704809181004A
:104200008093A60480918800909189008093A504F2
:1042100080916F008093A4048091C0008093AA04D1
:104220008091C1008093AA048091C2008093AA0467
:104230008091C3008093AA048091C4008093AA0453
:104240008091D1008093A904809172008093A8048A
:1042500019A286E388A387E38F8F89E38E8FCE012F
:104260004E960E94A11E87E291E00E94A11E81E06D
:1042700090E021E030E040E050E0CC24D22EE32E6C
:10428000F42E60EDC61663E0D606E104F10450F0AA
:10429000082F60ED73E080E090E00E946A241FEF39
:1042A000120F08C0220F331F441F551F0196813182
:1042B000910519F71092C0001092C1001092C2002F
:1042C0001092C3001092C4001092BF001092BE0062
:1042D0001093D1000093C1008091AD04811180E45E
:1042E000809372008BE494E19093AC048093AB04D0
:1042F00080E48093720091E09093AD04809372000B
:104300008091C0008093B0048091C1008093B0047C
:104310008091C2008093B0048091C3008093B00468
:104320008091C4008093B0048091D1008093AF0449
:10433000809172008093AE048BB18C6F8BB962E078
:1043400082E00E94A71962E083E00E94A71962E060
:1043500084E00E94A71962E085E00E94A71962E04C
:1043600086E00E94A71962E087E00E94A71961E039
:104370008DE00E94A71961E088E00E94A71961E022
:1043800088E00E94C4158FB7F8944CEC5CEC64E1B3
:1043900070E0409388075093890760938A07709371
:1043A0008B078FBF89E18093980480E580939904FF
:1043B0008FEC95E7A0E0B0E080939A0490939B0483
:1043C000A0939C04B0939D0460910E0170910F0125
:1043D000072E000C880B990B0E94AB259B01AC01AA
:1043E00060E070E68AE697E40E9408250E947A253C
:1043F00080E090E00E94A92520917F0730918007FE
:1044000040918107509182070E9437260E947A25A9
:1044100060937B0770937C0780937D0790937E0762
:10442000B0E02B2EB0E03B2E909124078091230723
:10443000981306C09091260780912507981362C1B2
:1044400084E697E00E94491B409151075091520722
:1044500060915307709154070091600710916107B4
:104460002091620730916307041715072607370765
:1044700028F590915B07992309F46BC1C09051070F
:10448000D0905207E0905307F090540740915C079A
:1044900050915D0760915E0770915F074C0D5D1D47
:1044A0006E1D7F1D401B510B620B730B4093510718
:1044B00050935207609353077093540740915107EC
:1044C000509152076091530770915407E09159073A
:1044D000F0915A07E60FF71F04914091550750914C
:1044E00056076091570770915807C0905107D090B8
:1044F0005207E0905307F09054074C0D5D1D6E1D60
:104500007F1D409351075093520760935307709358
:104510005407002E000C110BD801A80FB11D87FD08
:10452000BA95CD0140913E0750913F0760914007F9
:104530007091410700914D0710914E0720914F0750
:1045400030915007041715072607370708F403C1F1
:1045500040913E0750913F0760914007709141079D
:10456000E0914607F0914707E60FF71FE49140916D
:1045700042075091430760914407709145070091AD
:104580003E0710913F072091400730914107400FAF
:10459000511F621F731F40933E0750933F07609364
:1045A0004007709341078C010E0F111DE7FD1A950E
:1045B0008BE297E00E94491B9801280F311D87FD6F
:1045C0003A95C901A90142525F4F4D3B31E0530773
:1045D00008F0E8C04AE1489FF001499FF00D11241E
:1045E00020919A0430919B0440919C0450919D0429
:1045F00000919604109197044801012E000CAA081E
:10460000BB08C0909404D09095042601DD0C660888
:104610007708C501B4010E94FF266C01FF24D7FC76
:10462000F094EF2CC40CD51CE61CF71CD09295041A
:10463000C09294042091980440909A0450909B0456
:1046400060909C0470909D04CF01FF0FAA0BBB0BE0
:104650008AA39BA3ACA3BDA3C6010D2C000CAA0B7F
:10466000BB0B4AA15BA16CA17DA1481B590B6A0B36
:104670007B0B4AA35BA36CA37DA330E0D8010E940F
:104680002927BB2797FDBA95A92F982F872F2AA1F5
:104690003BA14CA15DA1281B390B4A0B5B0BA091E0
:1046A0009904B0E00E945724BB2797FDBA95A92F23
:1046B000982F872FDC01A30192010E946224BB275F
:1046C00097FDB095AB2F880E991EAA1EBB1E909227
:1046D00097048092960480912407E82FF0E0EE0F73
:1046E000FF1FED5DFA4F50EED51AD182C0828F5F69
:1046F00080932407811106C08091260761E08627F8
:10470000809326072114310409F48ECE0E94000004
:104710008BCEA1E0B0E002C0AA0FBB1F8A95E2F7E2
:10472000A70196010E946224DC01CB0124E0B5952B
:10473000A795979587952A95D1F79093BA0480937A
:10474000B90410926E0082E084BDE5BDCA94C7BC76
:10475000D9CC00E0DECE40914807442309F1C09057
:104760003E07D0903F07E0904007F090410740910E
:10477000490750914A0760914B0770914C074C0DC7
:104780005D1D6E1D7F1D401B510B620B730B409313
:104790003E0750933F076093400770934107D8CE80
:1047A000E0E001CF8F3D91055CF08E5D910956E010
:1047B000589FF001599FF00D1124EB59F94E10CF7D
:1047C00066E0649FF001659FF00D1124E556F64107
:1047D00007CFE5ECF4E01382128288EE93E0A0E0CC
:1047E000B0E084839583A683B7838BE191E09183C6
:1047F00080838FEF9FEF9587848790932205809326
:104800002105109223071092240710922507109279
:10481000260789E59DE190938D0780938C07E7E754
:10482000F7E08FE692E1A3E8B1E480879187A28761
:10483000B38714821582168217821486E4E6F7E0A5
:1048400080E194E19187808780E090E0A9E4B9E07D
:104850008787908BA18BB28B1286E1E5F7E026E487
:1048600031E13187208740E050E06AEC72E0478711
:10487000508B618B728B1286EEE3F7E023E038E019
:104880003187208740E050E063E479E04787508B30
:10489000618B728B1286EBE2F7E02DED31E0318710
:1048A00020878787908BA18BB28B128608950E94F8
:1048B0008C24A59F900DB49F900DA49F800D911DF9
:1048C00011240895B7FF0C9457240E945724821B8B
:1048D000930B0895A1E21A2EAA1BBB1BFD010DC06C
:1048E000AA1FBB1FEE1FFF1FA217B307E407F507A0
:1048F00020F0A21BB30BE40BF50B661F771F881F7C
:10490000991F1A9469F760957095809590959B0111
:10491000AC01BD01CF010895A29FB001B39FC001BA
:10492000A39F700D811D1124911DB29F700D811DDB
:104930001124911D08955058BB27AA270E94B32423
:104940000C94FD250E94EF2538F00E94F62520F0FA
:1049500039F49F3F19F426F40C94EC250EF4E095FD
:10496000E7FB0C94E625E92F0E940E2658F3BA17B0
:10497000620773078407950720F079F4A6F50C9475
:1049800030260EF4E0950B2EBA2FA02D0B01B901A5
:1049900090010C01CA01A0011124FF27591B99F0B5
:1049A000593F50F4503E68F11A16F040A22F232FC1
:1049B000342F4427585FF3CF469537952795A79511
:1049C000F0405395C9F77EF41F16BA0B620B730BB8
:1049D000840BBAF09150A1F0FF0FBB1F661F771F29
:1049E000881FC2F70EC0BA0F621F731F841F48F4DE
:1049F000879577956795B795F7959E3F08F0B0CF67
:104A00009395880F08F09927EE0F9795879508954D
:104A10000E941C250C94FD250E94F62558F00E944A
:104A2000EF2540F029F45F3F29F00C94E625511161
:104A30000C9431260C94EC250E940E2668F39923E1
:104A4000B1F3552391F3951B550BBB27AA2762178A
:104A50007307840738F09F5F5F4F220F331F441F97
:104A6000AA1FA9F335D00E2E3AF0E0E832D09150CB
:104A70005040E695001CCAF72BD0FE2F29D0660FB8
:104A8000771F881FBB1F261737074807AB07B0E8FB
:104A900009F0BB0B802DBF01FF2793585F4F3AF001
:104AA0009E3F510578F00C94E6250C9431265F3F2B
:104AB000E4F3983ED4F3869577956795B795F79587
:104AC0009F5FC9F7880F911D9695879597F908956F
:104AD000E1E0660F771F881FBB1F6217730784070B
:104AE000BA0720F0621B730B840BBA0BEE1F88F71A
:104AF000E09508950E94162688F09F5798F0B92FE8
:104B00009927B751B0F0E1F0660F771F881F991F02
:104B10001AF0BA95C9F714C0B13091F00E9430264E
:104B2000B1E008950C943026672F782F8827B85F5E
:104B300039F0B93FCCF3869577956795B395D9F75A
:104B40003EF490958095709561957F4F8F4F9F4F64
:104B50000895E89409C097FB3EF490958095709570
:104B600061957F4F8F4F9F4F9923A9F0F92F96E9B9
:104B7000BB279395F695879577956795B795F1112E
:104B8000F8CFFAF4BB0F11F460FF1BC06F5F7F4FCB
:104B90008F4F9F4F16C0882311F096E911C07723DD
:104BA00021F09EE8872F762F05C0662371F096E8E6
:104BB000862F70E060E02AF09A95660F771F881FB5
:104BC000DAF7880F9695879597F9089597F99F6773
:104BD00080E870E060E008959FEF80EC0895002485
:104BE0000A941616170618060906089500240A9452
:104BF00012161306140605060895092E0394000CD8
:104C000011F4882352F0BB0F40F4BF2B11F460FF66
:104C100004C06F5F7F4F8F4F9F4F089557FD90588F
:104C2000440F551F59F05F3F71F04795880F97FB70
:104C3000991F61F09F3F79F087950895121613062A
:104C40001406551FF2CF4695F1DF08C01616170659
:104C50001806991FF1CF869571056105089408958E
:104C6000E894BB2766277727CB0197F908950E9420
:104C70004A260C94FD250E94EF2538F00E94F62567
:104C800020F0952311F00C94E6250C94EC251124CA
:104C90000C9431260E940E2670F3959FC1F3950F58
:104CA00050E0551F629FF001729FBB27F00DB11DB0
:104CB000639FAA27F00DB11DAA1F649F6627B00D40
:104CC000A11D661F829F2227B00DA11D621F739F29
:104CD000B00DA11D621F839FA00D611D221F749F37
:104CE0003327A00D611D231F849F600D211D822F7E
:104CF000762F6A2F11249F5750409AF0F1F08823A5
:104D00004AF0EE0FFF1FBB1F661F771F881F9150D1
:104D10005040A9F79E3F510580F00C94E6250C9475
:104D200031265F3FE4F3983ED4F3869577956795F7
:104D3000B795F795E7959F5FC1F7FE2B880F911DFB
:104D40009695879597F9089519F416F40C94EC2527
:104D50000C94EA260E941626B8F39923C9F3B6F3F9
:104D60009F57550B87FF0E94F8260024A0E640EAD3
:104D7000900180585695979528F4805C660F771FB0
:104D8000881F20F026173707480730F4621B730B83
:104D9000840B202931294A2BA695179407942025A6
:104DA00031254A2758F7660F771F881F20F02617EE
:104DB0003707480730F4620B730B840B200D311D4D
:104DC000411DA09581F7B901842F9158880F9695C0
:104DD000879508959F3F31F0915020F487957795FE
:104DE0006795B795880F911D9695879597F90895C2
:104DF00091505040660F771F881FD2F70895DB014E
:104E00008F939F930E945724BF91AF91A29F800DD3
:104E1000911DA39F900DB29F900D1124089597FBB3
:104E2000072E16F4009407D077FD09D00E94302792
:104E300007FC05D03EF4909581959F4F089570959D
:104E400061957F4F0895EE0FFF1F0590F491E02DBF
:104E500009940E948C24B7FF0895821B930B089538
:104E6000AA1BBB1B51E107C0AA1FBB1FA617B70790
:104E700010F0A61BB70B881F991F5A95A9F78095AC
:104E80009095BC01CD01089581E090E0F8940C94D8
:064E90004927F894FFCF52
:104E9600FF01FFFFFFFF00E10000000000008007A8
:104EA60000C180810000000000000031137F145211
:0A4EB6001311152F1547130D0A0004
:00000001FF
