:100000000C94A11D0C94C91D0C94C91D0C94C91D00
:100010000C94C91D0C94C91D0C94C91D0C94C91DC8
:100020000C94C91D0C94C91D0C94ED250C945F26ED
:100030000C94C91D0C94C91D0C94C91D0C94C91DA8
:100040000C94C91D0C94C91D0C94C91D0C94C91D98
:100050000C94C91D0C945D240C94C91D0C946F2341
:100060000C94C91D0C94C91D0C94C91D0C94C91D78
:100070000C94C91D0C9493240C94C91D0C94C91D97
:100080000C94C91D0C94C91D0C94C91D0C94C91D58
:100090000C94B9230C94C91D0C94D2240C94C91D42
:1000A0000C94C91D0C94C91D0C94C91D491E4C1EED
:1000B0003B1E3F1E451E6D1E6D1E6D1E501E541EA6
:1000C000581E5E1E621E6D1E681E07060504010096
:1000D000080A0B0C0D0900000000240027002A006C
:1000E0002D00300000000000250028002B002E000D
:1000F0003100000000002300260029002C002F0002
:1001000004040404040304050202020204030202BC
:10011000020206060606060604040202020404049D
:1001200008020110408040102040804080080204F6
:10013000018040201002011080102040402000006B
:10014000000200090F0000030401000C0000000081
:1001500000000000000000000000000000080B008C
:10016000020202010009040000010202000005244D
:1001700000100105240101010424020605240600E3
:10018000010705810310004009040100020A000074
:10019000000705020240000007058302400000043A
:1001A00003090412010002EF0201404123368000DE
:1001B000010102030141726475696E6F204C4C436A
:1001C0000041726475696E6F204C656F6E61726478
:1001D0006F000100000200000300040005FEC99941
:1001E0008480818081808180818081808180808005
:1001F000818995A1AEBAC6D1DAE5F1FB082338387A
:10020000384550595F63676D737678797B7D7D7E65
:100210007F7E7B787777746E6A6865605B5855512E
:100220004C4945423F3C39363331302F2D2C2B2A57
:100230002A2A2A2A2B2C2D2E3031333537393B3DB3
:1002400040424547494B4D4F5152545557585859C4
:100250005A5A5A5A595857565452504E4C49464376
:10026000403C3834302B27231E1A15100B0601FC96
:10027000F7F1E4CBBDC1C0B5ACA6A19E9B96918E13
:100280008C8B88868684838487888785878A8C8DF3
:100290008E9091929396989A9B9C9E9FA1A3A6A7BD
:1002A000A8A9ABADAEAFB0B1B2B3B4B5B6B7B8B93B
:1002B000B9BABABBBCBCBDBDBDBEBFBFC0C1C2C365
:1002C000C4C5C7C8CACBCDCED0D1D3D5D7DADCDE32
:1002D000E1E2E4E6E8EBEDEFF2F5F8FBFE010408FD
:1002E0000C162B3A35313942474B4C4F53585C5E14
:1002F0006062646668686664636466656260605FC5
:100300005D5B5B5A5855535151504E4D4B4A4949CC
:10031000494847464545454544444444434343438F
:10032000424141414141403F3E3D3C3B39383736F7
:100330003433312F2D2C2A2725221F1C1A17141174
:100340000E0C09070401FFFCF9F6F3F0E3CCC2C977
:10035000CAC1BAB6B3B2B1ADAAA9A9A9A7A6A6A5A2
:10036000A5A7A9ABA9A7A8ACACACADAEAFB0B1B2D4
:10037000B4B5B6B7B9BBBCBDBEBFC0C1C2C3C3C4B0
:10038000C5C6C7C7C7C7C7C6C6C5C5C5C5C5C5C510
:10039000C5C5C6C7C7C8C9CACBCBCCCDCFD0D1D2B3
:1003A000D4D5D7D9DCDEE1E4E7E9ECEEF0F3F5F7FC
:1003B000FAFDFF0205080B0F172B3C3831363E4281
:1003C0004546474A4D505050525455575756535032
:1003D000505252504E4F4E4D4C4B4B4A484746445C
:1003E00042413F3D3B393837353332313030302FA1
:1003F0002E2E2D2E2E2D2D2D2D2D2D2E2E2F2F2E22
:100400002F2F2F2E2E2D2D2C2C2C2B2A2928272533
:100410002422201E1C1A171513110F0C0A070401A1
:10042000FEFCF9F6F4F1E7D0C3C9CDC5BEBBB9B83F
:10043000B7B4B1B0B0B0AEADADADADAFB3B5B4B1B2
:10044000B3B6B8B8B8BABBBBBCBDBFC1C3C4C6C7DE
:10045000C8C9CACCCDCED0D1D2D2D3D4D4D4D5D59C
:10046000D4D4D4D4D4D4D4D4D4D4D4D3D3D3D3D450
:10047000D4D4D4D5D5D6D7D7D8DADBDCDDDFE1E3E9
:10048000E6E8E9EBEDEFF1F3F5F7FAFDFF0204071B
:100490000A0D1323373A32343B4144454547494C12
:1004A0004E4E4F51515254524F4C4B4D4E4B48476C
:1004B0004746444342413F3E3C3A37363433312E7F
:1004C0002D2D2C2A292828282726252525252526AF
:1004D00026262626272828282828282828272727A8
:1004E0002827262524232321201E1D1B181614121D
:1004F000100E0C0907050301FEFCF9F7F3F1EFED0F
:10050000E5CFC1C6CCC6BEBAB8B8B7B5B1B0B1B107
:10051000B0B0B1B0B1B4B8BBB9B6B7BBBDBCBDBF6C
:10052000C1C1C2C3C6C9CBCCCED0D1D3D4D6D7D803
:10053000D9DADBDCDCDDDFDFE0E0E0E0E0E0E0E0DA
:10054000E0E0DFDEDEDDDCDCDCDDDDDDDEDDDDDED2
:10055000DEDEDFE1E2E3E3E4E6E8EAEDEEF0F1F32C
:10056000F4F6F8FBFE000306080B0D101523383DCA
:1005700034343B4144454546494B4C4C4D4D4E4F20
:10058000504E4B4846484A4743434342403E3D3C19
:100590003A3835322F2E2D2C2A27252523211F1FAF
:1005A0001E1E1D1C1A191A1A1B1A1A1A1A1A1B1C9B
:1005B0001C1C1C1D1D1D1D1D1C1C1C1C1B1B1B1A7B
:1005C00019181716151311100E0D0C0B0908060536
:1005D0000200FEFCF9F7F5F3F1EFE7D4C4C7CDC88C
:1005E000C2BEBCBBBAB8B6B4B5B5B5B4B5B5B5B88E
:1005F000BCBFBEBBBBBFC1C1C1C3C6C7C7C8CBCED2
:10060000D1D3D4D7D9DBDDDFDFE1E2E4E5E5E6E70E
:10061000E8E9EAEBEAE9EAEAEAE9E9E8E7E7E7E64E
:10062000E6E5E5E5E6E6E6E6E6E7E7E7E8E9EAEB5C
:10063000ECEDEFF1F2F4F5F6F7F9FBFCFDFF020447
:1006400006080A0D0F111521353C3532363B3E3F69
:100650003F404344444444454646474643403E3F6A
:10066000413F3B3A3A393736353432302E2B292741
:10067000262422201E1D1C1A1818171615141312D2
:100680001112121212121212131415151515151536
:100690001514141516161515151514141312100F1C
:1006A0000D0B0A09080706040301FFFDFBF9F7F427
:1006B000F2F0F0EEE7D4C4C6CCC9C3C0BEBEBEBE25
:1006C000BBB9B9BABBBBBCBCBDC0C4C7C7C4C4C737
:1006D000CACACBCDCFD0D1D2D4D7DBDCDDDFE1E3CA
:1006E000E5E7E7E8EAEBECECEDEEEFF0F1F1F1F045
:1006F000F0F1F1F0EFEFEEEEEDEDECECECECECED1B
:10070000ECECEBECECECECEDEEEFEFF0F2F3F5F6FD
:10071000F7F8F9FBFCFDFF01030406080A0D0F12B0
:10072000151F303A353134383C3D3D3E3F40404165
:100730004141414142413E3B39393B393635343301
:10074000312F2E2D2C292723211F1E1D1B18171674
:100750001513121111100F0E0D0C0B0C0D0D0C0CAE
:100760000C0C0D0E0F0F0F0F0F0F0E0E0E0E0F0FA6
:100770000F0F0F0F0E0E0D0D0D0B090807060605C6
:1007800004020100FEFDFAF8F7F5F3F1F0EEE8D807
:10079000C8C7CDCCC6C2C0C1C1C0BFBEBEBFBFBF2F
:1007A000C0C1C2C4C7CBCCCAC9CDCFD0D0D2D5D698
:1007B000D6D8DADDE1E3E4E5E8EAECEEEFEFF1F2DA
:1007C000F3F3F4F5F6F7F8F9F8F7F7F8F8F7F6F6C3
:1007D000F5F4F3F3F2F2F2F2F2F2F1F0F0F1F1F1FA
:1007E000F1F2F2F3F3F4F5F6F8F8F9FAFBFDFEFE98
:1007F000FF0103040608090B0E10131C2B353430BF
:100800003235393A3B3B3C3D3D3D3E3E3D3D3E3D34
:100810003B3835353534312F2F2D2B2928272624E9
:10082000211E1C1A1816151311100F0D0B0B0A0997
:100830000908060505050606050506060607080952
:100840000A0A0A0A0A0A0A0B0B0C0B0B0C0C0B0AFD
:100850000A0A0A08060505040402010000FFFDFB60
:10086000FAF8F6F5F3F2F1EFEADCCCC8CECFCAC65F
:10087000C4C4C5C4C3C2C2C3C3C3C4C5C6C9CCCF24
:10088000D1CFCFD1D4D5D6D7D9DBDCDDDFE2E5E7D8
:10089000E9EBEDEFF0F2F3F4F6F7F8F8F9F9FAFC1A
:1008A000FDFEFDFDFDFDFDFCFBFBFAF9F9F8F7F798
:1008B000F7F7F7F7F6F5F5F6F6F6F6F6F7F7F7F7D2
:1008C000F9FAFBFBFCFCFEFF000000020305060832
:1008D000090B0D0F121A2731332F303336383838C1
:1008E000393A3A3A3A3A3A3A3A3937343231313097
:1008F0002E2C2B2927252423211F1D1917151312F0
:10090000100D0B0A09070605050403020100FF008C
:1009100001010100010102020405050606060606A2
:100920000607080807070808070707070605030260
:1009300002020100FFFEFEFDFCFBF9F7F6F5F4F202
:10094000F1EFEADFD0CACED0CCC8C6C5C6C6C5C492
:10095000C4C5C6C6C7C8C9CBCED2D4D3D2D4D7D9C2
:10096000DADBDDDFE0E1E4E7EAECEDEFF1F3F5F708
:10097000F8F9FBFCFDFEFEFF000102030202020289
:1009800002010000FFFEFDFCFBFBFBFAFAFAFAF99C
:10099000F8F8F9F9F9F9F9FAFAFAFBFCFEFEFEFFAC
:1009A000000102020203050608090B0C0E10131ABF
:1009B000252F32302F3234363737383838373838F9
:1009C0003737373634312F2D2D2C2A28272524224E
:1009D000201F1D1B181613110F0E0C090706050307
:1009E00002010100FFFEFDFCFBFCFCFCFCFCFCFD2D
:1009F000FDFEFF00010102020202020304040404DE
:100A000004040404040404030100000000FFFEFDCC
:100A1000FDFCFBFAF8F7F6F4F3F2F1EFEAE1D3CCE0
:100A2000CED0CDCAC8C6C7C7C7C6C6C6C7C8C9CA3A
:100A3000CBCED0D4D6D6D6D7DADCDDDFE1E2E4E522
:100A4000E7EAEDF0F1F3F5F7F9FBFCFEFF00010238
:100A5000020304050607070606060605040403024A
:100A60000100FFFFFFFEFEFEFDFCFCFCFCFCFCFCAD
:100A7000FCFCFCFCFDFF0000000001020303040479
:100A80000607080A0B0C0E101319222B2F302F30DB
:100A90003335363737363636363635353533322F09
:100AA0002D2B2A2928262422201E1D1B1A18151238
:100AB0000F0D0B0A0805030201FFFEFDFCFCFBFA0B
:100AC000F9F8F7F8F8F8F8F8F9F9FAFAFCFDFEFE8B
:100AD000FEFFFFFF00000102020202020202020208
:100AE0000201FFFEFEFEFEFDFCFBFBFBFAF8F7F643
:100AF000F5F4F3F2F0EEEAE2D6CFCFD0CECBC9C810
:100B0000C8C8C8C8C8C8C9C9CBCCCED0D3D6D8D914
:100B1000D9DADCDEE0E2E4E5E7E8EBEDF0F3F5F668
:100B2000F9FBFDFF000103040505060708090A0A91
:100B30000A0A0A0A0A090807070504030202020151
:100B4000010100FFFEFEFEFEFEFEFEFEFEFEFF00B9
:100B5000010101010203040405050608090A0B0D41
:100B60000F11141921292E2F2F30323435363636F5
:100B70003535353534333332302D2B29282625238E
:100B8000211F1D1B1A181614110F0C0A0806040247
:100B900000FEFDFCFAF9F9F8F7F6F5F4F4F4F4F5D3
:100BA000F5F5F5F6F6F7F8FAFBFBFCFCFCFDFDFEAF
:100BB000FEFFFFFF0000000000010000FEFDFDFD44
:100BC000FDFDFCFBFAFAF9F8F7F6F5F4F3F2F0EEB6
:100BD000EAE2D9D2D0D1D0CDCBCAC9C9C9C9C9CA14
:100BE000CACBCCCDCFD1D4D6D9DADBDCDEE0E2E49F
:100BF000E6E8E9EBEDF0F3F5F7F9FBFD000103049E
:100C000006070809090A0B0C0D0D0E0D0D0D0D0C34
:100C10000B0B0A090706060505040403020101007F
:100C20000000000000FFFFFF0001020202020304B7
:100C3000050505060708090A0B0D0F1014192026D3
:100C40002B2E2F2F31333435353534333333323285
:100C500031302E2C2A28262423211F1D1B1917165C
:100C60001412100D0A0806040200FEFCFAF9F8F747
:100C7000F6F5F5F4F3F2F1F1F1F2F2F2F2F3F4F544
:100C8000F6F7F8F9F9F9FAFAFBFBFCFDFDFEFEFEBA
:100C9000FEFFFFFFFFFEFDFCFCFCFCFCFAF9F8F890
:100CA000F7F6F5F4F3F2F0EEEDEDEDEEF0F1F2F231
:100CB000F1F2F3F3F2F2F3F4F4F5F4F4F4F5F6F6FA
:100CC000F7F6F6F6F6F5F5F4F4F4F4F4F4F4F4F5D6
:100CD000F6F7F8F9FAFAFBFCFCFDFEFEFEFEFEFE5E
:100CE000FFFFFF0000FFFFFFFFFEFDFCFCFBFAF92A
:100CF000F9F9F9F9F8F8F8F7F6F6F6F6F6F6F6F681
:100D0000F6F6F7F7F8F8F8F7F8F8F9F9F9F9FAFA62
:100D1000FBFCFCFDFDFEFEFEFEFDFDFDFDFDFCFC05
:100D2000FCFDFCFCFBFAFAFBFBFAFAFAFAFAFBFB15
:100D3000FCFCFDFDFEFFFFFFFF00000000FFFFFFCA
:100D4000FEFEFEFDFDFCFCFBFBFBFBFBFBFBFAFAE6
:100D5000F9F9F9F9F9FAFAFAFBFBFCFDFEFEFEFFE0
:100D6000FFFFFF000001010101010101010101017B
:100D7000000000010101010000FFFFFFFFFE00FF76
:100D8000FF000000FF00FF00FE01FD02FB08BF8026
:100D90008080808080808080808080808080808053
:100DA0008EC6E0FE293C3235424B535756575C60A5
:100DB000605C5A5A5A5757534D454040403617EDDC
:100DC000DAE2E4D6CAC1BCB9B4ADA6A2A09F9B9793
:100DD00094908E9093959391949A9D9EA2A6AAAD7D
:100DE000B0B5BABFC2C6CAD0D5DADFE4E7EBF0F5DA
:100DF000F9FC0003070B0F13161A1C1F2327314C95
:100E00006A6C5F5E686F727273757A7E7E7D7D7FBD
:100E10007F7F7F7E7A757375756F696765615C59D1
:100E20005754504C4949474643403E3C3B3B393878
:100E30003635353534343536363636363737373756
:100E40003636363638393939393939383737383826
:100E5000373535353535343231302F2F2E2D2D2C79
:100E60002B29282726262525242424232321201F37
:100E70001D1C1B1B1A1A1A191917161515141413F1
:100E800012110F0D0B0906040200FFFEFDFCFAF91A
:100E9000F8F7F6F5F5F6F7F3E3C5ACADB6B2A9A2EF
:100EA000A1A2A39F999696979897979696999EA296
:100EB000A19D9DA3A7A7A8AAADB0B1B3B6B8BBBE6C
:100EC000C0C3C5C8CCCED0D1D3D5D8D9D9D8D9DA1A
:100ED000D9D9D8D7D6D4D2CFCDCBC8C6C3C0BDBB45
:100EE000B8B5B2B0ADAAA6A4A3A2A1A09E9D9C9C99
:100EF0009C9EA0A1A1A3A3A4A4A4A5A6A8A9AAABB3
:100F0000ADAFB1B2B3B4B4B5B5B6B7B9BBBDBEC180
:100F1000C3C5C8CACDD0D2D5D8DADBDCDDDFE1E38A
:100F2000E6E9EBEDEFF2F5F8F9FAFBFBFBFBFDFE72
:100F3000FF0000010306090B122542534F494F5889
:100F40005D5E5D5C5E626565656667686968645E76
:100F50005B5A5A57514D4C4A474443413F3C3937FD
:100F6000363432302D2B2A292928272727282829CB
:100F70002B2D2F3032343536383A3C3E4145474AE6
:100F80004C4F5153555758595A5A59585758585702
:100F90005656565553525252535455555453525116
:100FA000504F4F4F4F4E4D4D4D4B4A494644423F97
:100FB0003D39363432302E2C2A282523211F1C1887
:100FC00014110E0B0907050301FFFCFBFBFBF9F7EE
:100FD000F5F3F2F1EFE8D0AFA2ACB0A8A19E9EA0CD
:100FE0009F9A959597999A9B9B9B9DA2A9ADACAB17
:100FF000AFB5B7B8BABCBCBCBCBFC2C5C7C9CBCD06
:10100000CECFD1D2D1CFCDCECFCECDCBCBCBCBCA05
:10101000C8C8C8C8C8C7C5C3C2C1C0BEBCBAB8B6B4
:10102000B5B4B3B3B2B1B0AFAEADACACADADADADC8
:10103000ADADACABABAAAAA9A8A8A7A8A9AAAAAA11
:10104000AAAAABABABACAFB0B2B3B5B8BCBFC0C271
:10105000C5C8CBCED1D3D5D6D8DADCDEE1E3E7EA1A
:10106000EDEFF0F0F2F4F6F7F7F8F9FBFCFDFE0017
:1010700003070A102240524D464A52585957585DAC
:10108000626566676A6D6E6E6C6863605F605D580E
:101090005452514E4C4C4B484643403D3B383534FE
:1010A0003332323232323132333434343536393A03
:1010B0003B3C3D3F41424446484A4C4E51545658B1
:1010C000595A5A5B5B5A5A5A5A5959595958585889
:1010D00058585858595A5A5A5A5A5A595959585880
:1010E00058575655545251504F4C494644413E3B37
:1010F0003834312D2A272422201E1B1916120E0BDC
:1011000009060301FFFEFEFDFBF9F8F6F3F1F0EF2F
:10111000EFECE3CAAAA0ABAEA69F9C9D9E9C9895BF
:10112000959798989899999DA2A8ABAAAAAEB3B59D
:10113000B5B5B7B7B6B6B8BBBEBFC1C2C3C4C6C7E4
:10114000C6C5C4C4C6C6C6C5C4C4C3C2C1C1C1C065
:10115000C0C0C1C0BEBCBAB9B7B3B0AEADACACAB29
:10116000ABAAA9A9A9AAABABAAA9A8A8A9A9AAAAE6
:10117000ABABAAAAAAAAAAAAAAAAAAABADADACADC1
:10118000AFB2B3B3B5B7BABCBEC1C5C8CBCDCFD271
:10119000D6D9DCDEE0E1E2E3E4E6EAEDF0F1F2F3F9
:1011A000F3F5F7F9FAFCFCFCFEFF010305070A0D55
:1011B00018324E544C4A51585B5B5B5E63686969F8
:1011C0006A6C6E6E6D6A66615F5F5E5A5552525010
:1011D0004F4E4F4E4B48464544423F3D3C3B3B3BC8
:1011E0003C3C3C3D3D3D3C3C3D3D3D3C3C3C3E3F34
:1011F00040404041424345484A4D4F505151515063
:1012000050515252525151515251505152535353C5
:10121000535454555657565656575758595957566A
:10122000555452504E4D4A4542403E3B3835302D84
:1012300029272522201E1B181613100C0A08060445
:1012400004030200FFFEFCFBF8F6F5F4F2F0EBDA23
:10125000B9A2A8B1ABA29B9A9C9C99938F909292B1
:10126000939394969AA0A5A6A5A7ADB1B2B2B3B434
:10127000B4B5B6B9BBBDBFC1C3C5C6C6C7C7C6C670
:10128000C6C7C7C7C7C7C6C5C5C4C4C3C2C2C3C310
:10129000C1BFBEBDBBB9B7B4B2B0AFAFAFAFAFAEF9
:1012A000ADADADADADADACACACABABABABABABAC7E
:1012B000ACACABABABACADADADACACADAEB0B2B35A
:1012C000B5B6B8B9BBBEC2C4C6C9CBCED0D3D5D8CB
:1012D000DADCDDDFE0E3E6E9EDF0F2F4F5F6F7FA6B
:1012E000FCFEFF0001020407090B0E11172B4958E1
:1012F000524C50575C5D5C5D62676B6B6C6D6F70E0
:101300006F6C6863605F5F5C575352514E4D4D4C3C
:1013100049454341403D3B39373535363737373717
:101320003737383838383838393A3C3E3E3F404114
:1013300041434547494C4D4F5152525251515253DE
:101340005353535354535352515152535252515178
:1013500053545453535353545555545251504F4D65
:101360004B494845423F3D3B3935312E2A282725F8
:1013700023211F1C1916120E0C0A0908060301016D
:101380000100FEFCFAF8F6F5F4F2EFE4C9AAA5AF05
:10139000B0A7A09D9E9F9C979292939393949596AD
:1013A0009A9FA5A7A7A7ABB1B3B3B5B6B7B7B8BB5C
:1013B000BDBFC0C2C5C7CACBCBCBCACACAC9C9CABE
:1013C000CACACAC9C9C8C8C7C7C6C5C4C3C2C1BFBB
:1013D000BEBCB9B6B3B1B0B0B1B0AFAFAFAEADACEB
:1013E000ACACABABABABABABAAAAA9A9A8A8A7A75F
:1013F000A7A8A8A9A9A8A8A8A9ABADAFB0B2B3B532
:10140000B7BABEC0C3C6C9CCCFD3D6D9DBDEDFE105
:10141000E3E5E7EAEDF0F3F5F6F7F8F9FCFDFEFE9B
:101420000001030506080A0D111F3A52544B4B5296
:10143000575A5A5B5E636668686A6B6C6D6B68636B
:101440005E5D5E5C585351504E4D4D4D4C49474585
:1014500043403E3C3A3938383839393939393939E5
:101460003939393938393A3B3C3C3D3F3F404144BA
:1014700046494B4D4E4F505050505051535353537B
:101480005354545353525355555555545556575715
:1014900056565657585857555352504F4D4B49462C
:1014A00043403D3B3734302D29262422201E1C1971
:1014B0001714120F0C0A090807050302020200FEA6
:1014C000FDFAF8F7F6F5F3ECD7B6A4ADB3ABA39EEF
:1014D0009E9F9E999391919292939495989DA2A686
:1014E000A7A6A9AFB2B2B3B5B6B6B7B9BBBDBFC1B7
:1014F000C3C5C8C9CACACAC9C9CACACACACACACA5D
:10150000CAC9C9C9C8C7C6C5C4C3C2C1C0BDBAB8A3
:10151000B5B3B1B0B0AFAFAFAFAEADADADACACABDE
:10152000ABACACACACABAAAAABABAAAAA9A9ABAB0F
:10153000ABABAAAAAAACAEAFB1B2B4B6B8BABEC190
:10154000C3C5C8CCCFD3D6D9DCDEDFE1E3E5E7E91C
:10155000ECF0F2F4F5F7F8F9FBFCFDFEFF010204F4
:101560000607090C10182E4A564F4A4F565B5C5B13
:101570005D626668696A6B6D6D6D6A66605D5E5D11
:10158000595451504F4D4C4C4B49474543413E3CBB
:101590003A383837373737373737373737373736D7
:1015A0003636373839393B3C3D3E3F414446494B5E
:1015B0004D4E4E4F5050505152535353535353531B
:1015C00052525253545453535354555554545454E3
:1015D0005555555352504F4D4C4A4946433F3D3A5D
:1015E0003734312E2A282523211F1D1B18161310CE
:1015F0000D0B0A0807060402020100FEFCFAF8F6C9
:10160000F5F4F2EEE0C2A7A7B1AFA69F9D9E9E9B08
:101610009592929393949596989CA1A6A8A8A9AF09
:10162000B3B4B5B6B8B8B8BABCBEC0C2C4C6C8C9EF
:10163000CACBCBCBCACACACACACACACACACACACA07
:10164000C9C7C6C6C6C5C3C2C1C0BDBAB8B6B4B3A1
:10165000B2B1B1B1B1B0AFAFAFAFAEADADADAEAE97
:10166000AEADADACADADACACABABACADADADACACB3
:10167000ACADAFB0B2B3B5B7B8BABDC0C3C5C8CBD7
:10168000CED2D5D8DBDDDFE0E2E4E6E8EBEEF1F345
:10169000F5F6F7F8FAFCFDFDFEFF01030507080A61
:1016A0000D13233F53524A4C53595B5B5C60656892
:1016B00069696B6C6E6E6C68635F5E5D5B56525100
:1016C0004F4D4C4C4B49474542403D3B39373535F2
:1016D00035353535353535353535353535353536B9
:1016E0003738393A3C3C3D3F414446484A4C4C4DE2
:1016F0004E4E4E4E4F5051505051515150505050EF
:1017000051525151515253535353535354545454AF
:1017100052504F4E4C4B494744413E3C3936332F93
:101720002C29262322201E1C191714110E0B0A081F
:1017300007060402010100FFFDFBF9F7F5F4F3F0E1
:10174000E8D0B0A4AEB1A9A29E9E9F9D989492931A
:1017500094949596989BA0A5A9A9A9ADB3B5B5B742
:10176000B8B9B9BABCBFC0C2C4C6C8CACBCBCCCC4E
:10177000CBCBCBCBCCCCCBCCCBCBCBCCCBCAC9C8BB
:10178000C8C7C6C5C4C2C0BEBBB8B6B5B4B3B2B292
:10179000B2B2B1B0B0B0AFAFAEAEAFAFAFAFAEAD53
:1017A000ADADADADACABACADAEAEADADACADAFB166
:1017B000B2B4B5B7B8BABDC0C3C5C8CBCFD2D6D9FD
:1017C000DCDEE0E1E3E5E7E9EBEEF1F3F5F7F8F86D
:1017D000FAFCFDFEFEFF01030507080A0D111C348B
:1017E0004E554D4B51575B5C5B5E636769696A6B35
:1017F0006D6D6C69645F5D5D5B5752504F4D4B4A38
:101800004A49464442403D3B39363434343433331C
:101810003434333333333333333333343536363789
:10182000393A3B3C3E41434648494A4A4B4C4C4C72
:101830004D4E4F4F4E4E4E4F4E4E4D4E4F4F504FC2
:101840004F4F50515151505051525252504E4D4C99
:101850004A494745433F3C3A3735322E2B2825230A
:10186000211F1D1B191714120E0C0A080706050369
:10187000010101FFFEFCFAF8F6F5F4F2ECDBBCA581
:10188000A9B2ADA59F9E9F9F9B9693939494959686
:1018900097999EA4A8A9A9ABB1B5B6B7B9BABABA77
:1018A000BCBEC1C3C4C7C9CBCCCDCECECECECDCEAF
:1018B000CECFCECECECECECECECDCCCBCBCAC9C85F
:1018C000C7C6C4C2BFBCBAB9B8B6B6B5B5B5B4B36D
:1018D000B3B3B3B2B1B1B1B2B2B2B1B1B0B1B0B0F1
:1018E000AFAFAFB0B0B1B0B0AFB0B1B3B4B6B7B8DE
:1018F000BABCBEC1C4C6C8CBCED1D4D8DADDDFE015
:10190000E2E3E5E7EAECEFF2F4F6F7F8F9FBFDFEC7
:10191000FEFF0002040608090C0F16294555514B1D
:101920004E555A5B5B5C60656768686A6B6C6C6996
:1019300065605C5B5B57524F4D4C4A494847454395
:10194000413F3C3A38353332323232313232313142
:101950003131313131313131323333353637383954
:101960003B3D40424445464748494949494B4C4C18
:101970004B4B4C4C4C4B4B4B4C4D4D4D4D4D4E4FA2
:101980004F4F4F4F4F5051514F4E4C4B4A48474588
:10199000433F3C3A3735322E2B282522201F1D1B72
:1019A000191614120F0C0A08070705040202010099
:1019B000FFFDFBF9F7F6F5F3F0E4CAACA6B0B0A86A
:1019C000A19E9F9F9D9894939494959697999CA27D
:1019D000A7AAA9ABB0B5B7B7B9BBBBBBBCBFC1C3A6
:1019E000C5C7CACCCECFD0D0D0CFCFCFD0D0D0D01B
:1019F000D0D0D0D1D1D1D0CECECECDCCCBCAC8C60E
:101A0000C4C1BFBDBCBBBAB9B9B9B8B7B6B6B6B533
:101A1000B5B4B4B4B4B4B3B3B2B2B2B1B1B0B0B09F
:101A2000B1B1B1B1B0B0B1B3B4B6B7B9BABCBEC060
:101A3000C4C6C8CBCED1D5D8DBDEE0E2E3E5E6E82C
:101A4000EAEDEFF3F5F7F8F9FAFBFDFEFFFF01030E
:101A5000040608090B0E13213A51534C4C52585BA3
:101A60005B5B5E6366676768696B6B6966615C5A3E
:101A70005A58534F4D4C494847474543413F3C3ADC
:101A800037353231303030302F302F2F2F2F2E2E50
:101A90002E2E2E2E2E2F30313233343536383B3E1B
:101AA0004041424344454646464748494949494AD8
:101AB0004A4949494A4B4B4C4B4C4C4D4E4E4E4E6D
:101AC0004E4E4F4F4F4D4B4A49484644423F3C399A
:101AD0003734312E2B2724221F1D1C1A18151311E1
:101AE0000E0B080706050402010000FFFEFDFBF9CE
:101AF000F7F6F5F4F1EAD6B6A5ACB2ACA49F9FA078
:101B00009F9B96949596969798999CA1A6AAABAB05
:101B1000AFB5B8B8B9BCBDBCBDBFC2C4C6C8CBCDDB
:101B2000CFD1D2D2D2D2D2D2D2D2D2D2D2D2D2D398
:101B3000D3D3D2D1D0D0CFCECDCCCBC9C7C4C2C0E5
:101B4000BFBEBDBCBCBCBBBABAB9B9B8B8B7B7B7F1
:101B5000B7B8B7B6B5B5B5B5B4B3B3B3B4B4B4B438
:101B6000B3B3B3B5B6B8B9BABCBDBFC1C5C7CACCAB
:101B7000CFD2D5D9DCDEE1E3E4E5E7E9EBEEF0F343
:101B8000F6F8F9FAFBFBFDFFFF0000020406080966
:101B90000A0D101A2F49544F4B4F55595B5A5C6030
:101BA0006466666768696A6967625D5A5958534F27
:101BB0004C4A494746454442403D3B393634312F33
:101BC0002E2E2E2E2D2D2D2D2C2C2C2C2C2C2B2B4B
:101BD0002B2C2D2D2F303031323436393B3D3E3FCA
:101BE00040414242424344454545454646464646B5
:101BF000464748494849494A4B4C4C4B4B4C4D4D44
:101C00004D4C4A4947464543413F3C393734312ED4
:101C10002B2825221F1D1C1A181614120F0C090739
:101C200006050403010000FFFEFDFBF9F7F6F5F4DD
:101C3000F2EDDEC2A8A8B1AFA7A19FA0A19E999680
:101C400096969798999A9CA1A6ABADADAFB5B9BA47
:101C5000BBBDBEBEBFC0C3C5C7C9CBCED0D2D3D417
:101C6000D4D4D4D3D4D4D5D4D5D5D5D5D5D6D5D42C
:101C7000D3D3D2D2D1D0CFCDCBC9C6C4C3C2C0C0BA
:101C8000BFBFBFBEBDBCBCBCBBBBBABABABBBAB996
:101C9000B8B8B8B8B7B6B5B5B5B6B6B6B5B4B5B5E3
:101CA000B7B8BABBBCBEBFC1C4C7CACCCED1D5D8E9
:101CB000DCDEE1E3E5E6E8E9ECEEF0F3F6F8FAFB6A
:101CC000FCFCFE0001010103040608090B0C0F16C1
:101CD000264052524C4D53585A5A5A5D62646565BB
:101CE0006668696966625D595857544F4B49484662
:101CF000444443413F3D3A383633302E2D2C2C2C72
:101D00002B2B2B2B2A2A2A292929282828292A2A39
:101D10002B2D2E2E2F313335383A3B3D3D3E3F4063
:101D20004040414343434243434443434344454586
:101D300045454647484949484849494A4A49484625
:101D400045444341403E3B383533302D2A2723203C
:101D50001E1C1A19171513110E0C0906050403028F
:101D600001FFFFFFFEFDFBFAF8F6F5F4F3EFE5CE19
:101D7000B1A6AEB1AAA39FA0A1A09B979697989851
:101D8000999B9CA0A5ABAEAFB0B4BABCBDBEC0C160
:101D9000C1C2C5C7C9CBCDD0D2D4D5D6D7D7D7D657
:101DA000D6D7D8D8D7D8D8D8D8D9D9D7D6D6D5D5C0
:101DB000D4D3D2D1CECCCAC7C6C4C3C2C1C1C1C19B
:101DC000C0BFBFBEBEBDBDBDBDBDBDBCBCBBBBBA43
:101DD000BAB9B8B8B8B9B9B9B8B7B7B7B9BABBBD75
:101DE000BEBFC1C3C5C8CBCDCFD2D5D9DCDFE2E4FD
:101DF000E6E7E9EAECEEF1F3F6F8FAFBFCFDFEFFAC
:101E000001010102040608090A0C0E131E354C5389
:101E10004D4B5056595A595B5F63646465666767FA
:101E200066635E595656534F4A48464543424240C0
:101E30003E3C39373532302D2B2B2A2A29292929A6
:101E400028282827272726262526272728292A2B1A
:101E50002C2D2F32343638393A3B3C3D3D3D3E3F08
:101E6000404040404141414040414243434343445C
:101E7000454646464646474848484645434241400F
:101E80003E3C3A3734322F2D2A2623201D1B1918A9
:101E9000171513100E0B09060403020200FFFEFEC5
:101EA000FDFCFBF9F7F6F5F4F3F0E9D8BBA7AAB10E
:101EB000ADA5A19FA1A19D99979798999A9B9DA047
:101EC000A5AAAFB0B1B4BABEBFC0C2C3C3C4C6C86E
:101ED000CACCCFD1D4D6D7D8D9D9D9D9D9D9DADAA9
:101EE000DADADBDBDBDBDCDBDAD9D9D8D7D6D6D55F
:101EF000D3D0CECCCAC8C7C6C5C5C5C4C3C3C2C269
:101F0000C1C1C0C0C0C0C0C0BFBEBDBDBDBCBBBBE9
:101F1000BABBBBBBBBBAB9BABBBCBDBFC0C1C3C4F3
:101F2000C6C9CCCED0D3D6D9DDE0E2E5E6E8E9EB10
:101F3000EDEFF1F3F6F9FBFCFDFDFE0001020202FC
:101F4000040607090A0B0D11192C4452504B4E542C
:101F50005759595A5D6163636364656665635E5989
:101F60005654534F4A47454341403F3E3C3A38352B
:101F700033302E2B292828272726262626252524D8
:101F800024242423232018130E0B09070505050715
:101F9000090C0E1012151C23292D32363A3D3F40F4
:101FA000424445464748494B4B4C4C4D4E4F505090
:101FB00050505051525251504E4D4C4B4A4846434E
:101FC000413E3C3A3835322F2D2B2A29282625230D
:101FD00022201E1C1B1B1A1A1A1A191A1A1B1A1A4B
:101FE0001A1919191818171717181818181819186E
:101FF000181716151412100F0E0D0E0E0E0D0C0CD8
:102000000C0C0C0B0A090705030100FFFFFEFF0083
:1020100000010000FFFFFEFDFCFBFBFBFBFBFBFBED
:10202000FCFDFDFEFDFDFDFEFEFEFEFEFEFEFCFBDC
:10203000FAF9F8F8F7F7F7F7F7F7F6F7F7F7F6F52D
:10204000F4F4F4F3F1F0EFEEEDECEBE9E8E7E6E5BC
:10205000E4E2E0DFDEDEDEDEDEDEDFDFDFE1E2E384
:10206000E4E5E7E9EBEEEFF0F1F2F3F4F5F5F6F67F
:10207000F7F9FAFAFAFAF9F9F9F9F9F9F9FAFAFACB
:10208000FAF9F8F8F8F8F7F6F5F5F4F2F1EFEFEE03
:10209000EEEEEFEFF0F1F1F1F1F0F0F0F0EFEEED48
:1020A000EDEEEEEFEFF0F1F2F3F4F4F4F4F4F3F319
:1020B000F3F3F4F4F4F4F5F6F6F6F6F6F6F6F5F3D3
:1020C000F2F1F0F0F0F0F0F1F0EFEFEFEFF0F0F10F
:1020D000F1F1F2F2F2F1F0F1F2F3F3F4F4F5F6F6D5
:1020E000F7F7F8F9FAFAFAFAFBFBFCFCFCFDFEFF45
:1020F00000000000000000FFFFFFFFFFFEFEFEFEED
:10210000FEFDFCFCFBFBFBFBFBFBFBFBFBFCFCFC15
:10211000FCFCFCFCFDFDFCFCFDFDFDFDFCFCFBFBFB
:10212000FCFBFBFAFAFAFAFAFAFBFBFBFBFAFAFA07
:10213000F9F8F7F7F6F6F6F6F6F6F6F6F7F8F8F831
:10214000F8F7F7F7F6F6F6F5F5F4F5F5F5F6F6F631
:10215000F6F6F6F7F7F6F6F7F8F8F9FBFCFE0001ED
:10216000020101010101020303030303030303034B
:10217000020202030302020101000100000000FF4D
:10218000FFFEFDFEFEFEFEFDFDFCFCFCFCFBFBFB82
:10219000FBFCFCFCFDFDFDFDFDFDFDFDFDFDFDFE73
:1021A000FF0000000000000000FFFFFEFEFDFDFE3E
:1021B000FEFDFCFCFCFCFCFBFCFDFEFEFFFFFF004B
:1021C00000010101020203030303040405050505E0
:1021D00006070707070707060605050504040405A3
:1021E0000505050506070808090909090909090976
:1021F0000808080909080808070605030201010183
:10220000010101010000FFFFFFFFFEFEFDFDFDFEDD
:10221000FEFDFCFCFDFEFEFEFEFFFF0000000000D8
:1022200001010000000000000100010101010101A5
:10223000000000000000FFFFFFFFFFFEFEFDFDFDB0
:10224000FDFDFDFDFDFDFDFDFDFDFDFDFDFEFEFEBB
:10225000FF00FFFFFF0000FFFFFFFFFFFFFEFEFE8E
:10226000FEFEFEFEFEFDFDFDFDFDFCFCFCFCFCFBA0
:10227000FBFCFCFCFCFCFCFCFCFDFEFEFEFEFEFE92
:10228000FEFFFEFEFDFCFCFCFCFCFCFCFDFDFDFE7F
:10229000FEFDFDFEFEFEFEFF00010202030303023F
:1022A00002020303040404040404040403030303F8
:1022B0000403030202010101010001010100FFFF0B
:1022C0000000FFFFFFFFFFFFFFFFFFFFFFFFFFFF1C
:1022D000FFFFFFFF000000FFFFFFFFFFFFFFFFFE0C
:1022E000FEFEFEFEFEFEFEFEFDFDFCFCFCFCFCFC1C
:1022F000FCFCFCFBFCFCFDFDFDFEFEFEFFFFFFFF0A
:10230000FFFF0000000001010202020202020202BD
:1023100002020202020201010000000000000000AF
:102320000000010202020202020202020201010195
:10233000010101010000FFFFFEFEFDFDFDFDFDFDB1
:10234000FDFCFCFBFBFBFBFAFAFAFAFBFBFCFCFCDA
:10235000FCFDFDFEFEFEFEFFFFFFFFFF0000010192
:10236000020201020202020202020303030202024B
:102370000202020202020202010100000001010148
:102380000101010101010101020202020202020235
:10239000020202020101010000FFFFFFFFFFFEFE3B
:1023A000FEFEFEFEFDFDFDFCFCFDFDFDFDFDFDFD5B
:1023B000FDFDFEFEFEFFFF0000FFFF00000000002D
:1023C0000000000000010100000000010101010106
:1023D00001010101010202030303020202020202DF
:1023E00002030202020303030302010100000000D2
:1023F000FFFFFFFFFFFFFFFFFFFFFFFEFEFEFDFDF4
:10240000FDFDFDFDFDFDFDFDFCFCFCFCFCFCFCFC04
:10241000FCFDFDFDFDFDFEFEFFFFFFFFFFFFFFFFDB
:10242000FFFFFFFFFFFEFEFEFEFEFDFDFDFDFDFCCE
:10243000FCFCFDFDFDFEFEFEFEFEFEFEFEFFFFFFC0
:10244000FFFFFF000000000000000000000000008F
:10245000000000FFFFFEFFFFFFFFFFFFFF00000087
:1024600000000000000000000000FFFFFFFFFFFF72
:10247000FFFFFFFEFEFDFDFDFDFDFEFEFEFEFEFE7E
:10248000FEFEFEFEFEFEFEFFFFFF0000000000015C
:10249000010101010101010202020202030303031F
:1024A00004040404040404040404040303030303F1
:1024B0000303030202010100000000000000FFFF0F
:1024C0000000000000000101010101010101010102
:1024D0000101010101010000000000FFFFFFFFFFFB
:1024E000FFFFFEFEFEFEFFFFFFFFFFFFFEFEFEFF03
:1024F000FFFF00000000000000000000FFFFFFFFE2
:10250000FFFF0000FFFFFF000000000000000000D0
:1025100000000000010100000000000000000000B9
:10252000000000000000000000FFFFFFFFFFFFFFB2
:10253000FFFFFFFFFFFFFFFFFFFFFEFEFEFEFEFEB1
:10254000FEFEFEFEFEFEFEFEFEFEFEFEFEFEFEFEAB
:10255000FEFEFEFEFEFFFFFFFFFFFFFFFFFFFFFF90
:10256000FFFFFFFFFFFFFFFFFFFFFFFFFFFFFF007A
:102570000000000000000000000101010101010154
:102580000101010101000000000000000000000046
:1025900000FFFFFFFFFFFFFFFFFFFF000000000045
:1025A000000000000000000000000000000000002B
:1025B000FFFFFFFFFFFFFFFFFFFFFFFFFFFFFFFF2B
:1025C000FFFFFFFFFFFFFFFFFFFFFFFFFFFFFFFF1B
:1025D000FFFFFFFFFFFF0000000000000000000001
:1025E00000000000000000000000000000000000EB
:1025F00000000000000000000000000000000000DB
:1026000000000000000000000000FFFFFFFFFFFFD0
:10261000FFFFFFFFFFFFFFFFFEFEFEFFFFFEFEFED0
:10262000FFFFFFFFFFFFFFFFFFFFFFFFFFFFFFFFBA
:10263000FFFFFFFF0000FFFFFFFFFFFFFFFFFFFFA8
:10264000FFFFFFFFFFFFFFFFFFFFFFFFFF00000097
:10265000000000000000000000000000000000007A
:10266000000000000000000000000000000000006A
:10267000000000FFFFFFFFFFFFFFFFFFFFFFFFFF67
:10268000FFFFFFFEFEFEFEFEFEFEFEFEFEFFFFFF64
:10269000FFFFFFFFFFFFFFFFFFFFFFFFFFFFFFFF4A
:1026A000FF000000FF00000000000000000000002C
:1026B000000000000000000000000000000000001A
:1026C000000000000000000000000000000000FF0B
:1026D000FFFF0000000000000000000000000000FC
:1026E000000000000000000000FFFFFFFFFFFFFFF1
:1026F000FFFFFFFFFFFFFFFFFFFFFFFFFFFFFFFFEA
:10270000FFFFFFFFFFFFFFFFFFFFFFFFFFFFFFFFD9
:10271000FF000000000000000000000000000000BA
:1027200000000000000000000000000000000000A9
:102730000000000000000000000000000000000099
:102740000000000000000000FFFFFFFFFFFFFFFF91
:10275000FFFFFFFFFFFFFFFFFFFFFFFFFFFFFFFF89
:10276000FFFFFFFFFFFFFFFFFFFFFFFFFFFFFFFF79
:10277000FFFFFFFFFFFFFFFFFFFFFFFFFFFFFFFF69
:10278000FFFFFFFF0000000000000000000000004D
:102790000000000000010000000001010100000035
:1027A00000000000000000000000000000FFFFFF2C
:1027B000FFFFFFFFFFFFFFFFFFFFFFFFFFFFFFFF29
:1027C000FFFFFFFFFFFFFFFFFFFFFFFFFFFFFFFF19
:1027D000FFFFFFFFFFFFFFFFFFFFFFFFFFFFFFFF09
:1027E000FFFFFFFFFFFFFF000000000000000000F0
:1027F00000000000000000000000000000000000D9
:1028000000000000000000000000000000000000C8
:1028100000000000000000000000000000000000B8
:102820000000000000000000FFFFFFFFFFFFFFFFB0
:10283000FFFFFFFFFFFFFFFFFFFFFFFFFFFFFFFFA8
:10284000FFFFFFFFFFFFFFFFFFFFFF000000000093
:102850000000000000000000000000000000000078
:102860000000000000000000000000000000000068
:102870000000000000000000000000000000000058
:1028800000000000FFFFFFFFFFFFFFFFFFFFFFFF54
:10289000FFFFFFFFFFFFFFFFFFFFFFFFFFFFFFFF48
:1028A000FFFFFFFFFFFFFFFFFFFFFFFFFFFFFFFF38
:1028B000FFFFFFFFFFFFFFFFFFFFFFFFFFFFFFFF28
:1028C000FFFFFF0000000000000000000000FF0309
:1028D000FF0207F70408E2EB30FF02E518F2EE25ED
:1028E000C91727EAF70F0208E2FF0105DE012AF700
:1028F0000A0EF6FB0FD60EF103F7FF19F117F413CA
:10290000F8F529E8E80901E600FBF20A0C1F1216A7
:10291000D9FE0A0BF2ECEFFC35EDF503F6F606F600
:102920001EE3E819F71FF5F01BE8FE02F10FD020B7
:102930001705FFEF1BEB08FBF01B06E904DFD2EBEA
:10294000EB080DF8ED2B0EF919FAE7FD00EF0B0F70
:10295000FDF407F50BE5040CE104F60EFA31170F50
:1029600005EFF20011E70DF5FB02020402F21CF57F
:10297000F412FD10F3FD1300E60AF4FDFA390E011E
:10298000FD0017E31CFD16E60E03F909DB19F7E35A
:1029900015F50004F60BE807EE1BE0061CDF1BF143
:1029A000FD11EDE81300FBFB0CFF0E09E41AF2EE3B
:1029B00010F30401FDF1FFF915F50E0DEBF7F41915
:1029C000E8FAFF0CEF0EE2FA040BF51005E126E140
:1029D00014F2FA0E06F8F70BF8F01EF5EE010CF7FC
:1029E000F60BFFFB0DFBE911E914E917ED0C19E2F9
:1029F0000A08ED0501FA13CF0E08EEFA10F400FFF5
:102A000004F006FBF9FD0012F20902F9FF0CE21EC8
:102A10000203F31400D61AFCEB0EFCFF00F20CF9D3
:102A200015F20BF9EF0005F708F2F618F5FC030BA9
:102A3000F808FAF10206F50EE51B04F417F201009E
:102A40000AF50308FEF218E303FD0C07E40EEC0799
:102A50000CE9FA0FFD1BE60FEF00FDFE05FA16E785
:102A6000080E0DE105FE0EE61200EF12EC0AF6115B
:102A7000FB000EFAFE06FB03FF00F7F60005FA0D59
:102A8000F10EF5FE0BEA1CE519F704FA060706003D
:102A9000E61CF508EF15F3FA0AE41606EE0AED1146
:102AA000EC120DF813D72DDC1500FAF70904ED151B
:102AB000F60AF10BEE10ED0703F70107F70B00F331
:102AC000020607F211EA0EFD04F70AFD0200F70CF8
:102AD000FD00FAFD0608FD0EF415E60B03F60CE604
:102AE0001EEF0B0AECFDFA00FDF9000D0203FCFCE1
:102AF00002FC09F4040AFA14FC13F102FDF9FA06C7
:102B000009EB17EC09FAFD0BF107FDF70EF607EFDD
:102B10001218E209FC0CFCFCFF0A08FA0A05F4038F
:102B2000EF05FFF905FA0DF803FC01FA09F6F51DAA
:102B3000FCF10A0701EF0603070CE7080EF4F8158D
:102B4000EC0FFBF114F80BF10DF9FB08EC18F7FC96
:102B5000FA0418EDF8000EF9F919F7FB0BFA000268
:102B600006EE13F8FC01030BEE0BF2070306ED076C
:102B70000202F90105FC04F21AE807F907050CF452
:102B8000FE1BF205F610F8FFF31100F508F40CF641
:102B9000FEEE1306F807ED12EA0210F900FC0EF043
:102BA0000703FEFC0C05ED0D0704F10CEEF219F520
:102BB000FEFE0AFFF70DEA0604FCFAFB0BEE17FC1B
:102BC00010FDEB0BF614F407F8070CE70B0206F404
:102BD0000DF804F603FE010FE412FB08F6F8FC13EF
:102BE000F5F304060603F9F308FE0311FAFC0DE100
:102BF00025EAFC040DF6FD0CEE0BFAFBFF0CF407C6
:102C0000F6FEFC03FF0BF7FDFB0D0900EFF715F9CE
:102C1000F20810F711D41A12EB0500FF07FAF0239F
:102C2000FCE3021CEB04F7F81CEA05F40D02F5FBCB
:102C3000F51EDE11F50409E816ED20F2FD0C0CF688
:102C4000F9060113E613EA08F5FD13EC20D90A088A
:102C5000DB28E11BEFEF17E51DF01ED71AFDE51D80
:102C6000F50BFE08ED1BE4070BED0DFAFE08FD0564
:102C7000F40505E710FB05F80706EC0DF703FEFB6E
:102C8000FFF619ED04F71200F806EB1CF405F31536
:102C9000FDFD0805FCF70BEA0CF50105FA04FCFA4A
:102CA00002E416F2010CF510EF0EF412E8080AEA3D
:102CB0000F0BF208FF0AFAE22BDF03F610FDF7090B
:102CC000E821F7F90AF517FBFD02F417EB12F4F609
:102CD00002FEF1080505F6FA12DE0FE525F0EF1FFA
:102CE000DB2CF5F219E60FF00E06F217F4FEFF04E6
:102CF00001FCF30009F7EB1D00F901FA0007FEEEF5
:102D000011FB07F6020304E50810F406F50AFD0BB3
:102D1000F904F8F41501F808FA11EA11F5FF0ED6D6
:102D200023E709E91EF1FC0AEA13F40CE213F60D9D
:102D3000F80609FEF7FFFE0111E50E080301F70191
:102D40000DE814ED09F9F70DEC19F90407EA0D0780
:102D5000E716F208EA17F6FD0FE908FE08DB2DED8D
:102D600003FDFB10E71CE50900FA07EF1DF2020D59
:102D7000F613E80903FB02F4FC0DFA04FFF211E874
:102D80000EF20A000BFCED1AE41CF0FE0BF0090039
:102D9000F5020CFCF6FC0AEE0BFBF91ADF13FA063F
:102DA00004E119EF11F001090804F7F1FE11FBF736
:102DB000F30F04F6010AF305F909FA0BFDEF15FE0E
:102DC000EC0EFD01FDFCF5EF20EC03FA0503F80322
:102DD00008EE0B03FF0CF315EFFE16E10503F30DF0
:102DE000F400EE14FBFBF611FBFB00F415E328EBFB
:102DF00008FDF413EE22E408FBFF07F20EFA07EFDA
:102E00000CF40317E5FB06F907F30719E11AF1EBD8
:102E100022E004FB13FEE016FAFA020CF114EE0EA7
:102E2000F40C03F115DE2DD41BFCF8FAFE04ED20A2
:102E3000FEFAF30AE21AEB0BEE0317E6021506EFB1
:102E40000BF411E60BF70FFFEFF20A0CF5F90C0982
:102E5000F10AEF1AE613FDFDFD02FDF60CFEFDEE94
:102E600013E919FDF9F1060EE30E0500F3FEFEF974
:102E70000410F108FF0400FF17DF07FC07FD010342
:102E8000000009EFF112F3FDFC13EC04FFF6F4204F
:102E9000F202F9FE0AF415E622EB04F8F618F8F748
:102EA00002FE03030005FDF4F9FE0700F607E91F23
:102EB000F4FE1AE70CEE0CFDF91FE60BFAFEEA072A
:102EC0000DF4F80409F60DFEFFF21AE00012E8FB1B
:102ED000120AF7FD040BE70D04FEF5FA03EE17F5F1
:102EE0000011F2F7010DFF0CFC050105F9F20EE3EC
:102EF0000FF7F312F703F21EE8FC14F509EF12FFC7
:102F0000EE0EFA0AFEF509F11DF1FC02F805FBFFD1
:102F1000FAFBFC04EE12F20FFC0608E121F4FFF5C7
:102F2000FB0CF30D01F5030B02EFFC0CE718FEECB4
:102F30000B0BFFF908F205F90704FF010BF9F40F79
:102F4000EAFD10EA06ED0E05F617F308F704F4FFA4
:102F50000CFDF70D03F30CFD02FF05F1FDFFFB1760
:102F6000F10705ECFBFCF80A010B04F408FD10E086
:102F70001AE3FE07F11AEB21F10007E8040BF3084E
:102F800000FD000CEF0EF209FAED13E726D920013F
:102F9000F6FFF8F1FD11F0070306F516F41BE10248
:102FA0000503050300F60BE605F91FD817F2F21822
:102FB000E214FA05F6FB04FB04F5041BE910F70C18
:102FC00004F50BF10DE619F508FC05EAFC0DE0230C
:102FD000E90FF60BF4F905FD08F601FB08FF12EB0B
:102FE000020EFBF910F8FC01E80419F3F50A03F9E5
:102FF000FC0FFF0CE804FB13F5FEFCFE12CB25F3DF
:1030000009FAF614F608E51209F505FFEE12F3FFCA
:1030100009030EF708F20006FEFA02F9FA0405FAAF
:10302000FEF6FDF90610E80B0802FFF80603EF0AAA
:10303000FB0306010EE90CF8FEFC03FA0204EA0C9D
:103040000808E90904F1000712EFFC0AFA10EAFC8B
:10305000F90013E215FEFFFF01F711FEF603F3126C
:10306000FC0DF41AF0EB10FFF7F30E03F00309F573
:10307000FEF809EF0AF8FC12F009020CF7FB00F465
:103080001AFC0506E810F1FA0D01EFF31004EEFF4B
:1030900014FA00F7FB0708FA01F80402F51AF5F72D
:1030A00007F9FDFF05FBFD0DFD06EFFC1AEAF90827
:1030B00007FEFB02000C03F0F706F2FF000900FC1C
:1030C000F8FF0DED14EFFF16F2FB040DF1FB0EFD02
:1030D000F708FCEC0D12F5FB010AF3FDFE0808E70A
:1030E000090014FDE70B04E9F40F03FDFF06F90ED8
:1030F00000F3F8FA10EE0909FEFBFE06FB00FD0ED8
:10310000E50C12EC090EE9FE04F2FAFC10EF0909D5
:1031100006FBFDFA06F90008F203FB07F219F4FBBF
:10312000FFF718F30BFCFE0BF2F40309F3F302FFB5
:10313000080A01FE07FDF502FD0AF1EF18FB000287
:10314000EB19F503F80314E518F401FFFBEC16F88E
:10315000EA22F0FF0B02F217FAEB0BFDF417FCF07A
:10316000F60EF50700E32DF1FA08F40903F60BFE5D
:1031700004F605F8FD0DFA0905F7EF0AFF06F3FC62
:10318000FB11F308FBF01CFBF0060AF30EF306003C
:1031900004F3020CEE0CF60006F2060C02EE00023E
:1031A000F619EAF71CF4FD0AF50603F4040001F62B
:1031B00002F6F816EFFC0908F5F30B06FEF8FD0819
:1031C00003FE00F514F6F0FE1AED000DF310F00208
:1031D000F903FA03F01702F506FB0CF303F113FEF3
:1031E000F709FD08F3F20EF60000FF11E80C0209E2
:1031F000FBFF00E01005FB07FC02F9FD19E1FE11E1
:10320000F30006FB0706F3FBFE09F5F70115F30EC5
:10321000F507F0FD18E110F80AE51409FAFC02F9C7
:10322000FC05FF0BF604EE0A0607E00707F304119E
:10323000F90503F705EE16F704ED16F50B05F50392
:10324000ED19E3100404F00D0AE1000603F40DFF8C
:10325000F4070CE80519E9FB12F3FBFC11FEF9FF7A
:1032600005FA0215E30EFD01FCF715FAF306FAFF65
:10327000FCFE0FEB18FBED12F60BE70F04EF13FC4F
:10328000FCFE19EBFA0115E6071DDE070004EF024C
:1032900000FE04FB0304F910EEF513FDF30EF90133
:1032A00004FDFEE129E71004FC07E910FDF8FC0B22
:1032B00003F7ED25E60F04E90AFF0BED19F800F01E
:1032C000020BEB0005FA11F6F10A0119DC0419ED05
:1032D000030100080200F30BF905FFF513EEF609F0
:1032E0000FF6F5FBFF05FEF4010A01F9050FFBF2ED
:1032F000FF03F0080BFC0DF20300F910E90FF604D0
:103300000DF20FFBF503FCF2FE0DFCFD18E111FDC3
:10331000EF0EEE0806F60CFBFD04F517EF050204B0
:10332000FD0CF50706F001F011EC0BF900F70BFAB4
:103330000DF0000BE512F00FFCFE030DF104F80494
:1033400006FB0404FF08FBF80AEC0EED01040DFC7B
:10335000F80705F602FA0207EB10F30DFCF503FC83
:103360000CF7FF06FD13ED0313F0FAF416F707F957
:10337000F80DFFE90814EF06F70DE61DEBFD0EF161
:1033800006F5090702F110F50DEC080105F8FE013C
:10339000FE0BEE0AFD0005FEFF03F00DFD06FA0828
:1033A000E90D02F707F715E710F40BEB0E06E71629
:1033B000E81006F501F903FFF6070AFE06F406FA1F
:1033C000F314ED10F8FA06FF14E30CFDFD05EB070E
:1033D0000508FE03F9FEFEFAF5080AEA19F608FEEA
:1033E000F308FA0BE60B000DF5F3090309E614F9EF
:1033F000F904FA040808F10802F4F8F81CF2F80CD1
:10340000F809FFFEF70AFBFAF211FD000EFC07E6D1
:1034100013F804FC06FDFB0BFFF7FD13E00CF903AA
:10342000F51200EC0DF413E51401F90B04FBF4198B
:10343000EEFE06FFF50513E90DF9FA08F607F609A1
:10344000FAF810E60F08F014EFFF040204F8FE107B
:10345000F2FC0E02FEF90CDC1301F114FC08F3FE81
:1034600016E90AF5040AF008E521F009F7FF07F16B
:10347000FC0D04F413E713EC0D05FCFF04F203103C
:10348000FD01FCFCF90BF40CEB0BF205F517F8FC55
:1034900007EF11EC14F309FC0CF10D09EEF20B0A25
:1034A000F4FFFF11EA1BF1F310EFFC030C05E91028
:1034B000FAF110FC06F901F8FE17FEF607FC07E426
:1034C0000011F800FC0FF40BF00909EC0701FA09F0
:1034D000FFEB22F4F802F30CF50AFCF617FAF201FE
:1034E00016E80201FB09E8190307F105FB0508DFEF
:1034F0001703FCFF06F90100F503FA11FCF40E06B0
:10350000F104FC08FFEC11FA0CF9F70AF9FFF60CCC
:103510000DED0B00FD05DF19FAFC0BEA0F0005F9B4
:10352000010AFCFEFA0B02F105FFF40BF8FF0CF4A4
:10353000FDF5130ADF1BF60005F7FEFF02F10DFD96
:103540000200FE0012F10401F406FBFF07F208F787
:10355000F814F413E70A0809EE0C02F009F0060A61
:1035600000ED14F603F50AFA050AF50EF0FEFFF079
:103570000C04EE1AF215F6F118F9F8FA0600FBF74A
:103580000A01F602FCFB13F502040CFA06F601FF31
:10359000E71EE80DFDFAFE0803F505000BF3FA003F
:1035A00006F904FEF915F3F6000516E51302F70116
:1035B000F809F405E5010A0800F50F09F5EE15F222
:1035C0000D04F105FA06FB000405E9FD16F7FB10F2
:1035D00006F6FA00F10203FFFF0A03F9040007F8F8
:1035E0000402F60302FC01F10AE9120BE51BEB0BE6
:1035F000F4031203FDF40BF109F303040CF7EF18C5
:1036000008F9E917FFEF03FC01FE07F3FC09F211CB
:10361000F510FEF310F30DF908EF14F5ED02FB1DA4
:10362000E70806FA000AF904FF0A01EA0CFC03F5B0
:1036300011FCF904F9FC08F9F8060CF7EE13F7FB96
:10364000F50AFCFB0F030300FC15DC0C06ED15F975
:1036500009F017ED03FB00FDF60CFEFB0403F20D71
:10366000F8FFF60B00F4FE0A07F9F815F4FC05F86C
:10367000FFFF16DF150403FCFE0101EFF81AE91E37
:10368000F5F10912EAEE0DFEF50601FF0AF4FBFC66
:103690000806F2F326F2FA050DFFFAF20413ED071D
:1036A000F7040A01E80BFBFCFA10F6FA12E608FE32
:1036B00010F5FA0408F2F91BF60200FDFB0CFCF30E
:1036C00002FF02FB00FF0BFD00FEF60808EE1005EE
:1036D00000F40901E60CF40BF50EEE11F70607E60F
:1036E0001AEA09FDFFFD0202FFF30E0502FA0509C1
:1036F000F30AFCFCF304FB000906E40CF6FE13FAE3
:103700000AFA08FBF8F215FDF1FB15F20907EF1BA9
:10371000F702E912F5FEFC050BF2F4F9150006E9D3
:10372000100AFEF2040E01ECF10EFDFCFB0701098C
:10373000FBF80912E4020900FAF9000710E60FF29B
:103740000B03F30C0003F9FB01F9FC01ED05050285
:10375000FF0414FAF10CF202FC0704F503FC07F96C
:1037600004F50AF700020707F502FCF7F10B05FF65
:1037700001FE0309FB07F60209F5F50207FCFB054C
:10378000FDFB06F811F705F80403FCFCFD0FF2FC45
:10379000F809FB11FA07FBFC03F40BF50AF001052D
:1037A000F60A02F9FF0002FC080301F8FD08F6F82A
:1037B0000902F40FED0B030101F803F606F50D0500
:1037C000FF00F3FD020401010603ED0308FC00FB0A
:1037D00005FB02FA04FA0B05F10AF808F60502F8EF
:1037E00007FA02FF0000F5010BF8F709010203FADE
:1037F000F90809F4050007F9FA02FD07F609F308CC
:1038000002F1070804E611FBFB07EF0EF903FE00C7
:1038100000020104FCF715F606FA06F8FFF2071499
:10382000EB00F313F4040300FEFC03F31400FD02A9
:10383000FB05EF000AF906F110FF00F8F90506FE96
:10384000FB0BF509F221E40304FA09E917F707F67F
:103850000BEE11FCF7F90BF9F417F20EEA0DFAFC76
:103860000107F60609F9FC10FBFB01FA07F817E857
:1038700009F414E6FF16F400ED0FF20C06FEF91041
:10388000EFFEFE0D00EB17FB02F50403FA09F1F859
:1038900015F404FE0FFEEB0FFC01F013F7F80BFD1F
:1038A00000FC04FAFCF910F80705F3FB0904EC032B
:1038B0000AF8020EF5F90B0AF10705F5010503F503
:1038C00000FB06F70006F415F7F5070A04F803FCF9
:1038D000FA01F80DFCF612F5FDFD04FD0307F106F3
:1038E00005F407FFFFF9010BF702FE0AF80702F9DA
:1038F0000001F9FC0BFC0506ECFF03EA19F80310C4
:10390000F6FB02F8F50BFF0202FEFF070104F5FECD
:1039100000FCFEFD10FBF906F3F80AFEF90E00FAB2
:103920000902FF05FFF900F901F606060CF7F90D8B
:10393000EA05FD08FD000BF2020501FC0300F7009B
:10394000FE050DF807EFFC08EF08F70703FB0EF97B
:10395000FE05F4FCFE11F6FE16F400F7080AECFB77
:103960000BFA0EFBFE0004F9F206F30AFD0DFDFF53
:1039700009F8F90502F6040CFEFDF9FF0BF3FAFE57
:103980000DF4FF09F90500F30CFFF909F40EF3FD3E
:10399000050307F709F70306F306FFFDFA0304F32F
:1039A00007F5FF07F904060004F7FA010208F00B17
:1039B000FF01F2FC11FAF5FE0DF604FC11FEFFF515
:1039C000FC11ED0A010AFEFC06F507FDF803F50AF5
:1039D00003F1040AF6F50007FDFC08FB11F403FEF1
:1039E0000205F00B0107F7FFFB03FE06F3040BE8EB
:1039F0000DFE04FA02FA06FDFB0404FEF316F103C1
:103A000002F9010400FB01FD00040400FCFC09F3C1
:103A100003FE05FE09FDF80BF6F8FD08F80DF704A6
:103A2000FDF903F807F802FF0307F9FD05FC0100A3
:103A3000FB0207F90302FEFEFCFEFF05FA08F8048C
:103A4000FBFE02FE03F903FD06FDFFFF02FCFF057E
:103A5000FB0003FEFD01FFFE0200FC04FA01000072
:103A6000FFFFFF04FFFC03FB03FB04FDFF04FD005D
:103A7000FB0401FC000001FD0103FEFE0002FEFF4D
:103A8000FE02000000FFFF0000FF01FD02FFFD003D
:103A900001FFFFFF02FEFF02FEFFFFFF0100FE022B
:103AA000FEFEFFFFFFFD03FFFE01FFFFFFFFFF0024
:103AB000FF0000000000FFFFFFFF0000FE0001FE0E
:103AC00001FEFFFF00FFFF01FF00FF0100FFFF00FD
:103AD00000FF00FFFF00FFFF0000FFFFFF0000FEF0
:103AE000000000FFFF00FF00FFFF0000FF000000DC
:103AF000FF0000FFFF00FF00FFFF00FF00FF00FFCF
:103B0000FFFF0000FF00FF00FFFFFF0000FFFFFFBF
:103B100000FF00FF0000FFFFFF00FF0000FF00FFAD
:103B2000000000FFFFFF0000FF000000FFFF00FF9C
:103B300000FF000000FFFF00FF00FFFF00FFFF008D
:103B40008A2C11241FBECFEFDAE0DEBFCDBF11E01B
:103B5000A0E0B1E0E2E9FDE502C005900D92A832D7
:103B6000B107D9F724E0A8E2B1E001C01D92A33665
:103B7000B207E1F71DE1C1EADDE104C02197FE01D2
:103B80000E949A2EC03AD107C9F70E94FF280C94D0
:103B9000C72E0C940000CF92DF92EF92FF920F930A
:103BA0001F93CF93DF936C017A018B01C0E0D0E0CB
:103BB000CE15DF0589F0D8016D918D01D601ED910B
:103BC000FC910190F081E02DC6010995892B11F43B
:103BD0007E0102C02196ECCFC701DF91CF911F91EA
:103BE0000F91FF90EF90DF90CF900895CF93DF93E8
:103BF0001F92CDB7DEB76983DC01ED91FC910280A5
:103C0000F381E02D41E050E0BE016F5F7F4F0995E9
:103C10000F90DF91CF91089583E08093E900809128
:103C2000F200882319F08AE38093E8000895FC01EC
:103C30008485958597FD0BC09FB7F89482E08093AB
:103C4000E9008091F2009FBF90E0019608959FB730
:103C5000F89482E08093E9008091F2009FBF90E0A9
:103C6000089590E0FC013197EF30F105B0F5EA5A84
:103C7000FF4F0C949A2E809180008F7703C0809123
:103C800080008F7D80938000089580918000877FE1
:103C9000F9CF84B58F7702C084B58F7D84BD089538
:103CA000809190008F7707C0809190008F7D03C036
:103CB00080919000877F8093900008958091C0004C
:103CC0008F7703C08091C0008F7D8093C0000895DE
:103CD0008091C200877F8093C2000895CF93DF93C5
:103CE000282F30E0F901E25CFE4F8491F901E15E9A
:103CF000FE4FD491F901E050FF4FC491CC2391F0D5
:103D000081110E94311EEC2FF0E0EE0FFF1FEE50EC
:103D1000FF4FA591B491EC91ED2381E090E021F467
:103D200080E002C080E090E0DF91CF91089584E0D0
:103D3000809347018FEF8093480110926A0110929F
:103D4000690110926B0185EE8093BC00089582E0BA
:103D5000809347018FEF8093480110926A0180930E
:103D6000690181E080936B0185EE8093BC0008952A
:103D700085ED8093BC008091BC0084FDFCCF8091D8
:103D8000470180934601109247018091460183309C
:103D900011F40C94971E80914601813011F40C941B
:103DA000A71E0895CF93DF931F92CDB7DEB7809102
:103DB0000102909102028F3F4FEF940761F0FC01E6
:103DC000EB50FE4F4081498301979093020280930C
:103DD0000102898101C08FEF809300018091000171
:103DE0008F3FD1F08091000190917B0083FB2227CF
:103DF00020F930E045E0220F331F4A95E1F79F7D1F
:103E0000292B20937B008770806480937C008091B5
:103E10007A00806480937A000F90DF91CF910895AB
:103E200008950F931F93CF938C01CB01BA01CFB7A5
:103E3000F89420E030E943E955E40E940B2E20E09D
:103E400030E040E858E30E940B2E20E030E040E8EC
:103E500057E40E940B2E0E944E2DF8016483758357
:103E600086839783CFBFCF911F910F9108957F9243
:103E70008F929F92AF92BF92CF92DF92EF92FF927A
:103E80000F931F93CF93DF936C015B017A018091B5
:103E90000D01882309F466C08091A401882309F4E8
:103EA00061C080917A0180FF05C08091E00082604E
:103EB0008093E000E70110E00AEF83E0982E90E4A1
:103EC000792E2AE3822E209709F443C08FB7F89405
:103ED0009092E9009091E80095FF06C09091F20061
:103EE000272D291B922F01C090E08FBF911105C093
:103EF0000150C1F10E94A728E6CF292F30E0C21758
:103F0000D3070CF49C2F8FB7F8949092E90020917E
:103F1000E80025FF1CC0292F30E0C21BD30BF501A0
:103F2000915020F041914093F100FACFA20EB31EC0
:103F3000112319F08092E80009C09091E80095FDE6
:103F400006C08092E80011E0209709F010E08FBFD2
:103F5000BACF1111BBCF5D9884E6809379011E140E
:103F60001F0444F081E090E0F6019383828380E0B7
:103F700090E001C0C701DF91CF911F910F91FF9099
:103F8000EF90DF90CF90BF90AF909F908F907F90F9
:103F900008950F931F93CF93DF931F92CDB7DEB792
:103FA0008C01FC018485958597FF0EC0CE0101969A
:103FB0000E94C128019719F4298130E002C02FEF37
:103FC0003FEFF80135872487F801848595850F90A8
:103FD000DF91CF911F910F910895CF93DF931F929F
:103FE000CDB7DEB7FC018485958597FD05C02FEF21
:103FF0003FEF358724870BC0CE0101960E94C12870
:10400000019719F4898190E002C08FEF9FEF0F9024
:10401000DF91CF91089540917701509178012091DF
:1040200075013091760142175307B4F49091E8007E
:104030009570E1F39091E80092FD19C08093F10032
:10404000809177019091780101968F739927892B40
:1040500019F48EEF8093E8008091770190917801B8
:104060000196909378018093770181E0089580E034
:104070000895DF92EF92FF920F931F93CF93DF93F8
:10408000D82E8A017B01E40EF51EEB01CE15DF056B
:1040900071F0D7FE03C0FE01849101C088810E94A7
:1040A0000B2021968111F2CF8FEF9FEF01C0C80145
:1040B000DF91CF911F910F91FF90EF90DF900895C6
:1040C000615030F02091F100FC0120830196F8CF7F
:1040D000289884E68093A30108951F93CF93DF93DC
:1040E000282F30E0F901E25CFE4F8491F901E15E96
:1040F000FE4FD491F901E050FF4FC491CC23C9F099
:10410000162F81110E94311EEC2FF0E0EE0FFF1FE1
:10411000EC51FF4FA591B4918FB7F894111105C0E0
:104120009C91ED2FE095E92302C0EC91ED2BEC93EF
:104130008FBFDF91CF911F9108958F929F92AF9281
:10414000BF92CF92DF92EF92FF921F93CF93DF93B4
:104150008BE00E946E1E813011F461E001C060E0CE
:1041600085E10E946D2086E00E946E1E892B21F45D
:1041700061E08DE00E946D2087E00E946E1E892B19
:1041800021F460E08DE00E946D20ECECF0E0E49121
:1041900080910102909102028B3091054CF40196BE
:1041A0009093020280930102DC01AB50BE4FEC936E
:1041B000F0E0EE0FFF1FE25DFE4F60817181EBECDE
:1041C000F0E0E49180910102909102028B30910520
:1041D0004CF401969093020280930102DC01AB50F3
:1041E000BE4FEC93F0E0EE0FFF1FE25DFE4FC0818B
:1041F000D181072E000C880B990B0E947F2D6B013B
:104200007C0125ED3FE04EE550E40E940B2E20E0BE
:1042100030E040E05BE30E940B2E4B015C0120E0AC
:1042200030E040E05FE30E94E22CAB01BC0184E49B
:1042300094E00E94111F1FB7F8942CEC37EF45E172
:1042400050E4C701B6010E940B2E20E030E040E0B0
:104250005BE30E940B2E2DEC3CEC4CEC5DE30E94EA
:10426000E22C20E030E84AED55E40E940B2E20E0DD
:1042700030E040E858E30E940B2E20E030E040E8B8
:1042800057E40E940B2E0E944E2D609335047093CC
:10429000360480933704909338041FBF1FB7F894F7
:1042A00025EE3CE140EB50E4C701B6010E940B2E25
:1042B00020E030E040E05BE30E940B2E20E030E0A5
:1042C00040E05FE30E94E22C20E030E14AE355E465
:1042D0000E940B2E20E030E040E858E30E940B2EB5
:1042E00020E030E040E857E40E940B2E0E944E2D63
:1042F00060932204709323048093240490932504F4
:104300001FBF2DEC3CEC4CEC5DE3C501B4010E94F9
:10431000E22CAB01BC018BE094E00E94111F82E013
:104320000E946E1E892B09F050C084E08EB982E095
:1043300090E0909329018093280180E090E0A5E02F
:10434000B0E080934F0490935004A0935104B09335
:1043500052048FB7F89440914F04509150046091EB
:104360005104709152044093440450934504609367
:104370004604709347048FBFBE010D2E000C880BBE
:10438000990B0E947F2D2DEC3CEC4CEC5DE30E94E0
:104390000B2E20E030E040E85FE30E94E22C0E9418
:1043A0004E2DCB01A0E0B0E0DC0199278827809357
:1043B000530490935404A0935504B093560481E0A1
:1043C00080934E0480932D0104C010922D01109211
:1043D0004E0483E00E946E1E892B09F050C084E0D9
:1043E0008EB982E090E0909329018093280180E0CB
:1043F00090E0A5E0B0E080933C0490933D04A0934E
:104400003E04B0933F048FB7F89440913C04509120
:104410003D0460913E0470913F04409331045093F9
:10442000320460933304709334048FBFBE010D2EA9
:10443000000C880B990B0E947F2D2DEC3CEC4CEC72
:104440005DE30E940B2E20E030E040E85FE30E9435
:10445000E22C0E944E2DCB01A0E0B0E0DC019927B8
:1044600088278093400490934104A0934204B09322
:10447000430481E080932C0180933B0404C010929C
:104480002C0110923B0484E00E946E1E892B09F0DF
:1044900050C084E08EB982E090E09093290180932F
:1044A000280180E090E0A5E0B0E08093290490939B
:1044B0002A04A0932B04B0932C048FB7F894409156
:1044C000290450912A0460912B0470912C0440938C
:1044D0001E0450931F0460932004709321048FBF27
:1044E000BE010D2E000C880B990B0E947F2D2DEC28
:1044F0003CEC4CEC5DE30E940B2E20E030E040E809
:104500005FE30E94E22C0E944E2DCB01A0E0B0E0C0
:10451000DC019927882780932D0490932E04A09383
:104520002F04B093300481E080932B018093280402
:1045300004C010922B011092280485E00E946E1E88
:10454000892B09F043C084E08EB982E090E090931B
:104550002901809328018FB7F89440911604509157
:104560001704609118047091190440930B04509340
:104570000C0460930D0470930E048FBFBE01DD0F19
:10458000880B990B0E947F2D2DEC3CEC4CE45DE3F5
:104590000E940B2E20E030E040E85FE30E94E22C16
:1045A0000E944E2DCB01A0E0B0E0DC0199278827C6
:1045B00080931A0490931B04A0931C04B0931D04D1
:1045C00081E080932A018093150404C010922A018F
:1045D000109215048091280190912901009749F0CB
:1045E00001979093290180932801892B11F48BEF77
:1045F0008EB9809100018F3F29F40E94D21E81E084
:1046000080930101DF91CF911F91FF90EF90DF9098
:10461000CF90BF90AF909F908F900895CF93DF93EE
:1046200090E0FC01E15EFE4F2491FC01E050FF4F61
:104630008491882361F190E0880F991FFC01EA5270
:10464000FF4FC591D491FC01EC51FF4FA591B4915E
:10465000611109C09FB7F8948881209582238883CF
:10466000EC912E230BC0623061F49FB7F89438812F
:10467000822F809583238883EC912E2B2C939FBFD0
:1046800006C08FB7F894E8812E2B28838FBFDF9167
:10469000CF9108953FB7F894809171019091720184
:1046A000A0917301B091740126B5A89B05C02F3F5E
:1046B00019F00196A11DB11D3FBFBA2FA92F982F48
:1046C0008827820F911DA11DB11DBC01CD0142E0C3
:1046D000660F771F881F991F4A95D1F708951F927B
:1046E0000F920FB60F9211242F933F938F939F93A6
:1046F000AF93BF9380916D0190916E01A0916F0176
:10470000B091700130916C0123E0230F2D3720F41C
:104710000196A11DB11D05C026E8230F0296A11D1B
:10472000B11D20936C0180936D0190936E01A09355
:104730006F01B09370018091710190917201A0910D
:104740007301B09174010196A11DB11D8093710197
:1047500090937201A0937301B0937401BF91AF91D4
:104760009F918F913F912F910F900FBE0F901F90AF
:1047700018951F920F920FB60F9211242F933F930B
:104780004F935F936F937F938F939F93AF93BF9359
:10479000EF93FF938091B900887F883221F170F404
:1047A0008031F1F030F4882309F472C08830C1F010
:1047B00073C08831C1F0803251F16EC0803409F489
:1047C0004EC028F4803319F1883321F165C080355B
:1047D000D1F1883509F44FC0883409F05DC05AC062
:1047E00080916B0111C090916A01809169019817C5
:1047F00008F050C0E0916A0181E08E0F80936A0159
:10480000F0E0E75BFE4F80818093BB002EC0809379
:10481000480140C08093480185EC8093BC008091A2
:1048200047018093460110924701809146018330F1
:1048300019F40E94971E30C080914601813061F5C5
:104840000E94A71E29C0E0916A0181E08E0F80932B
:104850006A018091BB00F0E0E75BFE4F808390919E
:104860006A0180916901981710F485EC01C085E810
:104870008093BC0011C0E0916A0181E08E0F8093AB
:104880006A018091BB00F0E0E75BFE4F808302C0CD
:10489000109248010E94B81EFF91EF91BF91AF9115
:1048A0009F918F917F916F915F914F913F912F9148
:1048B0000F900FBE0F901F90189578941F920F9233
:1048C0000FB60F9211242F933F934F935F936F93E3
:1048D0007F938F939F93AF93BF93EF93FF93109228
:1048E0006E00E0917C01F0917D010995F894809132
:1048F0007B01882311F016BCA99A80916E0082601A
:1049000080936E00FF91EF91BF91AF919F918F9136
:104910007F916F915F914F913F912F910F900FBEBB
:104920000F901F9018951F920F920FB60F9211249F
:104930002F933F934F935F936F937F938F939F93A7
:10494000AF93BF93EF93FF9380910101882341F0D0
:1049500080917A00806480937A001092010111C0E6
:10496000E09100018091780090917900EE0FFF0BAB
:10497000E25DFE4F918380830E94D21E81E080938E
:104980000101FF91EF91BF91AF919F918F917F9125
:104990006F915F914F913F912F910F900FBE0F90AC
:1049A0001F9018951F920F920FB60F9211242F93FC
:1049B0003F938F939F93AF93BF93EF93FF93809118
:1049C0000304E82FF0E0EE0FFF1FED5FFD4F2081A5
:1049D00031818F5F80930304811119C09091050488
:1049E00081E0892780930504809107049091080451
:1049F000A0910904B0910A040196A11DB11D8093F4
:104A0000070490930804A0930904B0930A04C90111
:104A1000880F892F881F990B9195809388002F7795
:104A200020938A00FF91EF91BF91AF919F918F9159
:104A30003F912F910F900FBE0F901F901895CF921E
:104A4000DF92EF92FF920F931F93DC014D915D91E6
:104A50006D917C9113971F960D911D912D913C9115
:104A600052970417150726073707E8F41A968C9112
:104A70001A978823C9F1CD90DD90ED90FC901397A3
:104A80001B964D915D916D917C911E974C0D5D1D16
:104A90006E1D7F1D401B510B620B730B4D935D937D
:104AA0006D937C9313974D915D916D917C911397CC
:104AB0001896ED91FC911997E60FF71F84911496C3
:104AC0004D915D916D917C9117970D911D912D9157
:104AD0003C911397400F511F621F731F4D935D93BD
:104AE0006D937C93139701C080E01F910F91FF900D
:104AF000EF90DF90CF9008950E94C22E0F931F93E6
:104B0000CF93DF931F92CDB7DEB782E0898342E473
:104B100050E06DE571E080E80E9439200E94EB28AA
:104B2000DC0112960D911C9113970115110569F086
:104B3000D801ED91FC910280F381E02DBE016F5F01
:104B40007F4FC801099597FF07C089810F90DF91BA
:104B5000CF911F910F910895F80100851185E5CF40
:104B6000CF92DF92EF92FF920F931F93CF93DF9339
:104B70001F92CDB7DEB7182F062FE42E862F880F91
:104B80008E5F99830E940B2083E00E940B20F12E00
:104B9000C12E9981D92E8C2D8F19801798F4F6018A
:104BA000E7FE02C0849101C080810E940B20182F73
:104BB00080E00E940B208123FFEFCF1ADF0A8111D2
:104BC000EACF01C081E00F90DF91CF911F910F914B
:104BD000FF90EF90DF90CF9008951F920F920FB645
:104BE0000F9211248F939F938091E1009091E100A7
:104BF000937F9093E10083FF0FC01092E90091E052
:104C00009093EB001092EC0092E39093ED001092E1
:104C1000A40198E09093F00082FF20C093E090936D
:104C2000E9009091F200992319F09AE39093E8003B
:104C300090917901992339F0909179019150909355
:104C40007901992389F19091A301992339F09091E9
:104C5000A30191509093A301992341F184FF10C0C7
:104C60008091E2008E7E81608093E2008091E1007D
:104C70008F7E8093E10080917A018E7E806111C0E9
:104C800080FF16C08091E2008E7E80618093E200FA
:104C90008091E1008E7E8093E10080917A018E7E8A
:104CA000816080937A0104C05D9ACDCF289AD6CFD7
:104CB0009F918F910F900FBE0F901F9018951F928C
:104CC0000F920FB60F921124CF92DF92EF92FF92C4
:104CD0000F931F932F933F934F935F936F937F9304
:104CE0008F939F93AF93BF93EF93FF93CF93DF93F4
:104CF000CDB7DEB76C97DEBFCDBF1092E9008091D3
:104D0000E80083FFEDC168E0CE0145960E94602077
:104D100082EF8093E8008D8987FF05C09091E800BD
:104D200090FFFCCF03C09EEF9093E800982F907601
:104D300009F0C6C09E892F89188D91110CC080384A
:104D400029F480917F018093F10002C01092F1005C
:104D50001092F10048C1422F50E0512B913051F494
:104D6000811141C14130510509F03DC180917F0160
:104D70008D7F0BC0933061F4811135C141305105F5
:104D800009F031C180917F01826080937F012BC146
:104D9000953041F48091E80080FFFCCF206820939B
:104DA000E30021C1963009F05FC0EB8CFC8C1092BF
:104DB000E9001092780110927701123091F510926B
:104DC0007601109275010E947E2599E0BE016F5F09
:104DD0007F4FDB01E92F1D92EA95E9F799831A834A
:104DE00091E09E8390EA98879AEF998720917701C6
:104DF00030917801275F3F4F3C832B838D83109246
:104E0000E9001092780110927701F0927601E09219
:104E1000750149E050E080E00E9439200E947E2523
:104E2000E2C0F0927601E09275010E94EB28DC016D
:104E30001296ED90FC901397E114F10409F4C0C0B0
:104E4000D701ED91FC910480F581E02DBE016B5EF0
:104E50007F4FC7010995009719F00CF0C4C0C7C077
:104E6000F701E084F184E8CF973009F4C0C09830AE
:104E700021F481E08093F100B6C0993009F0B3C00D
:104E8000837009F0B4C0EFE0F1E081E021E036E3A7
:104E90009081992361F08093E9002093EB00919138
:104EA0009093EC003093ED008F5F873089F78EE7A9
:104EB0008093EA001092EA008F898093A40193C046
:104EC0008B8D9C8D1092E9001092780110927701E1
:104ED0009093760180937501898D811156C08E89DA
:104EE0009D89913A59F4813209F081C047E050E040
:104EF00066E071E080E00E94392075C0913209F0CF
:104F000076C0833289F4888D90E0982F88272F8986
:104F1000822BA0E0B0E08093020190930301A09364
:104F20000401B09305015FC0803269F48091E8000C
:104F300082FFFCCF67E086E091E00E9460208BEF6B
:104F40008093E80006C0823209F04DC08F898093BB
:104F50000D0180917E01882319F0EEEFFAE002C086
:104F6000E0E0F8E08091060190910701A09108012E
:104F7000B0910901803B9440A105B10509F07BC0C7
:104F800080910D0180FF93C076C00E94EB28DC0168
:104F900012960D911C9113970115110541F1D8013D
:104FA000ED91FC910190F081E02DBE016B5E7F4F91
:104FB000C8010995811117C0F80100851185ECCF52
:104FC000113009F44EC0133091F48F89882309F40D
:104FD00045C0823081F440E860E181EC91E00E94BC
:104FE000B025882321F08EEF8093E80079C081E21C
:104FF0008093EB0075C0813029F440E86BE085EBCD
:1050000091E0EDCF833099F70E94EB28DC011296F6
:10501000ED90FC9013978E010F5F1F4F6801E11414
:10502000F10479F0D701ED91FC910680F781E02D34
:10503000B801C7010995080F111DF701E084F1843B
:10504000EECFD8011C92F60101900020E9F73197CC
:10505000BF016C197D0940E0C601C1CF6FE971E065
:1050600002C063EA71E06115710509F2FB01449128
:1050700050E080E840CF0FB6F894A895809160008A
:10508000886180936000109260000FBEA895EE3F8B
:105090002AE0F20739F08091FE0A9091FF0A91838D
:1050A0008083A1CF1092FF0A1092FE0A9CCFEE3FA0
:1050B0008AE0F80731F0808191819093FF0A809314
:1050C000FE0A87E797E7918380839BE088E10FB62C
:1050D000F894A895809360000FBE9093600083CFF2
:1050E0006C960FB6F894DEBF0FBECDBFDF91CF91A7
:1050F000FF91EF91BF91AF919F918F917F916F91B0
:105100005F914F913F912F911F910F91FF90EF90E1
:10511000DF90CF900F900FBE0F901F901895BC019D
:10512000009791F0FC0101900020E9F73197AF0161
:10513000481B590BE091A501F091A6010280F38173
:10514000E02D85EA91E0099480E090E00895CF9207
:10515000DF92EF92FF920E944A236B017C010E9432
:105160004A23DC01CB018C199D09AE09BF09883E99
:105170009340A105B10598F3FF90EF90DF90CF9099
:105180000895FC018091A401811103C08FEF9FEF6E
:1051900008959FB7F89482E08093E9002091F2008F
:1051A00030E01216130614F421E030E02115310529
:1051B00059F0289884E68093A3018091F1008083C0
:1051C0008091F200882319F09FBFC90108958BE6F2
:1051D0008093E800F9CF80915B0481110DC082E0DB
:1051E0008093570484E08093580410925A041092DC
:1051F000590481E080935B0487E594E00895CF93A0
:10520000DF93CDB7DEB7A1970FB6F894DEBF0FBE20
:10521000CDBF789484B5826084BD84B5816084BD3F
:1052200085B5826085BD85B5816085BD80916E0044
:10523000816080936E001092810080918100826075
:1052400080938100809181008160809381008091B2
:1052500080008160809380008091910082608093C3
:1052600091008091910081608093910080919000E5
:105270008160809390008091C10084608093C10020
:105280008091C10082608093C1008091C1008160E3
:105290008093C1008091C30081608093C30080919E
:1052A000C00082608093C0008091C20081608093C2
:1052B000C20080917A00846080937A0080917A00A5
:1052C000826080937A0080917A00816080937A0076
:1052D00080917A00806880937A001092A4011092E5
:1052E0007F0110927A018091D70081608093D7006E
:1052F00080EA8093D80089B5806189BD89B58260D4
:1053000089BD09B400FEFDCF0E94A7288091D80076
:105310008F7C80618093D8008091E000807F8093B3
:10532000E0008091E1008E7E8093E1008DE080932B
:10533000E200559A209AEEEFFFE7859194918B3F1A
:105340009C4D19F481E080937E0180917A00886001
:1053500080937A0080917A00846080937A008091B3
:105360007A008D7F80937A0080917A008E7F80937F
:105370007A0080E090E061E070E040917E009B0167
:10538000082E01C0220F0A94EAF7242B20937E00F6
:1053900001968C30910589F784B58093A20185B57B
:1053A0008093A10187B58093A00180916E008093C6
:1053B0009F018DE990E290937D0180937C01109292
:1053C0007B0180E090E040E950ED63E070E0FC019B
:1053D000EE52FE4FE491EE2389F06A017B01082E24
:1053E00004C0F694E794D794C7940A94D2F731E0B6
:1053F000C316D306E104F10408F443C201968B30CE
:10540000910529F780916E00826080936E0084B5CB
:1054100080939E0185B580939D0187B580939C0103
:1054200080916E0080939B01809180008093830126
:105430008091810080938201809188009091890001
:105440008093810180916F008093800161E089E009
:105450000E940E2361E08AE00E940E2310929601C2
:1054600098E19093970182E0809398019093810056
:105470008093800080E890E0A0E0B0E021E02093FD
:105480009301909392018093910190938700809370
:10549000860089E18093810061E089E00E940E230B
:1054A0009091800080919801892B80688093800082
:1054B0001092890010928800909193018091970139
:1054C000892B8093810061E08AE00E940E239091F5
:1054D000800080919801892B8062809380001092D7
:1054E0008B0010928A009091930180919701892BF3
:1054F000809381008091800080938701809181005A
:105500008093860180918800909189008093850125
:1055100080916F00809384018091C00080938A0104
:105520008091C10080938A018091C20080938A019A
:105530008091C30080938A018091C40080938A0186
:105540008091D100809389018091720080938801BD
:1055500019A286E388A387E38F8F89E38E8FCE011C
:105560004E960E948F2885E291E00E948F2881E06C
:1055700090E021E030E040E050E0CC24D22EE32E59
:10558000F42E60EDC61663E0D606E104F10450F097
:10559000082F60ED73E080E090E00E94782E1FEF0E
:1055A000120F08C0220F331F441F551F019681316F
:1055B000910519F71092C0001092C1001092C2001C
:1055C0001092C3001092C4001092BF001092BE004F
:1055D0001093D1000093C10080918D01811180E46E
:1055E0008093720080E19FE190938C0180938B0106
:1055F00080E48093720091E090938D01809372001B
:105600008091C000809390018091C10080939001AF
:105610008091C200809390018091C300809390019B
:105620008091C400809390018091D10080938F017C
:105630008091720080938E018BB18C638BB962E094
:1056400082E00E940E2362E083E00E940E2362E06B
:1056500084E00E940E2362E085E00E940E2362E057
:1056600086E00E940E2362E087E00E940E2361E044
:105670008DE00E940E2361E088E00E940E2361E02D
:1056800088E00E946D2060E088E00E946D2061E06B
:1056900088E00E946D2060E088E00E946D2061E05B
:1056A00088E00E946D20FF24F39400E010E09091C8
:1056B000040480910304981306C09091060480911D
:1056C00005049813D7C084E494E00E941F254091FC
:1056D000310450913204609133047091340480900D
:1056E000400490904104A0904204B090430484167A
:1056F0009506A606B70628F590913B04992309F470
:10570000E0C04090310450903204609033047090B7
:10571000340440913C0450913D0460913E047091EA
:105720003F04440D551D661D771D481959096A0926
:105730007B09409331045093320460933304709397
:1057400034044091310450913204609133047091DB
:105750003404E0913904F0913A04E60FF71FE49124
:1057600040913504509136046091370470913804AB
:105770008090310490903204A0903304B0903404AF
:10578000480D591D6A1D7B1D40933104509332040E
:105790006093330470933404880F990B8E0F911D1E
:1057A000E7FD9A9540911E0450911F0460912004DA
:1057B0007091210480902D0490902E04A0902F04CD
:1057C000B090300484169506A606B70608F47BC090
:1057D00040911E0450911F04609120047091210497
:1057E000E0912604F0912704E60FF71FE491409121
:1057F0002204509123046091240470912504809028
:105800001E0490901F04A0902004B0902104480D25
:10581000591D6A1D7B1D40931E0450931F04609305
:105820002004709321046C01CE0ED11CE7FDDA94A4
:105830008BE094E00E941F2520910404E22FF0E009
:10584000EE0FFF1FED5FFD4F880F990B8C0D9D1D17
:1058500044E0880F991F4A95E1F7905E9183808319
:105860002F5F20930404211105C0809106048F2529
:10587000809306040115110509F419CF0E94000058
:1058800016CFA1E0B0E002C0AA0FBB1F8A95E2F7D5
:10589000A70196010E94A02EDC01CB0124E0B59562
:1058A000A795979587952A95D1F790939A0180931C
:1058B000990110926E0082E084BDE5BDCA94C7BC18
:1058C000A1CDE0E069CF20912804222309F1409086
:1058D0001E0450901F046090200470902104409199
:1058E000290450912A0460912B0470912C04440DDA
:1058F000551D661D771D481959096A097B09409392
:105900001E0450931F04609320047093210460CF01
:10591000E0E089CFE5EAF1E01382128288EE93E0BD
:10592000A0E0B0E084839583A683B78389E191E00A
:10593000918380838FEF9FEF9587848790930202F6
:105940008093010210920304109204041092050443
:1059500010920604E4E4F4E02EEC38E2318720876C
:1059600080E090E0A2E7B2E18787908BA18BB28BB9
:105970001286E1E3F4E04EE75DE05187408740E0C6
:1059800050E060E57BE14787508B618B728B12861C
:10599000EEE1F4E04DED51E05187408740E050E00A
:1059A00061EA7BE04787508B618B728B1286EBE05C
:1059B000F4E0318720878787908BA18BB28B12868A
:1059C00008955058BB27AA270E94F92C0C94D12D7A
:1059D0000E94C32D38F00E94CA2D20F039F49F3F59
:1059E00019F426F40C94C02D0EF4E095E7FB0C940A
:1059F000BA2DE92F0E94E22D58F3BA1762077307F8
:105A00008407950720F079F4A6F50C94042E0EF483
:105A1000E0950B2EBA2FA02D0B01B90190010C01BE
:105A2000CA01A0011124FF27591B99F0593F50F4D6
:105A3000503E68F11A16F040A22F232F342F44272E
:105A4000585FF3CF469537952795A795F040539526
:105A5000C9F77EF41F16BA0B620B730B840BBAF0F6
:105A60009150A1F0FF0FBB1F661F771F881FC2F761
:105A70000EC0BA0F621F731F841F48F48795779575
:105A80006795B795F7959E3F08F0B0CF9395880F2F
:105A900008F09927EE0F9795879508950E94EA2DB3
:105AA00088F09F5798F0B92F9927B751B0F0E1F0DF
:105AB000660F771F881F991F1AF0BA95C9F714C08F
:105AC000B13091F00E94042EB1E008950C94042EA0
:105AD000672F782F8827B85F39F0B93FCCF38695C8
