:100000000C94EA150C9412160C9412160C941216F9
:100010000C9412160C9412160C9412160C941216C0
:100020000C9412160C9412160C9497180C9409192F
:100030000C9412160C9412160C9412160C941216A0
:100040000C9412160C9412160C9412160C94121690
:100050000C9412160C94DB1B0C9412160C941D1E9F
:100060000C9412160C9412160C9412160C94121670
:100070000C9412160C94151D0C9412160C94121656
:100080000C9412160C9412160C9412160C94121650
:100090000C940E1C0C9412160C94C71C0C94121683
:1000A0000C9412160C9412160C941216511B541B1D
:1000B000431B471B4D1B751B751B751B581B5C1B7E
:1000C000601B661B6A1B751B701B0000000076A975
:1000D0000800512D090004B90900054D0A00D3E9B3
:1000E0000A00F48F0B00F63F0C0070FA0C0000C001
:1000F0000D004F910E00116F0F00025A1000EC52CC
:100100001100A35A1200087213000A9A1400A6D311
:100110001500E91F1700ED7F1800E0F419000080BA
:100120001B009E221D0022DE1E0004B42000D8A564
:10013000220046B5240010E42600153429004DA7FE
:100140002B00D23F2E00DAFF3000C0E93300FFFF62
:1001500036003D453A0044BC3D0008684100AF4BC5
:1001600045008C6A490020C84D002A6852009C4E08
:100170005700A47F5C00B4FF610080D36700FFFFDD
:100180006D007B8A740089787B0011D082005F97B4
:100190008A0018D5920041909B0053D0A400339D53
:1001A000AE0046FFB80069FFC30000A7CF00FDFF07
:1001B000DB00F414E9000BF1F60020A00501BE2ECF
:1001C000150130AA250182203701A6A04901663A0F
:1001D0005D018CFE7101D2FE8701004E9F01FAFF86
:1001E000B701F229D20120E2ED0140400B027C5D13
:1001F0002A024C544B0204416E024C419302CC74CF
:10020000BA0228FDE302A4FD0F03009C3E03F4FFA5
:100210006F03E453A40340C4DB0380801604F8BAE0
:10022000540498A896040882DC049882260598E96C
:10023000740530FAC70548FB1F0600387D06E8FF45
:10024000DF06C8A748078088B70700012D08F075AA
:10025000A90830512D091004B90930054D0AA0D361
:10026000E90AA0F48F0B00F63F0CC06FFA0C70FF88
:10027000BF0D804E910EB0106F0FA0015A10E0EB31
:10028000521160A25A1220087213600A9A1440A7F1
:10029000D31540E81F1700EC7F1880DFF419E0FE4B
:1002A0007F1B009D221D6021DE1E4003B420C0D7AD
:1002B000A522C044B5244010E426C0143429804E41
:1002C000A72B80D23F2E00D8FF3000000000240072
:1002D00027002A002D003000000000002300260027
:1002E00029002C002F00080B000202020100090463
:1002F0000000010202000005240010010524010194
:1003000001042402060524060001070581031000EC
:100310004009040100020A00000007050202400033
:1003200000070583024000000403090412010002D3
:10033000EF020140412336800001010203014172B6
:100340006475696E6F204C4C430041726475696E30
:100350006F204C656F6E6172646F000000000025B5
:100360000028002B002E00310004040404040304C0
:100370000502020202040302020202060606060643
:100380000604040202020404040802011040804032
:1003900010204080408008020401804020100201AB
:1003A000108010204040200000000200090F0000D3
:1003B000030401000C000000000000000000000029
:1003C000000000000000070605040100080A0B0CED
:1003D0000D09808080808080808080808080808007
:1003E000808080808080808080808080808080800D
:1003F00080808080808080808080808181818181F8
:1004000081818181818181818181818182828282D8
:1004100082828282828282828283838383838383B5
:10042000838383838484848484848484848485858E
:100430008585858585858586868686868686868762
:100440008787878787878888888888888888898930
:10045000898989898A8A8A8A8A8A8A8B8B8B8B8BFB
:100460008B8C8C8C8C8C8C8D8D8D8D8D8E8E8E8EC0
:100470008E8E8F8F8F8F8F90909090909191919181
:10048000919292929292939393939394949494943E
:1004900095959595969696969697979797989898F6
:1004A0009898999999999A9A9A9A9B9B9B9B9C9CAC
:1004B0009C9C9D9D9D9D9E9E9E9E9F9F9F9FA0A05C
:1004C000A0A0A1A1A1A1A2A2A2A3A3A3A3A4A4A40A
:1004D000A4A5A5A5A6A6A6A6A7A7A7A8A8A8A8A9B3
:1004E000A9A9AAAAAAAAABABABACACACACADADAD5A
:1004F000AEAEAEAFAFAFB0B0B0B0B1B1B1B2B2B2FC
:10050000B3B3B3B4B4B4B5B5B5B5B6B6B6B7B7B79B
:10051000B8B8B8B9B9B9BABABABBBBBBBCBCBCBD38
:10052000BDBDBEBEBEBFBFBFC0C0C0C1C1C1C2C2D3
:10053000C2C3C3C4C4C4C5C5C5C6C6C6C7C7C7C869
:10054000C8C8C9C9C9CACACBCBCBCCCCCCCDCDCD00
:10055000CECECFCFCFD0D0D0D1D1D1D2D2D3D3D392
:10056000D4D4D4D5D5D5D6D6D7D7D7D8D8D8D9D925
:10057000DADADADBDBDBDCDCDDDDDDDEDEDEDFDFB5
:10058000E0E0E0E1E1E2E2E2E3E3E3E4E4E5E5E543
:10059000E6E6E7E7E7E8E8E8E9E9EAEAEAEBEBECD0
:1005A000ECECEDEDEDEEEEEFEFEFF0F0F1F1F1F25E
:1005B000F2F3F3F3F4F4F5F5F5F6F6F6F7F7F8F8E9
:1005C000F8F9F9FAFAFAFBFBFCFCFCFDFDFEFEFE75
:1005D000FFFF000000010101020203030304040500
:1005E0000505060607070708080909090A0A0A0B8C
:1005F0000B0C0C0C0D0D0E0E0E0F0F101010111118
:1006000012121213131314141515151616171717A3
:1006100018181819191A1A1A1B1B1C1C1C1D1D1D31
:100620001E1E1F1F1F2020202121222222232324BF
:100630002424252525262627272728282829292A4E
:100640002A2A2B2B2B2C2C2C2D2D2E2E2E2F2F2FE0
:100650003030303131323232333333343434353573
:100660003636363737373838383939393A3A3A3B07
:100670003B3B3C3C3D3D3D3E3E3E3F3F3F4040409E
:100680004141414242424343434444444545454637
:1006900046464747474848484949494A4A4A4A4BD3
:1006A0004B4B4C4C4C4D4D4D4E4E4E4F4F4F4F5073
:1006B0005050515151525252535353535454545514
:1006C00055555556565657575757585858595959BA
:1006D000595A5A5A5B5B5B5B5C5C5C5C5D5D5D5E62
:1006E0005E5E5E5F5F5F5F6060606061616161620E
:1006F00062626263636363646464646565656566BE
:100700006666666767676767686868686969696970
:100710006A6A6A6A6A6B6B6B6B6B6C6C6C6C6C6D27
:100720006D6D6D6E6E6E6E6E6E6F6F6F6F6F7070E3
:1007300070707071717171717172727272727373A3
:100740007373737374747474747475757575757567
:100750007576767676767676777777777777777831
:1007600078787878787879797979797979797A7AFD
:100770007A7A7A7A7A7A7A7B7B7B7B7B7B7B7B7BD0
:100780007B7C7C7C7C7C7C7C7C7C7C7C7D7D7D7DA6
:100790007D7D7D7D7D7D7D7D7D7E7E7E7E7E7E7E82
:1007A0007E7E7E7E7E7E7E7E7E7E7F7F7F7F7F7F63
:1007B0007F7F7F7F7F7F7F7F7F7F7F7F7F7F7F7F49
:1007C0007F7F7F7F7F7F7F7F7F7F7F7F7F7F7F7F39
:1007D0007F7F7F7F7F7F7F7F7F7F7F7F7F7F7F7F29
:1007E0007F7F7F7F7F7F7F7F7F7F7F7F7F7F7F7F19
:1007F0007F7F7F7F7F7F7F7F7F7F7F7F7E7E7E7E0D
:100800007E7E7E7E7E7E7E7E7E7E7E7E7D7D7D7D0C
:100810007D7D7D7D7D7D7D7D7D7C7C7C7C7C7C7C0F
:100820007C7C7C7C7B7B7B7B7B7B7B7B7B7B7A7A16
:100830007A7A7A7A7A7A7A79797979797979797822
:100840007878787878787777777777777777767634
:100850007676767675757575757575747474747449
:100860007473737373737372727272727171717164
:10087000717170707070706F6F6F6F6F6E6E6E6E83
:100880006E6D6D6D6D6D6C6C6C6C6C6B6B6B6B6BA6
:100890006A6A6A6A6A6969696968686868676767CD
:1008A00067676666666665656565646464646363F8
:1008B00063636262626261616161606060605F5F28
:1008C0005F5F5E5E5E5E5D5D5D5C5C5C5C5B5B5B5A
:1008D0005B5A5A5A59595959585858575757575691
:1008E00056565555555554545453535353525252CA
:1008F0005151515050504F4F4F4F4E4E4E4D4D4D08
:100900004C4C4C4B4B4B4A4A4A4A49494948484847
:10091000474747464646454545444444434343428A
:1009200042424141414040403F3F3F3E3E3E3D3DCF
:100930003D3C3C3C3B3B3A3A3A3939393838383718
:100940003737363636353534343433333332323262
:1009500031313030302F2F2F2E2E2E2D2D2C2C2CB0
:100960002B2B2B2A2A2A29292828282727272626FD
:10097000252525242424232322222222212120204C
:100980001F1F1F1E1E1D1D1D1C1C1C1B1B1A1A1A9F
:1009900019191818181717171616151515141413F2
:1009A000131312121211111010100F0F0E0E0E0D44
:1009B0000D0C0C0C0B0B0A0A0A0909090808070799
:1009C00007060605050504040303030202010101ED
:1009D000000000FFFFFEFEFEFDFDFCFCFCFBFBFA41
:1009E000FAFAF9F9F8F8F8F7F7F6F6F6F5F5F5F496
:1009F000F4F3F3F3F2F2F1F1F1F0F0EFEFEFEEEEEA
:100A0000EEEDEDECECECEBEBEAEAEAE9E9E8E8E83C
:100A1000E7E7E7E6E6E5E5E5E4E4E3E3E3E2E2E28F
:100A2000E1E1E0E0E0DFDFDEDEDEDDDDDDDCDCDBE2
:100A3000DBDBDADADAD9D9D8D8D8D7D7D7D6D6D532
:100A4000D5D5D4D4D4D3D3D3D2D2D1D1D1D0D0D080
:100A5000CFCFCFCECECDCDCDCCCCCCCBCBCBCACACD
:100A6000C9C9C9C8C8C8C7C7C7C6C6C6C5C5C5C419
:100A7000C4C4C3C3C2C2C2C1C1C1C0C0C0BFBFBF62
:100A8000BEBEBEBDBDBDBCBCBCBBBBBBBABABAB9A9
:100A9000B9B9B8B8B8B7B7B7B6B6B6B5B5B5B5B4ED
:100AA000B4B4B3B3B3B2B2B2B1B1B1B0B0B0B0AF2D
:100AB000AFAFAEAEAEADADADACACACACABABABAA6C
:100AC000AAAAAAA9A9A9A8A8A8A8A7A7A7A6A6A6A6
:100AD000A6A5A5A5A4A4A4A4A3A3A3A3A2A2A2A1DE
:100AE000A1A1A1A0A0A0A09F9F9F9F9E9E9E9E9D12
:100AF0009D9D9D9C9C9C9C9B9B9B9B9A9A9A9A9942
:100B0000999999989898989897979797969696966E
:100B10009695959595949494949493939393939296
:100B200092929292919191919190909090908F8FBA
:100B30008F8F8F8E8E8E8E8E8E8D8D8D8D8D8C8CDB
:100B40008C8C8C8C8B8B8B8B8B8B8A8A8A8A8A8AF7
:100B50008A8989898989898988888888888888870D
:100B60008787878787878686868686868686858521
:100B7000858585858585858484848484848484842E
:100B80008483838383838383838383838282828238
:100B9000828282828282828282818181818181813C
:100BA000818181818181818181818080808080803B
:100BB0008080808080808080808080808080808035
:100BC0008080808080808080808080808080808025
:100BD0008080808080808080808080808080808015
:100BE0008080808080808080808080808080808005
:100BF00080808080808080808080808080808080F5
:100C000080808080808080808080808080808080E4
:100C100080808080808080808080808080808080D4
:100C200080808080808080808080808080808080C4
:100C300080808080808080808080808080808080B4
:100C400080808080808080808080808080808080A4
:100C50008080808080808080808080808080808094
:100C60008080808080808080808080808080808084
:100C70008080808080818181818181818181818169
:100C80008181818181818181818181818181818154
:100C90008181818181818181818181818181818144
:100CA0008181818181818181818181818181818134
:100CB000818181818181818181828282828282821D
:100CC0008282828282828282828282828282828204
:100CD00082828282828282828282828282828282F4
:100CE00082828282828282828282828282838383E1
:100CF00083838383838383838383838383838383C4
:100D000083838383838383838383838383838383B3
:100D1000838383838383838383848484848484849C
:100D20008484848484848484848484848484848483
:100D30008484848484848484848484848484848473
:100D40008585858585858585858585858585858553
:100D50008585858585858585858585858585858543
:100D60008585858686868686868686868686868626
:100D70008686868686868686868686868686868613
:100D800086868686878787878787878787878787F7
:100D900087878787878787878787878787878787E3
:100DA00087878888888888888888888888888888C5
:100DB00088888888888888888888888888888989B1
:100DC0008989898989898989898989898989898993
:100DD0008989898989898989898A8A8A8A8A8A8A7C
:100DE0008A8A8A8A8A8A8A8A8A8A8A8A8A8A8A8A63
:100DF0008A8A8A8B8B8B8B8B8B8B8B8B8B8B8B8B46
:100E00008B8B8B8B8B8B8B8B8B8B8B8C8C8C8C8C2D
:100E10008C8C8C8C8C8C8C8C8C8C8C8C8C8C8C8C12
:100E20008C8C8C8D8D8D8D8D8D8D8D8D8D8D8D8DF5
:100E30008D8D8D8D8D8D8D8D8D8D8E8E8E8E8E8EDC
:100E40008E8E8E8E8E8E8E8E8E8E8E8E8E8E8E8EC2
:100E50008F8F8F8F8F8F8F8F8F8F8F8F8F8F8F8FA2
:100E60008F8F8F8F8F8F9090909090909090909088
:100E7000909090909090909090909191919191916C
:100E80009191919191919191919191919191929250
:100E90009292929292929292929292929292929232
:100EA0009292939393939393939393939393939314
:100EB00093939393939494949494949494949494F7
:100EC00094949494949494949595959595959595DA
:100ED00095959595959595959595969696969696BC
:100EE000969696969696969696969696979797979E
:100EF0009797979797979797979797979797989880
:100F00009898989898989898989898989898989960
:100F10009999999999999999999999999999999941
:100F20009A9A9A9A9A9A9A9A9A9A9A9A9A9A9A9A21
:100F30009A9B9B9B9B9B9B9B9B9B9B9B9B9B9B9B02
:100F40009B9B9C9C9C9C9C9C9C9C9C9C9C9C9C9CE3
:100F50009C9C9D9D9D9D9D9D9D9D9D9D9D9D9D9DC3
:100F60009D9D9E9E9E9E9E9E9E9E9E9E9E9E9E9EA3
:100F70009E9F9F9F9F9F9F9F9F9F9F9F9F9F9F9F82
:100F80009FA0A0A0A0A0A0A0A0A0A0A0A0A0A0A062
:100F9000A1A1A1A1A1A1A1A1A1A1A1A1A1A1A1A240
:100FA000A2A2A2A2A2A2A2A2A2A2A2A2A2A2A3A31F
:100FB000A3A3A3A3A3A3A3A3A3A3A3A3A3A4A4A4FE
:100FC000A4A4A4A4A4A4A4A4A4A4A4A4A5A5A5A5DD
:100FD000A5A5A5A5A5A5A5A5A5A5A6A6A6A6A6A6BB
:100FE000A6A6A6A6A6A6A6A6A7A7A7A7A7A7A7A799
:100FF000A7A7A7A7A7A7A8A8A8A8A8A8A8A8A8A877
:10100000A8A8A8A8A9A9A9A9A9A9A9A9A9A9A9A954
:10101000A9A9AAAAAAAAAAAAAAAAAAAAAAAAAAAB31
:10102000ABABABABABABABABABABABABABACACAC0D
:10103000ACACACACACACACACACACACADADADADADEB
:10104000ADADADADADADADADAEAEAEAEAEAEAEAEC8
:10105000AEAEAEAEAEAFAFAFAFAFAFAFAFAFAFAFA5
:10106000AFAFB0B0B0B0B0B0B0B0B0B0B0B0B0B181
:10107000B1B1B1B1B1B1B1B1B1B1B1B1B2B2B2B25C
:10108000B2B2B2B2B2B2B2B2B2B3B3B3B3B3B3B339
:10109000B3B3B3B3B3B3B4B4B4B4B4B4B4B4B4B416
:1010A000B4B4B5B5B5B5B5B5B5B5B5B5B5B5B5B6F1
:1010B000B6B6B6B6B6B6B6B6B6B6B6B7B7B7B7B7CB
:1010C000B7B7B7B7B7B7B7B7B8B8B8B8B8B8B8B8A8
:1010D000B8B8B8B8B9B9B9B9B9B9B9B9B9B9B9B984
:1010E000BABABABABABABABABABABABABBBBBBBB5C
:1010F000BBBBBBBBBBBBBBBBBCBCBCBCBCBCBCBC38
:10110000BCBCBCBCBDBDBDBDBDBDBDBDBDBDBDBD13
:10111000BEBEBEBEBEBEBEBEBEBEBEBEBFBFBFBFEB
:10112000BFBFBFBFBFBFBFBFC0C0C0C0C0C0C0C0C7
:10113000C0C0C0C1C1C1C1C1C1C1C1C1C1C1C1C2A1
:10114000C2C2C2C2C2C2C2C2C2C2C2C3C3C3C3C37A
:10115000C3C3C3C3C3C3C4C4C4C4C4C4C4C4C4C455
:10116000C4C4C5C5C5C5C5C5C5C5C5C5C5C6C6C62E
:10117000C6C6C6C6C6C6C6C6C6C7C7C7C7C7C7C708
:10118000C7C7C7C7C8C8C8C8C8C8C8C8C8C8C8C9E2
:10119000C9C9C9C9C9C9C9C9C9C9C9CACACACACABA
:1011A000CACACACACACACBCBCBCBCBCBCBCBCBCB95
:1011B000CBCCCCCCCCCCCCCCCCCCCCCCCDCDCDCD6C
:1011C000CDCDCDCDCDCDCDCECECECECECECECECE46
:1011D000CECECFCFCFCFCFCFCFCFCFCFCFD0D0D01E
:1011E000D0D0D0D0D0D0D0D0D1D1D1D1D1D1D1D1F7
:1011F000D1D1D1D2D2D2D2D2D2D2D2D2D2D2D3D3D0
:10120000D3D3D3D3D3D3D3D3D3D4D4D4D4D4D4D4A7
:10121000D4D4D4D4D5D5D5D5D5D5D5D5D5D5D5D681
:10122000D6D6D6D6D6D6D6D6D6D7D7D7D7D7D7D757
:10123000D7D7D7D7D8D8D8D8D8D8D8D8D8D8D8D931
:10124000D9D9D9D9D9D9D9D9D9DADADADADADADA07
:10125000DADADADADBDBDBDBDBDBDBDBDBDBDBDCE1
:10126000DCDCDCDCDCDCDCDCDCDDDDDDDDDDDDDDB7
:10127000DDDDDDDDDEDEDEDEDEDEDEDEDEDEDFDF90
:10128000DFDFDFDFDFDFDFDFDFE0E0E0E0E0E0E067
:10129000E0E0E0E0E1E1E1E1E1E1E1E1E1E1E2E240
:1012A000E2E2E2E2E2E2E2E2E3E3E3E3E3E3E3E316
:1012B000E3E3E3E4E4E4E4E4E4E4E4E4E4E5E5E5EE
:1012C000E5E5E5E5E5E5E5E5E6E6E6E6E6E6E6E6C6
:1012D000E6E6E7E7E7E7E7E7E7E7E7E7E8E8E8E89C
:1012E000E8E8E8E8E8E8E8E9E9E9E9E9E9E9E9E975
:1012F000E9EAEAEAEAEAEAEAEAEAEAEAEBEBEBEB4B
:10130000EBEBEBEBEBEBECECECECECECECECECEC23
:10131000EDEDEDEDEDEDEDEDEDEDEEEEEEEEEEEEF7
:10132000EEEEEEEEEEEFEFEFEFEFEFEFEFEFEFF0D1
:10133000F0F0F0F0F0F0F0F0F0F1F1F1F1F1F1F1A6
:10134000F1F1F1F1F2F2F2F2F2F2F2F2F2F2F3F37F
:10135000F3F3F3F3F3F3F3F3F4F4F4F4F4F4F4F455
:10136000F4F4F5F5F5F5F5F5F5F5F5F5F5F6F6F62C
:10137000F6F6F6F6F6F6F6F7F7F7F7F7F7F7F7F704
:10138000F7F8F8F8F8F8F8F8F8F8F8F9F9F9F9F9D9
:10139000F9F9F9F9F9FAFAFAFAFAFAFAFAFAFAFAB2
:1013A000FBFBFBFBFBFBFBFBFBFBFCFCFCFCFCFC87
:1013B000FCFCFCFCFDFDFDFDFDFDFDFDFDFDFEFE5F
:1013C000FEFEFEFEFEFEFEFEFFFFFFFFFFFFFFFF35
:1013D000FFFFFF000000000000000000000101010D
:1013E00001010101010101020202020202020202E4
:1013F00002030303030303030303030404040404B9
:101400000404040404050505050505050505050591
:101410000606060606060606060607070707070766
:10142000070707070808080808080808080809093E
:1014300009090909090909090A0A0A0A0A0A0A0A14
:101440000A0A0A0B0B0B0B0B0B0B0B0B0B0C0C0CEC
:101450000C0C0C0C0C0C0C0D0D0D0D0D0D0D0D0DC3
:101460000D0E0E0E0E0E0E0E0E0E0E0E0F0F0F0F99
:101470000F0F0F0F0F0F1010101010101010101072
:101480001111111111111111111111121212121247
:101490001212121212131313131313131313131420
:1014A00014141414141414141415151515151515F5
:1014B00015151515161616161616161616161717CE
:1014C00017171717171717171818181818181818A4
:1014D000181818191919191919191919191A1A1A7C
:1014E0001A1A1A1A1A1A1A1A1B1B1B1B1B1B1B1B54
:1014F0001B1B1C1C1C1C1C1C1C1C1C1C1C1D1D1D2B
:101500001D1D1D1D1D1D1D1E1E1E1E1E1E1E1E1E02
:101510001E1F1F1F1F1F1F1F1F1F1F1F20202020D8
:1015200020202020202021202120212122212120B3
:101530002122222222222222222222232323232387
:101540002323232323232424242424242424242461
:101550002425252525252525252525262626262637
:101560002626262626262727272727272727272711
:1015700027282828282828282828282929292929E7
:101580002929292929292A2A2A2A2A2A2A2A2A2AC1
:101590002A2B2B2B2B2B2B2B2B2B2B2B2C2C2C2C98
:1015A0002C2C2C2C2C2C2C2D2D2D2D2D2D2D2D2D72
:1015B0002D2D2E2E2E2E2E2E2E2E2E2E2E2F2F2F4A
:1015C0002F2F2F2F2F2F2F2F303030303030303023
:1015D00030303031313131313131313131313232FC
:1015E00032323232323232323233333333333333D4
:1015F00033333333343434343434343434343435AE
:101600003535353535353535353536363636363684
:101610003636363636363737373737373737373760
:101620003738383838383838383838383939393937
:10163000393939393939393A3A3A3A3A3A3A3A3A11
:101640003A3A3A3B3B3B3B3B3B3B3B3B3B3B3B3CEC
:101650003C3C3C3C3C3C3C3C3C3C3D3D3D3D3D3DC4
:101660003D3D3D3D3D3D3E3E3E3E3E3E3E3E3E3EA0
:101670003E3F3F3F3F3F3F3F3F3F3F3F3F40404078
:101680004040404040404040404141414141414153
:10169000414141414142424242424242424242422F
:1016A0004243434343434343434343434344444408
:1016B00044444444444444444445454545454545E3
:1016C00045454545454646464646464646464646BF
:1016D0004647474747474747474747474748484898
:1016E0004848484848484848484849494949494974
:1016F0004949494949494A4A4A4A4A4A4A4A4A4A50
:101700004A4A4A4B4B4B4B4B4B4B4B4B4B4B4B4C2B
:101710004C4C4C4C4C4C4C4C4C4C4C4C4D4D4D4D05
:101720004D4D4D4D4D4D4D4D4D4E4E4E4E4E4E4EE2
:101730004E4E4E4E4E4E4F4F4F4F4F4F4F4F4F4FBF
:101740004F4F4F505050505050505050505050509C
:101750005151515151515151515151515152525276
:101760005252525252525252525253535353535353
:101770005353535353535353545454545454545431
:10178000545454545455555555555555555555550E
:1017900055555556565656565656565656565656EC
:1017A00056575757575757575757575757575758C9
:1017B00058585858585858585858585858595959A6
:1017C00059595959595959595959595A5A5A5A5A84
:1017D0005A5A5A5A5A5A5A5A5A5A5B5B5B5B5B5B63
:1017E0005B5B5B5B5B5B5B5B5C5C5C5C5C5C5C5C41
:1017F0005C5C5C5C5C5C5C5D5D5D5D5D5D5D5D5D20
:101800005D5D5D5D5D5D5E5E5E5E5E5E5E5E5E5EFE
:101810005E5E5E5E5E5F5F5F5F5F5F5F5F5F5F5FDD
:101820005F5F5F5F606060606060606060606060BC
:10183000606060606161616161616161616161619C
:10184000616161616262626262626262626262627C
:10185000626262636363636363636363636363635B
:10186000636363636464646464646464646464643C
:10187000646464646565656565656565656565651C
:1018800065656565656666666666666666666666FD
:1018900066666666666667676767676767676767DE
:1018A00067676767676767686868686868686868BF
:1018B00068686868686868686869696969696969A1
:1018C00069696969696969696969696A6A6A6A6A83
:1018D0006A6A6A6A6A6A6A6A6A6A6A6A6A6B6B6B65
:1018E0006B6B6B6B6B6B6B6B6B6B6B6B6B6B6B6B48
:1018F0006C6C6C6C6C6C6C6C6C6C6C6C6C6C6C6C28
:101900006C6C6C6D6D6D6D6D6D6D6D6D6D6D6D6D0A
:101910006D6D6D6D6D6D6D6E6E6E6E6E6E6E6E6EEE
:101920006E6E6E6E6E6E6E6E6E6E6E6F6F6F6F6FD2
:101930006F6F6F6F6F6F6F6F6F6F6F6F6F6F6F70B6
:101940007070707070707070707070707070707097
:10195000707070707071717171717171717171717C
:101960007171717171717171717171727272727262
:101970007272727272727272727272727272727247
:101980007272737373737373737373737373737329
:101990007373737373737373737474747474747410
:1019A00074747474747474747474747474747474F7
:1019B00074747575757575757575757575757575D9
:1019C00075757575757575757575757676767676C2
:1019D00076767676767676767676767676767676A7
:1019E000767676767676767777777777777777778E
:1019F0007777777777777777777777777777777777
:101A00007777777878787878787878787878787859
:101A10007878787878787878787878787878787846
:101A20007879797979797979797979797979797927
:101A30007979797979797979797979797979797916
:101A400079797A7A7A7A7A7A7A7A7A7A7A7A7A7AF8
:101A50007A7A7A7A7A7A7A7A7A7A7A7A7A7A7A7AE6
:101A60007A7A7A7A7A7B7B7B7B7B7B7B7B7B7B7BCB
:101A70007B7B7B7B7B7B7B7B7B7B7B7B7B7B7B7BB6
:101A80007B7B7B7B7B7B7B7B7B7B7B7B7C7C7C7CA2
:101A90007C7C7C7C7C7C7C7C7C7C7C7C7C7C7C7C86
:101AA0007C7C7C7C7C7C7C7C7C7C7C7C7C7C7C7C76
:101AB0007C7C7C7C7C7C7C7C7D7D7D7D7D7D7D7D5E
:101AC0007D7D7D7D7D7D7D7D7D7D7D7D7D7D7D7D46
:101AD0007D7D7D7D7D7D7D7D7D7D7D7D7D7D7D7D36
:101AE0007D7D7D7D7D7D7D7D7D7D7E7D7E7E7E7E21
:101AF0007E7E7E7E7E7E7E7E7E7E7E7E7E7E7E7E06
:101B00007E7E7E7E7E7E7E7E7E7E7E7E7E7E7E7EF5
:101B10007E7E7E7E7E7E7E7E7E7E7E7E7E7E7E7EE5
:101B20007E7E7E7E7E7E7E7E7E7E7E7E7E7E7E7ED5
:101B30007F7F7F7F7F7F7F7F7F7F7F7F7F7F7F7FB5
:101B40007F7F7F7F7F7F7F7F7F7F7F7F7F7F7F7FA5
:101B50007F7F7F7F7F7F7F7F7F7F7F7F7F7F7F7F95
:101B60007F7F7F7F7F7F7F7F7F7F7F7F7F7F7F7F85
:101B70007F7F7F7F7F7F7F7F7F7F7F7F7F7F7F7F75
:101B80007F7F7F7F7F7F7F7F7F7F7F7F7F7F7F7F65
:101B90007F7F7F7F7F7F7F7F7F7F7F7F7F7F7F7F55
:101BA0007F7F7F7F7F7F7F7F7F7F7F7F7F7F7F7F45
:101BB0007F7F7F7F7F7F7F7F7F7F7F7F7F7F7F7F35
:101BC0007F7F7F7F7F7F7F7F7F7F7F7F7F7F7F7F25
:101BD0007F7F7F7F7F7F7F7F7F7F7F7F7F7F7F7F15
:101BE0007F7F7F7F7F7F7F7F7F7F7F7F7F7F7F7F05
:101BF0007F7F7F7F7F7F7F7F7F7F7F7F7F7F7F7FF5
:101C00007F7F7F7F7F7F7F7F7F7F7F7F7F7F7F7FE4
:101C10007F7F7F7F7F7F7F7F7F7F7F7F7F7F7F7FD4
:101C20007F7F7F7F7F7F7F7F7F7F7F7F7F7F7F7FC4
:101C30007F7F7F7F7F7F7F7F7F7F7F7F7F7F7F7FB4
:101C40007F7F7F7F7F7F7F7F7F7F7F7F7F7F7F7FA4
:101C50007F7F7F7F7F7F7F7F7F7F7F7F7F7F7F7F94
:101C60007F7F7F7F7F7F7F7F7F7F7F7F7F7F7F7F84
:101C70007F7F7F7F7F7E7E7E7E7E7E7E7E7E7E7E7F
:101C80007E7E7E7E7E7E7E7E7E7E7E7E7E7E7E7E74
:101C90007E7E7E7E7E7E7E7E7E7E7E7E7E7E7E7E64
:101CA0007E7E7E7E7E7E7E7E7E7E7E7E7E7E7E7E54
:101CB0007E7E7E7E7E7E7E7E7E7E7D7D7D7D7D7D4A
:101CC0007D7D7D7D7D7D7D7D7D7D7D7D7D7D7D7D44
:101CD0007D7D7D7D7D7D7D7D7D7D7D7D7D7D7D7D34
:101CE0007D7D7D7D7D7D7D7D7D7D7D7D7D7C7C7C27
:101CF0007C7C7C7C7C7C7C7C7C7C7C7C7C7C7C7C24
:101D00007C7C7C7C7C7C7C7C7C7C7C7C7C7C7C7C13
:101D10007C7C7C7C7C7C7C7C7C7B7B7B7B7B7B7B0A
:101D20007B7B7B7B7B7B7B7B7B7B7B7B7B7B7B7B03
:101D30007B7B7B7B7B7B7B7B7B7B7B7B7B7B7B7BF3
:101D40007A7A7A7A7A7A7A7A7A7A7A7A7A7A7A7AF3
:101D50007A7A7A7A7A7A7A7A7A7A7A7A7A7A7A7AE3
:101D60007A7A7A79797979797979797979797979E0
:101D700079797979797979797979797979797979D3
:101D800079797979787878787878787878787878CF
:101D900078787878787878787878787878787878C3
:101DA00078787777777777777777777777777777C1
:101DB00077777777777777777777777777777776B4
:101DC00076767676767676767676767676767676B3
:101DD00076767676767676767676757575757575A9
:101DE00075757575757575757575757575757575A3
:101DF00075757574747474747474747474747474A0
:101E00007474747474747474747474747373737396
:101E10007373737373737373737373737373737392
:101E2000737373727272727272727272727272728F
:101E30007272727272727272727271717171717188
:101E40007171717171717171717171717171717182
:101E50007070707070707070707070707070707082
:101E600070707070706F6F6F6F6F6F6F6F6F6F6F7D
:101E70006F6F6F6F6F6F6F6F6F6F6E6E6E6E6E6E78
:101E80006E6E6E6E6E6E6E6E6E6E6E6E6E6E6E6D73
:101E90006D6D6D6D6D6D6D6D6D6D6D6D6D6D6D6D72
:101EA0006D6D6C6C6C6C6C6C6C6C6C6C6C6C6C6C70
:101EB0006C6C6C6C6C6B6B6B6B6B6B6B6B6B6B6B6D
:101EC0006B6B6B6B6B6B6B6B6A6A6A6A6A6A6A6A6A
:101ED0006A6A6A6A6A6A6A6A6A6A69696969696968
:101EE0006969696969696969696969696868686866
:101EF0006868686868686868686868686868676764
:101F00006767676767676767676767676767676662
:101F10006666666666666666666666666666666661
:101F20006565656565656565656565656565656561
:101F30006564646464646464646464646464646460
:101F4000646463636363636363636363636363635F
:101F5000636362626262626262626262626262625F
:101F60006261616161616161616161616161616160
:101F70006160606060606060606060606060606060
:101F8000605F5F5F5F5F5F5F5F5F5F5F5F5F5F5F60
:101F90005E5E5E5E5E5E5E5E5E5E5E5E5E5E5E5D62
:101FA0005D5D5D5D5D5D5D5D5D5D5D5D5D5D5C5C63
:101FB0005C5C5C5C5C5C5C5C5C5C5C5C5C5B5B5B64
:101FC0005B5B5B5B5B5B5B5B5B5B5B5A5A5A5A5A66
:101FD0005A5A5A5A5A5A5A5A5A5A59595959595967
:101FE0005959595959595959585858585858585869
:101FF000585858585858575757575757575757576B
:10200000575757575656565656565656565656566C
:10201000565655555555555555555555555555556E
:102020005454545454545454545454545453535373
:102030005353535353535353535353525252525275
:102040005252525252525252515151515151515178
:10205000515151515150505050505050505050507B
:1020600050504F4F4F4F4F4F4F4F4F4F4F4F4F4E7F
:102070004E4E4E4E4E4E4E4E4E4E4E4E4D4D4D4D84
:102080004D4D4D4D4D4D4D4D4D4C4C4C4C4C4C4C87
:102090004C4C4C4C4C4C4B4B4B4B4B4B4B4B4B4B8A
:1020A0004B4B4A4A4A4A4A4A4A4A4A4A4A4A4A498F
:1020B0004949494949494949494949484848484895
:1020C0004848484848484848474747474747474798
:1020D000474747474646464646464646464646469C
:1020E00045454545454545454545454544444444A4
:1020F00044444444444444444343434343434343A8
:1021000043434343424242424242424242424242AB
:1021100041414141414141414141414140404040B3
:1021200040404040404040403F3F3F3F3F3F3F3FB7
:102130003F3F3F3F3E3E3E3E3E3E3E3E3E3E3E3DBC
:102140003D3D3D3D3D3D3D3D3D3D3D3C3C3C3C3CC4
:102150003C3C3C3C3C3C3B3B3B3B3B3B3B3B3B3BC9
:102160003B3B3A3A3A3A3A3A3A3A3A3A3A3A3939CF
:1021700039393939393939393938383838383838D6
:1021800038383838373737373737373737373737DB
:1021900036363636363636363636363535353535E4
:1021A00035353535353534343434343434343434E9
:1021B00034333333333333333333333332323232F2
:1021C00032323232323232313131313131313131F8
:1021D000313130303030303030303030302F2F2F00
:1021E0002F2F2F2F2F2F2F2F2E2E2E2E2E2E2E2E07
:1021F0002E2E2E2D2D2D2D2D2D2D2D2D2D2D2C2C0E
:102200002C2C2C2C2C2C2C2C2C2B2B2B2B2B2B2B15
:102210002B2B2B2B2A2A2A2A2A2A2A2A2A2A2A291B
:102220002929292929292929292828282828282825
:10223000282828282727272727272727272727262B
:102240002626262626262626262625252525252534
:10225000252525252424242424242424242424233B
:102260002323232323232323232222222222222245
:10227000222222222121202121222121202121204C
:102280002020202020202020201F1F1F1F1F1F1F55
:102290001F1F1F1E1E1E1E1E1E1E1E1E1E1E1D1D5D
:1022A0001D1D1D1D1D1D1D1D1C1C1C1C1C1C1C1C66
:1022B0001C1C1C1B1B1B1B1B1B1B1B1B1B1A1A1A6E
:1022C0001A1A1A1A1A1A1A1A191919191919191976
:1022D000191918181818181818181818181717177F
:1022E0001717171717171716161616161616161687
:1022F0001616151515151515151515151414141490
:102300001414141414141313131313131313131397
:1023100012121212121212121212111111111111A3
:102320001111111111101010101010101010100FA9
:102330000F0F0F0F0F0F0F0F0F0E0E0E0E0E0E0EB4
:102340000E0E0E0E0D0D0D0D0D0D0D0D0D0D0C0CBB
:102350000C0C0C0C0C0C0C0C0B0B0B0B0B0B0B0BC5
:102360000B0B0A0A0A0A0A0A0A0A0A0A09090909CF
:1023700009090909090909080808080808080808D6
:1023800008070707070707070707070606060606E1
:1023900006060606060505050505050505050505E8
:1023A00004040404040404040404030303030303F3
:1023B00003030303020202020202020202020101FB
:1023C0000101010101010101000000000000000005
:1023D000000000FFFFFFFFFFFFFFFFFFFFFEFEFE0D
:1023E000FEFEFEFEFEFEFEFDFDFDFDFDFDFDFDFD16
:1023F000FDFCFCFCFCFCFCFCFCFCFCFBFBFBFBFB21
:10240000FBFBFBFBFBFBFAFAFAFAFAFAFAFAFAFA26
:10241000F9F9F9F9F9F9F9F9F9F9F8F8F8F8F8F832
:10242000F8F8F8F8F7F7F7F7F7F7F7F7F7F7F6F63A
:10243000F6F6F6F6F6F6F6F6F6F5F5F5F5F5F5F543
:10244000F5F5F5F4F4F4F4F4F4F4F4F4F4F3F3F34C
:10245000F3F3F3F3F3F3F3F2F2F2F2F2F2F2F2F255
:10246000F2F1F1F1F1F1F1F1F1F1F1F1F0F0F0F05F
:10247000F0F0F0F0F0F0EFEFEFEFEFEFEFEFEFEF66
:10248000EEEEEEEEEEEEEEEEEEEEEDEDEDEDEDED72
:10249000EDEDEDEDEDECECECECECECECECECECEB78
:1024A000EBEBEBEBEBEBEBEBEBEAEAEAEAEAEAEA83
:1024B000EAEAEAEAE9E9E9E9E9E9E9E9E9E9E8E88A
:1024C000E8E8E8E8E8E8E8E8E7E7E7E7E7E7E7E794
:1024D000E7E7E7E6E6E6E6E6E6E6E6E6E6E5E5E59C
:1024E000E5E5E5E5E5E5E5E5E4E4E4E4E4E4E4E4A4
:1024F000E4E4E3E3E3E3E3E3E3E3E3E3E3E2E2E2AD
:10250000E2E2E2E2E2E2E2E1E1E1E1E1E1E1E1E1B4
:10251000E1E0E0E0E0E0E0E0E0E0E0E0DFDFDFDFBE
:10252000DFDFDFDFDFDFDFDEDEDEDEDEDEDEDEDEC4
:10253000DEDDDDDDDDDDDDDDDDDDDDDDDCDCDCDCCE
:10254000DCDCDCDCDCDCDBDBDBDBDBDBDBDBDBDBD5
:10255000DBDADADADADADADADADADADAD9D9D9D9DE
:10256000D9D9D9D9D9D9D8D8D8D8D8D8D8D8D8D8E5
:10257000D8D7D7D7D7D7D7D7D7D7D7D7D6D6D6D6EE
:10258000D6D6D6D6D6D6D5D5D5D5D5D5D5D5D5D5F5
:10259000D5D4D4D4D4D4D4D4D4D4D4D4D3D3D3D3FE
:1025A000D3D3D3D3D3D3D3D2D2D2D2D2D2D2D2D204
:1025B000D2D2D1D1D1D1D1D1D1D1D1D1D1D0D0D00C
:1025C000D0D0D0D0D0D0D0D0CFCFCFCFCFCFCFCF13
:1025D000CFCFCFCECECECECECECECECECECECDCD1A
:1025E000CDCDCDCDCDCDCDCDCDCCCCCCCCCCCCCC22
:1025F000CCCCCCCCCBCBCBCBCBCBCBCBCBCBCBCA28
:10260000CACACACACACACACACACAC9C9C9C9C9C930
:10261000C9C9C9C9C9C9C8C8C8C8C8C8C8C8C8C834
:10262000C8C7C7C7C7C7C7C7C7C7C7C7C6C6C6C63D
:10263000C6C6C6C6C6C6C6C6C5C5C5C5C5C5C5C542
:10264000C5C5C5C4C4C4C4C4C4C4C4C4C4C4C4C348
:10265000C3C3C3C3C3C3C3C3C3C3C2C2C2C2C2C250
:10266000C2C2C2C2C2C2C1C1C1C1C1C1C1C1C1C154
:10267000C1C0C0C0C0C0C0C0C0C0C0C0C0BFBFBF5C
:10268000BFBFBFBFBFBFBFBFBFBEBEBEBEBEBEBE61
:10269000BEBEBEBEBEBDBDBDBDBDBDBDBDBDBDBD65
:1026A000BDBCBCBCBCBCBCBCBCBCBCBCBCBBBBBB6C
:1026B000BBBBBBBBBBBBBBBBBBBABABABABABABA71
:1026C000BABABABABAB9B9B9B9B9B9B9B9B9B9B975
:1026D000B9B8B8B8B8B8B8B8B8B8B8B8B8B8B7B77B
:1026E000B7B7B7B7B7B7B7B7B7B7B6B6B6B6B6B680
:1026F000B6B6B6B6B6B6B5B5B5B5B5B5B5B5B5B584
:10270000B5B5B5B4B4B4B4B4B4B4B4B4B4B4B4B387
:10271000B3B3B3B3B3B3B3B3B3B3B3B3B2B2B2B28D
:10272000B2B2B2B2B2B2B2B2B2B1B1B1B1B1B1B190
:10273000B1B1B1B1B1B1B0B0B0B0B0B0B0B0B0B093
:10274000B0B0B0AFAFAFAFAFAFAFAFAFAFAFAFAF96
:10275000AEAEAEAEAEAEAEAEAEAEAEAEAEADADAD9C
:10276000ADADADADADADADADADADACACACACACAC9F
:10277000ACACACACACACACACABABABABABABABABA1
:10278000ABABABABABAAAAAAAAAAAAAAAAAAAAAAA4
:10279000AAAAAAA9A9A9A9A9A9A9A9A9A9A9A9A9A6
:1027A000A9A8A8A8A8A8A8A8A8A8A8A8A8A8A8A7A9
:1027B000A7A7A7A7A7A7A7A7A7A7A7A7A7A6A6A6AC
:1027C000A6A6A6A6A6A6A6A6A6A6A6A5A5A5A5A5AE
:1027D000A5A5A5A5A5A5A5A5A5A4A4A4A4A4A4A4B0
:1027E000A4A4A4A4A4A4A4A4A3A3A3A3A3A3A3A3B1
:1027F000A3A3A3A3A3A3A3A2A2A2A2A2A2A2A2A2B2
:10280000A2A2A2A2A2A2A1A1A1A1A1A1A1A1A1A1B2
:10281000A1A1A1A1A1A0A0A0A0A0A0A0A0A0A0A0B3
:10282000A0A0A0A09F9F9F9F9F9F9F9F9F9F9F9FB4
:102830009F9F9F9F9E9E9E9E9E9E9E9E9E9E9E9EB4
:102840009E9E9E9D9D9D9D9D9D9D9D9D9D9D9D9DB5
:102850009D9D9D9C9C9C9C9C9C9C9C9C9C9C9C9CB5
:102860009C9C9C9C9B9B9B9B9B9B9B9B9B9B9B9BB4
:102870009B9B9B9B9A9A9A9A9A9A9A9A9A9A9A9AB4
:102880009A9A9A9A9A9999999999999999999999B3
:1028900099999999999998989898989898989898B2
:1028A00098989898989898979797979797979797B1
:1028B00097979797979797979796969696969696AF
:1028C00096969696969696969696969595959595AD
:1028D00095959595959595959595959595949494AB
:1028E00094949494949494949494949494949494A8
:1028F00093939393939393939393939393939393A8
:1029000093939392929292929292929292929292A4
:1029100092929292929292919191919191919191A0
:10292000919191919191919191919190909090909C
:102930009090909090909090909090909090909097
:102940008F8F8F8F8F8F8F8F8F8F8F8F8F8F8F8F97
:102950008F8F8F8F8F8E8E8E8E8E8E8E8E8E8E8E92
:102960008E8E8E8E8E8E8E8E8E8E8E8D8D8D8D8D8C
:102970008D8D8D8D8D8D8D8D8D8D8D8D8D8D8D8D87
:102980008D8D8C8C8C8C8C8C8C8C8C8C8C8C8C8C85
:102990008C8C8C8C8C8C8C8C8C8C8B8B8B8B8B8B7D
:1029A0008B8B8B8B8B8B8B8B8B8B8B8B8B8B8B8B77
:1029B0008B8B8A8A8A8A8A8A8A8A8A8A8A8A8A8A75
:1029C0008A8A8A8A8A8A8A8A8A8A8A8A898989896B
:1029D0008989898989898989898989898989898967
:1029E0008989898989898988888888888888888860
:1029F0008888888888888888888888888888888857
:102A00008888888787878787878787878787878753
:102A10008787878787878787878787878787878746
:102A20008786868686868686868686868686868645
:102A30008686868686868686868686868686868636
:102A40008686858585858585858585858585858534
:102A50008585858585858585858585858585858526
:102A60008585858585848484848484848484848421
:102A70008484848484848484848484848484848416
:102A8000848484848484848484848483838383830B
:102A90008383838383838383838383838383838306
:102AA00083838383838383838383838383838383F6
:102AB00083838383838383838282828282828282EE
:102AC00082828282828282828282828282828282E6
:102AD00082828282828282828282828282828282D6
:102AE00082828282828282828282828281818181CA
:102AF00081818181818181818181818181818181C6
:102B000081818181818181818181818181818181B5
:102B100081818181818181818181818181818181A5
:102B20008181818181818181818181818181818096
:102B30008080808080808080808080808080808095
:102B40008080808080808080808080808080808085
:102B50008080808080808080808080808080808075
:102B60008080808080808080808080808080808065
:102B70008080808080808080808080808080808055
:102B80008080808080808080808080808080808045
:102B90008080808080808080808080808080808035
:102BA0008080808080808080808080808080808025
:102BB0008080808080808080808080808080808015
:102BC0008080808080808080808080808080808005
:102BD0008080072411241FBECFEFDAE0DEBFCDBF17
:102BE00011E0A0E0B1E0ECEEFBE402C005900D9234
:102BF000A832B107D9F724E0A8E2B1E001C01D92E4
:102C0000A83CB207E1F715E1CAEED5E104C021976F
:102C1000FE010E94A925C93ED107C9F70E94671E7F
:102C20000C94F4250C9400004091530150915401F0
:102C3000209151013091520142175307B4F4909101
:102C4000E8009570E1F39091E80092FD19C080933F
:102C5000F100809153019091540101968F7399274F
:102C6000892B19F48EEF8093E800809153019091A5
:102C700054010196909354018093530181E008958B
:102C800080E00895CF92DF92EF92FF920F931F930F
:102C9000CF93DF931F92CDB7DEB7182F062FE42E08
:102CA000862F880F8E5F99830E94141683E00E94FE
:102CB0001416F12EC12E9981D92E8C2D8F198017C3
:102CC00098F4F601E7FE02C0849101C080810E9461
:102CD0001416182F80E00E9414168123FFEFCF1ADC
:102CE000DF0A8111EACF01C081E00F90DF91CF911F
:102CF0001F910F91FF90EF90DF90CF900895DF929A
:102D0000EF92FF920F931F93CF93DF93D82E8A01F8
:102D10007B01E40EF51EEB01CE15DF0571F0D7FE49
:102D200003C0FE01849101C088810E94141621967F
:102D30008111F2CF8FEF9FEF01C0C801DF91CF91DA
:102D40001F910F91FF90EF90DF900895615030F048
:102D50002091F100FC0120830196F8CF289884E6A9
:102D60008093A1010895CF92DF92EF92FF920F938B
:102D70001F93CF93DF936C017A018B01C0E0D0E009
:102D8000CE15DF0589F0D8016D918D01D601ED9149
:102D9000FC910190F081E02DC6010995892B11F479
:102DA0007E0102C02196ECCFC701DF91CF911F9128
:102DB0000F91FF90EF90DF90CF900895CF93DF9326
:102DC0001F92CDB7DEB76983DC01ED91FC910280E3
:102DD000F381E02D41E050E0BE016F5F7F4F099528
:102DE0000F90DF91CF91089583E08093E900809167
:102DF000F200882319F08AE38093E8000895FC012B
:102E00008485958597FD0BC09FB7F89482E08093E9
:102E1000E9008091F2009FBF90E0019608959FB76E
:102E2000F89482E08093E9008091F2009FBF90E0E7
:102E3000089584E080932A018FEF80932B011092F4
:102E40004D0110924C0110924E0185EE8093BC0012
:102E5000089582E080932A018FEF80932B011092D6
:102E60004D0180934C0181E080934E0185EE80936B
:102E7000BC00089585ED8093BC008091BC0084FD6A
:102E8000FCCF80912A018093290110922A01809120
:102E90002901833011F40C94191780912901813094
:102EA00011F40C9429170895CF93DF931F92CDB797
:102EB000DEB78091FF01909100028F3F4FEF9407A2
:102EC00061F0FC01ED50FE4F4081498301979093E2
:102ED00000028093FF01898101C08FEF8093000180
:102EE00087FD1AC08091000190917B0083FB22270F
:102EF00020F930E045E0220F331F4A95E1F79F7D2E
:102F0000292B20937B008770806480937C008091C4
:102F10007A00806480937A000F90DF91CF910895BA
:102F200008950F931F93CF93DF931F92CDB7DEB712
:102F300082E0898342E450E066EE72E080E80E941D
:102F40007F160E94091EDC0112960D911C911397A9
:102F50000115110569F0D801ED91FC910280F38112
:102F6000E02DBE016F5F7F4FC801099597FF07C035
:102F700089810F90DF91CF911F910F910895F801F2
:102F800000851185E5CF7F928F929F92AF92BF927D
:102F9000CF92DF92EF92FF920F931F93CF93DF9325
:102FA0006C015B017A0180910C01882309F466C0F1
:102FB0008091A201882309F461C08091570180FFAC
:102FC00005C08091E00082608093E000E70110E09E
:102FD0000AEF83E0982E90E4792E2AE3822E209740
:102FE00009F443C08FB7F8949092E9009091E800FB
:102FF00095FF06C09091F200272D291B922F01C04A
:1030000090E08FBF911105C00150C1F10E94EF1DEA
:10301000E6CF292F30E0C217D3070CF49C2F8FB7CF
:10302000F8949092E9002091E80025FF1CC0292F18
:1030300030E0C21BD30BF501915020F04191409339
:10304000F100FACFA20EB31E112319F08092E8000E
:1030500009C09091E80095FD06C08092E80011E05B
:10306000209709F010E08FBFBACF1111BBCF5D9848
:1030700084E6809355011E141F0444F081E090E023
:10308000F6019383828380E090E001C0C701DF9165
:10309000CF911F910F91FF90EF90DF90CF90BF9055
:1030A000AF909F908F907F9008950F931F93CF9331
:1030B000DF931F92CDB7DEB78C01FC018485958527
:1030C00097FF0EC0CE0101960E94C51D019719F40D
:1030D000298130E002C02FEF3FEFF80135872487C8
:1030E000F801848595850F90DF91CF911F910F9105
:1030F0000895CF93DF931F92CDB7DEB7FC0184858F
:10310000958597FD05C02FEF3FEF358724870BC0CE
:10311000CE0101960E94C51D019719F4898190E0A6
:1031200002C08FEF9FEF0F90DF91CF9108951F9214
:103130000F920FB60F9211248F939F938091E1000D
:103140009091E100937F9093E10083FF0FC0109274
:10315000E90091E09093EB001092EC0092E39093E1
:10316000ED001092A20198E09093F00082FF20C041
:1031700093E09093E9009091F200992319F09AE37B
:103180009093E80090915501992339F09091550161
:10319000915090935501992389F19091A101992320
:1031A00039F09091A10191509093A101992341F19F
:1031B00084FF10C08091E2008E7E81608093E200E7
:1031C0008091E1008F7E8093E100809157018E7E97
:1031D000806111C080FF16C08091E2008E7E806108
:1031E0008093E2008091E1008E7E8093E1008091E7
:1031F00057018E7E81608093570104C05D9ACDCFC8
:10320000289AD6CF9F918F910F900FBE0F901F904D
:1032100018951F920F920FB60F921124CF92DF9242
:10322000EF92FF920F931F932F933F934F935F93D0
:103230006F937F938F939F93AF93BF93EF93FF937E
:10324000CF93DF93CDB7DEB76C97DEBFCDBF1092C3
:10325000E9008091E80083FFEDC168E0CE0145966A
:103260000E94A61682EF8093E8008D8987FF05C033
:103270009091E80090FFFCCF03C09EEF9093E80090
:10328000982F907609F0C6C09E892F89188D9111CC
:103290000CC0803829F4809158018093F10002C05D
:1032A0001092F1001092F10048C1422F50E0512BD2
:1032B000913051F4811141C14130510509F03DC1B6
:1032C000809158018D7F0BC0933061F4811135C11D
:1032D0004130510509F031C18091580182608093DD
:1032E00058012BC1953041F48091E80080FFFCCF5C
:1032F00020682093E30021C1963009F05FC0EB8C79
:10330000FC8C1092E900109254011092530112307B
:1033100091F510925201109251010E94911799E07B
:10332000BE016F5F7F4FDB01E92F1D92EA95E9F740
:1033300099831A8391E09E8390EA98879AEF998700
:103340002091530130915401275F3F4F3C832B83E1
:103350008D831092E9001092540110925301F09263
:103360005201E092510149E050E080E00E947F1656
:103370000E949117E2C0F0925201E09251010E9426
:10338000091EDC011296ED90FC901397E114F104F4
:1033900009F4C0C0D701ED91FC910480F581E02DC6
:1033A000BE016B5E7F4FC7010995009719F00CF0C5
:1033B000C4C0C7C0F701E084F184E8CF973009F4B6
:1033C000C0C0983021F481E08093F100B6C09930FC
:1033D00009F0B3C0837009F0B4C0EEE0F1E081E021
:1033E00021E036E39081992361F08093E9002093F6
:1033F000EB0091919093EC003093ED008F5F87305C
:1034000089F78EE78093EA001092EA008F89809313
:10341000A20193C08B8D9C8D1092E90010925401F3
:10342000109253019093520180935101898D811123
:1034300056C08E899D89913A59F4813209F081C034
:1034400047E050E065E071E080E00E947F1675C0C3
:10345000913209F076C0833289F4888D90E0982FFC
:1034600088272F89822BA0E0B0E080930101909300
:103470000201A0930301B09304015FC0803269F49C
:103480008091E80082FFFCCF67E085E091E00E9438
:10349000A6168BEF8093E80006C0823209F04DC07B
:1034A0008F8980930C0180915601882319F0EEEFEB
:1034B000FAE002C0E0E0F8E0809105019091060199
:1034C000A0910701B0910801803B9440A105B1058E
:1034D00009F07BC080910C0180FF93C076C00E94F0
:1034E000091EDC0112960D911C911397011511050F
:1034F00041F1D801ED91FC910190F081E02DBE01E8
:103500006B5E7F4FC8010995811117C0F8010085D6
:103510001185ECCF113009F44EC0133091F48F892E
:10352000882309F445C0823081F440E860E18AE4F0
:1035300093E00E944216882321F08EEF8093E800EA
:1035400079C081E28093EB0075C0813029F440E8B6
:103550006BE08EE393E0EDCF833099F70E94091E74
:10356000DC011296ED90FC9013978E010F5F1F4FB8
:103570006801E114F10479F0D701ED91FC91068026
:10358000F781E02DB801C7010995080F111DF7015A
:10359000E084F184EECFD8011C92F6010190002066
:1035A000E9F73197BF016C197D0940E0C601C1CF31
:1035B00068E273E002C06CE273E06115710509F224
:1035C000FB01449150E080E840CF0FB6F894A895F5
:1035D00080916000886180936000109260000FBE4F
:1035E000A895EE3F2AE0F20739F08091FE0A90910B
:1035F000FF0A91838083A1CF1092FF0A1092FE0AE6
:103600009CCFEE3F8AE0F80731F080819181909362
:10361000FF0A8093FE0A87E797E7918380839BE008
:1036200088E10FB6F894A895809360000FBE909340
:10363000600083CF6C960FB6F894DEBF0FBECDBF8F
:10364000DF91CF91FF91EF91BF91AF919F918F91BA
:103650007F916F915F914F913F912F911F910F91AA
:10366000FF90EF90DF90CF900F900FBE0F901F90C4
:10367000189590E0FC013197EF30F105B0F5EA5A6A
:10368000FF4F0C94A925809180008F7703C0809113
:1036900080008F7D80938000089580918000877FD7
:1036A000F9CF84B58F7702C084B58F7D84BD08952E
:1036B000809190008F7707C0809190008F7D03C02C
:1036C00080919000877F8093900008958091C00042
:1036D0008F7703C08091C0008F7D8093C0000895D4
:1036E0008091C200877F8093C2000895CF93DF93BB
:1036F000282F30E0F901E955FC4F8491F901E85792
:10370000FC4FD491F901E759FC4FC491CC2391F0BF
:1037100081110E94391BEC2FF0E0EE0FFF1FE852E1
:10372000FD4FA591B491EC91ED2381E090E021F45F
:1037300080E002C080E090E0DF91CF910895CF93C8
:10374000DF9390E0FC01E857FC4F2491FC01E7591E
:10375000FC4F8491882361F190E0880F991FFC0150
:10376000E653FD4FC591D491FC01E55AFC4FA5915C
:10377000B491611109C09FB7F89488812095822384
:103780008883EC912E230BC0623061F49FB7F894CC
:103790003881822F809583238883EC912E2B2C9364
:1037A0009FBF06C08FB7F894E8812E2B28838FBF68
:1037B000DF91CF91089578941F920F920FB60F92D8
:1037C00011242F933F934F935F936F937F938F9326
:1037D0009F93AF93BF93CF93DF93EF93FF93CEE687
:1037E000D0E01882E0914F01F09150010995F894D2
:1037F000888182608883FF91EF91DF91CF91BF91A3
:10380000AF919F918F917F916F915F914F913F9178
:103810002F910F900FBE0F901F9018951F920F922F
:103820000FB60F9211242F933F934F935F936F9393
:103830007F938F939F93AF93BF93EF93FF93809169
:10384000B900887F883221F170F48031F1F030F4D2
:10385000882309F472C08830C1F073C08831C1F088
:10386000803251F16EC0803409F44EC028F48033A8
:1038700019F1883321F165C08035D1F1883509F41B
:103880004FC0883409F05DC05AC080914E0111C00C
:1038900090914D0180914C01981708F050C0E09133
:1038A0004D0181E08E0F80934D01F0E0E45DFE4F0D
:1038B00080818093BB002EC080932B0140C08093F9
:1038C0002B0185EC8093BC0080912A018093290113
:1038D00010922A0180912901833019F40E9419174E
:1038E00030C080912901813061F50E94291729C0DB
:1038F000E0914D0181E08E0F80934D018091BB00DE
:10390000F0E0E45DFE4F808390914D0180914C0189
:10391000981710F485EC01C085E88093BC0011C0B5
:10392000E0914D0181E08E0F80934D018091BB00AD
:10393000F0E0E45DFE4F808302C010922B010E94F4
:103940003A17FF91EF91BF91AF919F918F917F9126
:103950006F915F914F913F912F910F900FBE0F90FC
:103960001F901895880F991F880F991FFC01E65327
:10397000FF4F659175918591949108958091000113
:1039800087FF04C00E9454171092280108951F92C7
:103990000F920FB60F9211242F933F938F939F9303
:1039A000AF93BF93EF93FF9380910104E82FF0E072
:1039B000EE0FFF1FEF5FFD4F208131818F5F8093FE
:1039C0000104811119C09091030481E0892780933B
:1039D00003048091050490910604A0910704B0911E
:1039E00008040196A11DB11D80930504909306045F
:1039F000A0930704B0930804C901905E880F892F33
:103A0000881F990B9195809388002F7720938A00C7
:103A1000FF91EF91BF91AF919F918F913F912F9126
:103A20000F900FBE0F901F9018951F920F920FB618
:103A30000F9211242F933F934F935F936F937F9334
:103A40008F939F93AF93BF93EF93FF938091280140
:103A5000811109C080917A00806480937A0081E0AE
:103A60008093280110C0E09100018091780090912E
:103A70007900EE0FFF0BE75AFE4F918380830E947F
:103A8000541710922801FF91EF91BF91AF919F9130
:103A90008F917F916F915F914F913F912F910F90F7
:103AA0000FBE0F901F901895FC01448155816681CF
:103AB000778180819181A281B381840F951FA61F98
:103AC000B71F80839183A283B3839D013F710084DC
:103AD000F185E02DE20FF31F84910895FC014481EC
:103AE00055816681778180819181A281B381840F24
:103AF000951FA61FB71F80839183A283B3839D0167
:103B00003F710084F185E02DE20FF31F8491089549
:103B10003FB7F8948091B8049091B904A091BA0489
:103B2000B091BB0426B5A89B05C02F3F19F00196A4
:103B3000A11DB11D3FBFBA2FA92F982F8827820F33
:103B4000911DA11DB11DBC01CD0142E0660F771F83
:103B5000881F991F4A95D1F70895BC01009791F0ED
:103B6000FC0101900020E9F73197AF01481B590B88
:103B7000E091A301F091A4010280F381E02D83EA9A
:103B800091E0099480E090E00895FC018091A20109
:103B9000811103C08FEF9FEF08959FB7F89482E0E3
:103BA0008093E9002091F20030E01216130614F41D
:103BB00021E030E02115310559F0289884E6809302
:103BC000A1018091F10080838091F200882319F097
:103BD0009FBFC90108958BE68093E800F9CFCF928B
:103BE000DF92EF92FF920E94881D6B017C010E9480
:103BF000881DDC01CB018C199D09AE09BF09883EE7
:103C00009340A105B10598F3FF90EF90DF90CF901E
:103C100008958091C00481110DC082E08093BC049E
:103C200084E08093BD041092BF041092BE0481E032
:103C30008093C0048CEB94E008951F920F920FB60E
:103C40000F9211242F933F938F939F93AF93BF9322
:103C50008091B4049091B504A091B604B091B704DA
:103C60003091B30423E0230F2D3720F40196A11DDA
:103C7000B11D05C026E8230F0296A11DB11D20939A
:103C8000B3048093B4049093B504A093B604B093A6
:103C9000B7048091B8049091B904A091BA04B0918E
:103CA000BB040196A11DB11D8093B8049093B90483
:103CB000A093BA04B093BB04BF91AF919F918F9131
:103CC0003F912F910F900FBE0F901F901895CF939B
:103CD000DF93CDB7DEB7A5970FB6F894DEBF0FBE62
:103CE000CDBF789484B5826084BD84B5816084BD85
:103CF00085B5826085BD85B5816085BD80916E008A
:103D0000816080936E0010928100809181008260BA
:103D100080938100809181008160809381008091F7
:103D20008000816080938000809191008260809308
:103D3000910080919100816080939100809190002A
:103D40008160809390008091C10084608093C10065
:103D50008091C10082608093C1008091C100816028
:103D60008093C1008091C30081608093C3008091E3
:103D7000C00082608093C0008091C2008160809307
:103D8000C20080917A00846080937A0080917A00EA
:103D9000826080937A0080917A00816080937A00BB
:103DA00080917A00806880937A001092A20110922C
:103DB0005801109257018091D70081608093D700FD
:103DC00080EA8093D80089B5806189BD89B5826019
:103DD00089BD09B400FEFDCF0E94EF1D8091D8007F
:103DE0008F7C80618093D8008091E000807F8093F9
:103DF000E0008091E1008E7E8093E1008DE0809371
:103E0000E200559A209AEEEFFFE7859194918B3F5F
:103E10009C4D19F481E08093560161E085E10E9498
:103E20009F1BECEBF3E08491EDE9F3E0E490EEE727
:103E3000F3E01491112389F081110E94391BE12FC5
:103E4000F0E0EE0FFF1FE55AFC4FA591B4918FB73C
:103E5000F894EC91EE29EC938FBF8BB18C638BB906
:103E600062E082E00E949F1B62E083E00E949F1B51
:103E700062E084E00E949F1B62E085E00E949F1B3D
:103E80008CEC9CECA4E1B0E080930D0490930E04C4
:103E9000A0930F04B093100489E18093930180E50F
:103EA000809394018FEC95E7A0E0B0E080939501BA
:103EB00090939601A0939701B09398018EE195E8B5
:103EC000ABE1B1E080935D0490935E04A0935F0446
:103ED000B093600488E691E9A1E0B0E080935304D8
:103EE00090935404A0935504B09356048BE497E345
:103EF000A1E0B0E08093490490934A04A0934B045E
:103F0000B0934C0481EE9AE7A4E0B0E080933F04C4
:103F100090934004A0934104B09342048CE092E05B
:103F2000A3E0B0E08093350490933604A093370467
:103F3000B093380487EE9BEFA1E0B0E080932B04B0
:103F400090932C04A0932D04B0932E048BEB96E950
:103F5000A4E0B0E08093210490932204A093230472
:103F6000B09324048EEB9FE9A2E0B0E080931704A5
:103F700090931804A0931904B0931A048FE78093C8
:103F800085018093860180938701809388018093C7
:103F9000890180938A0180938B0180938C018091A9
:103FA0007A00886080937A0080E090E061E070E0C1
:103FB00040917E009B01082E01C0220F0A94EAF76F
:103FC000242B20937E0001968C30910589F78091F7
:103FD0007A00846080937A0080917A008D7F80934C
:103FE0007A0080917A008E7F80937A0080E890E05A
:103FF00090939E0180939D01809180008093740135
:104000008091810080937301809188009091890054
:104010008093720180916F008093710161E089E06B
:104020000E949F1B61E08AE00E949F1B109280010A
:1040300098E19093810182E08093820190938100C6
:104040008093800080E890E0A0E0B0E021E0209341
:104050007D0190937C0180937B01909387008093F6
:10406000860089E18093810061E089E00E949F1BC6
:104070009091800080918201892B806880938000DC
:10408000109289001092880090917D0180918101A9
:10409000892B8093810061E08AE00E949F1B9091B0
:1040A000800080918201892B806280938000109231
:1040B0008B0010928A0090917D0180918101892B63
:1040C000809381008091C000809377018091C1002E
:1040D000809377018091C200809377018091C30023
:1040E000809377018091C400809377018091D10003
:1040F00080937601809172008093750119A286E306
:1041000088A387E38F8F89E38E8FCE014E960E941E
:10411000AD1D84E291E00E94AD1D81E090E021E0C0
:1041200030E040E050E08824922EA32EB42E60EDC3
:10413000861663E09606A104B10450F0F82E60EDF7
:1041400073E080E090E00E9487250FEF020F08C027
:10415000220F331F441F551F01968131910519F716
:104160001092C0001092C1001092C2001092C300C1
:104170001092C4001092BF001092BE000093D100B4
:10418000F092C10080917A01811180E480937200E5
:1041900080E997E1909379018093780180E480939E
:1041A000720081E080937A0103E010E022242394DE
:1041B000312C9091020480910104981306C09091D3
:1041C0000404809103049813EFC280919F019091A1
:1041D000A001009709F010C380919D0190919E016C
:1041E0009093A00180939F01E8ECF3E024918091EB
:1041F000FF01909100028B3091054CF40196909351
:1042000000028093FF01DC01AD50BE4F2C93E22FE2
:10421000F0E0EE0FFF1FE75AFE4F8081918161E1D0
:1042200070E00E9473256B0170939C0160939B0169
:10423000E7ECF3E024918091FF01909100028B3034
:1042400091054CF40196909300028093FF01DC01EC
:10425000AD50BE4F2C93E22FF0E0EE0FFF1FE75A58
:10426000FE4F0190F081E02DF0939A01E0939901C7
:10427000DF01AC59BF4FAA0FBB1F2FE738E446E060
:1042800050E00E94CD25DC01CB012EE0B695A7952C
:10429000979587952A95D1F78093950190939601EC
:1042A000A0939701B0939801CF0165E070E00E9460
:1042B00073256E5C6093930170E0762F662780E033
:1042C00090E00E949F240E940B250E94702460931E
:1042D0009401109284011092830182E00E94761B67
:1042E000892B21F410938E0100938D01309284016B
:1042F0002092830183E00E94761B892B31F487E0B2
:1043000090E090938E0180938D01A2E0B0E0B09395
:104310008401A093830184E00E94761B892B31F4F1
:10432000E4E0F0E0F0938E01E0938D0110938401BE
:104330000093830185E00E94761B892B31F484E58C
:1043400090E090938E0180938D01109284011092E1
:10435000830182E00E94761B892B09F02DC2E09038
:104360008D01F0908E015701BCE3AB0EB11CAC186F
:10437000BD08C5010E94B21C092E000CAA0BBB0B84
:104380002FE0880F991FAA1FBB1F2A95D1F7809392
:10439000AD049093AE04A093AF04B093B004C701F2
:1043A000865B9F4F8C199D090E94B21C092E000C40
:1043B000AA0BBB0B3FE0880F991FAA1FBB1F3A95A2
:1043C000D1F78093A3049093A404A093A504B09381
:1043D000A604C701CF968C199D090E94B21C092E14
:1043E000000CAA0BBB0B4FE0880F991FAA1FBB1F25
:1043F0004A95D1F78093990490939A04A0939B04D3
:10440000B0939C04C701835B9F4F8C199D090E9448
:10441000B21C092E000CAA0BBB0B5FE0880F991F82
:10442000AA1FBB1F5A95D1F780938F0490939004D5
:10443000A0939104B0939204C7018D5B9F4F8C1998
:104440009D090E94B21C092E000CAA0BBB0B6FE049
:10445000880F991FAA1FBB1F6A95D1F78093850407
:1044600090938604A0938704B0938804C701805B6F
:104470009F4F8C199D090E94B21C092E000CAA0B9B
:10448000BB0B7FE0880F991FAA1FBB1F7A95D1F73E
:1044900080937B0490937C04A0937D04B0937E046E
:1044A000C5010E94B21C092E000CAA0BBB0BEFE049
:1044B000880F991FAA1FBB1FEA95D1F7809371043B
:1044C00090937204A0937304B0937404C7018C5A40
:1044D0009F4F8C199D090E94B21C092E000CAA0B3B
:1044E000BB0BFFE0880F991FAA1FBB1FFA95D1F7DE
:1044F0008093670490936804A0936904B0936A045E
:1045000089E594E00E946E1D082E000C990B95958C
:1045100087959595879580938C018FE494E00E9410
:104520006E1D80938B0185E494E00E946E1D809344
:104530008A018BE394E00E946E1D8093890181E3E0
:1045400094E00E946E1D8093880187E294E00E94AF
:104550006E1D809387018DE194E00E946E1D809313
:10456000860183E194E00E946E1D809385010E9484
:10457000BE1C89EA94E00E94541DA0918C01282F52
:10458000880F330B0A2E000CBB0B0E94AF254B018A
:104590005C018FE994E00E94541D90918B01890287
:1045A000C00111246C01990FEE08FF0824013501A8
:1045B0004C0C5D1C6E1C7F1C85E994E00E94541D10
:1045C00090918A018902C00111246C01990FEE08B3
:1045D000FF08530142018C0C9D1CAE1CBF1C8BE8D4
:1045E00094E00E94541D909189018902C001112418
:1045F0006C01990FEE08FF08C80CD91CEA1CFB1CC3
:1046000081E894E00E94541D909188018902C001C4
:1046100011242C01990F66087708C40CD51CE61CE0
:10462000F71C87E794E00E94541D9091870189024E
:10463000C00111242C01990F660877084C0C5D1CF1
:104640006E1C7F1C8DE694E00E94541D90918601A3
:104650008902C00111246C01990FEE08FF08530173
:1046600042018C0C9D1CAE1CBF1C83E694E00E9492
:10467000541D909185018902C00111246C01990F8C
:10468000EE08FF08C80CD91CEA1CFB1C2091950100
:10469000309196014091970150919801E0919101DC
:1046A000F09192012F010F2E000C66087708809080
:1046B0008F0190909001092C000CAA08BB08C3013F
:1046C000B2010E946325BB2797FDB095AB2F880EE2
:1046D000991EAA1EBB1E9092900180928F0120917C
:1046E00093018091950190919601A0919701B091CD
:1046F00098018AA39BA3ACA3BDA337E0F594E794EC
:10470000D794C7943A95D1F7C401092C000CAA0B91
:10471000BB0BC81AD90AEA0AFB0A30E0DF010E9483
:10472000C625BB2797FDBA95A92F982F872FA701DC
:104730009601281B390B4A0B5B0BA0919401B0E04A
:104740000E94CD25BB2797FDBA95A92F982F872FBB
:10475000DC012AA13BA14CA15DA10E94D825BB2769
:1047600097FDB095AB2F480E591E6A1E7B1E5092C6
:1047700092014092910180910204E82FF0E0EE0F47
:10478000FF1FEF5FFD4F880C991C880C991C9182CC
:1047900080828F5F80930204811106C0809104049F
:1047A00091E0892780930404A0E0B0E0AB2B09F4EA
:1047B00000CD0E940000FDCC309284012092830144
:1047C00083E00E94761B892B09F4C9CDA2E0B0E0FA
:1047D000B0938401A093830184E00E94761B892B0F
:1047E00009F4BDCD109384010093830185E00E94FC
:1047F000761B892B39F4B3CD01979093A001809358
:104800009F01B7CE10928E0110928D01A8CDE3EAE0
:10481000F1E01382128288EE93E0A0E0B0E084839E
:104820009583A683B78388E191E0918380838FEF9E
:104830009FEF9587848710920104109202041092D2
:10484000030410920404909300028093FF0182ED10
:104850009BE09093B2048093B1049093A80480935A
:10486000A70490939E0480939D0490939404809356
:10487000930490938A048093890490938004809396
:104880007F04909376048093750490936C048093D6
:104890006B04909362048093610490935804809316
:1048A000570490934E0480934D0490934404809356
:1048B000430490933A048093390490933004809396
:1048C0002F04909326048093250490931C048093D6
:1048D0001B0482ED93E090931204809311040895D9
:1048E0000E94E42488F09F5798F0B92F9927B75178
:1048F000B0F0E1F0660F771F881F991F1AF0BA9584
:10490000C9F714C0B13091F00E94FE24B1E00895BF
:104910000C94FE24672F782F8827B85F39F0B93FB1
:10492000CCF3869577956795B395D9F73EF4909536
:104930008095709561957F4F8F4F9F4F0895E894B4
:1049400009C097FB3EF490958095709561957F4FD7
:104950008F4F9F4F9923A9F0F92F96E9BB27939585
:10496000F695879577956795B795F111F8CFFAF495
:10497000BB0F11F460FF1BC06F5F7F4F8F4F9F4FC6
:1049800016C0882311F096E911C0772321F09EE824
:10499000872F762F05C0662371F096E8862F70E08A
:1049A00060E02AF09A95660F771F881FDAF7880F64
:1049B0009695879597F9089557FD9058440F551F80
:1049C00059F05F3F71F04795880F97FB991F61F091
:1049D0009F3F79F087950895121613061406551F08
:1049E000F2CF4695F1DF08C0161617061806991F74
:1049F000F1CF86957105610508940895E894BB2769
:104A000066277727CB0197F9089519F416F40C94CB
:104A100059250C944B250E94E424B8F39923C9F33B
:104A2000B6F39F57550B87FF0E945C250024A0E634
:104A300040EA900180585695979528F4805C660F5F
:104A4000771F881F20F026173707480730F4621BAE
:104A5000730B840B202931294A2BA69517940794B0
:104A6000202531254A2758F7660F771F881F20F029
:104A700026173707480730F4620B730B840B200DA1
:104A8000311D411DA09581F7B901842F9158880FE0
:104A90009695879508959F3F31F0915020F4879522
:104AA00077956795B795880F911D9695879597F996
:104AB00008959FEF80EC089591505040660F771F46
:104AC000881FD2F70895DB018F939F930E94CD2515
:104AD000BF91AF91A29F800D911DA39F900DB29F9A
:104AE000900D1124089597FB072E16F4009407D01B
:104AF00077FD09D00E94E02507FC05D03EF4909593
:104B000081959F4F0895709561957F4F0895A1E21B
:104B10001A2EAA1BBB1BFD010DC0AA1FBB1FEE1F37
:104B2000FF1FA217B307E407F50720F0A21BB30B82
:104B3000E40BF50B661F771F881F991F1A9469F7FE
:104B400060957095809590959B01AC01BD01CF015A
:104B50000895EE0FFF1F0590F491E02D09940E9437
:104B6000B725332312F48A1B9B0B0C94C825A29FF4
:104B7000B001B39FC001A39F700D811D1124911D31
:104B8000B29F700D811D1124911D08950E94B725BB
:104B9000B7FF0895821B930B08950E94B725A59F28
:104BA000900DB49F900DA49F800D911D1124089528
:104BB000B7FF0C94CD250E94CD25821B930B089541
:104BC000AA1BBB1B51E107C0AA1FBB1FA617B70733
:104BD00010F0A61BB70B881F991F5A95A9F780954F
:0C4BE0009095BC01CD010895F894FFCF22
:104BEC00FFFFFFFFFF00E100000000000000C1809C
:104BFC008100000000000000DE16C317FF167918B4
:084C0C005518F4160D0A000012
:00000001FF
