:100000000C94981E0C94C01E0C94C01E0C94C01E20
:100010000C94C01E0C94C01E0C94C01E0C94C01EE8
:100020000C94C01E0C94C01E0C944C270C94BE273C
:100030000C94C01E0C94C01E0C94C01E0C94C01EC8
:100040000C94C01E0C94C01E0C94C01E0C94C01EB8
:100050000C94C01E0C942B260C94C01E0C943D25B1
:100060000C94C01E0C94C01E0C94C01E0C94C01E98
:100070000C94C01E0C9461260C94C01E0C94C01EDF
:100080000C94C01E0C94C01E0C94C01E0C94C01E78
:100090000C9487250C94C01E0C94A0260C94C01EB2
:1000A0000C94C01E0C94C01E0C94C01E6E1F711FB9
:1000B000601F641F6A1F921F921F921F751F791F76
:1000C0007D1F831F871F921F8D1F070605040100D8
:1000D000080A0B0C0D0900000000240027002A006C
:1000E0002D00300000000000250028002B002E000D
:1000F0003100000000002300260029002C002F0002
:1001000004040404040304050202020204030202BC
:10011000020206060606060604040202020404049D
:1001200008020110408040102040804080080204F6
:10013000018040201002011080102040402000006B
:10014000000200090F0000030401000C0000000081
:1001500000000000000000000000000000080B008C
:10016000020202010009040000010202000005244D
:1001700000100105240101010424020605240600E3
:10018000010705810310004009040100020A000074
:10019000000705020240000007058302400000043A
:1001A00003090412010002EF0201404123368000DE
:1001B000010102030141726475696E6F204C4C436A
:1001C0000041726475696E6F204C656F6E61726478
:1001D0006F0001000002000003000400051CF7F995
:1001E00013E61BEE18F0ED2BD80D09ECF61BEEEC28
:1001F0002BE20D03EC010F12E306FC0F03F413F1E5
:10020000130FDB0F24E50F05F80EF8DA11FAE304FB
:10021000E814D60D04F9EBF619F4030C09071FF0E6
:10022000FDED29CDFA1EE523E3F6FFFFCEF9070D1C
:1002300011EAFFF402F60732EDF926FD11FEFB018B
:10024000F613E5F711EA09DB0906F316E019EEDF0C
:1002500026EF0F23F3FF0EF10109F007DE2D21EE4B
:1002600007F8E9EE0ADF0702D80A08021FCB13FEDF
:10027000ED130320DE19F01906F1FFF522D3211149
:100280002D34F6240616FDED0125F1E1190403F1E4
:10029000BFEF06EBFBE105EF0719F417F5D60203F4
:1002A000F03A2DEF093119F80FF7F9F8E3141A1B9A
:1002B000F5D1F8F3E9D5EDF9010417110814E3F9C4
:1002C000E613F50310F3320D14FA02E7F321EC0FF5
:1002D00010F20AF4080FDCF8E2F9FB020C1028F621
:1002E00011FDE7F407EF1F23FC3415F016E7C017E4
:1002F00007091209F20D11E9DCF6F1D9FFFDF90445
:10030000EF0204EA06F008D4FFF104040A171413FC
:10031000EA210404E40F1E2C0DF4FC06F4E60A03A3
:1003200005D6FC23E509F9F314E1D9F80BEAE20F4D
:10033000050014F5F3FF060811F11504E704F4E2D3
:100340002406CB2508ED1313F908EA0F33EE161037
:10035000E61BE0E02BE2E40B0D0402F20910F1EFE2
:10036000F60FE5F701F3FD060ED81610E70FF01EA5
:10037000000FF4F11307F3CD140D07F9020216FA7A
:10038000E61614FCFC01FAF4FCFC1505D5120F0C62
:10039000EFFFFA0104F90DFF05E90B0106FFFA0072
:1003A000E31315E708F8F8F50C14E426E20604E573
:1003B000F40C19D11BF01219EA020405F50CEF191F
:1003C00020C309F9FD03E518E20FD9FD07F1030485
:1003D00007EC1FE41334FBDF2715E50B13DBF70CE9
:1003E000F1FADF18D820E2EC12EB11E22300220030
:1003F0000506090FDF1326F2FEF91200F211D808E4
:1004000004DDF5FEE1F6E00BE60FF3EA0C1517DE6E
:10041000241413FA3EF4120ED91AFE02200CDCFA50
:10042000E6F5F8F6CB0810D41CED1117D61BFE1D0F
:1004300004E01B1705EC1AFBF1F00E0FF4F4F012B8
:1004400023ECF504FFF6DF1AEB1CE40010EC11DDE1
:1004500015DA05F6E718FEF2F21FE10912E8351089
:10046000FE15E31902D20E14F3DB0CE80C03DBFDDE
:10047000F702DA11EEFA13FF2311F7FF2CFAF91342
:10048000F317EDDC2AF9EBF2EFEB0CEDEC2AECE3E1
:100490001307E40115F6FD15FB18EFE9F00D01E572
:1004A000F40316E0E0052CE4FFF729051C07F82A01
:1004B000E11BE9040CFFCD0803030CE8D6FD0600A0
:1004C000FDE71FE6F3DE29E5FC15E40B2D03E83E0E
:1004D000F2E81301F3F2F719D8FD0910E5EB08FB78
:1004E000FCDA0AF40EE30814040500F5022ED4FB2E
:1004F00044F0F719FBEBE7F10005E60BFC1405CA25
:100500001419EFF71C1AE604F9081FF7D9012D0595
:10051000FEE40916EBEB1F14F8F5EF051B000603CC
:100520001F0FEBF6F01BE9EDF41DF709FA0204ECDE
:1005300009FD1CEF26F5FA10F9000803F10410FA82
:10054000FB1AE2F409E8E719FFE211F6E70109F402
:100550000306F911E00429EF05EB0F0DEBE4040F9E
:10056000F316F00FFEFFE60D010C12EB2A00F9F472
:1005700021E4F3F8E2080FF8FC10E515EDF2FFF3C3
:10058000E5FE08040D00E8F225E7F01722E5F32D5B
:1005900037E7F2FCE8F6EDEDDA370AD8153BDEEA8C
:1005A000F61202ED0FF720F1090E22F7F504F91506
:1005B000F22220E60107EEFBDDF1F401F60720F060
:1005C000FBFDF313FDD8E9F515F706F903F1F31A6E
:1005D000F301150CF2242DF0F7FB001BE802E008F4
:1005E000F6FB22D517E107FAF40AE815F00B25050A
:1005F0001EFFFC240E110600FA1EFBEE1FE2DAECD1
:1006000004ED03F4F107DF1102D7F529E6FE060831
:10061000FAF912FA17FC04F909F00DF2F639EE0BAB
:100620001AED1401F0FCFDFCE82807E407E6EF11E1
:10063000FAEE02F8FC0AE312F6100FED33FEEAE1DF
:1006400028FE071D00F6F9FBFA0BE7FBE816F40B92
:1006500001F409EDF81102FE0ED3072005E8F4FAC3
:100660000F1AF4F4EFF2FFF5081A13FBDF0C0AF887
:10067000FBF9092712F604FCF9F108F7001FE7035C
:1006800015F807F6F80F020419F6E533F5020ED94E
:10069000FAEE12E4FBFEE81412FD11F5FCF8F71077
:1006A00008FDFD24D40F1E0DE00310E209EA280323
:1006B000ED10EF05FDFBFFE504ED001C0DDE140859
:1006C000DE0DEF03F30C0C021D03E5FF020AF2F945
:1006D0000C00F60703EB0BDD07EFFB2511DBFB2D11
:1006E000E1ED0CF8EC15E8F723F0E7F30B13DDEB85
:1006F00007EDFF0A220CEB00081EF5D8090A00F9E5
:10070000F21A11E8EC150BD7FC20D40818D915F80B
:100710000CF8090EFE0D02FBEA15161CE5070CEDA0
:10072000FB01FC16F8EA1BFAF3DA0DFB13F8E822DA
:10073000D20607EB17FC00EC09130EDCF822EF18C9
:1007400008020214F4F02D11D4021B03F318EFDE9B
:100750001AD8F32913CE021BE8F1FC0DF9DB0F26A2
:1007600000F90AF50134020823E6D6210018FBF54A
:1007700018E505081CE1E8F50A05FAF6EA02E7E8DB
:10078000EB2AF7D7F82C04ED19F6ED1023FDFD093F
:1007900018EC0E031A1B040FE80AFEE2E323FDF136
:1007A0000011F7F10AE401FBF818F5FAFEE71B0760
:1007B000F8FC13FBE70F12EDF60A06F9EF0B10EE4B
:1007C000EF11FC0B13F5EB2EF7E30B1EFDF214F308
:1007D00014E1070BEFEC0C08FC0BCD171AE4002416
:1007E00016DBFE02060EE7FA0501EDFAF70406D263
:1007F0000619DC0FFECA161CEB0117FE15F90210D4
:10080000E412FE040D08FCF31CE4F7F10C16D911F8
:10081000F500FCE70D1AFE09FFEF19ECF20E08ECEB
:10082000F721FEF9F20701E4260803F404FAFF18A1
:10083000DEF02010C50A1D08E70416F5F5E2F510F4
:10084000F10000F233F3EC1406E30715F5041BED99
:10085000F624EBF8DBF617FBFC10FBF403FC0015A9
:10086000F1E92BF602FC0109F91808FCDBF1031091
:10087000F3EF0D000AD0F612FFE4E4091410DC04D3
:1008800026F60010051CE60B210A05E0150CEB0A04
:100890001808EAD6F428F3EF05FE06F6FEE927E18C
:1008A000F3240114ECF00611010CE20FF7FAE9034E
:1008B0000FD311EA09F21A13F01B0CEAF52DFAEA2C
:1008C0001809E1FE0CEA0CFBF624E705FD09F70424
:1008D000F6D92FE4EE091EFBEAF72EEADA15E60F49
:1008E000F2EEFD26E905040706F70B16FFEF25F2E9
:1008F00010EC0112F0F0F30FFDF008ED180BDDED38
:100900000F1802F5FC11DB28F40918F5F4E32DEFBC
:10091000FB16F300F31407D512F0E41901EB0D06F2
:10092000FF020BF713EFED26EB260BDFFE16EBFFB6
:1009300016F6040511E01505F204E51CE903F6EAD4
:100940001DF2ECF40A02E8FE1AF211EDFE2507048E
:10095000DA1BFDFF070410F01BF4030BFAE5F3F4B8
:10096000F823D60EF4090BE31BE308FA08FA011585
:10097000DF1212E712F3FE21DBFE0D01EF0700E1AB
:10098000061DED0214E2191B00D90B21D0080A0A3A
:10099000FDEC11E51412EAEF1301EE0A0D0ADE1F59
:1009A000EEF00B0103D62BEFF821E4F8F10101D0B2
:1009B0000D19FEF9E819F3EA02F30C11FB02031119
:1009C000FDE8160DE60B0BEB1306EB0718E816F324
:1009D000F427DD15FFFBFDF40FFC02EF09F5F81914
:1009E000F3EF1AEDE51DEA01E61301F721F111EB32
:1009F00001041AF71AF90316DC0EE61EE0F50DF3F2
:100A00000AF403EF0BFBE40219EDFF0FFC18DFE81B
:100A10001E03EE06FA0C0FDB0924F2E618F1FBFBCD
:100A2000EA12EA1DEF0024E4FFEC280AEF0621FF9A
:100A3000E610F905F5F5D525F8E1080F1BD20F0DE5
:100A4000EA07F7E90A0706F0100A05F60C02EE12AB
:100A5000E416F1FE1609D8EF25E61410F30118FD8F
:100A6000DDFE15EAEA151AF5E317EE041AE6EF09BA
:100A700011FDFF2300EC01F21CE6FB1BDC1917EC57
:100A8000F70315E20411F6F6F51EE40321F7E8FE7C
:100A9000EA0CF9F106DF21F4E9201CE20301F41A63
:100AA00004EC0F090222F707F7F111F90B1FDFFE23
:100AB000FDFAF3F904E317F80608F309F7F8F40C64
:100AC00003ED11F2F31107E01007E030E10600F545
:100AD00010DC21EB1DFFE80DF70DE623F8001BFDF0
:100AE000FFF9FBFF04F618FA0200F9ECF612DDFF3D
:100AF00019F9F4000FF9DB18F3F020F208F80D08EB
:100B0000E92BE9FA1FF00BE608FFEE0D0B1600F1DA
:100B100008F3F715D9FD130EEFFB0AEDF4F508E81D
:100B20000EFD0001FE0EE614E9F41603FEF61902AE
:100B30000A00FF18F202FCF721F0FA13EE0111EAA5
:100B4000EC15FB0006020512E70406F30FD514FEB0
:100B5000E708FA0AFA06EE0315E2170AEFEE10FCB0
:100B6000F017E2121AFFF32815E807E61404E10073
:100B7000EC0F01E70D100BE20EFDFD17E311FE1067
:100B800005E612FFF0F103FA1FFFF320E30B06E87E
:100B900004F4FC10FCFD070DEB08F7ED1DDD060568
:100BA000FFFF0002FF160BE6040DF5F7FF15040F1B
:100BB000EB1201F3E7F815E8F90CFFEF1BE9F60B70
:100BC000FBE81018D4050E08F00F00F11AFAFE0B1E
:100BD000FFEC0BFEEF0EF8FC030211EEFD09FD1C0D
:100BE000EDFE10EE0EF6FF0EFCFCFE07EB1309EB1C
:100BF00009FAFFF80EE9050AF4FCDC2FED0401FB0D
:100C00001AE9FDF621E102100218EBF30CFF04FCD7
:100C1000F125F4E41212E601F70406E4100400EFF3
:100C200001F60D06E3160300F5EC14E40117F70DC9
:100C3000070CEDF40E10EE030FFCFF07F8EA05EDCC
:100C400002EA1FFAE912FD06F4FEF00EF31702F6AF
:100C5000F60709E31E02000B09F6F709FDE419FA8D
:100C6000EB1507F1F919EDF31104EC12E50410DFAF
:100C70000700FFFF01F4FD0FF2EB0D0616F7FC0A6B
:100C8000FDFCEB14FC13F70613E61BE601F3060666
:100C9000F808E321EBF8040113F103FB1B05DE1751
:100CA000FB021AFCFE0F0EE6060BE20406F406F940
:100CB0000FECEC11E10D05ED1307EA080FEC0E0245
:100CC000FFFD06FCF1F7FF1BE50511E70309E9F954
:100CD000F51A09F3160601F904EA1110F2F1230CD2
:100CE000F504FEF8EA0BF10BEE0908E31A14E4FC34
:100CF0002001EB1109E70D10FEF219E8FE0CE5F3F7
:100D0000FE0FE609F6090CE10AFB0203F8180503D9
:100D10000BED0911F6E30319F0F50312ED0706F7E1
:100D200018EF01FF11EA0118F017ED0C10F7F0FFB2
:100D30000FE70CE30D0FE914E7FC14E7F608F710D2
:100D4000EC1AFCF31EE0FE1EE7E60DFBF7FD12F3C6
:100D50000012F5EB06FEF8001BF9EE1D02F7040683
:100D6000FAF5FA17E827FFF508F70AEFEFFE1BE29E
:100D70001CF6F011ECFC0B0406EA1001F30E020B5A
:100D8000EA0CF00EEF090405F6F7180C06EC12F762
:100D900003FD0BEA16F5E80C01FDF801010CEF0963
:100DA00004FAFFFDF2010714E50B08E40DFA071938
:100DB000FAE82009DA0015F204FE0808FBFF01FD3D
:100DC0000011DD1709E500F713EEFB0AE9FA0EE85A
:100DD000FB1EF005EF19FEDA1CF4FDF917F5F70F0D
:100DE0000105F32BE4FA07FF0FF10D0A08EEFDF4FD
:100DF000FF13E1E526FDF109F40911DAF31BEA031B
:100E000000FC130DE9010801F7FA10FF00FA0A0BC4
:100E1000EF0C0DE019F9EB0FFF061801F70CF5FCCC
:100E200000000011F5F117EAFB0BE414EFF526F4CE
:100E3000F0FB18F5E9F70CF8FF03F12BE20002EEE6
:100E400015FDF4FA22E8FB150501F609F2FD15FC83
:100E5000FA0210F0F112E2F5F418F20028E6010AA5
:100E6000F6FE17F4FEFC0514FBF71B03E70201FF77
:100E7000FBF4FA020C0BED04FAF9EBFA0502FC0B99
:100E800009000FF601F3F0FD08FE0C0B0BF713E958
:100E9000F918EE01F728ECFC0505F6F405E719EA68
:100EA000FC04071AE9100BEDFBFCF8FA0CF80E062F
:100EB000F40D00FBFCF8F6010AFBFC040106DE1150
:100EC000FEF205F511EF0BF5F60E15E4FF18F60A24
:100ED000ED060E0FEE1109F215E9FF13FFF20115F1
:100EE000F6EA0413FCE70D0DEF02F006FC0505E839
:100EF00020F9EBFDFCF10708F314FF04FDF0FFFF00
:100F0000F2030F02FEF613EC0A07EC0EFD0DF702DA
:100F1000EA12F8F11BF602F10DF3FFF7080EED0EE1
:100F200012FFF1F9F70BEE00F7081BEFEC1507EFD6
:100F300002EE0E01F5FD0207FDFCFE0B04E90F07B2
:100F4000EC060CF00B01F40AF8F8F123ED1005F1B2
:100F50001AFCF1FE13E5F9FD0210F2EC1DED0400A0
:100F6000EB0FF404F90FF90D0FE40D04FB07F80281
:100F7000001BEEEF1CFBFD05F7F60EFBF8F70B036D
:100F8000F2FC13FDF50200F7FD14DF1112F9FC0568
:100F900001E013FCE81414FD12EF030CEAFEFF0459
:100FA000F806EF0413FAF30109F609F3FC08EE0959
:100FB0000CFC0603E800FBF110FEF50D14F309FC30
:100FC000EFFF05EA0014E717F5000704FFF50EEF41
:100FD00006FFFE0409ED090DEE0205F3FD15FB18F1
:100FE000FDFD12FBED08F9E713F6F81C0CDB07001A
:100FF000F7FEF20BFE00FF09F0F9F7FDFAFB04E83B
:1010000026EDED23EE11FAF20A06F1FF17FFFA02C0
:1010100011EB1407E11311F8FA11F8E30F0BFCEAD6
:10102000FD1AEA09060603F3EDF71EE3F7F60116CB
:10103000E3FD02FFFDFF040B0BF008FA0805FE0BB1
:10104000EA13FBFD1BF60715F4F20A0BEFF9FFF3A9
:1010500011FDFB06F2F10FEB020EE008FB14FCF3AE
:10106000FEFCFCEE16FB07020E11E80A02FA09FB71
:10107000040F09EDFC060BFCF0F40E0BE10DFA0772
:1010800008F5F10B04EBFCFA060309EE1CF1FA1E5D
:10109000DDF519EFF016FF17F1030CFCFF03F9FA69
:1010A00017FEF2051AF1F4F716F2E90BF304F7074D
:1010B000FC0605EC01FC08E40022E606020B08F33E
:1010C00009F9FD0B05FD15FAFB060B03F704F905FD
:1010D000F3FE0EEF0504F802EF06F7EFFD19FBFB38
:1010E00017F810F20FF60305EF16F510F4EE0900ED
:1010F00008E90011F710ED15FEF408EE15F7F2EE11
:1011000018FBF70B0201F206EE0905E909FF0306D9
:10111000FA09EB0CFDFA0BF7020208F20002FFEDF0
:10112000000FF6F910F8F818F8F2FC0CFCF5000EB8
:1011300001FD06FEFFFDF7E9080900FEFA040609B5
:1011400001E8040EEF07FB0B0DED0A04FDFEFCF6B3
:10115000001BF1FA0A01F7FAFEF20BECFA10F402A6
:101160001502F80AF006FEEA1BFA0704F902060661
:10117000F1060100000B0004FE040004FAFA07F275
:10118000050C000005EB1FECFD05F601E216F01260
:10119000EFEF0EFDFCF2FF090CF008070AF0FC145B
:1011A000F808FAF60A05F6F90F04E50909F0FDF664
:1011B00002FE0111F8F211FBF60A02FB03FD000E1C
:1011C000F2FCF10509FBFE010AFFF4FE070002EE46
:1011D0001306F708FBF208F4F80A00F5F514EE011F
:1011E00007F50EFDFF05FF02ED0F0AFB0BF9FA15DF
:1011F00000E80B0706F50509FE02F7FEFF0801F8F7
:1012000004040FF9EF10FBFBF906FEF50700F804E4
:10121000FDFF03EFFFF9FCFC01020B06FFF914FBD5
:10122000E9110300F30F00FE06FDFD0007F8FB01C6
:1012300005F6FA13EDF10C02F8FC11F104020505B4
:10124000FAFEFE03FA0200F90010E80D01F7FBFBBD
:101250000BE614FA05F8F712F3FE0BF8F812F9FC96
:101260000112EBF60CFEFDF706F9F50115EFFD0294
:1012700003FBFA0BEF10FBFE0C0D07F1010612F554
:10128000000C0809FA01FE00F9FE00FE07F200FB5F
:10129000FDF9F50AE70800FD05F002FD05FCFE0971
:1012A000FD0601FD0903FCF5100BFDFC0501F30E25
:1012B000FBFA000B02E71307EC01030EF906F4E654
:1012C00016FAFDF0050EF701FC03F7FFFC06060217
:1012D000FEFD040CFEEA08FC01010AFDF217FBEE1C
:1012E000F316FCEF0FF10D04F9FC080DFAF8F414F5
:1012F000FEFC00FC05FD02F2F80BF8F408000FF20A
:10130000EB15F6050CEDFB1204FA02070300F305DA
:1013100004F806F9FF0803F002F60504FC08EB14D4
:10132000FEF40AFB0EFAF1040211EDF90C0602E6D6
:101330000900F6FA02000007ED040FFCFFFD05F7B7
:101340000812F7FA0202F9FD02F8FA0A05FA0A078A
:10135000F2FD0509F505FEFE0DF00405FD00F6029F
:101360000DFD00F80108F6F807FFEF0AFDF5020F82
:10137000FCF410F4FC0BF7F8FD11FFF61106F9F779
:1013800003F80E04FAFEFC13FAED0707F304FF0D51
:1013900003F500FF02F907FBF60D04F80FF4F60C55
:1013A000FBF5FC08F2F7FE04FBF50504F70A09EF6C
:1013B0000BFEEF1808EF0409FEFC050105FFFAFD1E
:1013C0000A00F503F90A00FA03FD06FB07FCFA0B15
:1013D000F2FA0AFDFB04F9FD01F805F1F70CEA0544
:1013E00006F304FC01FF070200010404000FFCFBEC
:1013F0000AFCFC08010A06E913FFF90AEF090600D6
:10140000F507FA06FCEA12FA00F9FA06F30200F40C
:101410000307EEF805F90EF9FE020706F9010209C5
:10142000F90605070500FF02F9FF050307FD08039C
:10143000F6F905F20FF9F11403F2F20CFA00F1FBE0
:1014400012EB00F8F40105F4FB10F406FB010103B4
:1014500007F40AFF08000109FF09FB0D03FD00FB6B
:1014600001FAFA03F9FE09F00401F7F803FA05FCA2
:10147000020CE90EF70000F6010502FB0BF80A0664
:10148000F3FC08FBFD0FFBFB0007FEFC0CF7FA0B5F
:10149000FD010AFBF408FE02FCF414EFFE03FC0B52
:1014A000FCF80C01F807F4FEFAFF0205F70304FA52
:1014B0000EF0FA08FD0108FA05FEF70DF80300FA30
:1014C000FE070403F6F317EEF90EF20503F4020B20
:1014D00008F7F6100BEF0FFFF10FFA00FFFE06FD05
:1014E00000FDF60300F20206F403FAF51100F1FC28
:1014F0000600FBF5010AF80003FC0901FD080503DD
:1015000000FF01FC010A00020305F9F30AFBF205E2
:10151000FDFDFAFEFDEF0A03EEFC0CFBF10E06F2F8
:101520000F0BF10504FC04F60306F008FFF80C08A5
:10153000F8FF02FE03FB0FF9010DFFF8FF0DEC0BA6
:10154000F80005F309F70606FAFA09F2F9FCEE0BC2
:1015500003F802FD0304FA0AF40105F8000402028C
:1015600001020BFD04FFF7080DFBFF0600F605FC6A
:10157000FEFE0101F40CFD01FB0101FE02FB000473
:1015800001FBF9FE0CF8F80004010000FEFCF80075
:101590000508FB06FFFD07FF010300F6FF08FEF547
:1015A0000805FAFA08FDFB02FA0000F6F80CEF0550
:1015B000FBF012F3FE05FBFAFD0DFEF30107FAF452
:1015C00012FDFD0CF60A0603FCFC09FCFEFC020001
:1015D00004FDFC09F208F90106FD0AFB02F606F912
:1015E000FCFCF310FFFCF80600FA050202FD09FA04
:1015F00008040302FB0B09FEFF04F7FE0BF7FB06D2
:1016000007F6F410FEF6F405FC0403FFFC0105EFF9
:101610000702F9FE01FB03F6FBF805FB0305F707DC
:1016200002FEFB09FEFF080DFE030003FC0107FD9F
:101630000603FA0203FAFAF607F9FAF706F9F103D4
:101640000500F203FFFFFDFEF70503F9FC0206FAB1
:10165000FE0207F6040104F9060AF60FFCFE050770
:10166000F80507F806FFFFFBFE0005FDF4FFFA0092
:10167000F8F907F303FFFFFC0306F3050002F10688
:1016800009F80709FDFA0FF8FD020906F40709FB3E
:101690000106F4080BEEFD0BFCFD020002F7FC0254
:1016A000FCFAF909FDF500FD04F100FDF804FCFB6E
:1016B000FF10F7FF0F04F5FF0406FEF60E02FB0E07
:1016C000FFFD0BF505030300F20402F8F804FFFB2D
:1016D000FB0005FCF703F7FE09F70309FAF30B0615
:1016E000F5FB0708FA0902FDFD08FBF90B01FEFBFB
:1016F0000C02F906FFF805FCFB08FDF9FD0103FCEF
:101700000006F802F8FE0AF9FDFE07FC010003FFDF
:10171000F103020302FFF00B01F20800FDF80902D9
:1017200003FC0105F806FF02010101FA0AFEFBFFB6
:10173000FF03FF07F807FCFE0CF5FF04FFFB0005A5
:1017400000F6FB0703FDFEF906FEFBFDFC03FDFBB7
:10175000FE060102F8FDFC0409F7F7050BF506FC8F
:10176000FF000203FB0DFDF9F80F00F305FFFFFF7B
:10177000FF020102FEF00403FE04FFF7FF04F90577
:10178000F60009F60504FBFEFEFEFE0AFB01F80367
:1017900007F70CF80B01FE01FF040101EC0C05F644
:1017A00001FB07FB0000000000000000000000003B
:1017B0000000FE010301FDFF02FFFFFE0204030023
:1017C000FA02040300FAFBFB0B04F502020E09F116
:1017D000EDFB170FFCF8F9070A00FD03FBF6090AF9
:1017E000F6F50704FE0D07FCF2ED0A15FFFD07FFF5
:1017F000F8F4FF0EFEF4FE0A09FBFFFD080EFFFBE6
:10180000F1EFF803090C10FAEEEAF5160B04FFFCF1
:101810001005F6EEFD0C0503EFFE0FF9050704FCBD
:10182000F90AFCF4F7070C0107040BFAECFBFC1BAC
:10183000120002F504F3FD100711EEF60B0C19EE81
:10184000F4130CFFEAF90B00F40B1EFFF1F803068A
:10185000F50407F30C05F301ECF71B01FB05FDF99B
:10186000F3F80D1504F0EC05150AF2FC140CFDE27A
:10187000F800002EEDE80C0816DDE6091A23F4F155
:10188000EAF709051F02EFF2F80F06EA0032FEE55B
:10189000EDF1131600ECF50517F7E610021714D852
:1018A000EFEA0915F91603FFECE40C10010D06FF31
:1018B000EDD60F18050C03FBF6FAF60519F3F7023F
:1018C000020DF5F7FA0EFCFF19F303FCFC08F3FC1C
:1018D000060C0701F9FDFEFFF9F50C050008F7EC11
:1018E000E6042515FBE0FC0BF7050C07F30F08FFDA
:1018F000FDE903FD13F8EA100F02F30010FEE4FE09
:101900002F10DAFDFA030E0AF5ED0DFB08F80BFFB8
:10191000E9ED04320BE0E7060D020708F103F101DF
:10192000FBF90FFF1AF5EFF10012F7F3021516F2AB
:10193000DAF616130604EDFEFC0807F5060F0DECAB
:10194000D6F91D170AE5E61A20E7F10A030B0EF790
:10195000E505FEFE0C06F50EF9FE0CE1FF09170D7C
:10196000EFF803EEF5EC081DF6000AF7F409031989
:10197000F0F819F5FAEFF1090B06D2CE6227C3137E
:10198000FDFDFCFD29F8DC02FEFCEE0421F4F5105F
:1019900008F600F50307ED0714F7FD04F50A00E764
:1019A000F20C1CFDF3ECE72021E200080516F3E140
:1019B0000217080AF5EAFA0A110CFDE7EE090E0013
:1019C000F50A0CF508F80610E0F80F1208F0F5FE1D
:1019D00003FC0705E60F19F2EAE40C1D060BF9EF0C
:1019E000071000E4F7120A0E05E6F0060EF6E223F1
:1019F0002CF6EADEF9151825EBE8F9D50D2CFE04D6
:101A00000A01E4F112010AFEF9181106DAD3FA14F8
:101A10003800DAFF0308F4F713FDFD0BFBE8F70DC0
:101A20001D0EEAEBFC1409EBF20D21F7D40C1CF7A8
:101A3000E4F62022F9D5F41C100CEDE31F04E204B7
:101A40000DFF0AFFEA0715F8F100F7E82125F5EB8D
:101A5000EE030506130CE6E603080CFCFA0CF6F69A
:101A6000EBF6210C0008E9EF0F080204FC02FFEF7F
:101A7000F21C02E31B1EE8F2F8E604290CF6F90C4E
:101A80000DE4F002140BF20AF6F1FCF31800FA1957
:101A9000FDFEF7EBFD061406F2EF021EF6DFFD0F6A
:101AA0001102F9F9F80D0BF70301F6F5FA100F0121
:101AB000F7FFFCEC121A12FBCBF31A08FAFF15130E
:101AC000F5DDFB12FCFF0700F60800EEF905240C1B
:101AD000EBFAF8FB0900080BE5FF01E40C07180C12
:101AE000E80CFBF4F9FD210ADAE31105000B040709
:101AF000EBFC1E0BE6EB101106FA0005E8EF1D11DA
:101B0000F3FDF6F0FF021CF7DE1907F8FAFC1A0BDA
:101B1000F4F70006F6F408020603E9F9080508F9E7
:101B2000EBFF0AF81325ECC8051D1508DE08F7EAD7
:101B300027FCEF110CFBE600FE0901F50FF10F0B7E
:101B4000E8F6F31606F51002F3F4F90817F9F310A6
:101B5000F9EBFC121BF9E3FA1806F1F1F01212F995
:101B6000FDEAE9101008F9F00D00FE0FF8F807FE85
:101B7000F3F20619FFEA0A00000DEDF6FB0919EF72
:101B8000EC0E1100F8F6F8080402FAF6FBFA0B0C5A
:101B900006F1F70DF1FA0F0703FD00FC01F0F21159
:101BA0000BFBF70701FAFFFA0DFC071BDBEF0E0535
:101BB00015F7E607FFF815FEF7FD0106F70DFAE940
:101BC0000B040B01E8F1052410EAF1F600110BFFFC
:101BD000F5FFFCF10915FBF0FA080FFEE70003FC26
:101BE0002002EDF1EF100FFF060AE8F20FF3FC0FF1
:101BF0000204FEF1EA07190EFEEEF8FFFFFB0607EE
:101C0000F71101E9F8FD12FBF611F50108EAF50EEE
:101C1000120AF0E802070908FAF70207F1F0150DB9
:101C2000FA06FCEDF4FC1713E8FB0CFCF8E70125C1
:101C30000FFCE9EDFD051B15F5DDEC0A100A0201AC
:101C4000FFF8F9F9031002F5F1FC14FCE3F8182988
:101C5000EFC6FF2412F0EB040B0AF4F40B0108FBAF
:101C6000E70813FBF8FC0A08FDF9FB01F400150B6B
:101C7000FFE7F3100F00ED0409FF04FBF5EE081F6A
:101C800010F1DBF800112401F1F3EFFF100AF3F07B
:101C90001013ECFD03F502FA0811FAF4F7F9051038
:101CA00002F2F90705F60304F803FCFF0E06F0EC58
:101CB000000E15F8E8F90A1BFFE5EFFF140C06FE0D
:101CC000E6F4100CFF0104F5F8F9FD10070203FC1F
:101CD000FAF3F60A0BF8010AFAFCF8F6050705FD17
:101CE000FAFCF3FA0B1805E7F90CFEF5FE08FFFB0A
:101CF00002F60608F6FCFB05090402F2FF07FBF9F1
:101D0000FD0B08FFF1F21109F9FA090CF0F80208CD
:101D10000DEEF404050EF2F804F301090B08ECEFE4
:101D20000E0DF8F3FC060E02F6F50612F9F8FEFDAC
:101D300003FEFCFF0903F4FD0506FBF103130AF2A1
:101D4000EFF9001009F2FB0603FCFB00FE04090298
:101D5000FBEEFA0E0300FFFD01F1FE0D000200F3A1
:101D6000FD0303FCF10A0EF9F5FC06FFFD05F6FD87
:101D70000E02EBEB0C130FFDE0F90E0804FAFE0364
:101D8000F7FA04010402F7FF0A01F7F4F7030F0E54
:101D900002F0F404FB0710FEF6F30311FDF9FDF762
:101DA000030C07FAF4F9FE0A0AFFF9FBFBFB120821
:101DB000F0FA070BF5EF000708FDFFFCFD0DFAF345
:101DC000F60815FD01F0EE080C08F8F7030800F519
:101DD000F5001408FFF4EF08FD04070209EFF4040E
:101DE0000AFEF70D02FFFCF2FA001008FCF8FE02F2
:101DF000FA0600F9FF0008FAFCFD030FF7F70101EE
:101E000005FAFF01FF04FFFFFEF7F802190EF0EEDE
:101E1000FA00FF0C0CF9F907FEF0010D01F9FA0CBC
:101E200005F3F7FB0E0AFCFAF804010107FDF602C0
:101E300010FFF5FC0602F901FF0500F8FEFC08039F
:101E4000FD00FF05FCFC00FF01FB0304FBFEFC01A1
:101E5000FDFA0F0BFAF4F503080703F7FC01FDF791
:101E6000001005F9FC00FA0002FA030503FCFD0B63
:101E7000F7EE011211F8EDF7040602FBFF0A020368
:101E8000FFF1FA010D07F3FE030404F3F302110C52
:101E9000F3F600FE02060300FCF9F7FE0C07F4FB64
:101EA0000D06F7F4FF03020601F7F9010709FFF633
:101EB000FD03FFF9FE08030201F7F8010800FA0329
:101EC000FDFC0307FFF801FFF8020803FAFD03FB1E
:101ED000FF0400FC0104FF00FDFAFB020A00FEFE05
:101EE000F6010907F9F1FF060604FEFAFA000406F6
:101EF00000F9FAFE05030101FAFAFF040706FAF2F7
:101F0000FA070EFFFAFFFAFA010600FD0308FBF2DA
:101F1000FD0309030003F8F6FA0007040500FBFCC3
:101F20000201F9000105FFFC03F9FA020804FBFCB9
:101F3000FD000208FEF2FD0507FDFA0302FEFD00AA
:101F4000FFFF02FCFF02020200FFFEFBFF07FBF89F
:101F500000090AF9F6FDFE050901F7F9000901F487
:101F6000000603FFF90101FC0103FEFD000303FC71
:101F7000FDFFFB0609FEF7F704070001FDFBFE0469
:101F800009FEF7F8FF090802F9F40206FDFF02084E
:101F900001F3FF0602FBF8010703FF01FDFDFDFD54
:101FA0000702FEFDFA0607FEF9FA02020203FF012C
:101FB00000F6FB0909FFF3FE07FE0005FEF9FD052B
:101FC00005FDF8000503FDF80404FD0102FDF8011C
:101FD0000502010100FAFF0300FE0101FD00FD0002
:101FE00003FF01F9FB050404FFFAFAFF030202FBF9
:101FF000FE0501FDF7010900FDFB0203FC0300FCE7
:10200000FF0103FC0001FEFFFB010401FCFB0605D0
:10201000FDFB0102FD00010201FEFCF90208FFFBCD
:102020000000FD010303FBFA01000300FE0100FEB6
:10203000FF0300FB0002FFFD0104FBFA0408FEF9A8
:10204000FF0002010001FCFD0000FFFA010701FC96
:10205000FC0303FDF8FF070300FDFEFF0202FCFF87
:10206000FE0003FD02FFFC00FF0204FEFC0001FF76
:10207000FC0104FE010300FBFCFFFF0405FEFCFD68
:102080000102FFFDFE0302FFFF00FCFB0406FEFC55
:102090000001FCFD0102020301FAFA010503FFFB46
:1020A000FE0301FDFE010100000201FAFD0503FE31
:1020B000FDFFFEFE0303FFFEFE000102FDFB000329
:1020C0000300FEFDFB000601FCFDFF010400FBFD1B
:1020D0000401FAFD0505FCFCFE00000201FBFD0009
:1020E0000200FC00000003FFFEFCFF0100010002F3
:1020F000FEFC0101FEFF0200FEFE0100FE01FFFEEC
:10210000000100FCFD0403FDFCFE01FEFF0401FDD7
:10211000FC0304FBFE000100FC0202FDFD000500C3
:10212000FCFFFFFE000201FEFDFDFE0403FBFC01BF
:1021300000FDFF0603FBFCFF0101FEFE00020300A1
:10214000FBFD01010000FF01FFFB010100FFFC009E
:102150000101FFFB010300FFFDFF01FEFF0200FF85
:10216000FEFFFEFE0503FBFD0002FEFD0501FBFC7C
:10217000FF0601FBFC000501FAFD0201FDFD010364
:10218000FEFAFE0203FFFE02FFFBFE0302FFFFFE5C
:10219000FEFD0102FDFFFF0101FCFF00FF01FE004B
:1021A000FFFDFD000400FEFEFF01FDFF0501FBFC3D
:1021B0000303FEFD0003FFFBFF01FE0102FEFFFE25
:1021C0000001FF0001FFFE0200FDFF0102FEFEFF15
:1021D0000102FCFD000201FEFDFE000401FF00FD06
:1021E000FDFF0302FEFFFFFF01FEFF00FEFF0101F6
:1021F00000FEFEFF00010000000000FBFE040200E4
:10220000FCFF000002FEFF00FEFF0202FD0001FFD6
:10221000FFFDFF020301FCFE010100FEFCFF0302C3
:10222000FFFEFF0100FDFE0302FFFCFD020301FFB4
:10223000FDFD010200FEFEFE00030402FCF9FD01AB
:102240000402FF02FEFBFF0102FFFE00FF0001008F
:10225000FFFFFFFE0102FEFD0101FF00000001FD86
:10226000FC010201FFFFFFFF00FF000100FFFD0076
:1022700001FFFE0003FFFDFF0001FFFE0001010062
:10228000FEFFFEFF000000FF00FFFFFFFF0100FE5A
:10229000FFFF0201FDFD0001FFFF0101FEFDFF0147
:1022A0000201FDFD0001FFFFFF0000FF000000FD37
:1022B000FF0101FFFF000000FFFDFF000101FF0023
:1022C000FEFFFF000100FFFEFF00010300FDFF0015
:1022D000FF000100FFFEFE000101FFFDFE02020102
:1022E000FDFE0301FDFE0100FE000201FFFCFD01F9
:1022F000010000FEFF000201FEFEFF0202FFFDFEE4
:1023000000FFFF0000000000FEFF00000100FEFED5
:10231000000100FEFFFF0002FEFE000000FFFFFFC5
:10232000FE0001FFFE000200FDFD010200FEFD00B7
:10233000010000FFFFFFFFFF000100FE000000FFA3
:10234000FE0000FF0001FFFF00FF000200FFFEFF94
:10235000FE00020000FEFF00FEFF010200FDFE0184
:1023600002FFFEFFFFFF0100FE000100FDFE010273
:10237000FFFE0000FFFEFE0202FFFFFFFFFDFE006A
:102380000202FEFEFFFFFF000201FEFD0001FEFF54
:10239000FF01010000FFFFFF0000FF0000FFFEFF44
:1023A00000FF000201FEFDFF0100FF0000FFFEFF35
:1023B000000101FEFFFFFE00FF0001FFFFFF010023
:1023C000FFFEFF000000FFFFFF00FF00FF00FF0017
:1023D000FF00FF00FF00FFFFFDFDFDFEFF0000010D
:1023E00002030506080E0C000B20251A0C05FEF949
:1023F000F1EAE2DAD6D2D0CECBCACACACACBCDCDA8
:10240000CDD0D6DDE2DABB94A1DF071C2C38444ED8
:10241000565B5E5F60605D5955514C4745423E39A1
:10242000342F2A251D150F08FFF8F0EAE2DCD5D677
:10243000EE0D01D8C1B5ACA7A3A09E9FA1A4A7ACE7
:10244000B2B7BCBAB6CAE7EBE8E7E8F1FB01070EA2
:1024500013171B1E23292B2C303133383A3B3C3EBB
:1024600040403E3C2C172032383E3E3A3A3A3B3808
:1024700033302B28251B15150F0906FFFDFEFAF733
:10248000F4ECE7E6E6E4E0DBD9E4F1E4D9E3E5D90E
:10249000CAB9AEA9A8A7A6A7A9ABB0B5B7BEC7CD04
:1024A000D1D5D9E0E8EFF4F902060D14161D221774
:1024B000F4013C4F352936373A465556505254555B
:1024C000514C484646433D37342C25221D1B1912DA
:1024D000090603FDF9F8F6FC030505EFDBD3CAC4D2
:1024E000C2BEBABABAB7B6BDC1BFC0CACFCED3D9C1
:1024F000DDE1E5E5E3E3E5D7E42238180E21232109
:102500002A271E2E351E120B0E2D41330DF10420ED
:10251000241E1D2023232223201C1A1919140F0DF9
:102520000C0D0A040201FEFDFDFCFE0608EFD9E4D5
:10253000EFF2ECE8F2EFDACDCCD1D5D0CED2D5D9CE
:10254000DDDFE1E4E6EAF0F5FBFF02030508070E34
:1025500015FCEB08292C1F1A1B2633353535323173
:10256000353431302B28272321211E1A140C050461
:10257000070D180CF8F9E7C3C9ECF5EBDECFE0F472
:10258000F7F2DED3D2D0D2D6D4D2D6D7D6D9DCE0A9
:10259000E5E1DCE9FAFFF7E7EA020903070B0E17AA
:1025A000190A0311212E363D402F170F0F14291E33
:1025B000EAE00C2F2808EAED0715140E0A0B100F9D
:1025C000121202FB010404050A1712FBF2FAEDDDF8
:1025D000F0FFF3DDC4CCEDE7D6E3F4ECD9E0EAE2BA
:1025E000E9F4F9F4EBF6080B00F4E6E60418130638
:1025F00002030801F4FF130FF4EE071E1A0D0E0D6F
:10260000101923241E212528271710182A341F06E5
:102610000E1A1D15F3DDDDEDF4EDE7DFD5D8ECEA9C
:10262000DBEC06EFC0BAE60B08F6F80C05EDF50595
:1026300004EECED1ECFA040F08FCF1E9E6E3E8F889
:1026400004FF0710F6F30803DFE41014050D242E31
:102650002A2106FE1D1F0E0D0B09050C1F0FEBF3A3
:102660000B121006EFEFFF080B04F6EEFD09050A4A
:1026700008FA080F04F8FD0F06EDE5EAF2F5E0E3CD
:10268000090DEDDEDCDFF80604FFDCDD0204FAFDF7
:102690000406FE010D0406141301F7010F1C05C703
:1026A000D7232BF0D4FE190F04090904F3F51519EB
:1026B000FFF0F70B1C0C00F4E4FF1E1809040506DC
:1026C00000F5ECF3F900FBEAF2F4E8EBE8E9F6EFE9
:1026D000EFFBF6F20105F4EBF5FA01030506F7F45A
:1026E00007172111F2F6112014080E0F0B131A14FC
:1026F0001410080B01F801121809F8F8F6F0FA0A9C
:10270000140CF2CECDF70AFAEFF2EEF7FF00F8EA7A
:10271000F5FBEDDFE4F9FCEDE0E5FA05F8EBE7EEBB
:10272000FD0509FCF2FC00FF08100F0F0702FF0572
:10273000141D21282D1E12110701181DEDD6FF268C
:10274000290DECF1080B07070A0706070B0DFDF72B
:10275000FAFC0401FD0A0F01F3EFE8DCE9FBF9E8FC
:10276000C8CDF2F0DEE7F4ECDBE3EDE8F2FDFFF9D3
:10277000EEFE0B0C03F5EFF40A1315100407080026
:10278000FF09120AF0F011200E08100D1217191E81
:102790001B171D26220E0812262E14FD0C1F180CC6
:1027A000F0D6DEF4F4EBEBE3D4DEF0E8E4F707E692
:1027B000BCCBFC1004F7021201EFFB0F03E0D1DFEA
:1027C000FA06080E0AF7ECEDE9E3F004FC02100744
:1027D000F8020AEBDCFF1C0D01172F2C260FFA1054
:1027E00020110E110803071B18F5EB01141506F450
:1027F000F2F7011209F9F2F50605070AFE010E0CBF
:10280000F7F7110DF2E6E7EEF6E5E3050EF7E7DD83
:10281000DEF9FF020CDFD40407F6FE0303FF050F09
:102820000608111106FE04101704CED01B32EDCBA2
:10283000FD1B0E01090D06EEF41B18FCF2F70A1D34
:1028400011FFEDE3FF231C0E0A0A0A03F6E9F9065D
:102850000900F4FC04F9EFECF805F3F002FDF600D2
:1028600007FCEEF0FF04000509FDFB09141C05E957
:10287000F10F1502FB01FF01080C0D050103FFEB31
:10288000EE06100CFFFBF9EEEDF5011815EFD4EE96
:102890001712F9FD0600FC040CFDF70D1500EAF215
:1028A0000B0AF8E7F10E0EF9F0F5F6FC080D01F150
:1028B000F7FDFB07131000F1F401020A06FD060AFA
:1028C000040709FAFE0C01EBF30C161003040B0BC2
:1028D00002FBF9FF050504040701FB020601F3F3FF
:1028E000020904F4EAECF2F6F7FEFCEEF101FFF562
:1028F000F7F8F3F2F8F5F7050906040809090300EB
:10290000091007FE070F0C02FD01101100F8FCFE74
:1029100001090B02F9000801F8FB010101FFF9FDB3
:102920000A07F9F8000604FDF2EC001102E5E800E0
:1029300006FEF7FBFEFCF8F5FE04FBF3F8090C03BA
:1029400001FEF9FD04080908060200F9F1FC0B106C
:1029500001EDF80E06F4F0FA00FBFB04050100009F
:10296000FDFBF8010C0B03FB00090B0A0A05FCF93F
:10297000020D06FE000201FEFB0406FE00FEF2F45C
:10298000FE0203FCFBFEF6F6FAFB0508F8E6F0078C
:1029900007FAFC0501F9FC00FB000905FBF7FF093C
:1029A00007FBF0F9050704FEFBF6FC05080600FB33
:1029B000FCF9FE060601FBFF010005070101040208
:1029C0000506FBF90203FDFF0204030203060802E9
:1029D000FDFE02020102FFFAF7FAFE0202F9F5FC1F
:1029E000010401F4EEF1F6FE0303F7F0FB0503FA30
:1029F000F8F6F6FB01FCFA01050503050603FF00E6
:102A00000706FF00080D0901FE030704000103FE8D
:102A1000FF060400040502FCFAFE0202FDF8F903B9
:102A200006FEF7FB0203FDF6F90208FFF3F80103C7
:102A3000FCF9FCFEFEFFFEF7F90200FCFE020301BA
:102A4000040502FAF8020903FFFDFDFEF9FC0A0C79
:102A5000FEF0F80909FAF7FDFCFC01020403FFFC93
:102A6000FEFFFC020A09FEF901050604000306FD4B
:102A7000F9030701FE0203FCF5FD03FDFFFFFAFE6B
:102A800001FFF8F80102FEFD00FCF7FF04FCF9FE6F
:102A900000FF000505FEFCFFFEFF0501FBFE010334
:102AA00001FFFEFF0100030703FAFA000202020021
:102AB000FEFEFEFD0001FF030504FFFE01FFFDFE1B
:102AC000030502FEF8FB030804F6F1F9030501FE15
:102AD000FD0002FFFD0102FAF5FB0404FFFF00FF09
:102AE000FCFC030500FCFC0002020202FEFF0604DF
:102AF000FDFE0001030400F8FB040400000402FBD7
:102B0000FB0101FCFBFF0304FEFAFBFDFE0001FEDE
:102B1000FEFEFDFE0002FEFC0001FF01FFFBFD01C9
:102B2000020000FEFEFF0001FFFE0200FCFF0606A1
:102B300000FCFF0103030100FF01040401FDFE018D
:102B4000020101FFFD000403FEFDFEFDFDFDFF008F
:102B500000FFFCF9FD00000001FCF9FF0100FEFE92
:102B6000FEFDFE0000FEFF0100FE0000FFFFFF0073
:102B700000FEFDFFFFFF01010202FFFEFFFF00015B
:102B800002030301FF0001FFFEFEFF010300FE0040
:102B9000000103040202010201FEFDFDFDFCFCFA3E
:102BA000FEFEFCFF0405030402FFFEFDFCFBFDFF2F
:102BB000000100FF020301FEFDFDFFFFFEFF01001B
:102BC000FF010201FFFFFF00FFFEFEFFFFFEFFFF10
:102BD000FF0000FFFEFF0000FFFF00FFFF0000FFFF
:102BE0000000FFFFFF09ED1CE50BEF38DFF34F8E10
:102BF00072C30146A0E14360DE03B6DD2CF6F0DDD2
:102C00009DA0197F717F443C31BCC8AC848C2E4C94
:102C1000DC3F2586BE0740340722F03952F8E7B47E
:102C20008296F82B30099888A3B6EEEAF7567C3ADC
:102C3000C2B30E56525E460920E1BCCCBF96858ACF
:102C40008397AAC0BEEDDFBED5FCF40BDCE8F4D35D
:102C500031215847493A2431374B3E4A4559646B34
:102C60006069776B6A785F6D734F4B3B2000ECEDCA
:102C7000D3D3CDCABEC3BA919795908E86878788E5
:102C800091889B94B7B2D8DAC61009021F393B5E0F
:102C90005E6F7577797779777A777A777A777977D8
:102CA0007977797779706F60524D3827141408F46A
:102CB000E7E2CCC9C6AFAF9F8E88918C908B858B95
:102CC0008F9D88868B91939CBAC6C9DFEFF5FA0970
:102CD00011131A1D23222828252427271C2B2618E8
:102CE0002019140A04F7FDEDEEE8D2D8C7C0B8B435
:102CF000A89C969186878787878688868786888618
:102D0000888687868787878788898B8B88929BA010
:102D1000AAAFADB9C0CECBD4DEE4EBE9F6FC061029
:102D20001B14242D2B484B3E5C5A5E756E676966FA
:102D30006B77747570716D6C676C5F6B69626654EC
:102D40005F5650524B3B48503F3B402E3229262580
:102D50001C1F19FF0509E7FEE9E9ECE3DADCE0D125
:102D6000D2CECEC8D4C7C3CCC2CAD0D3D3D0D9CF89
:102D7000D8D9DFDFE3E5E0ECE5F2F5F3FA00FAFF9E
:102D800002010B0D101A1C1D1F24272C322B403D55
:102D9000413C45454254494E4E58505963555B702D
:102DA000655E6D6B70747673767775747673727416
:102DB00074706F6E65656B635B5F59554E534D471D
:102DC00047423F373B312F262727171D1B14120F71
:102DD00002020200FAF2F1EBEAE4E0DED6CFCBC465
:102DE000BFBDB8B0AAA9AAA1989998958B8B8987DD
:102DF0008989878687878786878687868786878665
:102E000087868786878687878788878B89888B8E42
:102E10008E92919C9D97A2A3ABB6B6BBC4C5CBD8EE
:102E2000DBE2E9F1EFEF01060B0F120F111C1F2976
:102E3000262E3435353D4D4C54515B696E6C6D73A7
:102E400073787678757675717274737374726F7047
:102E50006E6E6F6C6B6B6B605E64605C5455534A56
:102E60004546434044302B2C24201D140B080600FB
:102E7000FBFAF3EFE7E8E4E0DFD7D5D0D2C9C2BA76
:102E8000B3AFABAC9E989290918B8B8989888687E3
:102E9000888687898787878989878B8D8C8C909492
:102EA000929597949A9A9D9EA1A8ABAFAEB7B8C2DF
:102EB000C5C8D1CED8E0E4E9EDF4F7FA0306060E72
:102EC000110E181C212026322E3A3A41444D4C5006
:102ED0005F5865696D6F71747677787978797879EC
:102EE000787978797879787978787878787878785E
:102EF00078787878787879787878777476716A6A7B
:102F000069605F5C57534C4A4443403A34312D2941
:102F100024252018180E0B0C070501FDF7F4F4EF1B
:102F2000E9E3E2DED5CFCEC9C4BCB7B4B3ABA7A743
:102F3000A3A3A39E939697918E8E8D8A8B8B868763
:102F40008887868787878787878787878787878711
:102F50008787878787878787878787878887898BFA
:102F60008A8B8D908F919494999A9B9C9EA8A5A7EB
:102F7000ACB0B1B6BBB3BEC3C2C8CFD1D1DAD8DC16
:102F8000E0E3E4E5E8ECEFF4F9F4F7000000040511
:102F9000080A1111161B1D171C23252B2A2E2C3352
:102FA0003335333D3E3F4442484B514F53565758BB
:102FB0005A5A5D616566696B6C7170727273737772
:102FC000787778787878797879787978797879787D
:102FD0007878787878787879787978797779767771
:102FE0007675737272706C696B64665E5E5A585661
:102FF000504F4846423E3D3B37332C332A2724224C
:103000001D191B17130F0D0C080302FCFDF9FAF72D
:10301000F1EDEAE5DEDDDAD4D1CECAC6C3C2BBB774
:10302000B8B4B0AEACACA8A6A29E9F999494918C73
:103030008E8B898987888787878786878787878711
:103040008787878787878787878787878787878611
:1030500087868786878687878888898A898E9093DE
:103060009594999D9CA3A0A7A8A9ADAFB3B3BABBF3
:10307000BFC1C3C4C7C9CCCCD0D1D2DBD9DADFE160
:10308000E4E7E7EBEFF1F6F6F7FD000104080A0AC2
:10309000101212171B1D1C222426282A2E2E33360E
:1030A000383A3D3F4545474C4B4F50545657585A78
:1030B0005D5D5E64636569676B6C6F707072717182
:1030C00073747374757676777776777877777777A2
:1030D000777877787878777777777776787676777E
:1030E00076767574747271706F6E6D6D696A6563F2
:1030F000625C5D57565450524E48484841403F3BF1
:10310000393838343130302D29272323231D1B161D
:1031100018120F0F090A0502FEFFFCF8F6F2F1ED96
:10312000EBE9E6E3E2DEDCDBDBD5D3D2CDCBC8C70F
:10313000C3C4BEBBBBBAB5B3B2AEADA9A9A6A3A268
:10314000A19D9F9C9B9897949693919590908F8F1B
:103150008D8C8A8C8A898A898A88898888898888D6
:1031600088878888888789898889898A89888A89D7
:103170008A8A8B898B8D8A8D8B8C8D919292969673
:103180009A9D9FA2A2A4A8A9ACAEB1B1B5B7B7BA97
:10319000BDBDBEBEC3C7C6CCCDCFD0D4D5D7DCDC79
:1031A000DEE1E3E8EDECEDEFF3F4F7FAFCFF01000C
:1031B0000507080A0B0D0D11141317191C1F2125E3
:1031C00026262B2E303133383A3C3E3F4346444787
:1031D000494B4E4F51535557595A5D5C5E63636579
:1031E00068696B6D6E6E6E717272727375757576DD
:1031F0007576777676767777777777777877777764
:103200007777777777777777767677747475747260
:10321000737373716F6F6E6B6B6A676866666765F1
:1032200062615C5C5C59575255514E4C4C49474465
:10323000423F3B3C39363334302C2A282823222184
:103240001E1C1B17161312100D0907050202FEFCA7
:10325000F8F6F4F2EFECEAE7E5E2DFDFDCD7D6D50B
:10326000D2CFCECDCBC8C7C4C2C0C0BDB8B8B6B52A
:10327000B2B1ADACAAA7A9A6A2A2A19F9C9D9B9703
:103280009898979493959391918F8F8E8D8D8D8C27
:103290008C8B8A8B8A8A898A898A898A8A8A8A898E
:1032A00089898A8A8A8A8B8B8C8B8C8C8C8C8D8D6D
:1032B0008D8E8F90919191939395959698999A9CD4
:1032C0009C9EA19FA1A2A3A3A5A7A9A9AAACACB0AB
:1032D000B1B2B2B5B7B9BBBDBFC0C2C5C7C8CBCC10
:1032E000CED2D4D6D8D9DCDEE1E2E4E7E7EBEDEFED
:1032F000F1F3F6F8FAFCFD010306080B0E0F1313A9
:1033000017191B1C20222327292B2D303133353848
:103310003A3B3E4041444646494B4D4E515354562C
:1033200057595B5C5D5E60626263656668686A6B84
:103330006B6D6D6E706F7071717272727374747484
:10334000747475757474757474747474747373733D
:10335000727273727272717170706F6E6E6D6C6C6E
:103360006B6A69686665646362615F5E5E5D5A5B35
:103370005A58575654555352514F4F4E4E4B4A4937
:1033800048474645444241403D3C3A38373534335E
:10339000302F2D2B2A27252422201F1C1B191815FE
:1033A00012100F0C0A08050302FFFCFBF8F6F3F2FB
:1033B000F0EDEBEAE8E5E4E1DFDDDBD9D6D5D3D10A
:1033C000CFCDCBC9C7C4C3C1BEBDBBBAB8B7B6B4F5
:1033D000B2B0AFAEACACAAA8A7A6A4A4A2A1A09F6D
:1033E0009E9C9B9A9A989796959594939392929176
:1033F0009191909090908F8F8F8F8F8F8F8F8F8FD5
:103400008F8F8F8F8F9090909191919292939494AF
:103410009595969798999A9B9B9C9D9D9FA0A1A1FD
:10342000A2A4A4A5A7A7A8AAAAACACADAFB0B1B2FC
:10343000B3B4B6B7B7B9BBBBBDBDBFC0C1C2C2C4D0
:10344000C5C5C7C8C9CACBCDCDCFD0D1D2D4D6D6A9
:10345000D9DADBDDDFE0E2E4E6E8E9EBEDEEF0F21D
:10346000F4F6F8FAFBFEFF010405070A0C0D0F1134
:10347000131517191B1D1F21222427282A2B2D2F36
:103480003132343638393B3D3F4042434546484A65
:103490004B4C4D4E4F5152535455565758595A5BF9
:1034A0005C5D5E5F606162636364656667676868F0
:1034B0006969696A6A6A6B6B6B6B6B6C6B6B6B6C63
:1034C0006B6B6B6B6B6B6A6A6A6969696868686762
:1034D0006666656463636261605F5F5E5D5C5B5AE4
:1034E0005A595757565554535251504F4E4D4C4CB4
:1034F0004A494947464544434241403E3D3C3B3AA8
:10350000393837363533333231302F2E2D2C2B29A5
:103510002828262624232221201F1D1C1B191817AA
:10352000151413110F0E0C0B090705030200000000
:103530000001010102020303030404050505060658
:1035400007070708080909090A0A0A0B0B0C0C0CE3
:103550000D0D0E0E0E0F0F1010101111121212136E
:1035600013131414151515161617171718181819FC
:10357000191A1A1A1B1B1C1C1C1D1D1D1E1E1F1F89
:103580001F20202021212222222323242424252518
:1035900025262627272728282829292A2A2A2B2BA7
:1035A0002B2C2C2C2D2D2E2E2E2F2F2F303030313A
:1035B00031323232333333343434353536363637CC
:1035C00037373838383939393A3A3A3B3B3B3C3C63
:1035D0003D3D3D3E3E3E3F3F3F40404041414142F8
:1035E0004242434343444444454545464646474793
:1035F000474848484949494A4A4A4A4B4B4B4C4C30
:103600004C4D4D4D4E4E4E4F4F4F4F5050505151CF
:103610005152525253535353545454555555555671
:10362000565657575757585858595959595A5A5A18
:103630005B5B5B5B5C5C5C5C5D5D5D5E5E5E5E5FC0
:103640005F5F5F606060606161616162626262636E
:10365000636363646464646565656566666666671E
:10366000676767676868686869696969696A6A6AD3
:103670006A6B6B6B6B6B6C6C6C6C6C6D6D6D6D6D8C
:103680006E6E6E6E6E6F6F6F6F6F70707070707148
:103690007171717171727272727273737373737309
:1036A00074747474747475757575757575767676CD
:1036B0007676767777777777777777787878787898
:1036C000787879797979797979797A7A7A7A7A7A66
:1036D0007A7A7A7B7B7B7B7B7B7B7B7B7B7C7C7C3A
:1036E0007C7C7C7C7C7C7C7C7D7D7D7D7D7D7D7D12
:1036F0007D7D7D7D7D7E7E7E7E7E7E7E7E7E7E7EEF
:103700007E7E7E7E7E7E7F7F7F7F7F7F7F7F7F7FCF
:103710007F7F7F7F7F7F7F7F7F7F7F7F7F7F7F7FB9
:103720007F7F7F7F7F7F7F7F7F7F7F7F7F7F7F7FA9
:103730007F7F7F7F7F7F7F7F7F7F7F7F7F7F7F7F99
:103740007F7F7F7F7F7F7F7F7F7F7F7F7F7F7F7F89
:103750007F7F7F7F7F7F7F7E7E7E7E7E7E7E7E7E82
:103760007E7E7E7E7E7E7E7E7D7D7D7D7D7D7D7D81
:103770007D7D7D7D7D7C7C7C7C7C7C7C7C7C7C7C84
:103780007B7B7B7B7B7B7B7B7B7B7A7A7A7A7A7A8F
:103790007A7A7A797979797979797978787878789B
:1037A00078787777777777777776767676767676AE
:1037B00075757575757575747474747474737373C5
:1037C00073737372727272727171717171717070E0
:1037D0007070706F6F6F6F6F6E6E6E6E6E6D6D6D01
:1037E0006D6D6C6C6C6C6C6B6B6B6B6B6A6A6A6A24
:1037F0006A6969696968686868676767676766664C
:103800006666656565656464646463636363626278
:10381000626261616161606060605F5F5F5F5E5EA8
:103820005E5E5D5D5D5C5C5C5C5B5B5B5B5A5A5ADB
:103830005959595958585857575757565656555514
:10384000555554545453535353525252515151504D
:1038500050504F4F4F4F4E4E4E4D4D4D4C4C4C4B8C
:103860004B4B4A4A4A4A49494948484847474746CC
:103870004646454545444444434343424242414110
:10388000414040403F3F3F3E3E3E3D3D3D3C3C3B56
:103890003B3B3A3A3A3939393838383737373636A0
:1038A00036353534343433333332323231313030EB
:1038B000302F2F2F2E2E2E2D2D2C2C2C2B2B2B2A38
:1038C0002A2A292928282827272726262525252486
:1038D0002424232322222222212120201F1F1F1ED5
:1038E0001E1D1D1D1C1C1C1B1B1A1A1A1919181829
:1038F000181717171616151515141413131312127B
:103900001211111010100F0F0E0E0E0D0D0C0C0CCD
:103910000B0B0A0A0A090909080807070706060522
:103920000505040403030302020101010000FFFF77
:10393000FFFEFEFEFDFDFCFCFCFBFBFAFAFAF9F9CA
:10394000F8F8F8F7F7F6F6F6F5F5F5F4F4F3F3F31F
:10395000F2F2F1F1F1F0F0EFEFEFEEEEEDEDEDEC74
:10396000ECECEBEBEAEAEAE9E9E8E8E8E7E7E7E6C6
:10397000E6E5E5E5E4E4E3E3E3E2E2E2E1E1E0E019
:10398000E0DFDFDFDEDEDDDDDDDCDCDBDBDBDADA6A
:10399000DAD9D9D8D8D8D7D7D7D6D6D6D5D5D4D4BA
:1039A000D4D3D3D3D2D2D1D1D1D0D0D0CFCFCFCE08
:1039B000CECDCDCDCCCCCCCBCBCBCACAC9C9C9C856
:1039C000C8C8C7C7C7C6C6C6C5C5C5C4C4C4C3C39F
:1039D000C2C2C2C1C1C1C0C0C0BFBFBFBEBEBEBDEA
:1039E000BDBDBCBCBCBBBBBBBABABAB9B9B9B8B82F
:1039F000B8B7B7B7B6B6B6B5B5B5B5B4B4B4B3B372
:103A0000B3B2B2B2B1B1B1B0B0B0B0AFAFAFAEAEB1
:103A1000AEADADADACACACACABABABAAAAAAAAA9EF
:103A2000A9A9A8A8A8A8A7A7A7A6A6A6A6A5A5A528
:103A3000A4A4A4A4A3A3A3A3A2A2A2A1A1A1A1A060
:103A4000A0A0A09F9F9F9F9E9E9E9E9D9D9D9D9C92
:103A50009C9C9C9B9B9B9B9A9A9A9A9999999998C2
:103A600098989898979797979696969696959595ED
:103A70009594949494949393939393929292929214
:103A8000919191919190909090908F8F8F8F8F8E38
:103A90008E8E8E8E8E8D8D8D8D8D8C8C8C8C8C8C57
:103AA0008B8B8B8B8B8B8A8A8A8A8A8A8A89898973
:103AB0008989898988888888888888878787878787
:103AC000878786868686868686868585858585859A
:103AD00085858584848484848484848484838383A6
:103AE00083838383838383838282828282828282AE
:103AF00082828282828181818181818181818181B1
:103B000081818181818180808080808080808080AF
:103B100080808080808080808080808080808080A5
:103B20008080808080808080808080808080808095
:103B30008080808080808080808080808080808085
:103B40008080808080808080808080808080808075
:103B5000808080808080808181818181818181815C
:103B6000818181818181818182828282828282823D
:103B7000828282828283838383838383838383831A
:103B800084848484848484848484858585858585EF
:103B900085858586868686868686868787878787C3
:103BA0008787888888888888888889898989898991
:103BB0008A8A8A8A8A8A8A8B8B8B8B8B8B8C8C8C59
:103BC0008C8C8C8D8D8D8D8D8E8E8E8E8E8E8F8F1E
:103BD0008F8F8F90909090909191919191929292DD
:103BE000929293939393939494949494959595959A
:103BF0009696969696979797979898989898999951
:103C000099999A9A9A9A9B9B9B9B9C9C9C9C9D9D04
:103C10009D9D9E9E9E9E9F9F9F9FA0A0A0A0A1A1B4
:103C2000A1A1A2A2A2A3A3A3A3A4A4A4A4A5A5A561
:103C3000A6A6A6A6A7A7A7A8A8A8A8A9A9A9AAAA08
:103C4000AAAAABABABACACACACADADADAEAEAEAFAF
:103C5000AFAFB0B0B0B0B1B1B1B2B2B2B3B3B3B450
:103C6000B4B4B5B5B5B5B6B6B6B7B7B7B8B8B8B9F0
:103C7000B9B9BABABABBBBBBBCBCBCBDBDBDBEBE8C
:103C8000BEBFBFBFC0C0C0C1C1C1C2C2C2C3C3C426
:103C9000C4C4C5C5C5C6C6C6C7C7C7C8C8C8C9C9BC
:103CA000C9CACACBCBCBCCCCCCCDCDCDCECECFCF51
:103CB000CFD0D0D0D1D1D1D2D2D3D3D3D4D4D4D5E4
:103CC000D5D5D6D6D7D7D7D8D8D8D9D9DADADADB76
:103CD000DBDBDCDCDDDDDDDEDEDEDFDFE0E0E0E106
:103CE000E1E2E2E2E3E3E3E4E4E5E5E5E6E6E7E793
:103CF000E7E8E8E8E9E9EAEAEAEBEBECECECEDED21
:103D0000EDEEEEEFEFEFF0F0F1F1F1F2F2F3F3F3AD
:103D1000F4F4F5F5F5F6F6F6F7F7F8F8F8F9F9FA38
:103D2000FAFAFBFBFCFCFCFDFDFEFEFEFFFF132E82
:103D300011241FBECFEFDAE0DEBFCDBF12E0A0E05E
:103D4000B1E0E2E3F1E602C005900D92A832B107BE
:103D5000D9F725E0A8E2B2E001C01D92A03AB2076F
:103D6000E1F71EE1C8E9DEE104C02197FE010E94EF
:103D70008530C739D107C9F70E945E2A0C94973065
:103D80000C940000409191025091920220918F0278
:103D90003091900242175307B4F49091E800957067
:103DA000E1F39091E80092FD19C08093F1008091B9
:103DB00091029091920201968F739927892B19F4A1
:103DC0008EEF8093E800809191029091920201968B
:103DD000909392028093910281E0089580E008958B
:103DE000CF92DF92EF92FF920F931F93CF93DF93C7
:103DF0006C017A018B01C0E0D0E0CE15DF0589F0BF
:103E0000D8016D918D01D601ED91FC910190F08169
:103E1000E02DC6010995892B11F47E0102C021967F
:103E2000ECCFC701DF91CF911F910F91FF90EF90E1
:103E3000DF90CF900895CF93DF931F92CDB7DEB779
:103E40006983DC01ED91FC910280F381E02D41E07A
:103E500050E0BE016F5F7F4F09950F90DF91CF91CA
:103E6000089583E08093E9008091F200882319F09F
:103E70008AE38093E8000895FC018485958597FD89
:103E80000BC09FB7F89482E08093E9008091F20024
:103E90009FBF90E0019608959FB7F89482E08093C9
:103EA000E9008091F2009FBF90E0089590E0FC014E
:103EB0003197EF30F105B0F5EA5AFF4F0C94853099
:103EC000809180008F7703C0809180008F7D8093E8
:103ED0008000089580918000877FF9CF84B58F7727
:103EE00002C084B58F7D84BD0895809190008F7746
:103EF00007C0809190008F7D03C080919000877FE4
:103F00008093900008958091C0008F7703C08091C6
:103F1000C0008F7D8093C00008958091C200877F8C
:103F20008093C2000895CF93DF93282F30E0F901EA
:103F3000E25CFE4F8491F901E15EFE4FD491F901FC
:103F4000E050FF4FC491CC2391F081110E94561F85
:103F5000EC2FF0E0EE0FFF1FEE50FF4FA591B49154
:103F6000EC91ED2381E090E021F480E002C080E05C
:103F700090E0DF91CF91089584E0809361028FEF0C
:103F80008093620210928402109283021092850242
:103F900085EE8093BC00089582E0809361028FEFEC
:103FA00080936202109284028093830281E0809366
:103FB000850285EE8093BC00089585ED8093BC005A
:103FC0008091BC0084FDFCCF8091610280936002EF
:103FD0001092610280916002833011F40C94BC1F36
:103FE00080916002813011F40C94CC1F0895CF931E
:103FF000DF931F92CDB7DEB780911B0390911C0316
:104000008F3F4FEF940761F0FC01E15FFC4F40816F
:104010004983019790931C0380931B03898101C0FE
:104020008FEF80930001809100018F3FD1F080914C
:10403000000190917B0083FB222720F930E045E0CE
:10404000220F331F4A95E1F79F7D292B20937B0098
:104050008770806480937C0080917A008064809374
:104060007A000F90DF91CF91089508952FB7F894BB
:10407000FC01438554856585768540835183628341
:1040800073832FBF08950F931F93CF938C01CB01A0
:10409000BA01CFB7F89420E030E944E155E40E943A
:1040A000183020E030E040E858E30E94183020E06B
:1040B00030E040E857E40E9418300E945B2FF8017E
:1040C0006483758386839783CFBFCF911F910F91B0
:1040D00008957F928F929F92AF92BF92CF92DF927C
:1040E000EF92FF920F931F93CF93DF936C015B01CD
:1040F0007A0180910D01882309F466C08091BE0287
:10410000882309F461C08091940280FF05C08091EA
:10411000E00082608093E000E70110E00AEF83E0B6
:10412000982E90E4792E2AE3822E209709F443C03A
:104130008FB7F8949092E9009091E80095FF06C03F
:104140009091F200272D291B922F01C090E08FBF84
:10415000911105C00150C1F10E94062AE6CF292F16
:1041600030E0C217D3070CF49C2F8FB7F8949092CD
:10417000E9002091E80025FF1CC0292F30E0C21B78
:10418000D30BF501915020F041914093F100FACF0B
:10419000A20EB31E112319F08092E80009C090917D
:1041A000E80095FD06C08092E80011E0209709F034
:1041B00010E08FBFBACF1111BBCF5D9884E680931A
:1041C00093021E141F0444F081E090E0F6019383F3
:1041D000828380E090E001C0C701DF91CF911F9101
:1041E0000F91FF90EF90DF90CF90BF90AF909F9096
:1041F0008F907F9008950F931F93CF93DF931F921B
:10420000CDB7DEB78C01FC018485958597FF0EC084
:10421000CE0101960E94202A019719F4298130E0ED
:1042200002C02FEF3FEFF80135872487F80184851E
:1042300095850F90DF91CF911F910F910895CF93A6
:10424000DF931F92CDB7DEB7FC018485958597FD7E
:1042500005C02FEF3FEF358724870BC0CE010196B5
:104260000E94202A019719F4898190E002C08FEF03
:104270009FEF0F90DF91CF910895CF92DF92EF9251
:10428000FF920F931F93CF93DF931F92CDB7DEB7AB
:10429000182F062FE42E862F880F8E5F99830E9499
:1042A000C21E83E00E94C21EF12EC12E9981D92E1A
:1042B0008C2D8F19801798F4F601E7FE02C08491C7
:1042C00001C080810E94C21E182F80E00E94C21E81
:1042D0008123FFEFCF1ADF0A8111EACF01C081E00D
:1042E0000F90DF91CF911F910F91FF90EF90DF9092
:1042F000CF900895DF92EF92FF920F931F93CF9389
:10430000DF93D82E8A017B01E40EF51EEB01CE155A
:10431000DF0571F0D7FE03C0FE01849101C08881E2
:104320000E94C21E21968111F2CF8FEF9FEF01C034
:10433000C801DF91CF911F910F91FF90EF90DF9017
:1043400008950F931F93CF93DF931F92CDB7DEB7DE
:1043500082E0898342E450E06DE571E080E80E94EC
:104360007A210E944A2ADC0112960D911C91139722
:104370000115110569F0D801ED91FC910280F381DE
:10438000E02DBE016F5F7F4FC801099597FF07C001
:1043900089810F90DF91CF911F910F910895F801BE
:1043A00000851185E5CF615030F02091F100FC01CE
:1043B00020830196F8CF289884E68093BD02089563
:1043C0001F93CF93DF93282F30E0F901E25CFE4F7B
:1043D0008491F901E15EFE4FD491F901E050FF4F65
:1043E000C491CC23C9F0162F81110E94561FEC2FC7
:1043F000F0E0EE0FFF1FEC51FF4FA591B4918FB786
:10440000F894111105C09C91ED2FE095E92302C0AD
:10441000EC91ED2BEC938FBFDF91CF911F9108951D
:104420003F924F925F926F927F928F929F92AF9244
:10443000BF92CF92DF92EF92FF920F931F93CF9391
:10444000DF938BE00E94931F813011F461E001C083
:1044500060E085E10E94E02186E00E94931F892BA5
:1044600021F461E08DE00E94E02187E00E94931F2B
:10447000892B21F460E08DE00E94E021ECECF0E07B
:10448000E49180911B0390911C038B3091054CF4B7
:10449000019690931C0380931B03DC01A15FBC4F2A
:1044A000EC93F0E0EE0FFF1FE85BFD4F8081918100
:1044B0009093470280934602EBECF0E0E491809108
:1044C0001B0390911C038B3091054CF40196909343
:1044D0001C0380931B03DC01A15FBC4FEC93F0E055
:1044E000EE0FFF1FE85BFD4F008111811093450225
:1044F000009344021093430200934202C091400291
:10450000D0914102C801012E000CAA0BBB0BBC01CB
:10451000CD0142E0660F771F881F991F4A95D1F79A
:10452000CC24CA9453E0D52EE12CF12CA70196019E
:104530000E948B2EC90165E0880F991F6A95E1F7EB
:104540008C0F9D1FFC01E259FE4F308023E030E0CC
:10455000D8010E948B30A70196010E948B2E75E036
:10456000220F331F7A95E1F7C20FD31FC25FDE4FD0
:10457000C8816091460270914702072E000C880B9B
:10458000990B0E948C2F6B017C012EE231E94CEDDE
:1045900050E40E94183020E030E040E05BE30E94ED
:1045A00018302DEC3CEC4CEC5DE30E94EF2E4B01FF
:1045B0005C0160933C0270933D0280933E029093B5
:1045C0003F022EE33BEA4CEF50E4C701B6010E94E4
:1045D000183020E030E040E05BE30E9418302DEC22
:1045E0003CEC4CEC5DE30E94EF2E2B013C01609310
:1045F00038027093390280933A0290933B0223ED84
:1046000034E948EA50E4C701B6010E94183020E0BE
:1046100030E040E05CE30E9418302DEC3CEC4CECC8
:104620005DE30E94EF2E6093340270933502809315
:104630003602909337022CED35E14CE350E4C7018C
:10464000B6010E94183020E030E040E85BE30E94B1
:1046500018302DEC3CEC4CEC5DE30E94EF2E6093A7
:104660003002709331028093320290933302B5018D
:10467000A4018EE595E00E944320DFB7F89420E086
:1046800030EB41E055E4C301B2010E94183020E054
:1046900030E040E858E30E94183020E030E040E885
:1046A00057E40E9418300E945B2F60934F0570936F
:1046B00050058093510590935205DFBF60913402FD
:1046C000709135028091360290913702DFB7F894ED
:1046D00020E030E642E455E40E94183020E030E06B
:1046E00040E858E30E94183020E030E040E857E40A
:1046F0000E9418300E945B2F60933C0570933D052B
:1047000080933E0590933F05DFBF4091300250916A
:104710003102609132027091330285E295E00E948D
:10472000432040917105509172056091730570911D
:10473000740520911D058091210590912205A0917D
:104740002305B0912405BA2FA92F982F8827820F0F
:10475000911DA11DB11D84179507A607B707D8F1B4
:1047600080917D05811137C0809175059091760506
:10477000A0917705B0917805480F591F6A1F7B1FDC
:10478000409371055093720560937305709374059F
:104790008091400290914102019690934102809352
:1047A0004002332051F0109229021092280282E038
:1047B0000E94931F892B09F4D4C0CC2361F082E0BE
:1047C00090E0909329028093280284E00E94931F36
:1047D000892B09F4CBC080914002909141028097CF
:1047E00021F410924102109240021092290210927C
:1047F000280282E00E94931F892B71F480912F027E
:1048000081110CC08EE595E00E943620109268055B
:1048100081E080932F0202C010922F0281E090E08D
:10482000909329028093280283E00E94931F892B92
:10483000B1F5209144023091450245E0429FC0010C
:10484000439F900D11248C599F4FA0E0B0E0DC01F4
:104850009927882780935A0590935B05A0935C0560
:10486000B0935D0580912E0281111DC08FB7F89421
:104870004091560550915705609158057091590522
:1048800040934B0550934C0560934D0570934E0536
:104890008FBF81E080932E028093550504C0109253
:1048A0002E021092550582E090E0909329028093A9
:1048B000280284E00E94931F892BE9F480912D0245
:1048C00081111BC08FB7F894409143055091440566
:1048D0006091450570914605409338055093390520
:1048E00060933A0570933B058FBF81E080932D0262
:1048F0001092420502C010922D0283E090E0909346
:1049000029028093280285E00E94931F892B71F46D
:1049100080912C0281110CC085E295E00E94362026
:1049200081E080932C0210922F0502C010922C027D
:1049300080912A0290912B02009749F00197909361
:104940002B0280932A02892B11F48BEF8EB9809170
:1049500000018F3FF9F40E94F71F81E0809301016D
:1049600019C08EE595E00E94362027CF8FB7F894C6
:10497000409143055091440560914505709146056D
:10498000409338055093390560933A0570933B0581
:104990008FBF21CFDF91CF911F910F91FF90EF90AB
:1049A000DF90CF90BF90AF909F908F907F906F904F
:1049B0005F904F903F900895CF93DF9390E0FC017C
:1049C000E15EFE4F2491FC01E050FF4F849188236B
:1049D00061F190E0880F991FFC01EA52FF4FC591E9
:1049E000D491FC01EC51FF4FA591B491611109C024
:1049F0009FB7F8948881209582238883EC912E2399
:104A00000BC0623061F49FB7F8943881822F809593
:104A100083238883EC912E2B2C939FBF06C08FB7E6
:104A2000F894E8812E2B28838FBFDF91CF910895D2
:104A30003FB7F89480918B0290918C02A0918D02E7
:104A4000B0918E0226B5A89B05C02F3F19F00196A4
:104A5000A11DB11D3FBFBA2FA92F982F8827820F04
:104A6000911DA11DB11DBC01CD0142E0660F771F54
:104A7000881F991F4A95D1F708951F920F920FB67C
:104A80000F9211242F933F938F939F93AF93BF93D4
:104A90008091870290918802A0918902B0918A0248
:104AA0003091860223E0230F2D3720F40196A11DBB
:104AB000B11D05C026E8230F0296A11DB11D20934C
:104AC00086028093870290938802A0938902B09314
:104AD0008A0280918B0290918C02A0918D02B091FC
:104AE0008E020196A11DB11D80938B0290938C02C2
:104AF000A0938D02B0938E02BF91AF919F918F9141
:104B00003F912F910F900FBE0F901F9018951F92FD
:104B10000F920FB60F9211242F933F934F935F93F1
:104B20006F937F938F939F93AF93BF93EF93FF9375
:104B30008091B900887F883221F170F48031F1F0E2
:104B400030F4882309F472C08830C1F073C0883112
:104B5000C1F0803251F16EC0803409F44EC028F4A7
:104B6000803319F1883321F165C08035D1F1883562
:104B700009F44FC0883409F05DC05AC080918502A5
:104B800011C09091840280918302981708F050C060
:104B9000E091840281E08E0F80938402F0E0ED5971
:104BA000FD4F80818093BB002EC08093620240C085
:104BB0008093620285EC8093BC00809161028093B7
:104BC00060021092610280916002833019F40E94A9
:104BD000BC1F30C080916002813061F50E94CC1F03
:104BE00029C0E091840281E08E0F8093840280913D
:104BF000BB00F0E0ED59FD4F8083909184028091DD
:104C00008302981710F485EC01C085E88093BC00FE
:104C100011C0E091840281E08E0F80938402809124
:104C2000BB00F0E0ED59FD4F808302C0109262029C
:104C30000E94DD1FFF91EF91BF91AF919F918F91E6
:104C40007F916F915F914F913F912F910F900FBE88
:104C50000F901F90189578941F920F920FB60F9295
:104C600011242F933F934F935F936F937F938F9371
:104C70009F93AF93BF93EF93FF9310926E00E091D9
:104C80009602F09197020995F894809195028823F5
:104C900011F016BCA99A80916E00826080936E001C
:104CA000FF91EF91BF91AF919F918F917F916F9104
:104CB0005F914F913F912F910F900FBE0F901F90DA
:104CC00018951F920F920FB60F9211242F933F93B6
:104CD0004F935F936F937F938F939F93AF93BF9304
:104CE000EF93FF9380910101882341F080917A0036
:104CF000806480937A001092010111C0E09100015C
:104D00008091780090917900EE0FFF0BE85BFD4FEA
:104D1000918380830E94F71F81E080930101FF91BE
:104D2000EF91BF91AF919F918F917F916F915F9123
:104D30004F913F912F910F900FBE0F901F9018959C
:104D40001F920F920FB60F9211242F933F938F93C0
:104D50009F93AF93BF93EF93FF9380911D05E82F2F
:104D6000F0E0EE0FFF1FE35EFC4F208131818F5F8B
:104D700080931D05811119C090911F0581E089273D
:104D800080931F058091210590912205A091230514
:104D9000B09124050196A11DB11D8093210590932A
:104DA0002205A0932305B0932405C901880F892FFC
:104DB000881F990B9195809388002F7720938A0004
:104DC000FF91EF91BF91AF919F918F913F912F9163
:104DD0000F900FBE0F901F901895CF92DF92EF9219
:104DE000FF920F931F93DC014D915D916D917C912A
:104DF00013971F960D911D912D913C915297041779
:104E0000150726073707E8F41A968C911A97882316
:104E1000C9F1CD90DD90ED90FC9013971B964D91CC
:104E20005D916D917C911E974C0D5D1D6E1D7F1DDA
:104E3000401B510B620B730B4D935D936D937C93F1
:104E400013974D915D916D917C9113971896ED910B
:104E5000FC911997E60FF71F849114964D915D917F
:104E60006D917C9117970D911D912D913C91139708
:104E7000400F511F621F731F4D935D936D937C9381
:104E8000139701C080E01F910F91FF90EF90DF908A
:104E9000CF9008950E9492301F920F920FB60F92FA
:104EA00011248F939F938091E1009091E100937F73
:104EB0009093E10083FF0FC01092E90091E090937E
:104EC000EB001092EC0092E39093ED001092BE0282
:104ED00098E09093F00082FF20C093E09093E90067
:104EE0009091F200992319F09AE39093E800909141
:104EF0009302992339F090919302915090939302E9
:104F0000992389F19091BD02992339F09091BD02C6
:104F100091509093BD02992341F184FF10C080917C
:104F2000E2008E7E81608093E2008091E1008F7EBE
:104F30008093E100809194028E7E806111C080FF99
:104F400016C08091E2008E7E80618093E2008091A5
:104F5000E1008E7E8093E100809194028E7E8160DC
:104F60008093940204C05D9ACDCF289AD6CF9F91AA
:104F70008F910F900FBE0F901F9018951F920F9258
:104F80000FB60F921124CF92DF92EF92FF920F9300
:104F90001F932F933F934F935F936F937F938F93C1
:104FA0009F93AF93BF93EF93FF93CF93DF93CDB7CF
:104FB000DEB76C97DEBFCDBF1092E9008091E800AC
:104FC00083FFEDC168E0CE0145960E94D32182EFB8
:104FD0008093E8008D8987FF05C09091E80090FFDD
:104FE000FCCF03C09EEF9093E800982F907609F0D5
:104FF000C6C09E892F89188D91110CC0803829F464
:10500000809199028093F10002C01092F1001092F9
:10501000F10048C1422F50E0512B913051F48111E1
:1050200041C14130510509F03DC1809199028D7F08
:105030000BC0933061F4811135C14130510509F045
:1050400031C1809199028260809399022BC1953081
:1050500041F48091E80080FFFCCF20682093E300BA
:1050600021C1963009F05FC0EB8CFC8C1092E900F6
:105070001092920210929102123091F510929002C9
:1050800010928F020E94A12199E0BE016F5F7F4FB5
:10509000DB01E92F1D92EA95E9F799831A8391E0E4
:1050A0009E8390EA98879AEF998720919102309198
:1050B0009202275F3F4F3C832B838D831092E90040
:1050C0001092920210929102F0929002E0928F025E
:1050D00049E050E080E00E947A210E94A121E2C0D4
:1050E000F0929002E0928F020E944A2ADC0112960E
:1050F000ED90FC901397E114F10409F4C0C0D701BE
:10510000ED91FC910480F581E02DBE016B5E7F4F37
:10511000C7010995009719F00CF0C4C0C7C0F7018A
:10512000E084F184E8CF973009F4C0C0983021F4CE
:1051300081E08093F100B6C0993009F0B3C083706C
:1051400009F0B4C0EFE0F2E081E021E036E39081C5
:10515000992361F08093E9002093EB009191909363
:10516000EC003093ED008F5F873089F78EE78093F6
:10517000EA001092EA008F898093BE0293C08B8D63
:105180009C8D1092E90010929202109291029093DD
:10519000900280938F02898D811156C08E899D89DE
:1051A000913A59F4813209F081C047E050E066E05D
:1051B00071E080E00E947A2175C0913209F076C0DA
:1051C000833289F4888D90E0982F88272F89822B4D
:1051D000A0E0B0E08093020190930301A09304014A
:1051E000B09305015FC0803269F48091E80082FFCE
:1051F000FCCF67E086E091E00E94D3218BEF8093A3
:10520000E80006C0823209F04DC08F8980930D01FD
:1052100080919802882319F0EEEFFAE002C0E0E0F6
:10522000F8E08091060190910701A0910801B091EA
:105230000901803B9440A105B10509F07BC0809134
:105240000D0180FF93C076C00E944A2ADC011296AD
:105250000D911C9113970115110541F1D801ED91A4
:10526000FC910190F081E02DBE016B5E7F4FC80183
:105270000995811117C0F80100851185ECCF113017
:1052800009F44EC0133091F48F89882309F445C086
:10529000823081F440E860E181EC91E00E943D21A0
:1052A000882321F08EEF8093E80079C081E280931B
:1052B000EB0075C0813029F440E86BE085EB91E0AC
:1052C000EDCF833099F70E944A2ADC011296ED90C7
:1052D000FC9013978E010F5F1F4F6801E114F104DA
:1052E00079F0D701ED91FC910680F781E02DB801AE
:1052F000C7010995080F111DF701E084F184EECF75
:10530000D8011C92F60101900020E9F73197BF0106
:105310006C197D0940E0C601C1CF6FE971E002C0A0
:1053200063EA71E06115710509F2FB01449150E0F7
:1053300080E840CF0FB6F894A8958091600088610E
:1053400080936000109260000FBEA895EE3F2AE0A7
:10535000F20739F08091FE0A9091FF0A91838083D1
:10536000A1CF1092FF0A1092FE0A9CCFEE3F8AE076
:10537000F80731F0808191819093FF0A8093FE0AB3
:1053800087E797E7918380839BE088E10FB6F894E5
:10539000A895809360000FBE9093600083CF6C96B9
:1053A0000FB6F894DEBF0FBECDBFDF91CF91FF9156
:1053B000EF91BF91AF919F918F917F916F915F918D
:1053C0004F913F912F911F910F91FF90EF90DF90A0
:1053D000CF900F900FBE0F901F901895BC010097B3
:1053E00091F0FC0101900020E9F73197AF01481BD3
:1053F000590BE091BF02F091C0020280F381E02DD1
:105400008FEB92E0099480E090E00895CF92DF92D4
:10541000EF92FF920E9418256B017C010E941825D3
:10542000DC01CB018C199D09AE09BF09883E934070
:10543000A105B10598F3FF90EF90DF90CF9008950C
:10544000FC018091BE02811103C08FEF9FEF089590
:105450009FB7F89482E08093E9002091F20030E059
:105460001216130614F421E030E02115310559F02D
:10547000289884E68093BD028091F100808380911A
:10548000F200882319F09FBFC90108958BE680932D
:10549000E800F9CF8091820581110DC082E08093F0
:1054A0007E0584E080937F0510928105109280052F
:1054B00081E0809382058EE795E00895CF93DF9396
:1054C000CDB7DEB7A1970FB6F894DEBF0FBECDBF44
:1054D000789484B5826084BD84B5816084BD85B5CF
:1054E000826085BD85B5816085BD80916E008160DB
:1054F00080936E0010928100809181008260809381
:105500008100809181008160809381008091800082
:1055100081608093800080919100826080939100EF
:1055200080919100816080939100809190008160D2
:10553000809390008091C10084608093C10080912D
:10554000C10082608093C1008091C100816080931E
:10555000C1008091C30081608093C3008091C0002E
:1055600082608093C0008091C20081608093C200FD
:1055700080917A00846080937A0080917A008260C2
:1055800080937A0080917A00816080937A00809184
:105590007A00806880937A001092BE02109299027D
:1055A000109294028091D70081608093D70080EAA6
:1055B0008093D80089B5806189BD89B5826089BD35
:1055C00009B400FEFDCF0E94062A8091D8008F7C8E
:1055D00080618093D8008091E000807F8093E0001C
:1055E0008091E1008E7E8093E1008DE08093E20067
:1055F000559A209AEEEFFFE7859194918B3F9C4D51
:1056000019F481E08093980261E085E10E94DC2436
:1056100061E085E10E94E02180917A0088608093BA
:105620007A0080917A00846080937A0080917A0079
:105630008D7F80937A0080917A008E7F80937A00AC
:1056400080E090E061E070E040917E009B01082ED8
:1056500001C0220F0A94EAF7242B20937E000196C2
:105660008C30910589F784B58093BC0285B5809311
:10567000BB0287B58093BA0280916E008093B90215
:1056800080E192E2909397028093960210929502A5
:1056900080E090E040E950ED63E070E0FC01EE5204
:1056A000FE4FE491EE2389F06A017B01082E04C0CD
:1056B000F694E794D794C7940A94D2F731E0C316CE
:1056C000D306E104F10408F465C201968B3091051C
:1056D00029F780916E00826080936E0084B580937C
:1056E000B80285B58093B70287B58093B6028091E2
:1056F0006E008093B5028091800080939D0280911E
:10570000810080939C028091880090918900809311
:105710009B0280916F0080939A0261E089E00E9471
:10572000DC2461E08AE00E94DC241092B00298E15F
:105730009093B10282E08093B202909381008093B3
:10574000800080E890E0A0E0B0E021E02093AD028E
:105750009093AC028093AB02909387008093860075
:1057600089E18093810061E089E00E94DC249091CE
:1057700080008091B202892B806880938000109213
:105780008900109288009091AD028091B102892B1E
:105790008093810061E08AE00E94DC249091800087
:1057A0008091B202892B80628093800010928B00DE
:1057B00010928A009091AD028091B102892B809362
:1057C0008100809180008093A1028091810080936C
:1057D000A002809188009091890080939F0280911F
:1057E0006F0080939E028091C0008093A4028091FC
:1057F000C1008093A4028091C2008093A402809192
:10580000C3008093A4028091C4008093A40280917D
:10581000D1008093A302809172008093A20219A20A
:1058200086E388A387E38F8F89E38E8FCE014E9620
:105830000E94EE2985E292E00E94EE2981E090E04C
:1058400021E030E040E050E0CC24D22EE32EF42ED4
:1058500060EDC61663E0D606E104F10450F0082FAF
:1058600060ED73E080E090E00E94BD2E1FEF120F0C
:1058700008C0220F331F441F551F01968131910527
:1058800019F71092C0001092C1001092C20010923D
:10589000C3001092C4001092BF001092BE0010937B
:1058A000D1000093C1008091A702811180E4809310
:1058B000720085E390E29093A6028093A50280E4B3
:1058C0008093720091E09093A70280937200809180
:1058D000C0008093AA028091C1008093AA028091A7
:1058E000C2008093AA028091C3008093AA02809193
:1058F000C4008093AA028091D1008093A902809174
:1059000072008093A8028BB18C6F8BB962E082E049
:105910000E94DC2462E083E00E94DC2462E084E0F8
:105920000E94DC2462E085E00E94DC2462E086E0E4
:105930000E94DC2462E087E00E94DC2461E08DE0CC
:105940000E94DC2461E088E00E94DC2461E088E0C1
:105950000E94E02160E088E00E94E02161E088E0B0
:105960000E94E02160E088E00E94E02161E088E0A0
:105970000E94E02160E088E00E94E02161E088E090
:105980000E94E02120E030E048E552E46091790592
:1059900070917A0580917B0590917C050E9418306A
:1059A0000E945B2F60937505709376058093770551
:1059B00090937805DD24D39400E010E090911E05CB
:1059C00080911D05981306C09091200580911F05B8
:1059D0009813D9C08EE595E00E94ED2640914B05C5
:1059E00050914C0560914D0570914E0580905A057F
:1059F00090905B05A0905C05B0905D0584169506BF
:105A0000A606B70628F590915505992309F4E2C03A
:105A100040904B0550904C0560904D0570904E05A0
:105A20004091560550915705609158057091590560
:105A3000440D551D661D771D481959096A097B09D2
:105A400040934B0550934C0560934D0570934E0564
:105A500040914B0550914C0560914D0570914E055C
:105A6000E0915305F0915405E60FF71FE491409142
:105A70004F055091500560915105709152058090ED
:105A80004B0590904C05A0904D05B0904E05480DEB
:105A9000591D6A1D7B1D40934B0550934C05609327
:105AA0004D0570934E050E2E000CFF0B7F01E80E86
:105AB000F11C87FDFA948091380590913905A091E9
:105AC0003A05B0913B0540914705509148056091DA
:105AD000490570914A05481759076A077B0708F47A
